{
  "_format": "hh-sol-artifact-1",
  "contractName": "MockCTF",
  "sourceName": "contracts/mocks/MockCTF.sol",
  "abi": [
    {
      "anonymous": false,
      "inputs": [
        {
          "indexed": true,
          "internalType": "address",
          "name": "collateralToken",
          "type": "address"
        },
        {
          "indexed": false,
          "internalType": "bytes32",
          "name": "parentCollectionId",
          "type": "bytes32"
        },
        {
          "indexed": true,
          "internalType": "bytes32",
          "name": "conditionId",
          "type": "bytes32"
        },
        {
          "indexed": false,
          "internalType": "uint256[]",
          "name": "partition",
          "type": "uint256[]"
        },
        {
          "indexed": false,
          "internalType": "uint256",
          "name": "amount",
          "type": "uint256"
        }
      ],
      "name": "PositionSplit",
      "type": "event"
    },
    {
      "inputs": [
        {
          "internalType": "address",
          "name": "collateralToken",
          "type": "address"
        },
        {
          "internalType": "bytes32",
          "name": "parentCollectionId",
          "type": "bytes32"
        },
        {
          "internalType": "bytes32",
          "name": "conditionId",
          "type": "bytes32"
        },
        {
          "internalType": "uint256[]",
          "name": "partition",
          "type": "uint256[]"
        },
        {
          "internalType": "uint256",
          "name": "amount",
          "type": "uint256"
        }
      ],
      "name": "splitPosition",
      "outputs": [],
      "stateMutability": "nonpayable",
      "type": "function"
    }
  ],
  "bytecode": "0x608060405234801561000f575f80fd5b5061024e8061001d5f395ff3fe608060405234801561000f575f80fd5b5060043610610029575f3560e01c806372ce42751461002d575b5f80fd5b61004061003b366004610107565b610042565b005b6040516323b872dd60e01b8152336004820152306024820152604481018290526001600160a01b038716906323b872dd906064016020604051808303815f875af1158015610092573d5f803e3d5ffd5b505050506040513d601f19601f820116820180604052508101906100b691906101ae565b5083866001600160a01b03167f836505f07e172b9429afe656f4c31548d75119ed6f04bfb1752aa5bf161145b4878686866040516100f794939291906101d4565b60405180910390a3505050505050565b5f805f805f8060a0878903121561011c575f80fd5b86356001600160a01b0381168114610132575f80fd5b95506020870135945060408701359350606087013567ffffffffffffffff8082111561015c575f80fd5b818901915089601f83011261016f575f80fd5b81358181111561017d575f80fd5b8a60208260051b8501011115610191575f80fd5b602083019550809450505050608087013590509295509295509295565b5f602082840312156101be575f80fd5b815180151581146101cd575f80fd5b9392505050565b84815260606020820181905281018390525f6001600160fb1b038411156101f9575f80fd5b8360051b8086608085013760408301939093525001608001939250505056fea2646970667358221220549f108082dd1330f5afc0b43be398689cc159e3200c5d026fa4847a50643db064736f6c63430008180033",
  "linkReferences": {},
  "deployedLinkReferences": {}
}