{
  "_format": "hh-sol-artifact-1",
  "contractName": "BrierVaultFactory",
  "sourceName": "contracts/BrierVaultFactory.sol",
  "abi": [
    {
      "inputs": [
        {
          "internalType": "address",
          "name": "_vaultImplementation",
          "type": "address"
        },
        {
          "internalType": "address",
          "name": "_gnosisSafeAdmin",
          "type": "address"
        }
      ],
      "stateMutability": "nonpayable",
      "type": "constructor"
    },
    {
      "inputs": [],
      "name": "ERC1167FailedCreateClone",
      "type": "error"
    },
    {
      "inputs": [
        {
          "internalType": "address",
          "name": "owner",
          "type": "address"
        }
      ],
      "name": "OwnableInvalidOwner",
      "type": "error"
    },
    {
      "inputs": [
        {
          "internalType": "address",
          "name": "account",
          "type": "address"
        }
      ],
      "name": "OwnableUnauthorizedAccount",
      "type": "error"
    },
    {
      "anonymous": false,
      "inputs": [
        {
          "indexed": true,
          "internalType": "address",
          "name": "previousOwner",
          "type": "address"
        },
        {
          "indexed": true,
          "internalType": "address",
          "name": "newOwner",
          "type": "address"
        }
      ],
      "name": "OwnershipTransferred",
      "type": "event"
    },
    {
      "anonymous": false,
      "inputs": [
        {
          "indexed": false,
          "internalType": "string",
          "name": "botId",
          "type": "string"
        },
        {
          "indexed": false,
          "internalType": "address",
          "name": "vaultAddress",
          "type": "address"
        }
      ],
      "name": "VaultDeployed",
      "type": "event"
    },
    {
      "inputs": [
        {
          "internalType": "string",
          "name": "botId",
          "type": "string"
        },
        {
          "internalType": "contract IERC20",
          "name": "asset",
          "type": "address"
        },
        {
          "internalType": "string",
          "name": "vaultName",
          "type": "string"
        },
        {
          "internalType": "string",
          "name": "vaultSymbol",
          "type": "string"
        },
        {
          "internalType": "address",
          "name": "brierDaemon",
          "type": "address"
        },
        {
          "internalType": "address",
          "name": "builderWallet",
          "type": "address"
        },
        {
          "internalType": "address",
          "name": "polymarketCTF",
          "type": "address"
        },
        {
          "internalType": "address",
          "name": "gnosisSafeAdmin",
          "type": "address"
        },
        {
          "internalType": "address",
          "name": "feeRecipient",
          "type": "address"
        },
        {
          "internalType": "uint256",
          "name": "maxCapacity",
          "type": "uint256"
        },
        {
          "internalType": "uint256",
          "name": "skinInGameAmount",
          "type": "uint256"
        }
      ],
      "name": "deployVault",
      "outputs": [
        {
          "internalType": "address",
          "name": "",
          "type": "address"
        }
      ],
      "stateMutability": "nonpayable",
      "type": "function"
    },
    {
      "inputs": [],
      "name": "owner",
      "outputs": [
        {
          "internalType": "address",
          "name": "",
          "type": "address"
        }
      ],
      "stateMutability": "view",
      "type": "function"
    },
    {
      "inputs": [],
      "name": "renounceOwnership",
      "outputs": [],
      "stateMutability": "nonpayable",
      "type": "function"
    },
    {
      "inputs": [
        {
          "internalType": "address",
          "name": "newOwner",
          "type": "address"
        }
      ],
      "name": "transferOwnership",
      "outputs": [],
      "stateMutability": "nonpayable",
      "type": "function"
    },
    {
      "inputs": [],
      "name": "vaultImplementation",
      "outputs": [
        {
          "internalType": "address",
          "name": "",
          "type": "address"
        }
      ],
      "stateMutability": "view",
      "type": "function"
    }
  ],
  "bytecode": "0x60a060405234801561000f575f80fd5b5060405161078b38038061078b83398101604081905261002e9161014b565b806001600160a01b03811661005d57604051631e4fbdf760e01b81525f60048201526024015b60405180910390fd5b610066816100e1565b506001600160a01b0382166100cf5760405162461bcd60e51b815260206004820152602960248201527f42726965725661756c74466163746f72793a20696d706c656d656e746174696f6044820152686e206973207a65726f60b81b6064820152608401610054565b506001600160a01b031660805261017c565b5f80546001600160a01b038381166001600160a01b0319831681178455604051919092169283917f8be0079c531659141344cd1fd0a4f28419497f9722a3daafe3b4186f6b6457e09190a35050565b80516001600160a01b0381168114610146575f80fd5b919050565b5f806040838503121561015c575f80fd5b61016583610130565b915061017360208401610130565b90509250929050565b6080516105f26101995f395f818160a3015260fa01526105f25ff3fe608060405234801561000f575f80fd5b5060043610610055575f3560e01c8063715018a6146100595780638da5cb5b14610063578063a81bd1871461008b578063bba48a901461009e578063f2fde38b146100c5575b5f80fd5b6100616100d8565b005b5f546001600160a01b03165b6040516001600160a01b03909116815260200160405180910390f35b61006f6100993660046103bd565b6100eb565b61006f7f000000000000000000000000000000000000000000000000000000000000000081565b6100616100d33660046104b7565b6101d5565b6100e0610217565b6100e95f610243565b565b5f6100f4610217565b5f61011e7f0000000000000000000000000000000000000000000000000000000000000000610292565b604051638152a05f60e01b81529091506001600160a01b03821690638152a05f9061015f908f908f908f908f908f908f908f908f908f908f9060040161051c565b5f604051808303815f87803b158015610176575f80fd5b505af1158015610188573d5f803e3d5ffd5b505050507f08f24f52434ae7f88ddb29d10f5cbfd85f890eaf746af98d169f05ebd1386b6e8d826040516101bd929190610593565b60405180910390a19c9b505050505050505050505050565b6101dd610217565b6001600160a01b03811661020b57604051631e4fbdf760e01b81525f60048201526024015b60405180910390fd5b61021481610243565b50565b5f546001600160a01b031633146100e95760405163118cdaa760e01b8152336004820152602401610202565b5f80546001600160a01b038381166001600160a01b0319831681178455604051919092169283917f8be0079c531659141344cd1fd0a4f28419497f9722a3daafe3b4186f6b6457e09190a35050565b5f763d602d80600a3d3981f3363d3d373d3d3d363d730000008260601b60e81c175f526e5af43d82803e903d91602b57fd5bf38260781b17602052603760095ff090506001600160a01b0381166102fc576040516330be1a3d60e21b815260040160405180910390fd5b919050565b634e487b7160e01b5f52604160045260245ffd5b5f82601f830112610324575f80fd5b813567ffffffffffffffff8082111561033f5761033f610301565b604051601f8301601f19908116603f0116810190828211818310171561036757610367610301565b8160405283815286602085880101111561037f575f80fd5b836020870160208301375f602085830101528094505050505092915050565b6001600160a01b0381168114610214575f80fd5b80356102fc8161039e565b5f805f805f805f805f805f6101608c8e0312156103d8575f80fd5b67ffffffffffffffff808d3511156103ee575f80fd5b6103fb8e8e358f01610315565b9b5061040960208e016103b2565b9a508060408e0135111561041b575f80fd5b61042b8e60408f01358f01610315565b99508060608e0135111561043d575f80fd5b5061044e8d60608e01358e01610315565b975061045c60808d016103b2565b965061046a60a08d016103b2565b955061047860c08d016103b2565b945061048660e08d016103b2565b93506104956101008d016103b2565b92506101208c013591506101408c013590509295989b509295989b9093969950565b5f602082840312156104c7575f80fd5b81356104d28161039e565b9392505050565b5f81518084525f5b818110156104fd576020818501810151868301820152016104e1565b505f602082860101526020601f19601f83011685010191505092915050565b6001600160a01b038b81168252610140602083018190525f916105418483018e6104d9565b91508382036040850152610555828d6104d9565b9a811660608501529889166080840152505094861660a086015292851660c0850152931660e083015261010082019290925261012001529392505050565b604081525f6105a560408301856104d9565b905060018060a01b0383166020830152939250505056fea264697066735822122003a2eed17740f5df65e5b8002650772f72205f7705c5d432f633cd5c2730011f64736f6c63430008180033",
  "linkReferences": {},
  "deployedLinkReferences": {}
}