{"contracts/BrierFactory.sol":{"BrierFactory":{"abi":[{"inputs":[{"internalType":"address","name":"_usdcToken","type":"address"},{"internalType":"address","name":"_brierDaemon","type":"address"},{"internalType":"address","name":"_polymarketCTF","type":"address"}],"stateMutability":"nonpayable","type":"constructor"},{"inputs":[{"internalType":"address","name":"owner","type":"address"}],"name":"OwnableInvalidOwner","type":"error"},{"inputs":[{"internalType":"address","name":"account","type":"address"}],"name":"OwnableUnauthorizedAccount","type":"error"},{"anonymous":false,"inputs":[{"indexed":true,"internalType":"address","name":"previousOwner","type":"address"},{"indexed":true,"internalType":"address","name":"newOwner","type":"address"}],"name":"OwnershipTransferred","type":"event"},{"anonymous":false,"inputs":[{"indexed":true,"internalType":"address","name":"vaultAddress","type":"address"},{"indexed":true,"internalType":"address","name":"builderWallet","type":"address"},{"indexed":false,"internalType":"string","name":"botId","type":"string"}],"name":"VaultDeployed","type":"event"},{"inputs":[{"internalType":"uint256","name":"","type":"uint256"}],"name":"allVaults","outputs":[{"internalType":"address","name":"","type":"address"}],"stateMutability":"view","type":"function"},{"inputs":[],"name":"brierDaemon","outputs":[{"internalType":"address","name":"","type":"address"}],"stateMutability":"view","type":"function"},{"inputs":[{"internalType":"address","name":"builderWallet","type":"address"},{"internalType":"string","name":"botId","type":"string"},{"internalType":"string","name":"vaultName","type":"string"},{"internalType":"string","name":"vaultSymbol","type":"string"}],"name":"deployVault","outputs":[{"internalType":"address","name":"","type":"address"}],"stateMutability":"nonpayable","type":"function"},{"inputs":[],"name":"getVaultsCount","outputs":[{"internalType":"uint256","name":"","type":"uint256"}],"stateMutability":"view","type":"function"},{"inputs":[{"internalType":"address","name":"","type":"address"}],"name":"isBrierVault","outputs":[{"internalType":"bool","name":"","type":"bool"}],"stateMutability":"view","type":"function"},{"inputs":[],"name":"owner","outputs":[{"internalType":"address","name":"","type":"address"}],"stateMutability":"view","type":"function"},{"inputs":[],"name":"polymarketCTF","outputs":[{"internalType":"address","name":"","type":"address"}],"stateMutability":"view","type":"function"},{"inputs":[],"name":"renounceOwnership","outputs":[],"stateMutability":"nonpayable","type":"function"},{"inputs":[{"internalType":"address","name":"_newDaemon","type":"address"}],"name":"setDaemon","outputs":[],"stateMutability":"nonpayable","type":"function"},{"inputs":[{"internalType":"address","name":"newOwner","type":"address"}],"name":"transferOwnership","outputs":[],"stateMutability":"nonpayable","type":"function"},{"inputs":[],"name":"usdcToken","outputs":[{"internalType":"contract IERC20","name":"","type":"address"}],"stateMutability":"view","type":"function"}],"evm":{"bytecode":{"linkReferences":{},"object":"60a060405234801561000f575f80fd5b506040516128df3803806128df83398101604081905261002e916100fd565b338061005357604051631e4fbdf760e01b81525f600482015260240160405180910390fd5b61005c81610093565b506001600160a01b03928316608052600180549284166001600160a01b03199384161790556002805491909316911617905561013d565b5f80546001600160a01b038381166001600160a01b0319831681178455604051919092169283917f8be0079c531659141344cd1fd0a4f28419497f9722a3daafe3b4186f6b6457e09190a35050565b80516001600160a01b03811681146100f8575f80fd5b919050565b5f805f6060848603121561010f575f80fd5b610118846100e2565b9250610126602085016100e2565b9150610134604085016100e2565b90509250925092565b60805161278461015b5f395f818160be015261023701526127845ff3fe608060405234801562000010575f80fd5b5060043610620000b4575f3560e01c80638da5cb5b11620000775780638da5cb5b146200014b5780639094a91e146200015c57806396fa7b381462000173578063b9b658db14620001a9578063f2fde38b14620001bb578063ffb1ca8014620001d2575f80fd5b806311eac85514620000b8578063401dbe2314620000fd578063715018a6146200011657806377eb4e2314620001205780638661ab6c1462000134575b5f80fd5b620000e07f000000000000000000000000000000000000000000000000000000000000000081565b6040516001600160a01b0390911681526020015b60405180910390f35b620001146200010e366004620004a7565b620001e6565b005b6200011462000212565b600254620000e0906001600160a01b031681565b620000e06200014536600462000512565b62000229565b5f546001600160a01b0316620000e0565b620000e06200016d366004620005c1565b62000390565b6200019862000184366004620004a7565b60046020525f908152604090205460ff1681565b6040519015158152602001620000f4565b600354604051908152602001620000f4565b62000114620001cc366004620004a7565b620003b9565b600154620000e0906001600160a01b031681565b620001f062000400565b600180546001600160a01b0319166001600160a01b0392909216919091179055565b6200021c62000400565b620002275f6200042e565b565b5f6200023462000400565b5f7f00000000000000000000000000000000000000000000000000000000000000008686868660015f9054906101000a90046001600160a01b03168e60025f9054906101000a90046001600160a01b0316620002975f546001600160a01b031690565b6103e8604051620002a8906200047d565b620002bd9a9998979695949392919062000601565b604051809103905ff080158015620002d7573d5f803e3d5ffd5b506003805460018082019092557fc2575a0e9e593c00f959f8c92f12db2869c3395a3b0502d05e2516446f71f85b0180546001600160a01b0319166001600160a01b038481169182179092555f8181526004602052604090819020805460ff191690941790935591519293508392908c1691907fb2e029ab52a406bb52fae42d1d1e5dca2793900c250a242af032038b02eb8659906200037b908d908d906200066e565b60405180910390a39998505050505050505050565b60038181548110620003a0575f80fd5b5f918252602090912001546001600160a01b0316905081565b620003c362000400565b6001600160a01b038116620003f257604051631e4fbdf760e01b81525f60048201526024015b60405180910390fd5b620003fd816200042e565b50565b5f546001600160a01b03163314620002275760405163118cdaa760e01b8152336004820152602401620003e9565b5f80546001600160a01b038381166001600160a01b0319831681178455604051919092169283917f8be0079c531659141344cd1fd0a4f28419497f9722a3daafe3b4186f6b6457e09190a35050565b6120c3806200068c83390190565b80356001600160a01b0381168114620004a2575f80fd5b919050565b5f60208284031215620004b8575f80fd5b620004c3826200048b565b9392505050565b5f8083601f840112620004db575f80fd5b50813567ffffffffffffffff811115620004f3575f80fd5b6020830191508360208285010111156200050b575f80fd5b9250929050565b5f805f805f805f6080888a03121562000529575f80fd5b62000534886200048b565b9650602088013567ffffffffffffffff8082111562000551575f80fd5b6200055f8b838c01620004ca565b909850965060408a013591508082111562000578575f80fd5b620005868b838c01620004ca565b909650945060608a01359150808211156200059f575f80fd5b50620005ae8a828b01620004ca565b989b979a50959850939692959293505050565b5f60208284031215620005d2575f80fd5b5035919050565b81835281816020850137505f828201602090810191909152601f909101601f19169091010190565b6001600160a01b038b81168252610100602083018190525f91620006298483018d8f620005d9565b9150838203604085015262000640828b8d620005d9565b98811660608501529687166080840152505092841660a0840152921660c082015260e0015295945050505050565b602081525f62000683602083018486620005d9565b94935050505056fe60c060405234801562000010575f80fd5b50604051620020c3380380620020c38339810160408190526200003391620002f9565b8188888860036200004583826200045d565b5060046200005482826200045d565b5050505f806200006a836200011560201b60201c565b91509150816200007c5760126200007e565b805b60ff1660a05250506001600160a01b039081166080528116620000ba57604051631e4fbdf760e01b81525f600482015260240160405180910390fd5b620000c581620001ae565b50600680546001600160a01b03199081166001600160a01b03978816179091556008805482169587169590951790945560078054909416929094169190911790915550600a555062000529915050565b5f80806200012260405190565b6040805160048152602481019091526020810180516001600160e01b0390811663313ce56760e01b179091529192505f9182916200016491889190620001ff16565b5090925090506200017483604052565b81801562000183575060203d10155b801562000191575060ff8111155b6200019e575f80620001a2565b6001815b94509450505050915091565b600580546001600160a01b038381166001600160a01b0319831681179093556040519116919082907f8be0079c531659141344cd1fd0a4f28419497f9722a3daafe3b4186f6b6457e0905f90a35050565b5f805f60405f855160208701885afa92505f51915060205190509250925092565b6001600160a01b038116811462000235575f80fd5b50565b634e487b7160e01b5f52604160045260245ffd5b5f82601f8301126200025c575f80fd5b81516001600160401b038082111562000279576200027962000238565b604051601f8301601f19908116603f01168101908282118183101715620002a457620002a462000238565b8160405283815260209250866020858801011115620002c1575f80fd5b5f91505b83821015620002e45785820183015181830184015290820190620002c5565b5f602085830101528094505050505092915050565b5f805f805f805f80610100898b03121562000312575f80fd5b88516200031f8162000220565b60208a01519098506001600160401b03808211156200033c575f80fd5b6200034a8c838d016200024c565b985060408b015191508082111562000360575f80fd5b506200036f8b828c016200024c565b9650506060890151620003828162000220565b60808a0151909550620003958162000220565b60a08a0151909450620003a88162000220565b60c08a0151909350620003bb8162000220565b8092505060e089015190509295985092959890939650565b600181811c90821680620003e857607f821691505b6020821081036200040757634e487b7160e01b5f52602260045260245ffd5b50919050565b601f8211156200045857805f5260205f20601f840160051c81016020851015620004345750805b601f840160051c820191505b8181101562000455575f815560010162000440565b50505b505050565b81516001600160401b0381111562000479576200047962000238565b62000491816200048a8454620003d3565b846200040d565b602080601f831160018114620004c7575f8415620004af5750858301515b5f19600386901b1c1916600185901b17855562000521565b5f85815260208120601f198616915b82811015620004f757888601518255948401946001909101908401620004d6565b50858210156200051557878501515f19600388901b60f8161c191681555b505060018460011b0185555b505050505050565b60805160a051611b4e620005755f395f61094a01525f81816103080152818161053c01528181610731015281816107d401528181610bc00152818161131e01526114250152611b4e5ff3fe608060405234801561000f575f80fd5b506004361061023f575f3560e01c80638456cb5911610135578063ba087652116100b4578063dd62ed3e11610079578063dd62ed3e146104c8578063ddb0adf714610500578063ef8b30f71461048f578063f2fde38b14610513578063ffb1ca8014610526575f80fd5b8063ba0876521461047c578063c63d75b61461035b578063c6e6f5921461048f578063ce96cb77146104a2578063d905777e146104b5575f80fd5b8063a9059cbb116100fa578063a9059cbb14610427578063b364b4da1461043a578063b3d7f6b91461044d578063b460af9414610460578063b9d4e87914610473575f80fd5b80638456cb59146103ea57806386001519146103f25780638da5cb5b146103fb57806394bf804d1461040c57806395d89b411461041f575f80fd5b80633f4ba83a116101c15780636e553f65116101865780636e553f651461038157806370897b231461039457806370a08231146103a7578063715018a6146103cf57806377eb4e23146103d7575f80fd5b80633f4ba83a14610340578063401dbe2314610348578063402d267d1461035b5780634cdad506146102735780635c975abb1461036f575f80fd5b806318160ddd1161020757806318160ddd146102bc5780631b1065fb146102c457806323b872dd146102d9578063313ce567146102ec57806338d52e0f14610306575f80fd5b806301e1d1141461024357806306fdde031461025e57806307a2d13a14610273578063095ea7b3146102865780630a28a477146102a9575b5f80fd5b61024b610539565b6040519081526020015b60405180910390f35b6102666105c8565b6040516102559190611609565b61024b61028136600461163b565b610658565b61029961029436600461166d565b610669565b6040519015158152602001610255565b61024b6102b736600461163b565b610680565b60025461024b565b6102d76102d2366004611695565b61068c565b005b6102996102e7366004611713565b61091e565b6102f4610943565b60405160ff9091168152602001610255565b7f00000000000000000000000000000000000000000000000000000000000000005b6040516001600160a01b039091168152602001610255565b6102d761096e565b6102d761035636600461174c565b610980565b61024b61036936600461174c565b505f1990565b600554600160a01b900460ff16610299565b61024b61038f366004611765565b6109aa565b6102d76103a236600461163b565b6109bd565b61024b6103b536600461174c565b6001600160a01b03165f9081526020819052604090205490565b6102d7610a1c565b600754610328906001600160a01b031681565b6102d7610a2d565b61024b60095481565b6005546001600160a01b0316610328565b61024b61041a366004611765565b610a3d565b610266610a50565b61029961043536600461166d565b610a5f565b600854610328906001600160a01b031681565b61024b61045b36600461163b565b610a6c565b61024b61046e36600461178f565b610a78565b61024b600a5481565b61024b61048a36600461178f565b610ace565b61024b61049d36600461163b565b610b1b565b61024b6104b036600461174c565b610b26565b61024b6104c336600461174c565b610b2f565b61024b6104d63660046117c8565b6001600160a01b039182165f90815260016020908152604080832093909416825291909152205490565b6102d761050e3660046117f0565b610b4c565b6102d761052136600461174c565b610c99565b600654610328906001600160a01b031681565b5f7f00000000000000000000000000000000000000000000000000000000000000006040516370a0823160e01b81523060048201526001600160a01b0391909116906370a0823190602401602060405180830381865afa15801561059f573d5f803e3d5ffd5b505050506040513d601f19601f820116820180604052508101906105c39190611819565b905090565b6060600380546105d790611830565b80601f016020809104026020016040519081016040528092919081815260200182805461060390611830565b801561064e5780601f106106255761010080835404028352916020019161064e565b820191905f5260205f20905b81548152906001019060200180831161063157829003601f168201915b5050505050905090565b5f610663825f610cd6565b92915050565b5f33610676818585610d0e565b5060019392505050565b5f610663826001610d1b565b6006546001600160a01b031633146106bf5760405162461bcd60e51b81526004016106b690611868565b60405180910390fd5b6106c7610d4a565b6106cf610539565b81111561072f5760405162461bcd60e51b815260206004820152602860248201527f42726965725661756c743a20496e73756666696369656e74207661756c74206c604482015267697175696469747960c01b60648201526084016106b6565b7f000000000000000000000000000000000000000000000000000000000000000060075460405163095ea7b360e01b81526001600160a01b0391821660048201526024810184905291169063095ea7b3906044016020604051808303815f875af115801561079f573d5f803e3d5ffd5b505050506040513d601f19601f820116820180604052508101906107c391906118ac565b506007545f906001600160a01b03167f000000000000000000000000000000000000000000000000000000000000000060405161080d91905f9089908990899089906024016118cb565b60408051601f198184030181529181526020820180516001600160e01b03166372ce427560e01b179052516108429190611928565b5f604051808303815f865af19150503d805f811461087b576040519150601f19603f3d011682016040523d82523d5f602084013e610880565b606091505b50509050806108dd5760405162461bcd60e51b8152602060048201526024808201527f42726965725661756c743a204354462073706c6974506f736974696f6e2066616044820152631a5b195960e21b60648201526084016106b6565b847f5933a51e3f187adbd3f927aa2f3f7aec185b35615022dcf9b92e3e01784b88928360405161090f91815260200190565b60405180910390a25050505050565b5f3361092b858285610d75565b610936858585610dde565b60019150505b9392505050565b5f6105c3817f0000000000000000000000000000000000000000000000000000000000000000611957565b610976610e3b565b61097e610e68565b565b610988610e3b565b600680546001600160a01b0319166001600160a01b0392909216919091179055565b5f6109b3610d4a565b61093c8383610ebd565b6109c5610e3b565b611388811115610a175760405162461bcd60e51b815260206004820152601860248201527f42726965725661756c743a2046656520746f6f2068696768000000000000000060448201526064016106b6565b600a55565b610a24610e3b565b61097e5f610ee0565b610a35610e3b565b61097e610f31565b5f610a46610d4a565b61093c8383610f74565b6060600480546105d790611830565b5f33610676818585610dde565b5f610663826001610cd6565b5f80610a8383610b26565b905080851115610aac57828582604051633fa733bb60e21b81526004016106b693929190611970565b5f610ab686610680565b9050610ac53386868985610f8f565b95945050505050565b5f80610ad983610b2f565b905080851115610b0257828582604051632e52afbb60e21b81526004016106b693929190611970565b5f610b0c86610658565b9050610ac5338686848a610f8f565b5f610663825f610d1b565b5f610663610281835b6001600160a01b0381165f90815260208190526040812054610663565b6006546001600160a01b03163314610b765760405162461bcd60e51b81526004016106b690611868565b81811115610c94575f610b898383611991565b90505f612710600a5483610b9d91906119a4565b610ba791906119cf565b90508160095f828254610bba91906119e2565b909155507f0000000000000000000000000000000000000000000000000000000000000000905060085460405163a9059cbb60e01b81526001600160a01b0391821660048201526024810184905291169063a9059cbb906044016020604051808303815f875af1158015610c30573d5f803e3d5ffd5b505050506040513d601f19601f82011682018060405250810190610c5491906118ac565b506008546040518281526001600160a01b03909116907fafdbf88d8a6e3bd4dbd770e775c7e168f61db74aea5e21852ac1061bf1cb625d9060200161090f565b505050565b610ca1610e3b565b6001600160a01b038116610cca57604051631e4fbdf760e01b81525f60048201526024016106b6565b610cd381610ee0565b50565b5f61093c610ce2610539565b610ced9060016119e2565b610cf85f600a611ad5565b600254610d0591906119e2565b8591908561102e565b610c948383836001611070565b5f61093c610d2a82600a611ad5565b600254610d3791906119e2565b610d3f610539565b610d059060016119e2565b600554600160a01b900460ff161561097e5760405163d93c066560e01b815260040160405180910390fd5b6001600160a01b038381165f908152600160209081526040808320938616835292905220545f19811015610dd85781811015610dca57828183604051637dc7a0d960e11b81526004016106b693929190611970565b610dd884848484035f611070565b50505050565b6001600160a01b038316610e0757604051634b637e8f60e11b81525f60048201526024016106b6565b6001600160a01b038216610e305760405163ec442f0560e01b81525f60048201526024016106b6565b610c94838383611142565b6005546001600160a01b0316331461097e5760405163118cdaa760e01b81523360048201526024016106b6565b610e70611255565b6005805460ff60a01b191690557f5db9ee0a495bf2e6ff9c91a7834c1ba4fdd244a5e8aa4e537bd38aeae4b073aa335b6040516001600160a01b03909116815260200160405180910390a1565b5f5f195f610eca85610b1b565b9050610ed83385878461127f565b949350505050565b600580546001600160a01b038381166001600160a01b0319831681179093556040519116919082907f8be0079c531659141344cd1fd0a4f28419497f9722a3daafe3b4186f6b6457e0905f90a35050565b610f39610d4a565b6005805460ff60a01b1916600160a01b1790557f62e78cea01bee320cd4e420270b5ea74000d11b0c9f74754ebdbfc544b05a258610ea03390565b5f5f195f610f8185610a6c565b9050610ed83385838861127f565b826001600160a01b0316856001600160a01b031614610fb357610fb3838683610d75565b610fbd83826112e1565b610fc78483611319565b826001600160a01b0316846001600160a01b0316866001600160a01b03167ffbde797d201c681b91056529119e0b02407c7bb96a4a2c75c01fc9667232c8db858560405161101f929190918252602082015260400190565b60405180910390a45050505050565b5f61105b61103b83611344565b801561105657505f8480611051576110516119bb565b868809115b151590565b611066868686611370565b610ac591906119e2565b6001600160a01b0384166110995760405163e602df0560e01b81525f60048201526024016106b6565b6001600160a01b0383166110c257604051634a1406b160e11b81525f60048201526024016106b6565b6001600160a01b038085165f9081526001602090815260408083209387168352929052208290558015610dd857826001600160a01b0316846001600160a01b03167f8c5be1e5ebec7d5bd14f71427d1e84f3dd0314c0f7b2291e5b200ac8c7c3b9258460405161113491815260200190565b60405180910390a350505050565b6001600160a01b03831661116c578060025f82825461116191906119e2565b909155506111c99050565b6001600160a01b0383165f90815260208190526040902054818110156111ab5783818360405163391434e360e21b81526004016106b693929190611970565b6001600160a01b0384165f9081526020819052604090209082900390555b6001600160a01b0382166111e557600280548290039055611203565b6001600160a01b0382165f9081526020819052604090208054820190555b816001600160a01b0316836001600160a01b03167fddf252ad1be2c89b69c2b068fc378daa952ba7f163c4a11628f55a4df523b3ef8360405161124891815260200190565b60405180910390a3505050565b600554600160a01b900460ff1661097e57604051638dfc202b60e01b815260040160405180910390fd5b6112898483611420565b611293838261144c565b826001600160a01b0316846001600160a01b03167fdcbc1c05240f31ff3ad067ef1ee35ce4997762752e3a095284754544f4c709d78484604051611134929190918252602082015260400190565b6001600160a01b03821661130a57604051634b637e8f60e11b81525f60048201526024016106b6565b611315825f83611142565b5050565b6113157f00000000000000000000000000000000000000000000000000000000000000008383611480565b5f600282600381111561135957611359611ae3565b6113639190611af7565b60ff166001149050919050565b5f805f61137d86866114b5565b91509150815f036113a157838181611397576113976119bb565b049250505061093c565b8184116113b8576113b860038515026011186114d1565b5f848688095f868103871696879004966002600389028118808a02820302808a02820302808a02820302808a02820302808a02820302808a02909103029181900381900460010185841190960395909502919093039390930492909217029150509392505050565b6113157f00000000000000000000000000000000000000000000000000000000000000008330846114e2565b6001600160a01b0382166114755760405163ec442f0560e01b81525f60048201526024016106b6565b6113155f8383611142565b61148d8383836001611518565b610c9457604051635274afe760e01b81526001600160a01b03841660048201526024016106b6565b5f805f1983850993909202808410938190039390930393915050565b634e487b715f52806020526024601cfd5b6114f084848484600161157a565b610dd857604051635274afe760e01b81526001600160a01b03851660048201526024016106b6565b60405163a9059cbb60e01b5f8181526001600160a01b038616600452602485905291602083604481808b5af1925060015f5114831661156e578383151615611562573d5f823e3d81fd5b5f873b113d1516831692505b60405250949350505050565b6040516323b872dd60e01b5f8181526001600160a01b038781166004528616602452604485905291602083606481808c5af1925060015f511483166115d65783831516156115ca573d5f823e3d81fd5b5f883b113d1516831692505b604052505f60605295945050505050565b5f5b838110156116015781810151838201526020016115e9565b50505f910152565b602081525f82518060208401526116278160408501602087016115e7565b601f01601f19169190910160400192915050565b5f6020828403121561164b575f80fd5b5035919050565b80356001600160a01b0381168114611668575f80fd5b919050565b5f806040838503121561167e575f80fd5b61168783611652565b946020939093013593505050565b5f805f80606085870312156116a8575f80fd5b84359350602085013567ffffffffffffffff808211156116c6575f80fd5b818701915087601f8301126116d9575f80fd5b8135818111156116e7575f80fd5b8860208260051b85010111156116fb575f80fd5b95986020929092019750949560400135945092505050565b5f805f60608486031215611725575f80fd5b61172e84611652565b925061173c60208501611652565b9150604084013590509250925092565b5f6020828403121561175c575f80fd5b61093c82611652565b5f8060408385031215611776575f80fd5b8235915061178660208401611652565b90509250929050565b5f805f606084860312156117a1575f80fd5b833592506117b160208501611652565b91506117bf60408501611652565b90509250925092565b5f80604083850312156117d9575f80fd5b6117e283611652565b915061178660208401611652565b5f805f60608486031215611802575f80fd5b505081359360208301359350604090920135919050565b5f60208284031215611829575f80fd5b5051919050565b600181811c9082168061184457607f821691505b60208210810361186257634e487b7160e01b5f52602260045260245ffd5b50919050565b60208082526024908201527f42726965725661756c743a2043616c6c6572206973206e6f742074686520646160408201526332b6b7b760e11b606082015260800190565b5f602082840312156118bc575f80fd5b8151801515811461093c575f80fd5b6001600160a01b0387168152602081018690526040810185905260a06060820181905281018390525f6001600160fb1b03841115611907575f80fd5b8360051b808660c08501376080830193909352500160c00195945050505050565b5f82516119398184602087016115e7565b9190910192915050565b634e487b7160e01b5f52601160045260245ffd5b60ff818116838216019081111561066357610663611943565b6001600160a01b039390931683526020830191909152604082015260600190565b8181038181111561066357610663611943565b808202811582820484141761066357610663611943565b634e487b7160e01b5f52601260045260245ffd5b5f826119dd576119dd6119bb565b500490565b8082018082111561066357610663611943565b600181815b80851115611a2f57815f1904821115611a1557611a15611943565b80851615611a2257918102915b93841c93908002906119fa565b509250929050565b5f82611a4557506001610663565b81611a5157505f610663565b8160018114611a675760028114611a7157611a8d565b6001915050610663565b60ff841115611a8257611a82611943565b50506001821b610663565b5060208310610133831016604e8410600b8410161715611ab0575081810a610663565b611aba83836119f5565b805f1904821115611acd57611acd611943565b029392505050565b5f61093c60ff841683611a37565b634e487b7160e01b5f52602160045260245ffd5b5f60ff831680611b0957611b096119bb565b8060ff8416069150509291505056fea2646970667358221220614881e92c2d66d728c757a08a511dff552891c847c1ad8543ad50a6acc6789564736f6c63430008180033a2646970667358221220174f2383565e8752a3d4dad3e035754b267aaf052c9d9cb6554ca87ce8f759c764736f6c63430008180033","opcodes":"PUSH1 0xA0 PUSH1 0x40 MSTORE CALLVALUE DUP1 ISZERO PUSH2 0xF JUMPI PUSH0 DUP1 REVERT JUMPDEST POP PUSH1 0x40 MLOAD PUSH2 0x28DF CODESIZE SUB DUP1 PUSH2 0x28DF DUP4 CODECOPY DUP2 ADD PUSH1 0x40 DUP2 SWAP1 MSTORE PUSH2 0x2E SWAP2 PUSH2 0xFD JUMP JUMPDEST CALLER DUP1 PUSH2 0x53 JUMPI PUSH1 0x40 MLOAD PUSH4 0x1E4FBDF7 PUSH1 0xE0 SHL DUP2 MSTORE PUSH0 PUSH1 0x4 DUP3 ADD MSTORE PUSH1 0x24 ADD PUSH1 0x40 MLOAD DUP1 SWAP2 SUB SWAP1 REVERT JUMPDEST PUSH2 0x5C DUP2 PUSH2 0x93 JUMP JUMPDEST POP PUSH1 0x1 PUSH1 0x1 PUSH1 0xA0 SHL SUB SWAP3 DUP4 AND PUSH1 0x80 MSTORE PUSH1 0x1 DUP1 SLOAD SWAP3 DUP5 AND PUSH1 0x1 PUSH1 0x1 PUSH1 0xA0 SHL SUB NOT SWAP4 DUP5 AND OR SWAP1 SSTORE PUSH1 0x2 DUP1 SLOAD SWAP2 SWAP1 SWAP4 AND SWAP2 AND OR SWAP1 SSTORE PUSH2 0x13D JUMP JUMPDEST PUSH0 DUP1 SLOAD PUSH1 0x1 PUSH1 0x1 PUSH1 0xA0 SHL SUB DUP4 DUP2 AND PUSH1 0x1 PUSH1 0x1 PUSH1 0xA0 SHL SUB NOT DUP4 AND DUP2 OR DUP5 SSTORE PUSH1 0x40 MLOAD SWAP2 SWAP1 SWAP3 AND SWAP3 DUP4 SWAP2 PUSH32 0x8BE0079C531659141344CD1FD0A4F28419497F9722A3DAAFE3B4186F6B6457E0 SWAP2 SWAP1 LOG3 POP POP JUMP JUMPDEST DUP1 MLOAD PUSH1 0x1 PUSH1 0x1 PUSH1 0xA0 SHL SUB DUP2 AND DUP2 EQ PUSH2 0xF8 JUMPI PUSH0 DUP1 REVERT JUMPDEST SWAP2 SWAP1 POP JUMP JUMPDEST PUSH0 DUP1 PUSH0 PUSH1 0x60 DUP5 DUP7 SUB SLT ISZERO PUSH2 0x10F JUMPI PUSH0 DUP1 REVERT JUMPDEST PUSH2 0x118 DUP5 PUSH2 0xE2 JUMP JUMPDEST SWAP3 POP PUSH2 0x126 PUSH1 0x20 DUP6 ADD PUSH2 0xE2 JUMP JUMPDEST SWAP2 POP PUSH2 0x134 PUSH1 0x40 DUP6 ADD PUSH2 0xE2 JUMP JUMPDEST SWAP1 POP SWAP3 POP SWAP3 POP SWAP3 JUMP JUMPDEST PUSH1 0x80 MLOAD PUSH2 0x2784 PUSH2 0x15B PUSH0 CODECOPY PUSH0 DUP2 DUP2 PUSH1 0xBE ADD MSTORE PUSH2 0x237 ADD MSTORE PUSH2 0x2784 PUSH0 RETURN INVALID PUSH1 0x80 PUSH1 0x40 MSTORE CALLVALUE DUP1 ISZERO PUSH3 0x10 JUMPI PUSH0 DUP1 REVERT JUMPDEST POP PUSH1 0x4 CALLDATASIZE LT PUSH3 0xB4 JUMPI PUSH0 CALLDATALOAD PUSH1 0xE0 SHR DUP1 PUSH4 0x8DA5CB5B GT PUSH3 0x77 JUMPI DUP1 PUSH4 0x8DA5CB5B EQ PUSH3 0x14B JUMPI DUP1 PUSH4 0x9094A91E EQ PUSH3 0x15C JUMPI DUP1 PUSH4 0x96FA7B38 EQ PUSH3 0x173 JUMPI DUP1 PUSH4 0xB9B658DB EQ PUSH3 0x1A9 JUMPI DUP1 PUSH4 0xF2FDE38B EQ PUSH3 0x1BB JUMPI DUP1 PUSH4 0xFFB1CA80 EQ PUSH3 0x1D2 JUMPI PUSH0 DUP1 REVERT JUMPDEST DUP1 PUSH4 0x11EAC855 EQ PUSH3 0xB8 JUMPI DUP1 PUSH4 0x401DBE23 EQ PUSH3 0xFD JUMPI DUP1 PUSH4 0x715018A6 EQ PUSH3 0x116 JUMPI DUP1 PUSH4 0x77EB4E23 EQ PUSH3 0x120 JUMPI DUP1 PUSH4 0x8661AB6C EQ PUSH3 0x134 JUMPI JUMPDEST PUSH0 DUP1 REVERT JUMPDEST PUSH3 0xE0 PUSH32 0x0 DUP2 JUMP JUMPDEST PUSH1 0x40 MLOAD PUSH1 0x1 PUSH1 0x1 PUSH1 0xA0 SHL SUB SWAP1 SWAP2 AND DUP2 MSTORE PUSH1 0x20 ADD JUMPDEST PUSH1 0x40 MLOAD DUP1 SWAP2 SUB SWAP1 RETURN JUMPDEST PUSH3 0x114 PUSH3 0x10E CALLDATASIZE PUSH1 0x4 PUSH3 0x4A7 JUMP JUMPDEST PUSH3 0x1E6 JUMP JUMPDEST STOP JUMPDEST PUSH3 0x114 PUSH3 0x212 JUMP JUMPDEST PUSH1 0x2 SLOAD PUSH3 0xE0 SWAP1 PUSH1 0x1 PUSH1 0x1 PUSH1 0xA0 SHL SUB AND DUP2 JUMP JUMPDEST PUSH3 0xE0 PUSH3 0x145 CALLDATASIZE PUSH1 0x4 PUSH3 0x512 JUMP JUMPDEST PUSH3 0x229 JUMP JUMPDEST PUSH0 SLOAD PUSH1 0x1 PUSH1 0x1 PUSH1 0xA0 SHL SUB AND PUSH3 0xE0 JUMP JUMPDEST PUSH3 0xE0 PUSH3 0x16D CALLDATASIZE PUSH1 0x4 PUSH3 0x5C1 JUMP JUMPDEST PUSH3 0x390 JUMP JUMPDEST PUSH3 0x198 PUSH3 0x184 CALLDATASIZE PUSH1 0x4 PUSH3 0x4A7 JUMP JUMPDEST PUSH1 0x4 PUSH1 0x20 MSTORE PUSH0 SWAP1 DUP2 MSTORE PUSH1 0x40 SWAP1 KECCAK256 SLOAD PUSH1 0xFF AND DUP2 JUMP JUMPDEST PUSH1 0x40 MLOAD SWAP1 ISZERO ISZERO DUP2 MSTORE PUSH1 0x20 ADD PUSH3 0xF4 JUMP JUMPDEST PUSH1 0x3 SLOAD PUSH1 0x40 MLOAD SWAP1 DUP2 MSTORE PUSH1 0x20 ADD PUSH3 0xF4 JUMP JUMPDEST PUSH3 0x114 PUSH3 0x1CC CALLDATASIZE PUSH1 0x4 PUSH3 0x4A7 JUMP JUMPDEST PUSH3 0x3B9 JUMP JUMPDEST PUSH1 0x1 SLOAD PUSH3 0xE0 SWAP1 PUSH1 0x1 PUSH1 0x1 PUSH1 0xA0 SHL SUB AND DUP2 JUMP JUMPDEST PUSH3 0x1F0 PUSH3 0x400 JUMP JUMPDEST PUSH1 0x1 DUP1 SLOAD PUSH1 0x1 PUSH1 0x1 PUSH1 0xA0 SHL SUB NOT AND PUSH1 0x1 PUSH1 0x1 PUSH1 0xA0 SHL SUB SWAP3 SWAP1 SWAP3 AND SWAP2 SWAP1 SWAP2 OR SWAP1 SSTORE JUMP JUMPDEST PUSH3 0x21C PUSH3 0x400 JUMP JUMPDEST PUSH3 0x227 PUSH0 PUSH3 0x42E JUMP JUMPDEST JUMP JUMPDEST PUSH0 PUSH3 0x234 PUSH3 0x400 JUMP JUMPDEST PUSH0 PUSH32 0x0 DUP7 DUP7 DUP7 DUP7 PUSH1 0x1 PUSH0 SWAP1 SLOAD SWAP1 PUSH2 0x100 EXP SWAP1 DIV PUSH1 0x1 PUSH1 0x1 PUSH1 0xA0 SHL SUB AND DUP15 PUSH1 0x2 PUSH0 SWAP1 SLOAD SWAP1 PUSH2 0x100 EXP SWAP1 DIV PUSH1 0x1 PUSH1 0x1 PUSH1 0xA0 SHL SUB AND PUSH3 0x297 PUSH0 SLOAD PUSH1 0x1 PUSH1 0x1 PUSH1 0xA0 SHL SUB AND SWAP1 JUMP JUMPDEST PUSH2 0x3E8 PUSH1 0x40 MLOAD PUSH3 0x2A8 SWAP1 PUSH3 0x47D JUMP JUMPDEST PUSH3 0x2BD SWAP11 SWAP10 SWAP9 SWAP8 SWAP7 SWAP6 SWAP5 SWAP4 SWAP3 SWAP2 SWAP1 PUSH3 0x601 JUMP JUMPDEST PUSH1 0x40 MLOAD DUP1 SWAP2 SUB SWAP1 PUSH0 CREATE DUP1 ISZERO DUP1 ISZERO PUSH3 0x2D7 JUMPI RETURNDATASIZE PUSH0 DUP1 RETURNDATACOPY RETURNDATASIZE PUSH0 REVERT JUMPDEST POP PUSH1 0x3 DUP1 SLOAD PUSH1 0x1 DUP1 DUP3 ADD SWAP1 SWAP3 SSTORE PUSH32 0xC2575A0E9E593C00F959F8C92F12DB2869C3395A3B0502D05E2516446F71F85B ADD DUP1 SLOAD PUSH1 0x1 PUSH1 0x1 PUSH1 0xA0 SHL SUB NOT AND PUSH1 0x1 PUSH1 0x1 PUSH1 0xA0 SHL SUB DUP5 DUP2 AND SWAP2 DUP3 OR SWAP1 SWAP3 SSTORE PUSH0 DUP2 DUP2 MSTORE PUSH1 0x4 PUSH1 0x20 MSTORE PUSH1 0x40 SWAP1 DUP2 SWAP1 KECCAK256 DUP1 SLOAD PUSH1 0xFF NOT AND SWAP1 SWAP5 OR SWAP1 SWAP4 SSTORE SWAP2 MLOAD SWAP3 SWAP4 POP DUP4 SWAP3 SWAP1 DUP13 AND SWAP2 SWAP1 PUSH32 0xB2E029AB52A406BB52FAE42D1D1E5DCA2793900C250A242AF032038B02EB8659 SWAP1 PUSH3 0x37B SWAP1 DUP14 SWAP1 DUP14 SWAP1 PUSH3 0x66E JUMP JUMPDEST PUSH1 0x40 MLOAD DUP1 SWAP2 SUB SWAP1 LOG3 SWAP10 SWAP9 POP POP POP POP POP POP POP POP POP JUMP JUMPDEST PUSH1 0x3 DUP2 DUP2 SLOAD DUP2 LT PUSH3 0x3A0 JUMPI PUSH0 DUP1 REVERT JUMPDEST PUSH0 SWAP2 DUP3 MSTORE PUSH1 0x20 SWAP1 SWAP2 KECCAK256 ADD SLOAD PUSH1 0x1 PUSH1 0x1 PUSH1 0xA0 SHL SUB AND SWAP1 POP DUP2 JUMP JUMPDEST PUSH3 0x3C3 PUSH3 0x400 JUMP JUMPDEST PUSH1 0x1 PUSH1 0x1 PUSH1 0xA0 SHL SUB DUP2 AND PUSH3 0x3F2 JUMPI PUSH1 0x40 MLOAD PUSH4 0x1E4FBDF7 PUSH1 0xE0 SHL DUP2 MSTORE PUSH0 PUSH1 0x4 DUP3 ADD MSTORE PUSH1 0x24 ADD JUMPDEST PUSH1 0x40 MLOAD DUP1 SWAP2 SUB SWAP1 REVERT JUMPDEST PUSH3 0x3FD DUP2 PUSH3 0x42E JUMP JUMPDEST POP JUMP JUMPDEST PUSH0 SLOAD PUSH1 0x1 PUSH1 0x1 PUSH1 0xA0 SHL SUB AND CALLER EQ PUSH3 0x227 JUMPI PUSH1 0x40 MLOAD PUSH4 0x118CDAA7 PUSH1 0xE0 SHL DUP2 MSTORE CALLER PUSH1 0x4 DUP3 ADD MSTORE PUSH1 0x24 ADD PUSH3 0x3E9 JUMP JUMPDEST PUSH0 DUP1 SLOAD PUSH1 0x1 PUSH1 0x1 PUSH1 0xA0 SHL SUB DUP4 DUP2 AND PUSH1 0x1 PUSH1 0x1 PUSH1 0xA0 SHL SUB NOT DUP4 AND DUP2 OR DUP5 SSTORE PUSH1 0x40 MLOAD SWAP2 SWAP1 SWAP3 AND SWAP3 DUP4 SWAP2 PUSH32 0x8BE0079C531659141344CD1FD0A4F28419497F9722A3DAAFE3B4186F6B6457E0 SWAP2 SWAP1 LOG3 POP POP JUMP JUMPDEST PUSH2 0x20C3 DUP1 PUSH3 0x68C DUP4 CODECOPY ADD SWAP1 JUMP JUMPDEST DUP1 CALLDATALOAD PUSH1 0x1 PUSH1 0x1 PUSH1 0xA0 SHL SUB DUP2 AND DUP2 EQ PUSH3 0x4A2 JUMPI PUSH0 DUP1 REVERT JUMPDEST SWAP2 SWAP1 POP JUMP JUMPDEST PUSH0 PUSH1 0x20 DUP3 DUP5 SUB SLT ISZERO PUSH3 0x4B8 JUMPI PUSH0 DUP1 REVERT JUMPDEST PUSH3 0x4C3 DUP3 PUSH3 0x48B JUMP JUMPDEST SWAP4 SWAP3 POP POP POP JUMP JUMPDEST PUSH0 DUP1 DUP4 PUSH1 0x1F DUP5 ADD SLT PUSH3 0x4DB JUMPI PUSH0 DUP1 REVERT JUMPDEST POP DUP2 CALLDATALOAD PUSH8 0xFFFFFFFFFFFFFFFF DUP2 GT ISZERO PUSH3 0x4F3 JUMPI PUSH0 DUP1 REVERT JUMPDEST PUSH1 0x20 DUP4 ADD SWAP2 POP DUP4 PUSH1 0x20 DUP3 DUP6 ADD ADD GT ISZERO PUSH3 0x50B JUMPI PUSH0 DUP1 REVERT JUMPDEST SWAP3 POP SWAP3 SWAP1 POP JUMP JUMPDEST PUSH0 DUP1 PUSH0 DUP1 PUSH0 DUP1 PUSH0 PUSH1 0x80 DUP9 DUP11 SUB SLT ISZERO PUSH3 0x529 JUMPI PUSH0 DUP1 REVERT JUMPDEST PUSH3 0x534 DUP9 PUSH3 0x48B JUMP JUMPDEST SWAP7 POP PUSH1 0x20 DUP9 ADD CALLDATALOAD PUSH8 0xFFFFFFFFFFFFFFFF DUP1 DUP3 GT ISZERO PUSH3 0x551 JUMPI PUSH0 DUP1 REVERT JUMPDEST PUSH3 0x55F DUP12 DUP4 DUP13 ADD PUSH3 0x4CA JUMP JUMPDEST SWAP1 SWAP9 POP SWAP7 POP PUSH1 0x40 DUP11 ADD CALLDATALOAD SWAP2 POP DUP1 DUP3 GT ISZERO PUSH3 0x578 JUMPI PUSH0 DUP1 REVERT JUMPDEST PUSH3 0x586 DUP12 DUP4 DUP13 ADD PUSH3 0x4CA JUMP JUMPDEST SWAP1 SWAP7 POP SWAP5 POP PUSH1 0x60 DUP11 ADD CALLDATALOAD SWAP2 POP DUP1 DUP3 GT ISZERO PUSH3 0x59F JUMPI PUSH0 DUP1 REVERT JUMPDEST POP PUSH3 0x5AE DUP11 DUP3 DUP12 ADD PUSH3 0x4CA JUMP JUMPDEST SWAP9 SWAP12 SWAP8 SWAP11 POP SWAP6 SWAP9 POP SWAP4 SWAP7 SWAP3 SWAP6 SWAP3 SWAP4 POP POP POP JUMP JUMPDEST PUSH0 PUSH1 0x20 DUP3 DUP5 SUB SLT ISZERO PUSH3 0x5D2 JUMPI PUSH0 DUP1 REVERT JUMPDEST POP CALLDATALOAD SWAP2 SWAP1 POP JUMP JUMPDEST DUP2 DUP4 MSTORE DUP2 DUP2 PUSH1 0x20 DUP6 ADD CALLDATACOPY POP PUSH0 DUP3 DUP3 ADD PUSH1 0x20 SWAP1 DUP2 ADD SWAP2 SWAP1 SWAP2 MSTORE PUSH1 0x1F SWAP1 SWAP2 ADD PUSH1 0x1F NOT AND SWAP1 SWAP2 ADD ADD SWAP1 JUMP JUMPDEST PUSH1 0x1 PUSH1 0x1 PUSH1 0xA0 SHL SUB DUP12 DUP2 AND DUP3 MSTORE PUSH2 0x100 PUSH1 0x20 DUP4 ADD DUP2 SWAP1 MSTORE PUSH0 SWAP2 PUSH3 0x629 DUP5 DUP4 ADD DUP14 DUP16 PUSH3 0x5D9 JUMP JUMPDEST SWAP2 POP DUP4 DUP3 SUB PUSH1 0x40 DUP6 ADD MSTORE PUSH3 0x640 DUP3 DUP12 DUP14 PUSH3 0x5D9 JUMP JUMPDEST SWAP9 DUP2 AND PUSH1 0x60 DUP6 ADD MSTORE SWAP7 DUP8 AND PUSH1 0x80 DUP5 ADD MSTORE POP POP SWAP3 DUP5 AND PUSH1 0xA0 DUP5 ADD MSTORE SWAP3 AND PUSH1 0xC0 DUP3 ADD MSTORE PUSH1 0xE0 ADD MSTORE SWAP6 SWAP5 POP POP POP POP POP JUMP JUMPDEST PUSH1 0x20 DUP2 MSTORE PUSH0 PUSH3 0x683 PUSH1 0x20 DUP4 ADD DUP5 DUP7 PUSH3 0x5D9 JUMP JUMPDEST SWAP5 SWAP4 POP POP POP POP JUMP INVALID PUSH1 0xC0 PUSH1 0x40 MSTORE CALLVALUE DUP1 ISZERO PUSH3 0x10 JUMPI PUSH0 DUP1 REVERT JUMPDEST POP PUSH1 0x40 MLOAD PUSH3 0x20C3 CODESIZE SUB DUP1 PUSH3 0x20C3 DUP4 CODECOPY DUP2 ADD PUSH1 0x40 DUP2 SWAP1 MSTORE PUSH3 0x33 SWAP2 PUSH3 0x2F9 JUMP JUMPDEST DUP2 DUP9 DUP9 DUP9 PUSH1 0x3 PUSH3 0x45 DUP4 DUP3 PUSH3 0x45D JUMP JUMPDEST POP PUSH1 0x4 PUSH3 0x54 DUP3 DUP3 PUSH3 0x45D JUMP JUMPDEST POP POP POP PUSH0 DUP1 PUSH3 0x6A DUP4 PUSH3 0x115 PUSH1 0x20 SHL PUSH1 0x20 SHR JUMP JUMPDEST SWAP2 POP SWAP2 POP DUP2 PUSH3 0x7C JUMPI PUSH1 0x12 PUSH3 0x7E JUMP JUMPDEST DUP1 JUMPDEST PUSH1 0xFF AND PUSH1 0xA0 MSTORE POP POP PUSH1 0x1 PUSH1 0x1 PUSH1 0xA0 SHL SUB SWAP1 DUP2 AND PUSH1 0x80 MSTORE DUP2 AND PUSH3 0xBA JUMPI PUSH1 0x40 MLOAD PUSH4 0x1E4FBDF7 PUSH1 0xE0 SHL DUP2 MSTORE PUSH0 PUSH1 0x4 DUP3 ADD MSTORE PUSH1 0x24 ADD PUSH1 0x40 MLOAD DUP1 SWAP2 SUB SWAP1 REVERT JUMPDEST PUSH3 0xC5 DUP2 PUSH3 0x1AE JUMP JUMPDEST POP PUSH1 0x6 DUP1 SLOAD PUSH1 0x1 PUSH1 0x1 PUSH1 0xA0 SHL SUB NOT SWAP1 DUP2 AND PUSH1 0x1 PUSH1 0x1 PUSH1 0xA0 SHL SUB SWAP8 DUP9 AND OR SWAP1 SWAP2 SSTORE PUSH1 0x8 DUP1 SLOAD DUP3 AND SWAP6 DUP8 AND SWAP6 SWAP1 SWAP6 OR SWAP1 SWAP5 SSTORE PUSH1 0x7 DUP1 SLOAD SWAP1 SWAP5 AND SWAP3 SWAP1 SWAP5 AND SWAP2 SWAP1 SWAP2 OR SWAP1 SWAP2 SSTORE POP PUSH1 0xA SSTORE POP PUSH3 0x529 SWAP2 POP POP JUMP JUMPDEST PUSH0 DUP1 DUP1 PUSH3 0x122 PUSH1 0x40 MLOAD SWAP1 JUMP JUMPDEST PUSH1 0x40 DUP1 MLOAD PUSH1 0x4 DUP2 MSTORE PUSH1 0x24 DUP2 ADD SWAP1 SWAP2 MSTORE PUSH1 0x20 DUP2 ADD DUP1 MLOAD PUSH1 0x1 PUSH1 0x1 PUSH1 0xE0 SHL SUB SWAP1 DUP2 AND PUSH4 0x313CE567 PUSH1 0xE0 SHL OR SWAP1 SWAP2 MSTORE SWAP2 SWAP3 POP PUSH0 SWAP2 DUP3 SWAP2 PUSH3 0x164 SWAP2 DUP9 SWAP2 SWAP1 PUSH3 0x1FF AND JUMP JUMPDEST POP SWAP1 SWAP3 POP SWAP1 POP PUSH3 0x174 DUP4 PUSH1 0x40 MSTORE JUMP JUMPDEST DUP2 DUP1 ISZERO PUSH3 0x183 JUMPI POP PUSH1 0x20 RETURNDATASIZE LT ISZERO JUMPDEST DUP1 ISZERO PUSH3 0x191 JUMPI POP PUSH1 0xFF DUP2 GT ISZERO JUMPDEST PUSH3 0x19E JUMPI PUSH0 DUP1 PUSH3 0x1A2 JUMP JUMPDEST PUSH1 0x1 DUP2 JUMPDEST SWAP5 POP SWAP5 POP POP POP POP SWAP2 POP SWAP2 JUMP JUMPDEST PUSH1 0x5 DUP1 SLOAD PUSH1 0x1 PUSH1 0x1 PUSH1 0xA0 SHL SUB DUP4 DUP2 AND PUSH1 0x1 PUSH1 0x1 PUSH1 0xA0 SHL SUB NOT DUP4 AND DUP2 OR SWAP1 SWAP4 SSTORE PUSH1 0x40 MLOAD SWAP2 AND SWAP2 SWAP1 DUP3 SWAP1 PUSH32 0x8BE0079C531659141344CD1FD0A4F28419497F9722A3DAAFE3B4186F6B6457E0 SWAP1 PUSH0 SWAP1 LOG3 POP POP JUMP JUMPDEST PUSH0 DUP1 PUSH0 PUSH1 0x40 PUSH0 DUP6 MLOAD PUSH1 0x20 DUP8 ADD DUP9 GAS STATICCALL SWAP3 POP PUSH0 MLOAD SWAP2 POP PUSH1 0x20 MLOAD SWAP1 POP SWAP3 POP SWAP3 POP SWAP3 JUMP JUMPDEST PUSH1 0x1 PUSH1 0x1 PUSH1 0xA0 SHL SUB DUP2 AND DUP2 EQ PUSH3 0x235 JUMPI PUSH0 DUP1 REVERT JUMPDEST POP JUMP JUMPDEST PUSH4 0x4E487B71 PUSH1 0xE0 SHL PUSH0 MSTORE PUSH1 0x41 PUSH1 0x4 MSTORE PUSH1 0x24 PUSH0 REVERT JUMPDEST PUSH0 DUP3 PUSH1 0x1F DUP4 ADD SLT PUSH3 0x25C JUMPI PUSH0 DUP1 REVERT JUMPDEST DUP2 MLOAD PUSH1 0x1 PUSH1 0x1 PUSH1 0x40 SHL SUB DUP1 DUP3 GT ISZERO PUSH3 0x279 JUMPI PUSH3 0x279 PUSH3 0x238 JUMP JUMPDEST PUSH1 0x40 MLOAD PUSH1 0x1F DUP4 ADD PUSH1 0x1F NOT SWAP1 DUP2 AND PUSH1 0x3F ADD AND DUP2 ADD SWAP1 DUP3 DUP3 GT DUP2 DUP4 LT OR ISZERO PUSH3 0x2A4 JUMPI PUSH3 0x2A4 PUSH3 0x238 JUMP JUMPDEST DUP2 PUSH1 0x40 MSTORE DUP4 DUP2 MSTORE PUSH1 0x20 SWAP3 POP DUP7 PUSH1 0x20 DUP6 DUP9 ADD ADD GT ISZERO PUSH3 0x2C1 JUMPI PUSH0 DUP1 REVERT JUMPDEST PUSH0 SWAP2 POP JUMPDEST DUP4 DUP3 LT ISZERO PUSH3 0x2E4 JUMPI DUP6 DUP3 ADD DUP4 ADD MLOAD DUP2 DUP4 ADD DUP5 ADD MSTORE SWAP1 DUP3 ADD SWAP1 PUSH3 0x2C5 JUMP JUMPDEST PUSH0 PUSH1 0x20 DUP6 DUP4 ADD ADD MSTORE DUP1 SWAP5 POP POP POP POP POP SWAP3 SWAP2 POP POP JUMP JUMPDEST PUSH0 DUP1 PUSH0 DUP1 PUSH0 DUP1 PUSH0 DUP1 PUSH2 0x100 DUP10 DUP12 SUB SLT ISZERO PUSH3 0x312 JUMPI PUSH0 DUP1 REVERT JUMPDEST DUP9 MLOAD PUSH3 0x31F DUP2 PUSH3 0x220 JUMP JUMPDEST PUSH1 0x20 DUP11 ADD MLOAD SWAP1 SWAP9 POP PUSH1 0x1 PUSH1 0x1 PUSH1 0x40 SHL SUB DUP1 DUP3 GT ISZERO PUSH3 0x33C JUMPI PUSH0 DUP1 REVERT JUMPDEST PUSH3 0x34A DUP13 DUP4 DUP14 ADD PUSH3 0x24C JUMP JUMPDEST SWAP9 POP PUSH1 0x40 DUP12 ADD MLOAD SWAP2 POP DUP1 DUP3 GT ISZERO PUSH3 0x360 JUMPI PUSH0 DUP1 REVERT JUMPDEST POP PUSH3 0x36F DUP12 DUP3 DUP13 ADD PUSH3 0x24C JUMP JUMPDEST SWAP7 POP POP PUSH1 0x60 DUP10 ADD MLOAD PUSH3 0x382 DUP2 PUSH3 0x220 JUMP JUMPDEST PUSH1 0x80 DUP11 ADD MLOAD SWAP1 SWAP6 POP PUSH3 0x395 DUP2 PUSH3 0x220 JUMP JUMPDEST PUSH1 0xA0 DUP11 ADD MLOAD SWAP1 SWAP5 POP PUSH3 0x3A8 DUP2 PUSH3 0x220 JUMP JUMPDEST PUSH1 0xC0 DUP11 ADD MLOAD SWAP1 SWAP4 POP PUSH3 0x3BB DUP2 PUSH3 0x220 JUMP JUMPDEST DUP1 SWAP3 POP POP PUSH1 0xE0 DUP10 ADD MLOAD SWAP1 POP SWAP3 SWAP6 SWAP9 POP SWAP3 SWAP6 SWAP9 SWAP1 SWAP4 SWAP7 POP JUMP JUMPDEST PUSH1 0x1 DUP2 DUP2 SHR SWAP1 DUP3 AND DUP1 PUSH3 0x3E8 JUMPI PUSH1 0x7F DUP3 AND SWAP2 POP JUMPDEST PUSH1 0x20 DUP3 LT DUP2 SUB PUSH3 0x407 JUMPI PUSH4 0x4E487B71 PUSH1 0xE0 SHL PUSH0 MSTORE PUSH1 0x22 PUSH1 0x4 MSTORE PUSH1 0x24 PUSH0 REVERT JUMPDEST POP SWAP2 SWAP1 POP JUMP JUMPDEST PUSH1 0x1F DUP3 GT ISZERO PUSH3 0x458 JUMPI DUP1 PUSH0 MSTORE PUSH1 0x20 PUSH0 KECCAK256 PUSH1 0x1F DUP5 ADD PUSH1 0x5 SHR DUP2 ADD PUSH1 0x20 DUP6 LT ISZERO PUSH3 0x434 JUMPI POP DUP1 JUMPDEST PUSH1 0x1F DUP5 ADD PUSH1 0x5 SHR DUP3 ADD SWAP2 POP JUMPDEST DUP2 DUP2 LT ISZERO PUSH3 0x455 JUMPI PUSH0 DUP2 SSTORE PUSH1 0x1 ADD PUSH3 0x440 JUMP JUMPDEST POP POP JUMPDEST POP POP POP JUMP JUMPDEST DUP2 MLOAD PUSH1 0x1 PUSH1 0x1 PUSH1 0x40 SHL SUB DUP2 GT ISZERO PUSH3 0x479 JUMPI PUSH3 0x479 PUSH3 0x238 JUMP JUMPDEST PUSH3 0x491 DUP2 PUSH3 0x48A DUP5 SLOAD PUSH3 0x3D3 JUMP JUMPDEST DUP5 PUSH3 0x40D JUMP JUMPDEST PUSH1 0x20 DUP1 PUSH1 0x1F DUP4 GT PUSH1 0x1 DUP2 EQ PUSH3 0x4C7 JUMPI PUSH0 DUP5 ISZERO PUSH3 0x4AF JUMPI POP DUP6 DUP4 ADD MLOAD JUMPDEST PUSH0 NOT PUSH1 0x3 DUP7 SWAP1 SHL SHR NOT AND PUSH1 0x1 DUP6 SWAP1 SHL OR DUP6 SSTORE PUSH3 0x521 JUMP JUMPDEST PUSH0 DUP6 DUP2 MSTORE PUSH1 0x20 DUP2 KECCAK256 PUSH1 0x1F NOT DUP7 AND SWAP2 JUMPDEST DUP3 DUP2 LT ISZERO PUSH3 0x4F7 JUMPI DUP9 DUP7 ADD MLOAD DUP3 SSTORE SWAP5 DUP5 ADD SWAP5 PUSH1 0x1 SWAP1 SWAP2 ADD SWAP1 DUP5 ADD PUSH3 0x4D6 JUMP JUMPDEST POP DUP6 DUP3 LT ISZERO PUSH3 0x515 JUMPI DUP8 DUP6 ADD MLOAD PUSH0 NOT PUSH1 0x3 DUP9 SWAP1 SHL PUSH1 0xF8 AND SHR NOT AND DUP2 SSTORE JUMPDEST POP POP PUSH1 0x1 DUP5 PUSH1 0x1 SHL ADD DUP6 SSTORE JUMPDEST POP POP POP POP POP POP JUMP JUMPDEST PUSH1 0x80 MLOAD PUSH1 0xA0 MLOAD PUSH2 0x1B4E PUSH3 0x575 PUSH0 CODECOPY PUSH0 PUSH2 0x94A ADD MSTORE PUSH0 DUP2 DUP2 PUSH2 0x308 ADD MSTORE DUP2 DUP2 PUSH2 0x53C ADD MSTORE DUP2 DUP2 PUSH2 0x731 ADD MSTORE DUP2 DUP2 PUSH2 0x7D4 ADD MSTORE DUP2 DUP2 PUSH2 0xBC0 ADD MSTORE DUP2 DUP2 PUSH2 0x131E ADD MSTORE PUSH2 0x1425 ADD MSTORE PUSH2 0x1B4E PUSH0 RETURN INVALID PUSH1 0x80 PUSH1 0x40 MSTORE CALLVALUE DUP1 ISZERO PUSH2 0xF JUMPI PUSH0 DUP1 REVERT JUMPDEST POP PUSH1 0x4 CALLDATASIZE LT PUSH2 0x23F JUMPI PUSH0 CALLDATALOAD PUSH1 0xE0 SHR DUP1 PUSH4 0x8456CB59 GT PUSH2 0x135 JUMPI DUP1 PUSH4 0xBA087652 GT PUSH2 0xB4 JUMPI DUP1 PUSH4 0xDD62ED3E GT PUSH2 0x79 JUMPI DUP1 PUSH4 0xDD62ED3E EQ PUSH2 0x4C8 JUMPI DUP1 PUSH4 0xDDB0ADF7 EQ PUSH2 0x500 JUMPI DUP1 PUSH4 0xEF8B30F7 EQ PUSH2 0x48F JUMPI DUP1 PUSH4 0xF2FDE38B EQ PUSH2 0x513 JUMPI DUP1 PUSH4 0xFFB1CA80 EQ PUSH2 0x526 JUMPI PUSH0 DUP1 REVERT JUMPDEST DUP1 PUSH4 0xBA087652 EQ PUSH2 0x47C JUMPI DUP1 PUSH4 0xC63D75B6 EQ PUSH2 0x35B JUMPI DUP1 PUSH4 0xC6E6F592 EQ PUSH2 0x48F JUMPI DUP1 PUSH4 0xCE96CB77 EQ PUSH2 0x4A2 JUMPI DUP1 PUSH4 0xD905777E EQ PUSH2 0x4B5 JUMPI PUSH0 DUP1 REVERT JUMPDEST DUP1 PUSH4 0xA9059CBB GT PUSH2 0xFA JUMPI DUP1 PUSH4 0xA9059CBB EQ PUSH2 0x427 JUMPI DUP1 PUSH4 0xB364B4DA EQ PUSH2 0x43A JUMPI DUP1 PUSH4 0xB3D7F6B9 EQ PUSH2 0x44D JUMPI DUP1 PUSH4 0xB460AF94 EQ PUSH2 0x460 JUMPI DUP1 PUSH4 0xB9D4E879 EQ PUSH2 0x473 JUMPI PUSH0 DUP1 REVERT JUMPDEST DUP1 PUSH4 0x8456CB59 EQ PUSH2 0x3EA JUMPI DUP1 PUSH4 0x86001519 EQ PUSH2 0x3F2 JUMPI DUP1 PUSH4 0x8DA5CB5B EQ PUSH2 0x3FB JUMPI DUP1 PUSH4 0x94BF804D EQ PUSH2 0x40C JUMPI DUP1 PUSH4 0x95D89B41 EQ PUSH2 0x41F JUMPI PUSH0 DUP1 REVERT JUMPDEST DUP1 PUSH4 0x3F4BA83A GT PUSH2 0x1C1 JUMPI DUP1 PUSH4 0x6E553F65 GT PUSH2 0x186 JUMPI DUP1 PUSH4 0x6E553F65 EQ PUSH2 0x381 JUMPI DUP1 PUSH4 0x70897B23 EQ PUSH2 0x394 JUMPI DUP1 PUSH4 0x70A08231 EQ PUSH2 0x3A7 JUMPI DUP1 PUSH4 0x715018A6 EQ PUSH2 0x3CF JUMPI DUP1 PUSH4 0x77EB4E23 EQ PUSH2 0x3D7 JUMPI PUSH0 DUP1 REVERT JUMPDEST DUP1 PUSH4 0x3F4BA83A EQ PUSH2 0x340 JUMPI DUP1 PUSH4 0x401DBE23 EQ PUSH2 0x348 JUMPI DUP1 PUSH4 0x402D267D EQ PUSH2 0x35B JUMPI DUP1 PUSH4 0x4CDAD506 EQ PUSH2 0x273 JUMPI DUP1 PUSH4 0x5C975ABB EQ PUSH2 0x36F JUMPI PUSH0 DUP1 REVERT JUMPDEST DUP1 PUSH4 0x18160DDD GT PUSH2 0x207 JUMPI DUP1 PUSH4 0x18160DDD EQ PUSH2 0x2BC JUMPI DUP1 PUSH4 0x1B1065FB EQ PUSH2 0x2C4 JUMPI DUP1 PUSH4 0x23B872DD EQ PUSH2 0x2D9 JUMPI DUP1 PUSH4 0x313CE567 EQ PUSH2 0x2EC JUMPI DUP1 PUSH4 0x38D52E0F EQ PUSH2 0x306 JUMPI PUSH0 DUP1 REVERT JUMPDEST DUP1 PUSH4 0x1E1D114 EQ PUSH2 0x243 JUMPI DUP1 PUSH4 0x6FDDE03 EQ PUSH2 0x25E JUMPI DUP1 PUSH4 0x7A2D13A EQ PUSH2 0x273 JUMPI DUP1 PUSH4 0x95EA7B3 EQ PUSH2 0x286 JUMPI DUP1 PUSH4 0xA28A477 EQ PUSH2 0x2A9 JUMPI JUMPDEST PUSH0 DUP1 REVERT JUMPDEST PUSH2 0x24B PUSH2 0x539 JUMP JUMPDEST PUSH1 0x40 MLOAD SWAP1 DUP2 MSTORE PUSH1 0x20 ADD JUMPDEST PUSH1 0x40 MLOAD DUP1 SWAP2 SUB SWAP1 RETURN JUMPDEST PUSH2 0x266 PUSH2 0x5C8 JUMP JUMPDEST PUSH1 0x40 MLOAD PUSH2 0x255 SWAP2 SWAP1 PUSH2 0x1609 JUMP JUMPDEST PUSH2 0x24B PUSH2 0x281 CALLDATASIZE PUSH1 0x4 PUSH2 0x163B JUMP JUMPDEST PUSH2 0x658 JUMP JUMPDEST PUSH2 0x299 PUSH2 0x294 CALLDATASIZE PUSH1 0x4 PUSH2 0x166D JUMP JUMPDEST PUSH2 0x669 JUMP JUMPDEST PUSH1 0x40 MLOAD SWAP1 ISZERO ISZERO DUP2 MSTORE PUSH1 0x20 ADD PUSH2 0x255 JUMP JUMPDEST PUSH2 0x24B PUSH2 0x2B7 CALLDATASIZE PUSH1 0x4 PUSH2 0x163B JUMP JUMPDEST PUSH2 0x680 JUMP JUMPDEST PUSH1 0x2 SLOAD PUSH2 0x24B JUMP JUMPDEST PUSH2 0x2D7 PUSH2 0x2D2 CALLDATASIZE PUSH1 0x4 PUSH2 0x1695 JUMP JUMPDEST PUSH2 0x68C JUMP JUMPDEST STOP JUMPDEST PUSH2 0x299 PUSH2 0x2E7 CALLDATASIZE PUSH1 0x4 PUSH2 0x1713 JUMP JUMPDEST PUSH2 0x91E JUMP JUMPDEST PUSH2 0x2F4 PUSH2 0x943 JUMP JUMPDEST PUSH1 0x40 MLOAD PUSH1 0xFF SWAP1 SWAP2 AND DUP2 MSTORE PUSH1 0x20 ADD PUSH2 0x255 JUMP JUMPDEST PUSH32 0x0 JUMPDEST PUSH1 0x40 MLOAD PUSH1 0x1 PUSH1 0x1 PUSH1 0xA0 SHL SUB SWAP1 SWAP2 AND DUP2 MSTORE PUSH1 0x20 ADD PUSH2 0x255 JUMP JUMPDEST PUSH2 0x2D7 PUSH2 0x96E JUMP JUMPDEST PUSH2 0x2D7 PUSH2 0x356 CALLDATASIZE PUSH1 0x4 PUSH2 0x174C JUMP JUMPDEST PUSH2 0x980 JUMP JUMPDEST PUSH2 0x24B PUSH2 0x369 CALLDATASIZE PUSH1 0x4 PUSH2 0x174C JUMP JUMPDEST POP PUSH0 NOT SWAP1 JUMP JUMPDEST PUSH1 0x5 SLOAD PUSH1 0x1 PUSH1 0xA0 SHL SWAP1 DIV PUSH1 0xFF AND PUSH2 0x299 JUMP JUMPDEST PUSH2 0x24B PUSH2 0x38F CALLDATASIZE PUSH1 0x4 PUSH2 0x1765 JUMP JUMPDEST PUSH2 0x9AA JUMP JUMPDEST PUSH2 0x2D7 PUSH2 0x3A2 CALLDATASIZE PUSH1 0x4 PUSH2 0x163B JUMP JUMPDEST PUSH2 0x9BD JUMP JUMPDEST PUSH2 0x24B PUSH2 0x3B5 CALLDATASIZE PUSH1 0x4 PUSH2 0x174C JUMP JUMPDEST PUSH1 0x1 PUSH1 0x1 PUSH1 0xA0 SHL SUB AND PUSH0 SWAP1 DUP2 MSTORE PUSH1 0x20 DUP2 SWAP1 MSTORE PUSH1 0x40 SWAP1 KECCAK256 SLOAD SWAP1 JUMP JUMPDEST PUSH2 0x2D7 PUSH2 0xA1C JUMP JUMPDEST PUSH1 0x7 SLOAD PUSH2 0x328 SWAP1 PUSH1 0x1 PUSH1 0x1 PUSH1 0xA0 SHL SUB AND DUP2 JUMP JUMPDEST PUSH2 0x2D7 PUSH2 0xA2D JUMP JUMPDEST PUSH2 0x24B PUSH1 0x9 SLOAD DUP2 JUMP JUMPDEST PUSH1 0x5 SLOAD PUSH1 0x1 PUSH1 0x1 PUSH1 0xA0 SHL SUB AND PUSH2 0x328 JUMP JUMPDEST PUSH2 0x24B PUSH2 0x41A CALLDATASIZE PUSH1 0x4 PUSH2 0x1765 JUMP JUMPDEST PUSH2 0xA3D JUMP JUMPDEST PUSH2 0x266 PUSH2 0xA50 JUMP JUMPDEST PUSH2 0x299 PUSH2 0x435 CALLDATASIZE PUSH1 0x4 PUSH2 0x166D JUMP JUMPDEST PUSH2 0xA5F JUMP JUMPDEST PUSH1 0x8 SLOAD PUSH2 0x328 SWAP1 PUSH1 0x1 PUSH1 0x1 PUSH1 0xA0 SHL SUB AND DUP2 JUMP JUMPDEST PUSH2 0x24B PUSH2 0x45B CALLDATASIZE PUSH1 0x4 PUSH2 0x163B JUMP JUMPDEST PUSH2 0xA6C JUMP JUMPDEST PUSH2 0x24B PUSH2 0x46E CALLDATASIZE PUSH1 0x4 PUSH2 0x178F JUMP JUMPDEST PUSH2 0xA78 JUMP JUMPDEST PUSH2 0x24B PUSH1 0xA SLOAD DUP2 JUMP JUMPDEST PUSH2 0x24B PUSH2 0x48A CALLDATASIZE PUSH1 0x4 PUSH2 0x178F JUMP JUMPDEST PUSH2 0xACE JUMP JUMPDEST PUSH2 0x24B PUSH2 0x49D CALLDATASIZE PUSH1 0x4 PUSH2 0x163B JUMP JUMPDEST PUSH2 0xB1B JUMP JUMPDEST PUSH2 0x24B PUSH2 0x4B0 CALLDATASIZE PUSH1 0x4 PUSH2 0x174C JUMP JUMPDEST PUSH2 0xB26 JUMP JUMPDEST PUSH2 0x24B PUSH2 0x4C3 CALLDATASIZE PUSH1 0x4 PUSH2 0x174C JUMP JUMPDEST PUSH2 0xB2F JUMP JUMPDEST PUSH2 0x24B PUSH2 0x4D6 CALLDATASIZE PUSH1 0x4 PUSH2 0x17C8 JUMP JUMPDEST PUSH1 0x1 PUSH1 0x1 PUSH1 0xA0 SHL SUB SWAP2 DUP3 AND PUSH0 SWAP1 DUP2 MSTORE PUSH1 0x1 PUSH1 0x20 SWAP1 DUP2 MSTORE PUSH1 0x40 DUP1 DUP4 KECCAK256 SWAP4 SWAP1 SWAP5 AND DUP3 MSTORE SWAP2 SWAP1 SWAP2 MSTORE KECCAK256 SLOAD SWAP1 JUMP JUMPDEST PUSH2 0x2D7 PUSH2 0x50E CALLDATASIZE PUSH1 0x4 PUSH2 0x17F0 JUMP JUMPDEST PUSH2 0xB4C JUMP JUMPDEST PUSH2 0x2D7 PUSH2 0x521 CALLDATASIZE PUSH1 0x4 PUSH2 0x174C JUMP JUMPDEST PUSH2 0xC99 JUMP JUMPDEST PUSH1 0x6 SLOAD PUSH2 0x328 SWAP1 PUSH1 0x1 PUSH1 0x1 PUSH1 0xA0 SHL SUB AND DUP2 JUMP JUMPDEST PUSH0 PUSH32 0x0 PUSH1 0x40 MLOAD PUSH4 0x70A08231 PUSH1 0xE0 SHL DUP2 MSTORE ADDRESS PUSH1 0x4 DUP3 ADD MSTORE PUSH1 0x1 PUSH1 0x1 PUSH1 0xA0 SHL SUB SWAP2 SWAP1 SWAP2 AND SWAP1 PUSH4 0x70A08231 SWAP1 PUSH1 0x24 ADD PUSH1 0x20 PUSH1 0x40 MLOAD DUP1 DUP4 SUB DUP2 DUP7 GAS STATICCALL ISZERO DUP1 ISZERO PUSH2 0x59F JUMPI RETURNDATASIZE PUSH0 DUP1 RETURNDATACOPY RETURNDATASIZE PUSH0 REVERT JUMPDEST POP POP POP POP PUSH1 0x40 MLOAD RETURNDATASIZE PUSH1 0x1F NOT PUSH1 0x1F DUP3 ADD AND DUP3 ADD DUP1 PUSH1 0x40 MSTORE POP DUP2 ADD SWAP1 PUSH2 0x5C3 SWAP2 SWAP1 PUSH2 0x1819 JUMP JUMPDEST SWAP1 POP SWAP1 JUMP JUMPDEST PUSH1 0x60 PUSH1 0x3 DUP1 SLOAD PUSH2 0x5D7 SWAP1 PUSH2 0x1830 JUMP JUMPDEST DUP1 PUSH1 0x1F ADD PUSH1 0x20 DUP1 SWAP2 DIV MUL PUSH1 0x20 ADD PUSH1 0x40 MLOAD SWAP1 DUP2 ADD PUSH1 0x40 MSTORE DUP1 SWAP3 SWAP2 SWAP1 DUP2 DUP2 MSTORE PUSH1 0x20 ADD DUP3 DUP1 SLOAD PUSH2 0x603 SWAP1 PUSH2 0x1830 JUMP JUMPDEST DUP1 ISZERO PUSH2 0x64E JUMPI DUP1 PUSH1 0x1F LT PUSH2 0x625 JUMPI PUSH2 0x100 DUP1 DUP4 SLOAD DIV MUL DUP4 MSTORE SWAP2 PUSH1 0x20 ADD SWAP2 PUSH2 0x64E JUMP JUMPDEST DUP3 ADD SWAP2 SWAP1 PUSH0 MSTORE PUSH1 0x20 PUSH0 KECCAK256 SWAP1 JUMPDEST DUP2 SLOAD DUP2 MSTORE SWAP1 PUSH1 0x1 ADD SWAP1 PUSH1 0x20 ADD DUP1 DUP4 GT PUSH2 0x631 JUMPI DUP3 SWAP1 SUB PUSH1 0x1F AND DUP3 ADD SWAP2 JUMPDEST POP POP POP POP POP SWAP1 POP SWAP1 JUMP JUMPDEST PUSH0 PUSH2 0x663 DUP3 PUSH0 PUSH2 0xCD6 JUMP JUMPDEST SWAP3 SWAP2 POP POP JUMP JUMPDEST PUSH0 CALLER PUSH2 0x676 DUP2 DUP6 DUP6 PUSH2 0xD0E JUMP JUMPDEST POP PUSH1 0x1 SWAP4 SWAP3 POP POP POP JUMP JUMPDEST PUSH0 PUSH2 0x663 DUP3 PUSH1 0x1 PUSH2 0xD1B JUMP JUMPDEST PUSH1 0x6 SLOAD PUSH1 0x1 PUSH1 0x1 PUSH1 0xA0 SHL SUB AND CALLER EQ PUSH2 0x6BF JUMPI PUSH1 0x40 MLOAD PUSH3 0x461BCD PUSH1 0xE5 SHL DUP2 MSTORE PUSH1 0x4 ADD PUSH2 0x6B6 SWAP1 PUSH2 0x1868 JUMP JUMPDEST PUSH1 0x40 MLOAD DUP1 SWAP2 SUB SWAP1 REVERT JUMPDEST PUSH2 0x6C7 PUSH2 0xD4A JUMP JUMPDEST PUSH2 0x6CF PUSH2 0x539 JUMP JUMPDEST DUP2 GT ISZERO PUSH2 0x72F JUMPI PUSH1 0x40 MLOAD PUSH3 0x461BCD PUSH1 0xE5 SHL DUP2 MSTORE PUSH1 0x20 PUSH1 0x4 DUP3 ADD MSTORE PUSH1 0x28 PUSH1 0x24 DUP3 ADD MSTORE PUSH32 0x42726965725661756C743A20496E73756666696369656E74207661756C74206C PUSH1 0x44 DUP3 ADD MSTORE PUSH8 0x6971756964697479 PUSH1 0xC0 SHL PUSH1 0x64 DUP3 ADD MSTORE PUSH1 0x84 ADD PUSH2 0x6B6 JUMP JUMPDEST PUSH32 0x0 PUSH1 0x7 SLOAD PUSH1 0x40 MLOAD PUSH4 0x95EA7B3 PUSH1 0xE0 SHL DUP2 MSTORE PUSH1 0x1 PUSH1 0x1 PUSH1 0xA0 SHL SUB SWAP2 DUP3 AND PUSH1 0x4 DUP3 ADD MSTORE PUSH1 0x24 DUP2 ADD DUP5 SWAP1 MSTORE SWAP2 AND SWAP1 PUSH4 0x95EA7B3 SWAP1 PUSH1 0x44 ADD PUSH1 0x20 PUSH1 0x40 MLOAD DUP1 DUP4 SUB DUP2 PUSH0 DUP8 GAS CALL ISZERO DUP1 ISZERO PUSH2 0x79F JUMPI RETURNDATASIZE PUSH0 DUP1 RETURNDATACOPY RETURNDATASIZE PUSH0 REVERT JUMPDEST POP POP POP POP PUSH1 0x40 MLOAD RETURNDATASIZE PUSH1 0x1F NOT PUSH1 0x1F DUP3 ADD AND DUP3 ADD DUP1 PUSH1 0x40 MSTORE POP DUP2 ADD SWAP1 PUSH2 0x7C3 SWAP2 SWAP1 PUSH2 0x18AC JUMP JUMPDEST POP PUSH1 0x7 SLOAD PUSH0 SWAP1 PUSH1 0x1 PUSH1 0x1 PUSH1 0xA0 SHL SUB AND PUSH32 0x0 PUSH1 0x40 MLOAD PUSH2 0x80D SWAP2 SWAP1 PUSH0 SWAP1 DUP10 SWAP1 DUP10 SWAP1 DUP10 SWAP1 DUP10 SWAP1 PUSH1 0x24 ADD PUSH2 0x18CB JUMP JUMPDEST PUSH1 0x40 DUP1 MLOAD PUSH1 0x1F NOT DUP2 DUP5 SUB ADD DUP2 MSTORE SWAP2 DUP2 MSTORE PUSH1 0x20 DUP3 ADD DUP1 MLOAD PUSH1 0x1 PUSH1 0x1 PUSH1 0xE0 SHL SUB AND PUSH4 0x72CE4275 PUSH1 0xE0 SHL OR SWAP1 MSTORE MLOAD PUSH2 0x842 SWAP2 SWAP1 PUSH2 0x1928 JUMP JUMPDEST PUSH0 PUSH1 0x40 MLOAD DUP1 DUP4 SUB DUP2 PUSH0 DUP7 GAS CALL SWAP2 POP POP RETURNDATASIZE DUP1 PUSH0 DUP2 EQ PUSH2 0x87B JUMPI PUSH1 0x40 MLOAD SWAP2 POP PUSH1 0x1F NOT PUSH1 0x3F RETURNDATASIZE ADD AND DUP3 ADD PUSH1 0x40 MSTORE RETURNDATASIZE DUP3 MSTORE RETURNDATASIZE PUSH0 PUSH1 0x20 DUP5 ADD RETURNDATACOPY PUSH2 0x880 JUMP JUMPDEST PUSH1 0x60 SWAP2 POP JUMPDEST POP POP SWAP1 POP DUP1 PUSH2 0x8DD JUMPI PUSH1 0x40 MLOAD PUSH3 0x461BCD PUSH1 0xE5 SHL DUP2 MSTORE PUSH1 0x20 PUSH1 0x4 DUP3 ADD MSTORE PUSH1 0x24 DUP1 DUP3 ADD MSTORE PUSH32 0x42726965725661756C743A204354462073706C6974506F736974696F6E206661 PUSH1 0x44 DUP3 ADD MSTORE PUSH4 0x1A5B1959 PUSH1 0xE2 SHL PUSH1 0x64 DUP3 ADD MSTORE PUSH1 0x84 ADD PUSH2 0x6B6 JUMP JUMPDEST DUP5 PUSH32 0x5933A51E3F187ADBD3F927AA2F3F7AEC185B35615022DCF9B92E3E01784B8892 DUP4 PUSH1 0x40 MLOAD PUSH2 0x90F SWAP2 DUP2 MSTORE PUSH1 0x20 ADD SWAP1 JUMP JUMPDEST PUSH1 0x40 MLOAD DUP1 SWAP2 SUB SWAP1 LOG2 POP POP POP POP POP JUMP JUMPDEST PUSH0 CALLER PUSH2 0x92B DUP6 DUP3 DUP6 PUSH2 0xD75 JUMP JUMPDEST PUSH2 0x936 DUP6 DUP6 DUP6 PUSH2 0xDDE JUMP JUMPDEST PUSH1 0x1 SWAP2 POP POP JUMPDEST SWAP4 SWAP3 POP POP POP JUMP JUMPDEST PUSH0 PUSH2 0x5C3 DUP2 PUSH32 0x0 PUSH2 0x1957 JUMP JUMPDEST PUSH2 0x976 PUSH2 0xE3B JUMP JUMPDEST PUSH2 0x97E PUSH2 0xE68 JUMP JUMPDEST JUMP JUMPDEST PUSH2 0x988 PUSH2 0xE3B JUMP JUMPDEST PUSH1 0x6 DUP1 SLOAD PUSH1 0x1 PUSH1 0x1 PUSH1 0xA0 SHL SUB NOT AND PUSH1 0x1 PUSH1 0x1 PUSH1 0xA0 SHL SUB SWAP3 SWAP1 SWAP3 AND SWAP2 SWAP1 SWAP2 OR SWAP1 SSTORE JUMP JUMPDEST PUSH0 PUSH2 0x9B3 PUSH2 0xD4A JUMP JUMPDEST PUSH2 0x93C DUP4 DUP4 PUSH2 0xEBD JUMP JUMPDEST PUSH2 0x9C5 PUSH2 0xE3B JUMP JUMPDEST PUSH2 0x1388 DUP2 GT ISZERO PUSH2 0xA17 JUMPI PUSH1 0x40 MLOAD PUSH3 0x461BCD PUSH1 0xE5 SHL DUP2 MSTORE PUSH1 0x20 PUSH1 0x4 DUP3 ADD MSTORE PUSH1 0x18 PUSH1 0x24 DUP3 ADD MSTORE PUSH32 0x42726965725661756C743A2046656520746F6F20686967680000000000000000 PUSH1 0x44 DUP3 ADD MSTORE PUSH1 0x64 ADD PUSH2 0x6B6 JUMP JUMPDEST PUSH1 0xA SSTORE JUMP JUMPDEST PUSH2 0xA24 PUSH2 0xE3B JUMP JUMPDEST PUSH2 0x97E PUSH0 PUSH2 0xEE0 JUMP JUMPDEST PUSH2 0xA35 PUSH2 0xE3B JUMP JUMPDEST PUSH2 0x97E PUSH2 0xF31 JUMP JUMPDEST PUSH0 PUSH2 0xA46 PUSH2 0xD4A JUMP JUMPDEST PUSH2 0x93C DUP4 DUP4 PUSH2 0xF74 JUMP JUMPDEST PUSH1 0x60 PUSH1 0x4 DUP1 SLOAD PUSH2 0x5D7 SWAP1 PUSH2 0x1830 JUMP JUMPDEST PUSH0 CALLER PUSH2 0x676 DUP2 DUP6 DUP6 PUSH2 0xDDE JUMP JUMPDEST PUSH0 PUSH2 0x663 DUP3 PUSH1 0x1 PUSH2 0xCD6 JUMP JUMPDEST PUSH0 DUP1 PUSH2 0xA83 DUP4 PUSH2 0xB26 JUMP JUMPDEST SWAP1 POP DUP1 DUP6 GT ISZERO PUSH2 0xAAC JUMPI DUP3 DUP6 DUP3 PUSH1 0x40 MLOAD PUSH4 0x3FA733BB PUSH1 0xE2 SHL DUP2 MSTORE PUSH1 0x4 ADD PUSH2 0x6B6 SWAP4 SWAP3 SWAP2 SWAP1 PUSH2 0x1970 JUMP JUMPDEST PUSH0 PUSH2 0xAB6 DUP7 PUSH2 0x680 JUMP JUMPDEST SWAP1 POP PUSH2 0xAC5 CALLER DUP7 DUP7 DUP10 DUP6 PUSH2 0xF8F JUMP JUMPDEST SWAP6 SWAP5 POP POP POP POP POP JUMP JUMPDEST PUSH0 DUP1 PUSH2 0xAD9 DUP4 PUSH2 0xB2F JUMP JUMPDEST SWAP1 POP DUP1 DUP6 GT ISZERO PUSH2 0xB02 JUMPI DUP3 DUP6 DUP3 PUSH1 0x40 MLOAD PUSH4 0x2E52AFBB PUSH1 0xE2 SHL DUP2 MSTORE PUSH1 0x4 ADD PUSH2 0x6B6 SWAP4 SWAP3 SWAP2 SWAP1 PUSH2 0x1970 JUMP JUMPDEST PUSH0 PUSH2 0xB0C DUP7 PUSH2 0x658 JUMP JUMPDEST SWAP1 POP PUSH2 0xAC5 CALLER DUP7 DUP7 DUP5 DUP11 PUSH2 0xF8F JUMP JUMPDEST PUSH0 PUSH2 0x663 DUP3 PUSH0 PUSH2 0xD1B JUMP JUMPDEST PUSH0 PUSH2 0x663 PUSH2 0x281 DUP4 JUMPDEST PUSH1 0x1 PUSH1 0x1 PUSH1 0xA0 SHL SUB DUP2 AND PUSH0 SWAP1 DUP2 MSTORE PUSH1 0x20 DUP2 SWAP1 MSTORE PUSH1 0x40 DUP2 KECCAK256 SLOAD PUSH2 0x663 JUMP JUMPDEST PUSH1 0x6 SLOAD PUSH1 0x1 PUSH1 0x1 PUSH1 0xA0 SHL SUB AND CALLER EQ PUSH2 0xB76 JUMPI PUSH1 0x40 MLOAD PUSH3 0x461BCD PUSH1 0xE5 SHL DUP2 MSTORE PUSH1 0x4 ADD PUSH2 0x6B6 SWAP1 PUSH2 0x1868 JUMP JUMPDEST DUP2 DUP2 GT ISZERO PUSH2 0xC94 JUMPI PUSH0 PUSH2 0xB89 DUP4 DUP4 PUSH2 0x1991 JUMP JUMPDEST SWAP1 POP PUSH0 PUSH2 0x2710 PUSH1 0xA SLOAD DUP4 PUSH2 0xB9D SWAP2 SWAP1 PUSH2 0x19A4 JUMP JUMPDEST PUSH2 0xBA7 SWAP2 SWAP1 PUSH2 0x19CF JUMP JUMPDEST SWAP1 POP DUP2 PUSH1 0x9 PUSH0 DUP3 DUP3 SLOAD PUSH2 0xBBA SWAP2 SWAP1 PUSH2 0x19E2 JUMP JUMPDEST SWAP1 SWAP2 SSTORE POP PUSH32 0x0 SWAP1 POP PUSH1 0x8 SLOAD PUSH1 0x40 MLOAD PUSH4 0xA9059CBB PUSH1 0xE0 SHL DUP2 MSTORE PUSH1 0x1 PUSH1 0x1 PUSH1 0xA0 SHL SUB SWAP2 DUP3 AND PUSH1 0x4 DUP3 ADD MSTORE PUSH1 0x24 DUP2 ADD DUP5 SWAP1 MSTORE SWAP2 AND SWAP1 PUSH4 0xA9059CBB SWAP1 PUSH1 0x44 ADD PUSH1 0x20 PUSH1 0x40 MLOAD DUP1 DUP4 SUB DUP2 PUSH0 DUP8 GAS CALL ISZERO DUP1 ISZERO PUSH2 0xC30 JUMPI RETURNDATASIZE PUSH0 DUP1 RETURNDATACOPY RETURNDATASIZE PUSH0 REVERT JUMPDEST POP POP POP POP PUSH1 0x40 MLOAD RETURNDATASIZE PUSH1 0x1F NOT PUSH1 0x1F DUP3 ADD AND DUP3 ADD DUP1 PUSH1 0x40 MSTORE POP DUP2 ADD SWAP1 PUSH2 0xC54 SWAP2 SWAP1 PUSH2 0x18AC JUMP JUMPDEST POP PUSH1 0x8 SLOAD PUSH1 0x40 MLOAD DUP3 DUP2 MSTORE PUSH1 0x1 PUSH1 0x1 PUSH1 0xA0 SHL SUB SWAP1 SWAP2 AND SWAP1 PUSH32 0xAFDBF88D8A6E3BD4DBD770E775C7E168F61DB74AEA5E21852AC1061BF1CB625D SWAP1 PUSH1 0x20 ADD PUSH2 0x90F JUMP JUMPDEST POP POP POP JUMP JUMPDEST PUSH2 0xCA1 PUSH2 0xE3B JUMP JUMPDEST PUSH1 0x1 PUSH1 0x1 PUSH1 0xA0 SHL SUB DUP2 AND PUSH2 0xCCA JUMPI PUSH1 0x40 MLOAD PUSH4 0x1E4FBDF7 PUSH1 0xE0 SHL DUP2 MSTORE PUSH0 PUSH1 0x4 DUP3 ADD MSTORE PUSH1 0x24 ADD PUSH2 0x6B6 JUMP JUMPDEST PUSH2 0xCD3 DUP2 PUSH2 0xEE0 JUMP JUMPDEST POP JUMP JUMPDEST PUSH0 PUSH2 0x93C PUSH2 0xCE2 PUSH2 0x539 JUMP JUMPDEST PUSH2 0xCED SWAP1 PUSH1 0x1 PUSH2 0x19E2 JUMP JUMPDEST PUSH2 0xCF8 PUSH0 PUSH1 0xA PUSH2 0x1AD5 JUMP JUMPDEST PUSH1 0x2 SLOAD PUSH2 0xD05 SWAP2 SWAP1 PUSH2 0x19E2 JUMP JUMPDEST DUP6 SWAP2 SWAP1 DUP6 PUSH2 0x102E JUMP JUMPDEST PUSH2 0xC94 DUP4 DUP4 DUP4 PUSH1 0x1 PUSH2 0x1070 JUMP JUMPDEST PUSH0 PUSH2 0x93C PUSH2 0xD2A DUP3 PUSH1 0xA PUSH2 0x1AD5 JUMP JUMPDEST PUSH1 0x2 SLOAD PUSH2 0xD37 SWAP2 SWAP1 PUSH2 0x19E2 JUMP JUMPDEST PUSH2 0xD3F PUSH2 0x539 JUMP JUMPDEST PUSH2 0xD05 SWAP1 PUSH1 0x1 PUSH2 0x19E2 JUMP JUMPDEST PUSH1 0x5 SLOAD PUSH1 0x1 PUSH1 0xA0 SHL SWAP1 DIV PUSH1 0xFF AND ISZERO PUSH2 0x97E JUMPI PUSH1 0x40 MLOAD PUSH4 0xD93C0665 PUSH1 0xE0 SHL DUP2 MSTORE PUSH1 0x4 ADD PUSH1 0x40 MLOAD DUP1 SWAP2 SUB SWAP1 REVERT JUMPDEST PUSH1 0x1 PUSH1 0x1 PUSH1 0xA0 SHL SUB DUP4 DUP2 AND PUSH0 SWAP1 DUP2 MSTORE PUSH1 0x1 PUSH1 0x20 SWAP1 DUP2 MSTORE PUSH1 0x40 DUP1 DUP4 KECCAK256 SWAP4 DUP7 AND DUP4 MSTORE SWAP3 SWAP1 MSTORE KECCAK256 SLOAD PUSH0 NOT DUP2 LT ISZERO PUSH2 0xDD8 JUMPI DUP2 DUP2 LT ISZERO PUSH2 0xDCA JUMPI DUP3 DUP2 DUP4 PUSH1 0x40 MLOAD PUSH4 0x7DC7A0D9 PUSH1 0xE1 SHL DUP2 MSTORE PUSH1 0x4 ADD PUSH2 0x6B6 SWAP4 SWAP3 SWAP2 SWAP1 PUSH2 0x1970 JUMP JUMPDEST PUSH2 0xDD8 DUP5 DUP5 DUP5 DUP5 SUB PUSH0 PUSH2 0x1070 JUMP JUMPDEST POP POP POP POP JUMP JUMPDEST PUSH1 0x1 PUSH1 0x1 PUSH1 0xA0 SHL SUB DUP4 AND PUSH2 0xE07 JUMPI PUSH1 0x40 MLOAD PUSH4 0x4B637E8F PUSH1 0xE1 SHL DUP2 MSTORE PUSH0 PUSH1 0x4 DUP3 ADD MSTORE PUSH1 0x24 ADD PUSH2 0x6B6 JUMP JUMPDEST PUSH1 0x1 PUSH1 0x1 PUSH1 0xA0 SHL SUB DUP3 AND PUSH2 0xE30 JUMPI PUSH1 0x40 MLOAD PUSH4 0xEC442F05 PUSH1 0xE0 SHL DUP2 MSTORE PUSH0 PUSH1 0x4 DUP3 ADD MSTORE PUSH1 0x24 ADD PUSH2 0x6B6 JUMP JUMPDEST PUSH2 0xC94 DUP4 DUP4 DUP4 PUSH2 0x1142 JUMP JUMPDEST PUSH1 0x5 SLOAD PUSH1 0x1 PUSH1 0x1 PUSH1 0xA0 SHL SUB AND CALLER EQ PUSH2 0x97E JUMPI PUSH1 0x40 MLOAD PUSH4 0x118CDAA7 PUSH1 0xE0 SHL DUP2 MSTORE CALLER PUSH1 0x4 DUP3 ADD MSTORE PUSH1 0x24 ADD PUSH2 0x6B6 JUMP JUMPDEST PUSH2 0xE70 PUSH2 0x1255 JUMP JUMPDEST PUSH1 0x5 DUP1 SLOAD PUSH1 0xFF PUSH1 0xA0 SHL NOT AND SWAP1 SSTORE PUSH32 0x5DB9EE0A495BF2E6FF9C91A7834C1BA4FDD244A5E8AA4E537BD38AEAE4B073AA CALLER JUMPDEST PUSH1 0x40 MLOAD PUSH1 0x1 PUSH1 0x1 PUSH1 0xA0 SHL SUB SWAP1 SWAP2 AND DUP2 MSTORE PUSH1 0x20 ADD PUSH1 0x40 MLOAD DUP1 SWAP2 SUB SWAP1 LOG1 JUMP JUMPDEST PUSH0 PUSH0 NOT PUSH0 PUSH2 0xECA DUP6 PUSH2 0xB1B JUMP JUMPDEST SWAP1 POP PUSH2 0xED8 CALLER DUP6 DUP8 DUP5 PUSH2 0x127F JUMP JUMPDEST SWAP5 SWAP4 POP POP POP POP JUMP JUMPDEST PUSH1 0x5 DUP1 SLOAD PUSH1 0x1 PUSH1 0x1 PUSH1 0xA0 SHL SUB DUP4 DUP2 AND PUSH1 0x1 PUSH1 0x1 PUSH1 0xA0 SHL SUB NOT DUP4 AND DUP2 OR SWAP1 SWAP4 SSTORE PUSH1 0x40 MLOAD SWAP2 AND SWAP2 SWAP1 DUP3 SWAP1 PUSH32 0x8BE0079C531659141344CD1FD0A4F28419497F9722A3DAAFE3B4186F6B6457E0 SWAP1 PUSH0 SWAP1 LOG3 POP POP JUMP JUMPDEST PUSH2 0xF39 PUSH2 0xD4A JUMP JUMPDEST PUSH1 0x5 DUP1 SLOAD PUSH1 0xFF PUSH1 0xA0 SHL NOT AND PUSH1 0x1 PUSH1 0xA0 SHL OR SWAP1 SSTORE PUSH32 0x62E78CEA01BEE320CD4E420270B5EA74000D11B0C9F74754EBDBFC544B05A258 PUSH2 0xEA0 CALLER SWAP1 JUMP JUMPDEST PUSH0 PUSH0 NOT PUSH0 PUSH2 0xF81 DUP6 PUSH2 0xA6C JUMP JUMPDEST SWAP1 POP PUSH2 0xED8 CALLER DUP6 DUP4 DUP9 PUSH2 0x127F JUMP JUMPDEST DUP3 PUSH1 0x1 PUSH1 0x1 PUSH1 0xA0 SHL SUB AND DUP6 PUSH1 0x1 PUSH1 0x1 PUSH1 0xA0 SHL SUB AND EQ PUSH2 0xFB3 JUMPI PUSH2 0xFB3 DUP4 DUP7 DUP4 PUSH2 0xD75 JUMP JUMPDEST PUSH2 0xFBD DUP4 DUP3 PUSH2 0x12E1 JUMP JUMPDEST PUSH2 0xFC7 DUP5 DUP4 PUSH2 0x1319 JUMP JUMPDEST DUP3 PUSH1 0x1 PUSH1 0x1 PUSH1 0xA0 SHL SUB AND DUP5 PUSH1 0x1 PUSH1 0x1 PUSH1 0xA0 SHL SUB AND DUP7 PUSH1 0x1 PUSH1 0x1 PUSH1 0xA0 SHL SUB AND PUSH32 0xFBDE797D201C681B91056529119E0B02407C7BB96A4A2C75C01FC9667232C8DB DUP6 DUP6 PUSH1 0x40 MLOAD PUSH2 0x101F SWAP3 SWAP2 SWAP1 SWAP2 DUP3 MSTORE PUSH1 0x20 DUP3 ADD MSTORE PUSH1 0x40 ADD SWAP1 JUMP JUMPDEST PUSH1 0x40 MLOAD DUP1 SWAP2 SUB SWAP1 LOG4 POP POP POP POP POP JUMP JUMPDEST PUSH0 PUSH2 0x105B PUSH2 0x103B DUP4 PUSH2 0x1344 JUMP JUMPDEST DUP1 ISZERO PUSH2 0x1056 JUMPI POP PUSH0 DUP5 DUP1 PUSH2 0x1051 JUMPI PUSH2 0x1051 PUSH2 0x19BB JUMP JUMPDEST DUP7 DUP9 MULMOD GT JUMPDEST ISZERO ISZERO SWAP1 JUMP JUMPDEST PUSH2 0x1066 DUP7 DUP7 DUP7 PUSH2 0x1370 JUMP JUMPDEST PUSH2 0xAC5 SWAP2 SWAP1 PUSH2 0x19E2 JUMP JUMPDEST PUSH1 0x1 PUSH1 0x1 PUSH1 0xA0 SHL SUB DUP5 AND PUSH2 0x1099 JUMPI PUSH1 0x40 MLOAD PUSH4 0xE602DF05 PUSH1 0xE0 SHL DUP2 MSTORE PUSH0 PUSH1 0x4 DUP3 ADD MSTORE PUSH1 0x24 ADD PUSH2 0x6B6 JUMP JUMPDEST PUSH1 0x1 PUSH1 0x1 PUSH1 0xA0 SHL SUB DUP4 AND PUSH2 0x10C2 JUMPI PUSH1 0x40 MLOAD PUSH4 0x4A1406B1 PUSH1 0xE1 SHL DUP2 MSTORE PUSH0 PUSH1 0x4 DUP3 ADD MSTORE PUSH1 0x24 ADD PUSH2 0x6B6 JUMP JUMPDEST PUSH1 0x1 PUSH1 0x1 PUSH1 0xA0 SHL SUB DUP1 DUP6 AND PUSH0 SWAP1 DUP2 MSTORE PUSH1 0x1 PUSH1 0x20 SWAP1 DUP2 MSTORE PUSH1 0x40 DUP1 DUP4 KECCAK256 SWAP4 DUP8 AND DUP4 MSTORE SWAP3 SWAP1 MSTORE KECCAK256 DUP3 SWAP1 SSTORE DUP1 ISZERO PUSH2 0xDD8 JUMPI DUP3 PUSH1 0x1 PUSH1 0x1 PUSH1 0xA0 SHL SUB AND DUP5 PUSH1 0x1 PUSH1 0x1 PUSH1 0xA0 SHL SUB AND PUSH32 0x8C5BE1E5EBEC7D5BD14F71427D1E84F3DD0314C0F7B2291E5B200AC8C7C3B925 DUP5 PUSH1 0x40 MLOAD PUSH2 0x1134 SWAP2 DUP2 MSTORE PUSH1 0x20 ADD SWAP1 JUMP JUMPDEST PUSH1 0x40 MLOAD DUP1 SWAP2 SUB SWAP1 LOG3 POP POP POP POP JUMP JUMPDEST PUSH1 0x1 PUSH1 0x1 PUSH1 0xA0 SHL SUB DUP4 AND PUSH2 0x116C JUMPI DUP1 PUSH1 0x2 PUSH0 DUP3 DUP3 SLOAD PUSH2 0x1161 SWAP2 SWAP1 PUSH2 0x19E2 JUMP JUMPDEST SWAP1 SWAP2 SSTORE POP PUSH2 0x11C9 SWAP1 POP JUMP JUMPDEST PUSH1 0x1 PUSH1 0x1 PUSH1 0xA0 SHL SUB DUP4 AND PUSH0 SWAP1 DUP2 MSTORE PUSH1 0x20 DUP2 SWAP1 MSTORE PUSH1 0x40 SWAP1 KECCAK256 SLOAD DUP2 DUP2 LT ISZERO PUSH2 0x11AB JUMPI DUP4 DUP2 DUP4 PUSH1 0x40 MLOAD PUSH4 0x391434E3 PUSH1 0xE2 SHL DUP2 MSTORE PUSH1 0x4 ADD PUSH2 0x6B6 SWAP4 SWAP3 SWAP2 SWAP1 PUSH2 0x1970 JUMP JUMPDEST PUSH1 0x1 PUSH1 0x1 PUSH1 0xA0 SHL SUB DUP5 AND PUSH0 SWAP1 DUP2 MSTORE PUSH1 0x20 DUP2 SWAP1 MSTORE PUSH1 0x40 SWAP1 KECCAK256 SWAP1 DUP3 SWAP1 SUB SWAP1 SSTORE JUMPDEST PUSH1 0x1 PUSH1 0x1 PUSH1 0xA0 SHL SUB DUP3 AND PUSH2 0x11E5 JUMPI PUSH1 0x2 DUP1 SLOAD DUP3 SWAP1 SUB SWAP1 SSTORE PUSH2 0x1203 JUMP JUMPDEST PUSH1 0x1 PUSH1 0x1 PUSH1 0xA0 SHL SUB DUP3 AND PUSH0 SWAP1 DUP2 MSTORE PUSH1 0x20 DUP2 SWAP1 MSTORE PUSH1 0x40 SWAP1 KECCAK256 DUP1 SLOAD DUP3 ADD SWAP1 SSTORE JUMPDEST DUP2 PUSH1 0x1 PUSH1 0x1 PUSH1 0xA0 SHL SUB AND DUP4 PUSH1 0x1 PUSH1 0x1 PUSH1 0xA0 SHL SUB AND PUSH32 0xDDF252AD1BE2C89B69C2B068FC378DAA952BA7F163C4A11628F55A4DF523B3EF DUP4 PUSH1 0x40 MLOAD PUSH2 0x1248 SWAP2 DUP2 MSTORE PUSH1 0x20 ADD SWAP1 JUMP JUMPDEST PUSH1 0x40 MLOAD DUP1 SWAP2 SUB SWAP1 LOG3 POP POP POP JUMP JUMPDEST PUSH1 0x5 SLOAD PUSH1 0x1 PUSH1 0xA0 SHL SWAP1 DIV PUSH1 0xFF AND PUSH2 0x97E JUMPI PUSH1 0x40 MLOAD PUSH4 0x8DFC202B PUSH1 0xE0 SHL DUP2 MSTORE PUSH1 0x4 ADD PUSH1 0x40 MLOAD DUP1 SWAP2 SUB SWAP1 REVERT JUMPDEST PUSH2 0x1289 DUP5 DUP4 PUSH2 0x1420 JUMP JUMPDEST PUSH2 0x1293 DUP4 DUP3 PUSH2 0x144C JUMP JUMPDEST DUP3 PUSH1 0x1 PUSH1 0x1 PUSH1 0xA0 SHL SUB AND DUP5 PUSH1 0x1 PUSH1 0x1 PUSH1 0xA0 SHL SUB AND PUSH32 0xDCBC1C05240F31FF3AD067EF1EE35CE4997762752E3A095284754544F4C709D7 DUP5 DUP5 PUSH1 0x40 MLOAD PUSH2 0x1134 SWAP3 SWAP2 SWAP1 SWAP2 DUP3 MSTORE PUSH1 0x20 DUP3 ADD MSTORE PUSH1 0x40 ADD SWAP1 JUMP JUMPDEST PUSH1 0x1 PUSH1 0x1 PUSH1 0xA0 SHL SUB DUP3 AND PUSH2 0x130A JUMPI PUSH1 0x40 MLOAD PUSH4 0x4B637E8F PUSH1 0xE1 SHL DUP2 MSTORE PUSH0 PUSH1 0x4 DUP3 ADD MSTORE PUSH1 0x24 ADD PUSH2 0x6B6 JUMP JUMPDEST PUSH2 0x1315 DUP3 PUSH0 DUP4 PUSH2 0x1142 JUMP JUMPDEST POP POP JUMP JUMPDEST PUSH2 0x1315 PUSH32 0x0 DUP4 DUP4 PUSH2 0x1480 JUMP JUMPDEST PUSH0 PUSH1 0x2 DUP3 PUSH1 0x3 DUP2 GT ISZERO PUSH2 0x1359 JUMPI PUSH2 0x1359 PUSH2 0x1AE3 JUMP JUMPDEST PUSH2 0x1363 SWAP2 SWAP1 PUSH2 0x1AF7 JUMP JUMPDEST PUSH1 0xFF AND PUSH1 0x1 EQ SWAP1 POP SWAP2 SWAP1 POP JUMP JUMPDEST PUSH0 DUP1 PUSH0 PUSH2 0x137D DUP7 DUP7 PUSH2 0x14B5 JUMP JUMPDEST SWAP2 POP SWAP2 POP DUP2 PUSH0 SUB PUSH2 0x13A1 JUMPI DUP4 DUP2 DUP2 PUSH2 0x1397 JUMPI PUSH2 0x1397 PUSH2 0x19BB JUMP JUMPDEST DIV SWAP3 POP POP POP PUSH2 0x93C JUMP JUMPDEST DUP2 DUP5 GT PUSH2 0x13B8 JUMPI PUSH2 0x13B8 PUSH1 0x3 DUP6 ISZERO MUL PUSH1 0x11 XOR PUSH2 0x14D1 JUMP JUMPDEST PUSH0 DUP5 DUP7 DUP9 MULMOD PUSH0 DUP7 DUP2 SUB DUP8 AND SWAP7 DUP8 SWAP1 DIV SWAP7 PUSH1 0x2 PUSH1 0x3 DUP10 MUL DUP2 XOR DUP1 DUP11 MUL DUP3 SUB MUL DUP1 DUP11 MUL DUP3 SUB MUL DUP1 DUP11 MUL DUP3 SUB MUL DUP1 DUP11 MUL DUP3 SUB MUL DUP1 DUP11 MUL DUP3 SUB MUL DUP1 DUP11 MUL SWAP1 SWAP2 SUB MUL SWAP2 DUP2 SWAP1 SUB DUP2 SWAP1 DIV PUSH1 0x1 ADD DUP6 DUP5 GT SWAP1 SWAP7 SUB SWAP6 SWAP1 SWAP6 MUL SWAP2 SWAP1 SWAP4 SUB SWAP4 SWAP1 SWAP4 DIV SWAP3 SWAP1 SWAP3 OR MUL SWAP2 POP POP SWAP4 SWAP3 POP POP POP JUMP JUMPDEST PUSH2 0x1315 PUSH32 0x0 DUP4 ADDRESS DUP5 PUSH2 0x14E2 JUMP JUMPDEST PUSH1 0x1 PUSH1 0x1 PUSH1 0xA0 SHL SUB DUP3 AND PUSH2 0x1475 JUMPI PUSH1 0x40 MLOAD PUSH4 0xEC442F05 PUSH1 0xE0 SHL DUP2 MSTORE PUSH0 PUSH1 0x4 DUP3 ADD MSTORE PUSH1 0x24 ADD PUSH2 0x6B6 JUMP JUMPDEST PUSH2 0x1315 PUSH0 DUP4 DUP4 PUSH2 0x1142 JUMP JUMPDEST PUSH2 0x148D DUP4 DUP4 DUP4 PUSH1 0x1 PUSH2 0x1518 JUMP JUMPDEST PUSH2 0xC94 JUMPI PUSH1 0x40 MLOAD PUSH4 0x5274AFE7 PUSH1 0xE0 SHL DUP2 MSTORE PUSH1 0x1 PUSH1 0x1 PUSH1 0xA0 SHL SUB DUP5 AND PUSH1 0x4 DUP3 ADD MSTORE PUSH1 0x24 ADD PUSH2 0x6B6 JUMP JUMPDEST PUSH0 DUP1 PUSH0 NOT DUP4 DUP6 MULMOD SWAP4 SWAP1 SWAP3 MUL DUP1 DUP5 LT SWAP4 DUP2 SWAP1 SUB SWAP4 SWAP1 SWAP4 SUB SWAP4 SWAP2 POP POP JUMP JUMPDEST PUSH4 0x4E487B71 PUSH0 MSTORE DUP1 PUSH1 0x20 MSTORE PUSH1 0x24 PUSH1 0x1C REVERT JUMPDEST PUSH2 0x14F0 DUP5 DUP5 DUP5 DUP5 PUSH1 0x1 PUSH2 0x157A JUMP JUMPDEST PUSH2 0xDD8 JUMPI PUSH1 0x40 MLOAD PUSH4 0x5274AFE7 PUSH1 0xE0 SHL DUP2 MSTORE PUSH1 0x1 PUSH1 0x1 PUSH1 0xA0 SHL SUB DUP6 AND PUSH1 0x4 DUP3 ADD MSTORE PUSH1 0x24 ADD PUSH2 0x6B6 JUMP JUMPDEST PUSH1 0x40 MLOAD PUSH4 0xA9059CBB PUSH1 0xE0 SHL PUSH0 DUP2 DUP2 MSTORE PUSH1 0x1 PUSH1 0x1 PUSH1 0xA0 SHL SUB DUP7 AND PUSH1 0x4 MSTORE PUSH1 0x24 DUP6 SWAP1 MSTORE SWAP2 PUSH1 0x20 DUP4 PUSH1 0x44 DUP2 DUP1 DUP12 GAS CALL SWAP3 POP PUSH1 0x1 PUSH0 MLOAD EQ DUP4 AND PUSH2 0x156E JUMPI DUP4 DUP4 ISZERO AND ISZERO PUSH2 0x1562 JUMPI RETURNDATASIZE PUSH0 DUP3 RETURNDATACOPY RETURNDATASIZE DUP2 REVERT JUMPDEST PUSH0 DUP8 EXTCODESIZE GT RETURNDATASIZE ISZERO AND DUP4 AND SWAP3 POP JUMPDEST PUSH1 0x40 MSTORE POP SWAP5 SWAP4 POP POP POP POP JUMP JUMPDEST PUSH1 0x40 MLOAD PUSH4 0x23B872DD PUSH1 0xE0 SHL PUSH0 DUP2 DUP2 MSTORE PUSH1 0x1 PUSH1 0x1 PUSH1 0xA0 SHL SUB DUP8 DUP2 AND PUSH1 0x4 MSTORE DUP7 AND PUSH1 0x24 MSTORE PUSH1 0x44 DUP6 SWAP1 MSTORE SWAP2 PUSH1 0x20 DUP4 PUSH1 0x64 DUP2 DUP1 DUP13 GAS CALL SWAP3 POP PUSH1 0x1 PUSH0 MLOAD EQ DUP4 AND PUSH2 0x15D6 JUMPI DUP4 DUP4 ISZERO AND ISZERO PUSH2 0x15CA JUMPI RETURNDATASIZE PUSH0 DUP3 RETURNDATACOPY RETURNDATASIZE DUP2 REVERT JUMPDEST PUSH0 DUP9 EXTCODESIZE GT RETURNDATASIZE ISZERO AND DUP4 AND SWAP3 POP JUMPDEST PUSH1 0x40 MSTORE POP PUSH0 PUSH1 0x60 MSTORE SWAP6 SWAP5 POP POP POP POP POP JUMP JUMPDEST PUSH0 JUMPDEST DUP4 DUP2 LT ISZERO PUSH2 0x1601 JUMPI DUP2 DUP2 ADD MLOAD DUP4 DUP3 ADD MSTORE PUSH1 0x20 ADD PUSH2 0x15E9 JUMP JUMPDEST POP POP PUSH0 SWAP2 ADD MSTORE JUMP JUMPDEST PUSH1 0x20 DUP2 MSTORE PUSH0 DUP3 MLOAD DUP1 PUSH1 0x20 DUP5 ADD MSTORE PUSH2 0x1627 DUP2 PUSH1 0x40 DUP6 ADD PUSH1 0x20 DUP8 ADD PUSH2 0x15E7 JUMP JUMPDEST PUSH1 0x1F ADD PUSH1 0x1F NOT AND SWAP2 SWAP1 SWAP2 ADD PUSH1 0x40 ADD SWAP3 SWAP2 POP POP JUMP JUMPDEST PUSH0 PUSH1 0x20 DUP3 DUP5 SUB SLT ISZERO PUSH2 0x164B JUMPI PUSH0 DUP1 REVERT JUMPDEST POP CALLDATALOAD SWAP2 SWAP1 POP JUMP JUMPDEST DUP1 CALLDATALOAD PUSH1 0x1 PUSH1 0x1 PUSH1 0xA0 SHL SUB DUP2 AND DUP2 EQ PUSH2 0x1668 JUMPI PUSH0 DUP1 REVERT JUMPDEST SWAP2 SWAP1 POP JUMP JUMPDEST PUSH0 DUP1 PUSH1 0x40 DUP4 DUP6 SUB SLT ISZERO PUSH2 0x167E JUMPI PUSH0 DUP1 REVERT JUMPDEST PUSH2 0x1687 DUP4 PUSH2 0x1652 JUMP JUMPDEST SWAP5 PUSH1 0x20 SWAP4 SWAP1 SWAP4 ADD CALLDATALOAD SWAP4 POP POP POP JUMP JUMPDEST PUSH0 DUP1 PUSH0 DUP1 PUSH1 0x60 DUP6 DUP8 SUB SLT ISZERO PUSH2 0x16A8 JUMPI PUSH0 DUP1 REVERT JUMPDEST DUP5 CALLDATALOAD SWAP4 POP PUSH1 0x20 DUP6 ADD CALLDATALOAD PUSH8 0xFFFFFFFFFFFFFFFF DUP1 DUP3 GT ISZERO PUSH2 0x16C6 JUMPI PUSH0 DUP1 REVERT JUMPDEST DUP2 DUP8 ADD SWAP2 POP DUP8 PUSH1 0x1F DUP4 ADD SLT PUSH2 0x16D9 JUMPI PUSH0 DUP1 REVERT JUMPDEST DUP2 CALLDATALOAD DUP2 DUP2 GT ISZERO PUSH2 0x16E7 JUMPI PUSH0 DUP1 REVERT JUMPDEST DUP9 PUSH1 0x20 DUP3 PUSH1 0x5 SHL DUP6 ADD ADD GT ISZERO PUSH2 0x16FB JUMPI PUSH0 DUP1 REVERT JUMPDEST SWAP6 SWAP9 PUSH1 0x20 SWAP3 SWAP1 SWAP3 ADD SWAP8 POP SWAP5 SWAP6 PUSH1 0x40 ADD CALLDATALOAD SWAP5 POP SWAP3 POP POP POP JUMP JUMPDEST PUSH0 DUP1 PUSH0 PUSH1 0x60 DUP5 DUP7 SUB SLT ISZERO PUSH2 0x1725 JUMPI PUSH0 DUP1 REVERT JUMPDEST PUSH2 0x172E DUP5 PUSH2 0x1652 JUMP JUMPDEST SWAP3 POP PUSH2 0x173C PUSH1 0x20 DUP6 ADD PUSH2 0x1652 JUMP JUMPDEST SWAP2 POP PUSH1 0x40 DUP5 ADD CALLDATALOAD SWAP1 POP SWAP3 POP SWAP3 POP SWAP3 JUMP JUMPDEST PUSH0 PUSH1 0x20 DUP3 DUP5 SUB SLT ISZERO PUSH2 0x175C JUMPI PUSH0 DUP1 REVERT JUMPDEST PUSH2 0x93C DUP3 PUSH2 0x1652 JUMP JUMPDEST PUSH0 DUP1 PUSH1 0x40 DUP4 DUP6 SUB SLT ISZERO PUSH2 0x1776 JUMPI PUSH0 DUP1 REVERT JUMPDEST DUP3 CALLDATALOAD SWAP2 POP PUSH2 0x1786 PUSH1 0x20 DUP5 ADD PUSH2 0x1652 JUMP JUMPDEST SWAP1 POP SWAP3 POP SWAP3 SWAP1 POP JUMP JUMPDEST PUSH0 DUP1 PUSH0 PUSH1 0x60 DUP5 DUP7 SUB SLT ISZERO PUSH2 0x17A1 JUMPI PUSH0 DUP1 REVERT JUMPDEST DUP4 CALLDATALOAD SWAP3 POP PUSH2 0x17B1 PUSH1 0x20 DUP6 ADD PUSH2 0x1652 JUMP JUMPDEST SWAP2 POP PUSH2 0x17BF PUSH1 0x40 DUP6 ADD PUSH2 0x1652 JUMP JUMPDEST SWAP1 POP SWAP3 POP SWAP3 POP SWAP3 JUMP JUMPDEST PUSH0 DUP1 PUSH1 0x40 DUP4 DUP6 SUB SLT ISZERO PUSH2 0x17D9 JUMPI PUSH0 DUP1 REVERT JUMPDEST PUSH2 0x17E2 DUP4 PUSH2 0x1652 JUMP JUMPDEST SWAP2 POP PUSH2 0x1786 PUSH1 0x20 DUP5 ADD PUSH2 0x1652 JUMP JUMPDEST PUSH0 DUP1 PUSH0 PUSH1 0x60 DUP5 DUP7 SUB SLT ISZERO PUSH2 0x1802 JUMPI PUSH0 DUP1 REVERT JUMPDEST POP POP DUP2 CALLDATALOAD SWAP4 PUSH1 0x20 DUP4 ADD CALLDATALOAD SWAP4 POP PUSH1 0x40 SWAP1 SWAP3 ADD CALLDATALOAD SWAP2 SWAP1 POP JUMP JUMPDEST PUSH0 PUSH1 0x20 DUP3 DUP5 SUB SLT ISZERO PUSH2 0x1829 JUMPI PUSH0 DUP1 REVERT JUMPDEST POP MLOAD SWAP2 SWAP1 POP JUMP JUMPDEST PUSH1 0x1 DUP2 DUP2 SHR SWAP1 DUP3 AND DUP1 PUSH2 0x1844 JUMPI PUSH1 0x7F DUP3 AND SWAP2 POP JUMPDEST PUSH1 0x20 DUP3 LT DUP2 SUB PUSH2 0x1862 JUMPI PUSH4 0x4E487B71 PUSH1 0xE0 SHL PUSH0 MSTORE PUSH1 0x22 PUSH1 0x4 MSTORE PUSH1 0x24 PUSH0 REVERT JUMPDEST POP SWAP2 SWAP1 POP JUMP JUMPDEST PUSH1 0x20 DUP1 DUP3 MSTORE PUSH1 0x24 SWAP1 DUP3 ADD MSTORE PUSH32 0x42726965725661756C743A2043616C6C6572206973206E6F7420746865206461 PUSH1 0x40 DUP3 ADD MSTORE PUSH4 0x32B6B7B7 PUSH1 0xE1 SHL PUSH1 0x60 DUP3 ADD MSTORE PUSH1 0x80 ADD SWAP1 JUMP JUMPDEST PUSH0 PUSH1 0x20 DUP3 DUP5 SUB SLT ISZERO PUSH2 0x18BC JUMPI PUSH0 DUP1 REVERT JUMPDEST DUP2 MLOAD DUP1 ISZERO ISZERO DUP2 EQ PUSH2 0x93C JUMPI PUSH0 DUP1 REVERT JUMPDEST PUSH1 0x1 PUSH1 0x1 PUSH1 0xA0 SHL SUB DUP8 AND DUP2 MSTORE PUSH1 0x20 DUP2 ADD DUP7 SWAP1 MSTORE PUSH1 0x40 DUP2 ADD DUP6 SWAP1 MSTORE PUSH1 0xA0 PUSH1 0x60 DUP3 ADD DUP2 SWAP1 MSTORE DUP2 ADD DUP4 SWAP1 MSTORE PUSH0 PUSH1 0x1 PUSH1 0x1 PUSH1 0xFB SHL SUB DUP5 GT ISZERO PUSH2 0x1907 JUMPI PUSH0 DUP1 REVERT JUMPDEST DUP4 PUSH1 0x5 SHL DUP1 DUP7 PUSH1 0xC0 DUP6 ADD CALLDATACOPY PUSH1 0x80 DUP4 ADD SWAP4 SWAP1 SWAP4 MSTORE POP ADD PUSH1 0xC0 ADD SWAP6 SWAP5 POP POP POP POP POP JUMP JUMPDEST PUSH0 DUP3 MLOAD PUSH2 0x1939 DUP2 DUP5 PUSH1 0x20 DUP8 ADD PUSH2 0x15E7 JUMP JUMPDEST SWAP2 SWAP1 SWAP2 ADD SWAP3 SWAP2 POP POP JUMP JUMPDEST PUSH4 0x4E487B71 PUSH1 0xE0 SHL PUSH0 MSTORE PUSH1 0x11 PUSH1 0x4 MSTORE PUSH1 0x24 PUSH0 REVERT JUMPDEST PUSH1 0xFF DUP2 DUP2 AND DUP4 DUP3 AND ADD SWAP1 DUP2 GT ISZERO PUSH2 0x663 JUMPI PUSH2 0x663 PUSH2 0x1943 JUMP JUMPDEST PUSH1 0x1 PUSH1 0x1 PUSH1 0xA0 SHL SUB SWAP4 SWAP1 SWAP4 AND DUP4 MSTORE PUSH1 0x20 DUP4 ADD SWAP2 SWAP1 SWAP2 MSTORE PUSH1 0x40 DUP3 ADD MSTORE PUSH1 0x60 ADD SWAP1 JUMP JUMPDEST DUP2 DUP2 SUB DUP2 DUP2 GT ISZERO PUSH2 0x663 JUMPI PUSH2 0x663 PUSH2 0x1943 JUMP JUMPDEST DUP1 DUP3 MUL DUP2 ISZERO DUP3 DUP3 DIV DUP5 EQ OR PUSH2 0x663 JUMPI PUSH2 0x663 PUSH2 0x1943 JUMP JUMPDEST PUSH4 0x4E487B71 PUSH1 0xE0 SHL PUSH0 MSTORE PUSH1 0x12 PUSH1 0x4 MSTORE PUSH1 0x24 PUSH0 REVERT JUMPDEST PUSH0 DUP3 PUSH2 0x19DD JUMPI PUSH2 0x19DD PUSH2 0x19BB JUMP JUMPDEST POP DIV SWAP1 JUMP JUMPDEST DUP1 DUP3 ADD DUP1 DUP3 GT ISZERO PUSH2 0x663 JUMPI PUSH2 0x663 PUSH2 0x1943 JUMP JUMPDEST PUSH1 0x1 DUP2 DUP2 JUMPDEST DUP1 DUP6 GT ISZERO PUSH2 0x1A2F JUMPI DUP2 PUSH0 NOT DIV DUP3 GT ISZERO PUSH2 0x1A15 JUMPI PUSH2 0x1A15 PUSH2 0x1943 JUMP JUMPDEST DUP1 DUP6 AND ISZERO PUSH2 0x1A22 JUMPI SWAP2 DUP2 MUL SWAP2 JUMPDEST SWAP4 DUP5 SHR SWAP4 SWAP1 DUP1 MUL SWAP1 PUSH2 0x19FA JUMP JUMPDEST POP SWAP3 POP SWAP3 SWAP1 POP JUMP JUMPDEST PUSH0 DUP3 PUSH2 0x1A45 JUMPI POP PUSH1 0x1 PUSH2 0x663 JUMP JUMPDEST DUP2 PUSH2 0x1A51 JUMPI POP PUSH0 PUSH2 0x663 JUMP JUMPDEST DUP2 PUSH1 0x1 DUP2 EQ PUSH2 0x1A67 JUMPI PUSH1 0x2 DUP2 EQ PUSH2 0x1A71 JUMPI PUSH2 0x1A8D JUMP JUMPDEST PUSH1 0x1 SWAP2 POP POP PUSH2 0x663 JUMP JUMPDEST PUSH1 0xFF DUP5 GT ISZERO PUSH2 0x1A82 JUMPI PUSH2 0x1A82 PUSH2 0x1943 JUMP JUMPDEST POP POP PUSH1 0x1 DUP3 SHL PUSH2 0x663 JUMP JUMPDEST POP PUSH1 0x20 DUP4 LT PUSH2 0x133 DUP4 LT AND PUSH1 0x4E DUP5 LT PUSH1 0xB DUP5 LT AND OR ISZERO PUSH2 0x1AB0 JUMPI POP DUP2 DUP2 EXP PUSH2 0x663 JUMP JUMPDEST PUSH2 0x1ABA DUP4 DUP4 PUSH2 0x19F5 JUMP JUMPDEST DUP1 PUSH0 NOT DIV DUP3 GT ISZERO PUSH2 0x1ACD JUMPI PUSH2 0x1ACD PUSH2 0x1943 JUMP JUMPDEST MUL SWAP4 SWAP3 POP POP POP JUMP JUMPDEST PUSH0 PUSH2 0x93C PUSH1 0xFF DUP5 AND DUP4 PUSH2 0x1A37 JUMP JUMPDEST PUSH4 0x4E487B71 PUSH1 0xE0 SHL PUSH0 MSTORE PUSH1 0x21 PUSH1 0x4 MSTORE PUSH1 0x24 PUSH0 REVERT JUMPDEST PUSH0 PUSH1 0xFF DUP4 AND DUP1 PUSH2 0x1B09 JUMPI PUSH2 0x1B09 PUSH2 0x19BB JUMP JUMPDEST DUP1 PUSH1 0xFF DUP5 AND MOD SWAP2 POP POP SWAP3 SWAP2 POP POP JUMP INVALID LOG2 PUSH5 0x6970667358 0x22 SLT KECCAK256 PUSH2 0x4881 0xE9 0x2C 0x2D PUSH7 0xD728C757A08A51 SAR SELFDESTRUCT SSTORE 0x28 SWAP2 0xC8 SELFBALANCE 0xC1 0xAD DUP6 NUMBER 0xAD POP 0xA6 0xAC 0xC6 PUSH25 0x9564736F6C63430008180033A2646970667358221220174F23 DUP4 JUMP MCOPY DUP8 MSTORE LOG3 0xD4 0xDA 0xD3 0xE0 CALLDATALOAD PUSH22 0x4B267AAF052C9D9CB6554CA87CE8F759C764736F6C63 NUMBER STOP ADDMOD XOR STOP CALLER "},"methodIdentifiers":{"allVaults(uint256)":"9094a91e","brierDaemon()":"ffb1ca80","deployVault(address,string,string,string)":"8661ab6c","getVaultsCount()":"b9b658db","isBrierVault(address)":"96fa7b38","owner()":"8da5cb5b","polymarketCTF()":"77eb4e23","renounceOwnership()":"715018a6","setDaemon(address)":"401dbe23","transferOwnership(address)":"f2fde38b","usdcToken()":"11eac855"}}}}}