{"contracts/BrierVault.sol":{"BrierVault":{"abi":[{"inputs":[{"internalType":"contract IERC20","name":"asset_","type":"address"},{"internalType":"string","name":"vaultName_","type":"string"},{"internalType":"string","name":"vaultSymbol_","type":"string"},{"internalType":"address","name":"_brierDaemon","type":"address"},{"internalType":"address","name":"_builderWallet","type":"address"},{"internalType":"address","name":"_polymarketCTF","type":"address"},{"internalType":"address","name":"_gnosisSafeAdmin","type":"address"},{"internalType":"address","name":"_feeRecipient","type":"address"},{"internalType":"uint256","name":"_maxCapacity","type":"uint256"}],"stateMutability":"nonpayable","type":"constructor"},{"inputs":[{"internalType":"address","name":"spender","type":"address"},{"internalType":"uint256","name":"allowance","type":"uint256"},{"internalType":"uint256","name":"needed","type":"uint256"}],"name":"ERC20InsufficientAllowance","type":"error"},{"inputs":[{"internalType":"address","name":"sender","type":"address"},{"internalType":"uint256","name":"balance","type":"uint256"},{"internalType":"uint256","name":"needed","type":"uint256"}],"name":"ERC20InsufficientBalance","type":"error"},{"inputs":[{"internalType":"address","name":"approver","type":"address"}],"name":"ERC20InvalidApprover","type":"error"},{"inputs":[{"internalType":"address","name":"receiver","type":"address"}],"name":"ERC20InvalidReceiver","type":"error"},{"inputs":[{"internalType":"address","name":"sender","type":"address"}],"name":"ERC20InvalidSender","type":"error"},{"inputs":[{"internalType":"address","name":"spender","type":"address"}],"name":"ERC20InvalidSpender","type":"error"},{"inputs":[{"internalType":"address","name":"receiver","type":"address"},{"internalType":"uint256","name":"assets","type":"uint256"},{"internalType":"uint256","name":"max","type":"uint256"}],"name":"ERC4626ExceededMaxDeposit","type":"error"},{"inputs":[{"internalType":"address","name":"receiver","type":"address"},{"internalType":"uint256","name":"shares","type":"uint256"},{"internalType":"uint256","name":"max","type":"uint256"}],"name":"ERC4626ExceededMaxMint","type":"error"},{"inputs":[{"internalType":"address","name":"owner","type":"address"},{"internalType":"uint256","name":"shares","type":"uint256"},{"internalType":"uint256","name":"max","type":"uint256"}],"name":"ERC4626ExceededMaxRedeem","type":"error"},{"inputs":[{"internalType":"address","name":"owner","type":"address"},{"internalType":"uint256","name":"assets","type":"uint256"},{"internalType":"uint256","name":"max","type":"uint256"}],"name":"ERC4626ExceededMaxWithdraw","type":"error"},{"inputs":[],"name":"EnforcedPause","type":"error"},{"inputs":[],"name":"ExpectedPause","type":"error"},{"inputs":[{"internalType":"address","name":"owner","type":"address"}],"name":"OwnableInvalidOwner","type":"error"},{"inputs":[{"internalType":"address","name":"account","type":"address"}],"name":"OwnableUnauthorizedAccount","type":"error"},{"inputs":[],"name":"ReentrancyGuardReentrantCall","type":"error"},{"inputs":[{"internalType":"address","name":"spender","type":"address"},{"internalType":"uint256","name":"currentAllowance","type":"uint256"},{"internalType":"uint256","name":"requestedDecrease","type":"uint256"}],"name":"SafeERC20FailedDecreaseAllowance","type":"error"},{"inputs":[{"internalType":"address","name":"token","type":"address"}],"name":"SafeERC20FailedOperation","type":"error"},{"anonymous":false,"inputs":[{"indexed":true,"internalType":"address","name":"owner","type":"address"},{"indexed":true,"internalType":"address","name":"spender","type":"address"},{"indexed":false,"internalType":"uint256","name":"value","type":"uint256"}],"name":"Approval","type":"event"},{"anonymous":false,"inputs":[{"indexed":true,"internalType":"address","name":"oldDaemon","type":"address"},{"indexed":true,"internalType":"address","name":"newDaemon","type":"address"}],"name":"DaemonUpdated","type":"event"},{"anonymous":false,"inputs":[{"indexed":true,"internalType":"address","name":"sender","type":"address"},{"indexed":true,"internalType":"address","name":"owner","type":"address"},{"indexed":false,"internalType":"uint256","name":"assets","type":"uint256"},{"indexed":false,"internalType":"uint256","name":"shares","type":"uint256"}],"name":"Deposit","type":"event"},{"anonymous":false,"inputs":[{"indexed":false,"internalType":"uint256","name":"builderFee","type":"uint256"},{"indexed":false,"internalType":"uint256","name":"platformFee","type":"uint256"},{"indexed":false,"internalType":"uint256","name":"depositorProfit","type":"uint256"}],"name":"FeesDistributed","type":"event"},{"anonymous":false,"inputs":[{"indexed":false,"internalType":"uint256","name":"newCapacity","type":"uint256"}],"name":"MaxCapacityUpdated","type":"event"},{"anonymous":false,"inputs":[{"indexed":true,"internalType":"address","name":"previousOwner","type":"address"},{"indexed":true,"internalType":"address","name":"newOwner","type":"address"}],"name":"OwnershipTransferred","type":"event"},{"anonymous":false,"inputs":[{"indexed":false,"internalType":"address","name":"account","type":"address"}],"name":"Paused","type":"event"},{"anonymous":false,"inputs":[{"indexed":true,"internalType":"bytes32","name":"tradeId","type":"bytes32"},{"indexed":true,"internalType":"bytes32","name":"marketId","type":"bytes32"},{"indexed":false,"internalType":"uint256","name":"amount","type":"uint256"}],"name":"TradeExecuted","type":"event"},{"anonymous":false,"inputs":[{"indexed":true,"internalType":"bytes32","name":"tradeId","type":"bytes32"},{"indexed":false,"internalType":"uint256","name":"payout","type":"uint256"},{"indexed":false,"internalType":"bool","name":"profitable","type":"bool"}],"name":"TradeSettled","type":"event"},{"anonymous":false,"inputs":[{"indexed":true,"internalType":"bytes32","name":"tradeId","type":"bytes32"}],"name":"TradeStale","type":"event"},{"anonymous":false,"inputs":[{"indexed":true,"internalType":"address","name":"from","type":"address"},{"indexed":true,"internalType":"address","name":"to","type":"address"},{"indexed":false,"internalType":"uint256","name":"value","type":"uint256"}],"name":"Transfer","type":"event"},{"anonymous":false,"inputs":[{"indexed":false,"internalType":"address","name":"account","type":"address"}],"name":"Unpaused","type":"event"},{"anonymous":false,"inputs":[{"indexed":true,"internalType":"address","name":"sender","type":"address"},{"indexed":true,"internalType":"address","name":"receiver","type":"address"},{"indexed":true,"internalType":"address","name":"owner","type":"address"},{"indexed":false,"internalType":"uint256","name":"assets","type":"uint256"},{"indexed":false,"internalType":"uint256","name":"shares","type":"uint256"}],"name":"Withdraw","type":"event"},{"inputs":[],"name":"BUILDER_SHARE_BPS","outputs":[{"internalType":"uint256","name":"","type":"uint256"}],"stateMutability":"view","type":"function"},{"inputs":[],"name":"DEPOSITOR_SHARE_BPS","outputs":[{"internalType":"uint256","name":"","type":"uint256"}],"stateMutability":"view","type":"function"},{"inputs":[],"name":"PLATFORM_SHARE_BPS","outputs":[{"internalType":"uint256","name":"","type":"uint256"}],"stateMutability":"view","type":"function"},{"inputs":[],"name":"activeLockedCapital","outputs":[{"internalType":"uint256","name":"","type":"uint256"}],"stateMutability":"view","type":"function"},{"inputs":[{"internalType":"address","name":"owner","type":"address"},{"internalType":"address","name":"spender","type":"address"}],"name":"allowance","outputs":[{"internalType":"uint256","name":"","type":"uint256"}],"stateMutability":"view","type":"function"},{"inputs":[{"internalType":"address","name":"spender","type":"address"},{"internalType":"uint256","name":"value","type":"uint256"}],"name":"approve","outputs":[{"internalType":"bool","name":"","type":"bool"}],"stateMutability":"nonpayable","type":"function"},{"inputs":[],"name":"asset","outputs":[{"internalType":"address","name":"","type":"address"}],"stateMutability":"view","type":"function"},{"inputs":[{"internalType":"address","name":"account","type":"address"}],"name":"balanceOf","outputs":[{"internalType":"uint256","name":"","type":"uint256"}],"stateMutability":"view","type":"function"},{"inputs":[],"name":"brierDaemon","outputs":[{"internalType":"address","name":"","type":"address"}],"stateMutability":"view","type":"function"},{"inputs":[],"name":"builderWallet","outputs":[{"internalType":"address","name":"","type":"address"}],"stateMutability":"view","type":"function"},{"inputs":[{"internalType":"uint256","name":"shares","type":"uint256"}],"name":"convertToAssets","outputs":[{"internalType":"uint256","name":"","type":"uint256"}],"stateMutability":"view","type":"function"},{"inputs":[{"internalType":"uint256","name":"assets","type":"uint256"}],"name":"convertToShares","outputs":[{"internalType":"uint256","name":"","type":"uint256"}],"stateMutability":"view","type":"function"},{"inputs":[],"name":"decimals","outputs":[{"internalType":"uint8","name":"","type":"uint8"}],"stateMutability":"view","type":"function"},{"inputs":[{"internalType":"uint256","name":"assets","type":"uint256"},{"internalType":"address","name":"receiver","type":"address"}],"name":"deposit","outputs":[{"internalType":"uint256","name":"","type":"uint256"}],"stateMutability":"nonpayable","type":"function"},{"inputs":[{"internalType":"bytes32","name":"tradeId","type":"bytes32"},{"internalType":"bytes32","name":"marketId","type":"bytes32"},{"internalType":"uint256[]","name":"outcome","type":"uint256[]"},{"internalType":"uint256","name":"usdcAmount","type":"uint256"}],"name":"executeTrade","outputs":[],"stateMutability":"nonpayable","type":"function"},{"inputs":[],"name":"feeRecipient","outputs":[{"internalType":"address","name":"","type":"address"}],"stateMutability":"view","type":"function"},{"inputs":[],"name":"idleCapital","outputs":[{"internalType":"uint256","name":"","type":"uint256"}],"stateMutability":"view","type":"function"},{"inputs":[{"internalType":"bytes32","name":"tradeId","type":"bytes32"}],"name":"markTradeStale","outputs":[],"stateMutability":"nonpayable","type":"function"},{"inputs":[],"name":"maxCapacity","outputs":[{"internalType":"uint256","name":"","type":"uint256"}],"stateMutability":"view","type":"function"},{"inputs":[{"internalType":"address","name":"","type":"address"}],"name":"maxDeposit","outputs":[{"internalType":"uint256","name":"","type":"uint256"}],"stateMutability":"view","type":"function"},{"inputs":[{"internalType":"address","name":"","type":"address"}],"name":"maxMint","outputs":[{"internalType":"uint256","name":"","type":"uint256"}],"stateMutability":"view","type":"function"},{"inputs":[{"internalType":"address","name":"owner","type":"address"}],"name":"maxRedeem","outputs":[{"internalType":"uint256","name":"","type":"uint256"}],"stateMutability":"view","type":"function"},{"inputs":[{"internalType":"address","name":"owner","type":"address"}],"name":"maxWithdraw","outputs":[{"internalType":"uint256","name":"","type":"uint256"}],"stateMutability":"view","type":"function"},{"inputs":[{"internalType":"uint256","name":"shares","type":"uint256"},{"internalType":"address","name":"receiver","type":"address"}],"name":"mint","outputs":[{"internalType":"uint256","name":"","type":"uint256"}],"stateMutability":"nonpayable","type":"function"},{"inputs":[],"name":"name","outputs":[{"internalType":"string","name":"","type":"string"}],"stateMutability":"view","type":"function"},{"inputs":[],"name":"owner","outputs":[{"internalType":"address","name":"","type":"address"}],"stateMutability":"view","type":"function"},{"inputs":[],"name":"pause","outputs":[],"stateMutability":"nonpayable","type":"function"},{"inputs":[],"name":"paused","outputs":[{"internalType":"bool","name":"","type":"bool"}],"stateMutability":"view","type":"function"},{"inputs":[],"name":"polymarketCTF","outputs":[{"internalType":"address","name":"","type":"address"}],"stateMutability":"view","type":"function"},{"inputs":[{"internalType":"uint256","name":"assets","type":"uint256"}],"name":"previewDeposit","outputs":[{"internalType":"uint256","name":"","type":"uint256"}],"stateMutability":"view","type":"function"},{"inputs":[{"internalType":"uint256","name":"shares","type":"uint256"}],"name":"previewMint","outputs":[{"internalType":"uint256","name":"","type":"uint256"}],"stateMutability":"view","type":"function"},{"inputs":[{"internalType":"uint256","name":"shares","type":"uint256"}],"name":"previewRedeem","outputs":[{"internalType":"uint256","name":"","type":"uint256"}],"stateMutability":"view","type":"function"},{"inputs":[{"internalType":"uint256","name":"assets","type":"uint256"}],"name":"previewWithdraw","outputs":[{"internalType":"uint256","name":"","type":"uint256"}],"stateMutability":"view","type":"function"},{"inputs":[{"internalType":"uint256","name":"shares","type":"uint256"},{"internalType":"address","name":"receiver","type":"address"},{"internalType":"address","name":"owner","type":"address"}],"name":"redeem","outputs":[{"internalType":"uint256","name":"","type":"uint256"}],"stateMutability":"nonpayable","type":"function"},{"inputs":[],"name":"renounceOwnership","outputs":[],"stateMutability":"nonpayable","type":"function"},{"inputs":[{"internalType":"address","name":"_newDaemon","type":"address"}],"name":"setDaemon","outputs":[],"stateMutability":"nonpayable","type":"function"},{"inputs":[{"internalType":"address","name":"_newFeeRecipient","type":"address"}],"name":"setFeeRecipient","outputs":[],"stateMutability":"nonpayable","type":"function"},{"inputs":[{"internalType":"uint256","name":"_maxCapacity","type":"uint256"}],"name":"setMaxCapacity","outputs":[],"stateMutability":"nonpayable","type":"function"},{"inputs":[{"internalType":"bytes32","name":"tradeId","type":"bytes32"},{"internalType":"uint256","name":"payout","type":"uint256"}],"name":"settleMarket","outputs":[],"stateMutability":"nonpayable","type":"function"},{"inputs":[],"name":"symbol","outputs":[{"internalType":"string","name":"","type":"string"}],"stateMutability":"view","type":"function"},{"inputs":[],"name":"totalAssets","outputs":[{"internalType":"uint256","name":"","type":"uint256"}],"stateMutability":"view","type":"function"},{"inputs":[],"name":"totalProfit","outputs":[{"internalType":"uint256","name":"","type":"uint256"}],"stateMutability":"view","type":"function"},{"inputs":[],"name":"totalSupply","outputs":[{"internalType":"uint256","name":"","type":"uint256"}],"stateMutability":"view","type":"function"},{"inputs":[{"internalType":"bytes32","name":"","type":"bytes32"}],"name":"tradeLockedCapital","outputs":[{"internalType":"uint256","name":"","type":"uint256"}],"stateMutability":"view","type":"function"},{"inputs":[{"internalType":"address","name":"to","type":"address"},{"internalType":"uint256","name":"value","type":"uint256"}],"name":"transfer","outputs":[{"internalType":"bool","name":"","type":"bool"}],"stateMutability":"nonpayable","type":"function"},{"inputs":[{"internalType":"address","name":"from","type":"address"},{"internalType":"address","name":"to","type":"address"},{"internalType":"uint256","name":"value","type":"uint256"}],"name":"transferFrom","outputs":[{"internalType":"bool","name":"","type":"bool"}],"stateMutability":"nonpayable","type":"function"},{"inputs":[{"internalType":"address","name":"newOwner","type":"address"}],"name":"transferOwnership","outputs":[],"stateMutability":"nonpayable","type":"function"},{"inputs":[],"name":"unpause","outputs":[],"stateMutability":"nonpayable","type":"function"},{"inputs":[{"internalType":"uint256","name":"assets","type":"uint256"},{"internalType":"address","name":"receiver","type":"address"},{"internalType":"address","name":"owner","type":"address"}],"name":"withdraw","outputs":[{"internalType":"uint256","name":"","type":"uint256"}],"stateMutability":"nonpayable","type":"function"}],"evm":{"bytecode":{"linkReferences":{},"object":"60c060405234801562000010575f80fd5b5060405162002c9e38038062002c9e833981016040819052620000339162000497565b82898989600362000045838262000602565b50600462000054828262000602565b5050505f806200006a83620002a160201b60201c565b91509150816200007c5760126200007e565b805b60ff1660a05250506001600160a01b039081166080528116620000bb57604051631e4fbdf760e01b81525f60048201526024015b60405180910390fd5b620000c6816200033a565b5060017f9b779b17422d0df92223018b32b4d1fa46e071723d6817e2486d003becc55f00556001600160a01b038616620001435760405162461bcd60e51b815260206004820152601f60248201527f42726965725661756c743a207a65726f206461656d6f6e2061646472657373006044820152606401620000b2565b6001600160a01b0385166200019b5760405162461bcd60e51b815260206004820181905260248201527f42726965725661756c743a207a65726f206275696c64657220616464726573736044820152606401620000b2565b6001600160a01b038216620001f35760405162461bcd60e51b815260206004820152601e60248201527f42726965725661756c743a207a65726f2066656520726563697069656e7400006044820152606401620000b2565b5f8111620002445760405162461bcd60e51b815260206004820152601d60248201527f42726965725661756c743a207a65726f206d61782063617061636974790000006044820152606401620000b2565b600680546001600160a01b03199081166001600160a01b0398891617909155600b8054821696881696909617909555600a8054861694871694909417909355600d805490941694169390931790915560095550620006ce92505050565b5f8080620002ae60405190565b6040805160048152602481019091526020810180516001600160e01b0390811663313ce56760e01b179091529192505f918291620002f0918891906200038b16565b5090925090506200030083604052565b8180156200030f575060203d10155b80156200031d575060ff8111155b6200032a575f806200032e565b6001815b94509450505050915091565b600580546001600160a01b038381166001600160a01b0319831681179093556040519116919082907f8be0079c531659141344cd1fd0a4f28419497f9722a3daafe3b4186f6b6457e0905f90a35050565b5f805f60405f855160208701885afa92505f51915060205190509250925092565b6001600160a01b0381168114620003c1575f80fd5b50565b634e487b7160e01b5f52604160045260245ffd5b5f82601f830112620003e8575f80fd5b81516001600160401b0380821115620004055762000405620003c4565b604051601f8301601f19908116603f01168101908282118183101715620004305762000430620003c4565b81604052838152602092508660208588010111156200044d575f80fd5b5f91505b8382101562000470578582018301518183018401529082019062000451565b5f602085830101528094505050505092915050565b80516200049281620003ac565b919050565b5f805f805f805f805f6101208a8c031215620004b1575f80fd5b8951620004be81620003ac565b60208b01519099506001600160401b0380821115620004db575f80fd5b620004e98d838e01620003d8565b995060408c0151915080821115620004ff575f80fd5b506200050e8c828d01620003d8565b97505060608a01516200052181620003ac565b95506200053160808b0162000485565b94506200054160a08b0162000485565b93506200055160c08b0162000485565b92506200056160e08b0162000485565b91506101008a015190509295985092959850929598565b600181811c908216806200058d57607f821691505b602082108103620005ac57634e487b7160e01b5f52602260045260245ffd5b50919050565b601f821115620005fd57805f5260205f20601f840160051c81016020851015620005d95750805b601f840160051c820191505b81811015620005fa575f8155600101620005e5565b50505b505050565b81516001600160401b038111156200061e576200061e620003c4565b62000636816200062f845462000578565b84620005b2565b602080601f8311600181146200066c575f8415620006545750858301515b5f19600386901b1c1916600185901b178555620006c6565b5f85815260208120601f198616915b828110156200069c578886015182559484019460019091019084016200067b565b5085821015620006ba57878501515f19600388901b60f8161c191681555b505060018460011b0185555b505050505050565b60805160a051612576620007285f395f61073601525f81816103650152818161095e01528181610b3f01528181610b8201528181610eb201528181610ef101528181610fb901528181611eb30152611f4701526125765ff3fe608060405234801561000f575f80fd5b50600436106102b1575f3560e01c806377eb4e231161017b578063be03007c116100e4578063d905777e1161009e578063e74b981b11610079578063e74b981b146105f7578063ef8b30f714610561578063f2fde38b1461060a578063ffb1ca801461061d575f80fd5b8063d905777e14610599578063da28a9be146105ac578063dd62ed3e146105bf575f80fd5b8063be03007c14610542578063c63d75b6146103ba578063c6e6f59214610561578063ce96cb7714610574578063d6de49ba14610587578063d846435414610590575f80fd5b8063a9059cbb11610135578063a9059cbb146104da578063b364b4da146104ed578063b3d7f6b914610500578063b460af9414610513578063ba08765214610526578063bb764a0514610539575f80fd5b806377eb4e231461048a5780638456cb591461049d57806386001519146104a55780638da5cb5b146104ae57806394bf804d146104bf57806395d89b41146104d2575f80fd5b8063453d91c11161021d5780635c975abb116101d75780635c975abb146104235780636b401c3d146104355780636e553f651461043e57806370a0823114610451578063715018a614610479578063747a982814610481575f80fd5b8063453d91c1146103ce57806346904840146103e15780634cdad506146102e55780635552aa40146103f457806355b624db1461040757806359b6a0c91461041a575f80fd5b806323b872dd1161026e57806323b872dd14610336578063313ce5671461034957806338d52e0f146103635780633f4ba83a1461039d578063401dbe23146103a7578063402d267d146103ba575f80fd5b806301e1d114146102b557806306fdde03146102d057806307a2d13a146102e5578063095ea7b3146102f85780630a28a4771461031b57806318160ddd1461032e575b5f80fd5b6102bd610630565b6040519081526020015b60405180910390f35b6102d8610646565b6040516102c79190612032565b6102bd6102f3366004612064565b6106d6565b61030b610306366004612096565b6106e7565b60405190151581526020016102c7565b6102bd610329366004612064565b6106fe565b6002546102bd565b61030b6103443660046120be565b61070a565b61035161072f565b60405160ff90911681526020016102c7565b7f00000000000000000000000000000000000000000000000000000000000000005b6040516001600160a01b0390911681526020016102c7565b6103a561075a565b005b6103a56103b53660046120f7565b61076c565b6102bd6103c83660046120f7565b505f1990565b6103a56103dc366004612064565b610825565b600d54610385906001600160a01b031681565b6103a5610402366004612110565b6108b7565b6103a5610415366004612130565b610c98565b6102bd60095481565b600554600160a01b900460ff1661030b565b6102bd60075481565b6102bd61044c3660046121b3565b6110d6565b6102bd61045f3660046120f7565b6001600160a01b03165f9081526020819052604090205490565b6103a56110e9565b6102bd61177081565b600a54610385906001600160a01b031681565b6103a56110fa565b6102bd600c5481565b6005546001600160a01b0316610385565b6102bd6104cd3660046121b3565b61110a565b6102d861111d565b61030b6104e8366004612096565b61112c565b600b54610385906001600160a01b031681565b6102bd61050e366004612064565b611139565b6102bd6105213660046121dd565b611145565b6102bd6105343660046121dd565b611179565b6102bd610bb881565b6102bd610550366004612064565b600e6020525f908152604090205481565b6102bd61056f366004612064565b611195565b6102bd6105823660046120f7565b6111a0565b6102bd60085481565b6102bd6103e881565b6102bd6105a73660046120f7565b6111a9565b6103a56105ba366004612064565b6111c6565b6102bd6105cd366004612216565b6001600160a01b039182165f90815260016020908152604080832093909416825291909152205490565b6103a56106053660046120f7565b611277565b6103a56106183660046120f7565b6112f2565b600654610385906001600160a01b031681565b5f6008546007546106419190612252565b905090565b60606003805461065590612265565b80601f016020809104026020016040519081016040528092919081815260200182805461068190612265565b80156106cc5780601f106106a3576101008083540402835291602001916106cc565b820191905f5260205f20905b8154815290600101906020018083116106af57829003601f168201915b5050505050905090565b5f6106e1825f61132f565b92915050565b5f336106f4818585611367565b5060019392505050565b5f6106e1826001611379565b5f336107178582856113a8565b610722858585611411565b60019150505b9392505050565b5f610641817f000000000000000000000000000000000000000000000000000000000000000061229d565b61076261146e565b61076a61149b565b565b61077461146e565b6001600160a01b0381166107ca5760405162461bcd60e51b815260206004820152601860248201527742726965725661756c743a207a65726f206164647265737360401b60448201526064015b60405180910390fd5b6006546040516001600160a01b038084169216907f26f1333eb03795a71544ef03cd4bac00a69dc4f0c136c970c379b353d23753dc905f90a3600680546001600160a01b0319166001600160a01b0392909216919091179055565b61082d61146e565b5f811161087c5760405162461bcd60e51b815260206004820152601960248201527f42726965725661756c743a207a65726f2063617061636974790000000000000060448201526064016107c1565b60098190556040518181527f8b8564868e5db4ac945b0fd897338876dcc0c95a5f183b340f47285ebbcb6af19060200160405180910390a150565b6006546001600160a01b031633146108e15760405162461bcd60e51b81526004016107c1906122b6565b6108e96114f0565b5f828152600e60205260409020548061095b5760405162461bcd60e51b815260206004820152602e60248201527f42726965725661756c743a207472616465206e6f7420666f756e64206f72206160448201526d1b1c9958591e481cd95d1d1b195960921b60648201526084016107c1565b5f7f00000000000000000000000000000000000000000000000000000000000000006040516370a0823160e01b81523060048201526001600160a01b0391909116906370a0823190602401602060405180830381865afa1580156109c1573d5f803e3d5ffd5b505050506040513d601f19601f820116820180604052508101906109e591906122fc565b9050826007546109f59190612252565b811015610a6a5760405162461bcd60e51b815260206004820152603760248201527f42726965725661756c743a207061796f7574206e6f742072656365697665642060448201527f2d2072656465656d2066726f6d2043544620666972737400000000000000000060648201526084016107c1565b5f848152600e6020526040812081905560088054849290610a8c908490612313565b909155505081831115610c2b575f610aa48385612313565b90505f612710610ab6610bb884612326565b610ac09190612351565b90505f612710610ad26103e885612326565b610adc9190612351565b90505f81610aea8486612313565b610af49190612313565b905083600c5f828254610b079190612252565b90915550610b1790508187612252565b60075f828254610b279190612252565b9091555050600b54610b6f906001600160a01b0316847f00000000000000000000000000000000000000000000000000000000000000005b6001600160a01b0316919061150b565b600d54610ba6906001600160a01b0316837f0000000000000000000000000000000000000000000000000000000000000000610b5f565b60408051848152602081018490529081018290527f312c5308f42848705a866c73dec11fd0783c2d64aac6a97e94467062ad3f40589060600160405180910390a1604080518881526001602082015289917fb838176051aaad97f6ff91aa3a56c75219b4e7d94038a0bfb4bde3527f52dfb0910160405180910390a250505050610c7c565b8260075f828254610c3c9190612252565b9091555050604080518481525f602082015285917fb838176051aaad97f6ff91aa3a56c75219b4e7d94038a0bfb4bde3527f52dfb0910160405180910390a25b5050610c9460015f8051602061252183398151915255565b5050565b6006546001600160a01b03163314610cc25760405162461bcd60e51b81526004016107c1906122b6565b610cca611540565b610cd26114f0565b5f8111610d215760405162461bcd60e51b815260206004820152601e60248201527f42726965725661756c743a20616d6f756e74206d757374206265203e2030000060448201526064016107c1565b600754811115610d815760405162461bcd60e51b815260206004820152602560248201527f42726965725661756c743a20696e73756666696369656e742069646c652063616044820152641c1a5d185b60da1b60648201526084016107c1565b5f858152600e602052604090205415610de75760405162461bcd60e51b815260206004820152602260248201527f42726965725661756c743a207472616465496420616c72656164792061637469604482015261766560f01b60648201526084016107c1565b6064610df1610630565b610dfc906014612326565b610e069190612351565b811115610e615760405162461bcd60e51b815260206004820152602360248201527f42726965725661756c743a206578636565647320323025207472616465206c696044820152621b5a5d60ea1b60648201526084016107c1565b8060075f828254610e729190612313565b925050819055508060085f828254610e8a9190612252565b90915550505f858152600e60205260409020819055600a54610ee1906001600160a01b0316827f00000000000000000000000000000000000000000000000000000000000000006001600160a01b0316919061156b565b600a545f906001600160a01b03167f0000000000000000000000000000000000000000000000000000000000000000604051610f2a91905f908990899089908990602401612364565b60408051601f198184030181529181526020820180516001600160e01b03166372ce427560e01b17905251610f5f91906123c1565b5f604051808303815f865af19150503d805f8114610f98576040519150601f19603f3d011682016040523d82523d5f602084013e610f9d565b606091505b505090508061107d57600a54610fe8906001600160a01b0316837f00000000000000000000000000000000000000000000000000000000000000006001600160a01b031691906115f2565b8160075f828254610ff99190612252565b925050819055508160085f8282546110119190612313565b90915550505f868152600e6020526040808220919091555162461bcd60e51b81526107c19060040160208082526024908201527f42726965725661756c743a204354462073706c6974506f736974696f6e2066616040820152631a5b195960e21b606082015260800190565b84867f046b5c28a0efd2884fdc09e7246b9c9251b6429eb7fd2f84e7a704419276468f846040516110b091815260200190565b60405180910390a3506110cf60015f8051602061252183398151915255565b5050505050565b5f6110df611540565b6107288383611699565b6110f161146e565b61076a5f6116bc565b61110261146e565b61076a61170d565b5f611113611540565b6107288383611750565b60606004805461065590612265565b5f336106f4818585611411565b5f6106e182600161132f565b5f61114e611540565b6111566114f0565b61116184848461176b565b905061072860015f8051602061252183398151915255565b5f611182611540565b61118a6114f0565b6111618484846117c1565b5f6106e1825f611379565b5f6106e16102f3835b6001600160a01b0381165f908152602081905260408120546106e1565b6006546001600160a01b031633146111f05760405162461bcd60e51b81526004016107c1906122b6565b5f818152600e602052604090205461124a5760405162461bcd60e51b815260206004820152601c60248201527f42726965725661756c743a207472616465206e6f74206163746976650000000060448201526064016107c1565b60405181907f7b1d12f6854da251c168931aa977e79340efd6470c55fb00dbe8e921ca3fb769905f90a250565b61127f61146e565b6001600160a01b0381166112d05760405162461bcd60e51b815260206004820152601860248201527742726965725661756c743a207a65726f206164647265737360401b60448201526064016107c1565b600d80546001600160a01b0319166001600160a01b0392909216919091179055565b6112fa61146e565b6001600160a01b03811661132357604051631e4fbdf760e01b81525f60048201526024016107c1565b61132c816116bc565b50565b5f61072861133b610630565b611346906001612252565b6113515f600a6124bc565b60025461135e9190612252565b8591908561180e565b6113748383836001611850565b505050565b5f61072861138882600a6124bc565b6002546113959190612252565b61139d610630565b61135e906001612252565b6001600160a01b038381165f908152600160209081526040808320938616835292905220545f1981101561140b57818110156113fd57828183604051637dc7a0d960e11b81526004016107c1939291906124ca565b61140b84848484035f611850565b50505050565b6001600160a01b03831661143a57604051634b637e8f60e11b81525f60048201526024016107c1565b6001600160a01b0382166114635760405163ec442f0560e01b81525f60048201526024016107c1565b611374838383611922565b6005546001600160a01b0316331461076a5760405163118cdaa760e01b81523360048201526024016107c1565b6114a3611a35565b6005805460ff60a01b191690557f5db9ee0a495bf2e6ff9c91a7834c1ba4fdd244a5e8aa4e537bd38aeae4b073aa335b6040516001600160a01b03909116815260200160405180910390a1565b6114f8611a5f565b60025f8051602061252183398151915255565b6115188383836001611a8e565b61137457604051635274afe760e01b81526001600160a01b03841660048201526024016107c1565b600554600160a01b900460ff161561076a5760405163d93c066560e01b815260040160405180910390fd5b604051636eb1769f60e11b81523060048201526001600160a01b0383811660248301525f919085169063dd62ed3e90604401602060405180830381865afa1580156115b8573d5f803e3d5ffd5b505050506040513d601f19601f820116820180604052508101906115dc91906122fc565b905061140b84846115ed8585612252565b611af0565b604051636eb1769f60e11b81523060048201526001600160a01b0383811660248301525f919085169063dd62ed3e90604401602060405180830381865afa15801561163f573d5f803e3d5ffd5b505050506040513d601f19601f8201168201806040525081019061166391906122fc565b90508181101561168c5782818360405163e570110f60e01b81526004016107c1939291906124ca565b61140b8484848403611af0565b5f5f195f6116a685611195565b90506116b433858784611b42565b949350505050565b600580546001600160a01b038381166001600160a01b0319831681179093556040519116919082907f8be0079c531659141344cd1fd0a4f28419497f9722a3daafe3b4186f6b6457e0905f90a35050565b611715611540565b6005805460ff60a01b1916600160a01b1790557f62e78cea01bee320cd4e420270b5ea74000d11b0c9f74754ebdbfc544b05a2586114d33390565b5f5f195f61175d85611139565b90506116b433858388611b42565b5f80611776836111a0565b90508085111561179f57828582604051633fa733bb60e21b81526004016107c1939291906124ca565b5f6117a9866106fe565b90506117b83386868985611bce565b95945050505050565b5f806117cc836111a9565b9050808511156117f557828582604051632e52afbb60e21b81526004016107c1939291906124ca565b5f6117ff866106d6565b90506117b8338686848a611bce565b5f61183b61181b83611c5a565b801561183657505f84806118315761183161233d565b868809115b151590565b611846868686611c86565b6117b89190612252565b6001600160a01b0384166118795760405163e602df0560e01b81525f60048201526024016107c1565b6001600160a01b0383166118a257604051634a1406b160e11b81525f60048201526024016107c1565b6001600160a01b038085165f908152600160209081526040808320938716835292905220829055801561140b57826001600160a01b0316846001600160a01b03167f8c5be1e5ebec7d5bd14f71427d1e84f3dd0314c0f7b2291e5b200ac8c7c3b9258460405161191491815260200190565b60405180910390a350505050565b6001600160a01b03831661194c578060025f8282546119419190612252565b909155506119a99050565b6001600160a01b0383165f908152602081905260409020548181101561198b5783818360405163391434e360e21b81526004016107c1939291906124ca565b6001600160a01b0384165f9081526020819052604090209082900390555b6001600160a01b0382166119c5576002805482900390556119e3565b6001600160a01b0382165f9081526020819052604090208054820190555b816001600160a01b0316836001600160a01b03167fddf252ad1be2c89b69c2b068fc378daa952ba7f163c4a11628f55a4df523b3ef83604051611a2891815260200190565b60405180910390a3505050565b600554600160a01b900460ff1661076a57604051638dfc202b60e01b815260040160405180910390fd5b5f805160206125218339815191525460020361076a57604051633ee5aeb560e01b815260040160405180910390fd5b60405163a9059cbb60e01b5f8181526001600160a01b038616600452602485905291602083604481808b5af1925060015f51148316611ae4578383151615611ad8573d5f823e3d81fd5b5f873b113d1516831692505b60405250949350505050565b611afc8383835f611d36565b61137457611b0d83835f6001611d36565b611b3557604051635274afe760e01b81526001600160a01b03841660048201526024016107c1565b6115188383836001611d36565b60095482611b4e610630565b611b589190612252565b1115611ba65760405162461bcd60e51b815260206004820181905260248201527f42726965725661756c743a206d6178206361706163697479207265616368656460448201526064016107c1565b611bb284848484611d80565b8160075f828254611bc39190612252565b909155505050505050565b600754821115611c365760405162461bcd60e51b815260206004820152602d60248201527f42726965725661756c743a206f6e6c792069646c65206361706974616c20697360448201526c20776974686472617761626c6560981b60648201526084016107c1565b8160075f828254611c479190612313565b909155506110cf90508585858585611de2565b5f6002826003811115611c6f57611c6f6124eb565b611c7991906124ff565b60ff166001149050919050565b5f805f611c938686611e81565b91509150815f03611cb757838181611cad57611cad61233d565b0492505050610728565b818411611cce57611cce6003851502601118611e9d565b5f848688095f868103871696879004966002600389028118808a02820302808a02820302808a02820302808a02820302808a02820302808a02909103029181900381900460010185841190960395909502919093039390930492909217029150509392505050565b60405163095ea7b360e01b5f8181526001600160a01b038616600452602485905291602083604481808b5af1925060015f51148316611ae4578383151615611ad8573d5f823e3d81fd5b611d8a8483611eae565b611d948382611eda565b826001600160a01b0316846001600160a01b03167fdcbc1c05240f31ff3ad067ef1ee35ce4997762752e3a095284754544f4c709d78484604051611914929190918252602082015260400190565b826001600160a01b0316856001600160a01b031614611e0657611e068386836113a8565b611e108382611f0e565b611e1a8483611f42565b826001600160a01b0316846001600160a01b0316866001600160a01b03167ffbde797d201c681b91056529119e0b02407c7bb96a4a2c75c01fc9667232c8db8585604051611e72929190918252602082015260400190565b60405180910390a45050505050565b5f805f1983850993909202808410938190039390930393915050565b634e487b715f52806020526024601cfd5b610c947f0000000000000000000000000000000000000000000000000000000000000000833084611f6d565b6001600160a01b038216611f035760405163ec442f0560e01b81525f60048201526024016107c1565b610c945f8383611922565b6001600160a01b038216611f3757604051634b637e8f60e11b81525f60048201526024016107c1565b610c94825f83611922565b610c947f0000000000000000000000000000000000000000000000000000000000000000838361150b565b611f7b848484846001611fa3565b61140b57604051635274afe760e01b81526001600160a01b03851660048201526024016107c1565b6040516323b872dd60e01b5f8181526001600160a01b038781166004528616602452604485905291602083606481808c5af1925060015f51148316611fff578383151615611ff3573d5f823e3d81fd5b5f883b113d1516831692505b604052505f60605295945050505050565b5f5b8381101561202a578181015183820152602001612012565b50505f910152565b602081525f8251806020840152612050816040850160208701612010565b601f01601f19169190910160400192915050565b5f60208284031215612074575f80fd5b5035919050565b80356001600160a01b0381168114612091575f80fd5b919050565b5f80604083850312156120a7575f80fd5b6120b08361207b565b946020939093013593505050565b5f805f606084860312156120d0575f80fd5b6120d98461207b565b92506120e76020850161207b565b9150604084013590509250925092565b5f60208284031215612107575f80fd5b6107288261207b565b5f8060408385031215612121575f80fd5b50508035926020909101359150565b5f805f805f60808688031215612144575f80fd5b8535945060208601359350604086013567ffffffffffffffff80821115612169575f80fd5b818801915088601f83011261217c575f80fd5b81358181111561218a575f80fd5b8960208260051b850101111561219e575f80fd5b96999598505060200195606001359392505050565b5f80604083850312156121c4575f80fd5b823591506121d46020840161207b565b90509250929050565b5f805f606084860312156121ef575f80fd5b833592506121ff6020850161207b565b915061220d6040850161207b565b90509250925092565b5f8060408385031215612227575f80fd5b6122308361207b565b91506121d46020840161207b565b634e487b7160e01b5f52601160045260245ffd5b808201808211156106e1576106e161223e565b600181811c9082168061227957607f821691505b60208210810361229757634e487b7160e01b5f52602260045260245ffd5b50919050565b60ff81811683821601908111156106e1576106e161223e565b60208082526026908201527f42726965725661756c743a2063616c6c6572206973206e6f742074686520657860408201526532b1baba37b960d11b606082015260800190565b5f6020828403121561230c575f80fd5b5051919050565b818103818111156106e1576106e161223e565b80820281158282048414176106e1576106e161223e565b634e487b7160e01b5f52601260045260245ffd5b5f8261235f5761235f61233d565b500490565b6001600160a01b0387168152602081018690526040810185905260a06060820181905281018390525f6001600160fb1b038411156123a0575f80fd5b8360051b808660c08501376080830193909352500160c00195945050505050565b5f82516123d2818460208701612010565b9190910192915050565b600181815b8085111561241657815f19048211156123fc576123fc61223e565b8085161561240957918102915b93841c93908002906123e1565b509250929050565b5f8261242c575060016106e1565b8161243857505f6106e1565b816001811461244e576002811461245857612474565b60019150506106e1565b60ff8411156124695761246961223e565b50506001821b6106e1565b5060208310610133831016604e8410600b8410161715612497575081810a6106e1565b6124a183836123dc565b805f19048211156124b4576124b461223e565b029392505050565b5f61072860ff84168361241e565b6001600160a01b039390931683526020830191909152604082015260600190565b634e487b7160e01b5f52602160045260245ffd5b5f60ff8316806125115761251161233d565b8060ff8416069150509291505056fe9b779b17422d0df92223018b32b4d1fa46e071723d6817e2486d003becc55f00a2646970667358221220f9d8c65195326652af9b060a0226b41c4d8050be7a6391cfb3bf11d3d4605aac64736f6c63430008180033","opcodes":"PUSH1 0xC0 PUSH1 0x40 MSTORE CALLVALUE DUP1 ISZERO PUSH3 0x10 JUMPI PUSH0 DUP1 REVERT JUMPDEST POP PUSH1 0x40 MLOAD PUSH3 0x2C9E CODESIZE SUB DUP1 PUSH3 0x2C9E DUP4 CODECOPY DUP2 ADD PUSH1 0x40 DUP2 SWAP1 MSTORE PUSH3 0x33 SWAP2 PUSH3 0x497 JUMP JUMPDEST DUP3 DUP10 DUP10 DUP10 PUSH1 0x3 PUSH3 0x45 DUP4 DUP3 PUSH3 0x602 JUMP JUMPDEST POP PUSH1 0x4 PUSH3 0x54 DUP3 DUP3 PUSH3 0x602 JUMP JUMPDEST POP POP POP PUSH0 DUP1 PUSH3 0x6A DUP4 PUSH3 0x2A1 PUSH1 0x20 SHL PUSH1 0x20 SHR JUMP JUMPDEST SWAP2 POP SWAP2 POP DUP2 PUSH3 0x7C JUMPI PUSH1 0x12 PUSH3 0x7E JUMP JUMPDEST DUP1 JUMPDEST PUSH1 0xFF AND PUSH1 0xA0 MSTORE POP POP PUSH1 0x1 PUSH1 0x1 PUSH1 0xA0 SHL SUB SWAP1 DUP2 AND PUSH1 0x80 MSTORE DUP2 AND PUSH3 0xBB JUMPI PUSH1 0x40 MLOAD PUSH4 0x1E4FBDF7 PUSH1 0xE0 SHL DUP2 MSTORE PUSH0 PUSH1 0x4 DUP3 ADD MSTORE PUSH1 0x24 ADD JUMPDEST PUSH1 0x40 MLOAD DUP1 SWAP2 SUB SWAP1 REVERT JUMPDEST PUSH3 0xC6 DUP2 PUSH3 0x33A JUMP JUMPDEST POP PUSH1 0x1 PUSH32 0x9B779B17422D0DF92223018B32B4D1FA46E071723D6817E2486D003BECC55F00 SSTORE PUSH1 0x1 PUSH1 0x1 PUSH1 0xA0 SHL SUB DUP7 AND PUSH3 0x143 JUMPI PUSH1 0x40 MLOAD PUSH3 0x461BCD PUSH1 0xE5 SHL DUP2 MSTORE PUSH1 0x20 PUSH1 0x4 DUP3 ADD MSTORE PUSH1 0x1F PUSH1 0x24 DUP3 ADD MSTORE PUSH32 0x42726965725661756C743A207A65726F206461656D6F6E206164647265737300 PUSH1 0x44 DUP3 ADD MSTORE PUSH1 0x64 ADD PUSH3 0xB2 JUMP JUMPDEST PUSH1 0x1 PUSH1 0x1 PUSH1 0xA0 SHL SUB DUP6 AND PUSH3 0x19B JUMPI PUSH1 0x40 MLOAD PUSH3 0x461BCD PUSH1 0xE5 SHL DUP2 MSTORE PUSH1 0x20 PUSH1 0x4 DUP3 ADD DUP2 SWAP1 MSTORE PUSH1 0x24 DUP3 ADD MSTORE PUSH32 0x42726965725661756C743A207A65726F206275696C6465722061646472657373 PUSH1 0x44 DUP3 ADD MSTORE PUSH1 0x64 ADD PUSH3 0xB2 JUMP JUMPDEST PUSH1 0x1 PUSH1 0x1 PUSH1 0xA0 SHL SUB DUP3 AND PUSH3 0x1F3 JUMPI PUSH1 0x40 MLOAD PUSH3 0x461BCD PUSH1 0xE5 SHL DUP2 MSTORE PUSH1 0x20 PUSH1 0x4 DUP3 ADD MSTORE PUSH1 0x1E PUSH1 0x24 DUP3 ADD MSTORE PUSH32 0x42726965725661756C743A207A65726F2066656520726563697069656E740000 PUSH1 0x44 DUP3 ADD MSTORE PUSH1 0x64 ADD PUSH3 0xB2 JUMP JUMPDEST PUSH0 DUP2 GT PUSH3 0x244 JUMPI PUSH1 0x40 MLOAD PUSH3 0x461BCD PUSH1 0xE5 SHL DUP2 MSTORE PUSH1 0x20 PUSH1 0x4 DUP3 ADD MSTORE PUSH1 0x1D PUSH1 0x24 DUP3 ADD MSTORE PUSH32 0x42726965725661756C743A207A65726F206D6178206361706163697479000000 PUSH1 0x44 DUP3 ADD MSTORE PUSH1 0x64 ADD PUSH3 0xB2 JUMP JUMPDEST PUSH1 0x6 DUP1 SLOAD PUSH1 0x1 PUSH1 0x1 PUSH1 0xA0 SHL SUB NOT SWAP1 DUP2 AND PUSH1 0x1 PUSH1 0x1 PUSH1 0xA0 SHL SUB SWAP9 DUP10 AND OR SWAP1 SWAP2 SSTORE PUSH1 0xB DUP1 SLOAD DUP3 AND SWAP7 DUP9 AND SWAP7 SWAP1 SWAP7 OR SWAP1 SWAP6 SSTORE PUSH1 0xA DUP1 SLOAD DUP7 AND SWAP5 DUP8 AND SWAP5 SWAP1 SWAP5 OR SWAP1 SWAP4 SSTORE PUSH1 0xD DUP1 SLOAD SWAP1 SWAP5 AND SWAP5 AND SWAP4 SWAP1 SWAP4 OR SWAP1 SWAP2 SSTORE PUSH1 0x9 SSTORE POP PUSH3 0x6CE SWAP3 POP POP POP JUMP JUMPDEST PUSH0 DUP1 DUP1 PUSH3 0x2AE PUSH1 0x40 MLOAD SWAP1 JUMP JUMPDEST PUSH1 0x40 DUP1 MLOAD PUSH1 0x4 DUP2 MSTORE PUSH1 0x24 DUP2 ADD SWAP1 SWAP2 MSTORE PUSH1 0x20 DUP2 ADD DUP1 MLOAD PUSH1 0x1 PUSH1 0x1 PUSH1 0xE0 SHL SUB SWAP1 DUP2 AND PUSH4 0x313CE567 PUSH1 0xE0 SHL OR SWAP1 SWAP2 MSTORE SWAP2 SWAP3 POP PUSH0 SWAP2 DUP3 SWAP2 PUSH3 0x2F0 SWAP2 DUP9 SWAP2 SWAP1 PUSH3 0x38B AND JUMP JUMPDEST POP SWAP1 SWAP3 POP SWAP1 POP PUSH3 0x300 DUP4 PUSH1 0x40 MSTORE JUMP JUMPDEST DUP2 DUP1 ISZERO PUSH3 0x30F JUMPI POP PUSH1 0x20 RETURNDATASIZE LT ISZERO JUMPDEST DUP1 ISZERO PUSH3 0x31D JUMPI POP PUSH1 0xFF DUP2 GT ISZERO JUMPDEST PUSH3 0x32A JUMPI PUSH0 DUP1 PUSH3 0x32E JUMP JUMPDEST PUSH1 0x1 DUP2 JUMPDEST SWAP5 POP SWAP5 POP POP POP POP SWAP2 POP SWAP2 JUMP JUMPDEST PUSH1 0x5 DUP1 SLOAD PUSH1 0x1 PUSH1 0x1 PUSH1 0xA0 SHL SUB DUP4 DUP2 AND PUSH1 0x1 PUSH1 0x1 PUSH1 0xA0 SHL SUB NOT DUP4 AND DUP2 OR SWAP1 SWAP4 SSTORE PUSH1 0x40 MLOAD SWAP2 AND SWAP2 SWAP1 DUP3 SWAP1 PUSH32 0x8BE0079C531659141344CD1FD0A4F28419497F9722A3DAAFE3B4186F6B6457E0 SWAP1 PUSH0 SWAP1 LOG3 POP POP JUMP JUMPDEST PUSH0 DUP1 PUSH0 PUSH1 0x40 PUSH0 DUP6 MLOAD PUSH1 0x20 DUP8 ADD DUP9 GAS STATICCALL SWAP3 POP PUSH0 MLOAD SWAP2 POP PUSH1 0x20 MLOAD SWAP1 POP SWAP3 POP SWAP3 POP SWAP3 JUMP JUMPDEST PUSH1 0x1 PUSH1 0x1 PUSH1 0xA0 SHL SUB DUP2 AND DUP2 EQ PUSH3 0x3C1 JUMPI PUSH0 DUP1 REVERT JUMPDEST POP JUMP JUMPDEST PUSH4 0x4E487B71 PUSH1 0xE0 SHL PUSH0 MSTORE PUSH1 0x41 PUSH1 0x4 MSTORE PUSH1 0x24 PUSH0 REVERT JUMPDEST PUSH0 DUP3 PUSH1 0x1F DUP4 ADD SLT PUSH3 0x3E8 JUMPI PUSH0 DUP1 REVERT JUMPDEST DUP2 MLOAD PUSH1 0x1 PUSH1 0x1 PUSH1 0x40 SHL SUB DUP1 DUP3 GT ISZERO PUSH3 0x405 JUMPI PUSH3 0x405 PUSH3 0x3C4 JUMP JUMPDEST PUSH1 0x40 MLOAD PUSH1 0x1F DUP4 ADD PUSH1 0x1F NOT SWAP1 DUP2 AND PUSH1 0x3F ADD AND DUP2 ADD SWAP1 DUP3 DUP3 GT DUP2 DUP4 LT OR ISZERO PUSH3 0x430 JUMPI PUSH3 0x430 PUSH3 0x3C4 JUMP JUMPDEST DUP2 PUSH1 0x40 MSTORE DUP4 DUP2 MSTORE PUSH1 0x20 SWAP3 POP DUP7 PUSH1 0x20 DUP6 DUP9 ADD ADD GT ISZERO PUSH3 0x44D JUMPI PUSH0 DUP1 REVERT JUMPDEST PUSH0 SWAP2 POP JUMPDEST DUP4 DUP3 LT ISZERO PUSH3 0x470 JUMPI DUP6 DUP3 ADD DUP4 ADD MLOAD DUP2 DUP4 ADD DUP5 ADD MSTORE SWAP1 DUP3 ADD SWAP1 PUSH3 0x451 JUMP JUMPDEST PUSH0 PUSH1 0x20 DUP6 DUP4 ADD ADD MSTORE DUP1 SWAP5 POP POP POP POP POP SWAP3 SWAP2 POP POP JUMP JUMPDEST DUP1 MLOAD PUSH3 0x492 DUP2 PUSH3 0x3AC JUMP JUMPDEST SWAP2 SWAP1 POP JUMP JUMPDEST PUSH0 DUP1 PUSH0 DUP1 PUSH0 DUP1 PUSH0 DUP1 PUSH0 PUSH2 0x120 DUP11 DUP13 SUB SLT ISZERO PUSH3 0x4B1 JUMPI PUSH0 DUP1 REVERT JUMPDEST DUP10 MLOAD PUSH3 0x4BE DUP2 PUSH3 0x3AC JUMP JUMPDEST PUSH1 0x20 DUP12 ADD MLOAD SWAP1 SWAP10 POP PUSH1 0x1 PUSH1 0x1 PUSH1 0x40 SHL SUB DUP1 DUP3 GT ISZERO PUSH3 0x4DB JUMPI PUSH0 DUP1 REVERT JUMPDEST PUSH3 0x4E9 DUP14 DUP4 DUP15 ADD PUSH3 0x3D8 JUMP JUMPDEST SWAP10 POP PUSH1 0x40 DUP13 ADD MLOAD SWAP2 POP DUP1 DUP3 GT ISZERO PUSH3 0x4FF JUMPI PUSH0 DUP1 REVERT JUMPDEST POP PUSH3 0x50E DUP13 DUP3 DUP14 ADD PUSH3 0x3D8 JUMP JUMPDEST SWAP8 POP POP PUSH1 0x60 DUP11 ADD MLOAD PUSH3 0x521 DUP2 PUSH3 0x3AC JUMP JUMPDEST SWAP6 POP PUSH3 0x531 PUSH1 0x80 DUP12 ADD PUSH3 0x485 JUMP JUMPDEST SWAP5 POP PUSH3 0x541 PUSH1 0xA0 DUP12 ADD PUSH3 0x485 JUMP JUMPDEST SWAP4 POP PUSH3 0x551 PUSH1 0xC0 DUP12 ADD PUSH3 0x485 JUMP JUMPDEST SWAP3 POP PUSH3 0x561 PUSH1 0xE0 DUP12 ADD PUSH3 0x485 JUMP JUMPDEST SWAP2 POP PUSH2 0x100 DUP11 ADD MLOAD SWAP1 POP SWAP3 SWAP6 SWAP9 POP SWAP3 SWAP6 SWAP9 POP SWAP3 SWAP6 SWAP9 JUMP JUMPDEST PUSH1 0x1 DUP2 DUP2 SHR SWAP1 DUP3 AND DUP1 PUSH3 0x58D JUMPI PUSH1 0x7F DUP3 AND SWAP2 POP JUMPDEST PUSH1 0x20 DUP3 LT DUP2 SUB PUSH3 0x5AC JUMPI PUSH4 0x4E487B71 PUSH1 0xE0 SHL PUSH0 MSTORE PUSH1 0x22 PUSH1 0x4 MSTORE PUSH1 0x24 PUSH0 REVERT JUMPDEST POP SWAP2 SWAP1 POP JUMP JUMPDEST PUSH1 0x1F DUP3 GT ISZERO PUSH3 0x5FD JUMPI DUP1 PUSH0 MSTORE PUSH1 0x20 PUSH0 KECCAK256 PUSH1 0x1F DUP5 ADD PUSH1 0x5 SHR DUP2 ADD PUSH1 0x20 DUP6 LT ISZERO PUSH3 0x5D9 JUMPI POP DUP1 JUMPDEST PUSH1 0x1F DUP5 ADD PUSH1 0x5 SHR DUP3 ADD SWAP2 POP JUMPDEST DUP2 DUP2 LT ISZERO PUSH3 0x5FA JUMPI PUSH0 DUP2 SSTORE PUSH1 0x1 ADD PUSH3 0x5E5 JUMP JUMPDEST POP POP JUMPDEST POP POP POP JUMP JUMPDEST DUP2 MLOAD PUSH1 0x1 PUSH1 0x1 PUSH1 0x40 SHL SUB DUP2 GT ISZERO PUSH3 0x61E JUMPI PUSH3 0x61E PUSH3 0x3C4 JUMP JUMPDEST PUSH3 0x636 DUP2 PUSH3 0x62F DUP5 SLOAD PUSH3 0x578 JUMP JUMPDEST DUP5 PUSH3 0x5B2 JUMP JUMPDEST PUSH1 0x20 DUP1 PUSH1 0x1F DUP4 GT PUSH1 0x1 DUP2 EQ PUSH3 0x66C JUMPI PUSH0 DUP5 ISZERO PUSH3 0x654 JUMPI POP DUP6 DUP4 ADD MLOAD JUMPDEST PUSH0 NOT PUSH1 0x3 DUP7 SWAP1 SHL SHR NOT AND PUSH1 0x1 DUP6 SWAP1 SHL OR DUP6 SSTORE PUSH3 0x6C6 JUMP JUMPDEST PUSH0 DUP6 DUP2 MSTORE PUSH1 0x20 DUP2 KECCAK256 PUSH1 0x1F NOT DUP7 AND SWAP2 JUMPDEST DUP3 DUP2 LT ISZERO PUSH3 0x69C JUMPI DUP9 DUP7 ADD MLOAD DUP3 SSTORE SWAP5 DUP5 ADD SWAP5 PUSH1 0x1 SWAP1 SWAP2 ADD SWAP1 DUP5 ADD PUSH3 0x67B JUMP JUMPDEST POP DUP6 DUP3 LT ISZERO PUSH3 0x6BA JUMPI DUP8 DUP6 ADD MLOAD PUSH0 NOT PUSH1 0x3 DUP9 SWAP1 SHL PUSH1 0xF8 AND SHR NOT AND DUP2 SSTORE JUMPDEST POP POP PUSH1 0x1 DUP5 PUSH1 0x1 SHL ADD DUP6 SSTORE JUMPDEST POP POP POP POP POP POP JUMP JUMPDEST PUSH1 0x80 MLOAD PUSH1 0xA0 MLOAD PUSH2 0x2576 PUSH3 0x728 PUSH0 CODECOPY PUSH0 PUSH2 0x736 ADD MSTORE PUSH0 DUP2 DUP2 PUSH2 0x365 ADD MSTORE DUP2 DUP2 PUSH2 0x95E ADD MSTORE DUP2 DUP2 PUSH2 0xB3F ADD MSTORE DUP2 DUP2 PUSH2 0xB82 ADD MSTORE DUP2 DUP2 PUSH2 0xEB2 ADD MSTORE DUP2 DUP2 PUSH2 0xEF1 ADD MSTORE DUP2 DUP2 PUSH2 0xFB9 ADD MSTORE DUP2 DUP2 PUSH2 0x1EB3 ADD MSTORE PUSH2 0x1F47 ADD MSTORE PUSH2 0x2576 PUSH0 RETURN INVALID PUSH1 0x80 PUSH1 0x40 MSTORE CALLVALUE DUP1 ISZERO PUSH2 0xF JUMPI PUSH0 DUP1 REVERT JUMPDEST POP PUSH1 0x4 CALLDATASIZE LT PUSH2 0x2B1 JUMPI PUSH0 CALLDATALOAD PUSH1 0xE0 SHR DUP1 PUSH4 0x77EB4E23 GT PUSH2 0x17B JUMPI DUP1 PUSH4 0xBE03007C GT PUSH2 0xE4 JUMPI DUP1 PUSH4 0xD905777E GT PUSH2 0x9E JUMPI DUP1 PUSH4 0xE74B981B GT PUSH2 0x79 JUMPI DUP1 PUSH4 0xE74B981B EQ PUSH2 0x5F7 JUMPI DUP1 PUSH4 0xEF8B30F7 EQ PUSH2 0x561 JUMPI DUP1 PUSH4 0xF2FDE38B EQ PUSH2 0x60A JUMPI DUP1 PUSH4 0xFFB1CA80 EQ PUSH2 0x61D JUMPI PUSH0 DUP1 REVERT JUMPDEST DUP1 PUSH4 0xD905777E EQ PUSH2 0x599 JUMPI DUP1 PUSH4 0xDA28A9BE EQ PUSH2 0x5AC JUMPI DUP1 PUSH4 0xDD62ED3E EQ PUSH2 0x5BF JUMPI PUSH0 DUP1 REVERT JUMPDEST DUP1 PUSH4 0xBE03007C EQ PUSH2 0x542 JUMPI DUP1 PUSH4 0xC63D75B6 EQ PUSH2 0x3BA JUMPI DUP1 PUSH4 0xC6E6F592 EQ PUSH2 0x561 JUMPI DUP1 PUSH4 0xCE96CB77 EQ PUSH2 0x574 JUMPI DUP1 PUSH4 0xD6DE49BA EQ PUSH2 0x587 JUMPI DUP1 PUSH4 0xD8464354 EQ PUSH2 0x590 JUMPI PUSH0 DUP1 REVERT JUMPDEST DUP1 PUSH4 0xA9059CBB GT PUSH2 0x135 JUMPI DUP1 PUSH4 0xA9059CBB EQ PUSH2 0x4DA JUMPI DUP1 PUSH4 0xB364B4DA EQ PUSH2 0x4ED JUMPI DUP1 PUSH4 0xB3D7F6B9 EQ PUSH2 0x500 JUMPI DUP1 PUSH4 0xB460AF94 EQ PUSH2 0x513 JUMPI DUP1 PUSH4 0xBA087652 EQ PUSH2 0x526 JUMPI DUP1 PUSH4 0xBB764A05 EQ PUSH2 0x539 JUMPI PUSH0 DUP1 REVERT JUMPDEST DUP1 PUSH4 0x77EB4E23 EQ PUSH2 0x48A JUMPI DUP1 PUSH4 0x8456CB59 EQ PUSH2 0x49D JUMPI DUP1 PUSH4 0x86001519 EQ PUSH2 0x4A5 JUMPI DUP1 PUSH4 0x8DA5CB5B EQ PUSH2 0x4AE JUMPI DUP1 PUSH4 0x94BF804D EQ PUSH2 0x4BF JUMPI DUP1 PUSH4 0x95D89B41 EQ PUSH2 0x4D2 JUMPI PUSH0 DUP1 REVERT JUMPDEST DUP1 PUSH4 0x453D91C1 GT PUSH2 0x21D JUMPI DUP1 PUSH4 0x5C975ABB GT PUSH2 0x1D7 JUMPI DUP1 PUSH4 0x5C975ABB EQ PUSH2 0x423 JUMPI DUP1 PUSH4 0x6B401C3D EQ PUSH2 0x435 JUMPI DUP1 PUSH4 0x6E553F65 EQ PUSH2 0x43E JUMPI DUP1 PUSH4 0x70A08231 EQ PUSH2 0x451 JUMPI DUP1 PUSH4 0x715018A6 EQ PUSH2 0x479 JUMPI DUP1 PUSH4 0x747A9828 EQ PUSH2 0x481 JUMPI PUSH0 DUP1 REVERT JUMPDEST DUP1 PUSH4 0x453D91C1 EQ PUSH2 0x3CE JUMPI DUP1 PUSH4 0x46904840 EQ PUSH2 0x3E1 JUMPI DUP1 PUSH4 0x4CDAD506 EQ PUSH2 0x2E5 JUMPI DUP1 PUSH4 0x5552AA40 EQ PUSH2 0x3F4 JUMPI DUP1 PUSH4 0x55B624DB EQ PUSH2 0x407 JUMPI DUP1 PUSH4 0x59B6A0C9 EQ PUSH2 0x41A JUMPI PUSH0 DUP1 REVERT JUMPDEST DUP1 PUSH4 0x23B872DD GT PUSH2 0x26E JUMPI DUP1 PUSH4 0x23B872DD EQ PUSH2 0x336 JUMPI DUP1 PUSH4 0x313CE567 EQ PUSH2 0x349 JUMPI DUP1 PUSH4 0x38D52E0F EQ PUSH2 0x363 JUMPI DUP1 PUSH4 0x3F4BA83A EQ PUSH2 0x39D JUMPI DUP1 PUSH4 0x401DBE23 EQ PUSH2 0x3A7 JUMPI DUP1 PUSH4 0x402D267D EQ PUSH2 0x3BA JUMPI PUSH0 DUP1 REVERT JUMPDEST DUP1 PUSH4 0x1E1D114 EQ PUSH2 0x2B5 JUMPI DUP1 PUSH4 0x6FDDE03 EQ PUSH2 0x2D0 JUMPI DUP1 PUSH4 0x7A2D13A EQ PUSH2 0x2E5 JUMPI DUP1 PUSH4 0x95EA7B3 EQ PUSH2 0x2F8 JUMPI DUP1 PUSH4 0xA28A477 EQ PUSH2 0x31B JUMPI DUP1 PUSH4 0x18160DDD EQ PUSH2 0x32E JUMPI JUMPDEST PUSH0 DUP1 REVERT JUMPDEST PUSH2 0x2BD PUSH2 0x630 JUMP JUMPDEST PUSH1 0x40 MLOAD SWAP1 DUP2 MSTORE PUSH1 0x20 ADD JUMPDEST PUSH1 0x40 MLOAD DUP1 SWAP2 SUB SWAP1 RETURN JUMPDEST PUSH2 0x2D8 PUSH2 0x646 JUMP JUMPDEST PUSH1 0x40 MLOAD PUSH2 0x2C7 SWAP2 SWAP1 PUSH2 0x2032 JUMP JUMPDEST PUSH2 0x2BD PUSH2 0x2F3 CALLDATASIZE PUSH1 0x4 PUSH2 0x2064 JUMP JUMPDEST PUSH2 0x6D6 JUMP JUMPDEST PUSH2 0x30B PUSH2 0x306 CALLDATASIZE PUSH1 0x4 PUSH2 0x2096 JUMP JUMPDEST PUSH2 0x6E7 JUMP JUMPDEST PUSH1 0x40 MLOAD SWAP1 ISZERO ISZERO DUP2 MSTORE PUSH1 0x20 ADD PUSH2 0x2C7 JUMP JUMPDEST PUSH2 0x2BD PUSH2 0x329 CALLDATASIZE PUSH1 0x4 PUSH2 0x2064 JUMP JUMPDEST PUSH2 0x6FE JUMP JUMPDEST PUSH1 0x2 SLOAD PUSH2 0x2BD JUMP JUMPDEST PUSH2 0x30B PUSH2 0x344 CALLDATASIZE PUSH1 0x4 PUSH2 0x20BE JUMP JUMPDEST PUSH2 0x70A JUMP JUMPDEST PUSH2 0x351 PUSH2 0x72F JUMP JUMPDEST PUSH1 0x40 MLOAD PUSH1 0xFF SWAP1 SWAP2 AND DUP2 MSTORE PUSH1 0x20 ADD PUSH2 0x2C7 JUMP JUMPDEST PUSH32 0x0 JUMPDEST PUSH1 0x40 MLOAD PUSH1 0x1 PUSH1 0x1 PUSH1 0xA0 SHL SUB SWAP1 SWAP2 AND DUP2 MSTORE PUSH1 0x20 ADD PUSH2 0x2C7 JUMP JUMPDEST PUSH2 0x3A5 PUSH2 0x75A JUMP JUMPDEST STOP JUMPDEST PUSH2 0x3A5 PUSH2 0x3B5 CALLDATASIZE PUSH1 0x4 PUSH2 0x20F7 JUMP JUMPDEST PUSH2 0x76C JUMP JUMPDEST PUSH2 0x2BD PUSH2 0x3C8 CALLDATASIZE PUSH1 0x4 PUSH2 0x20F7 JUMP JUMPDEST POP PUSH0 NOT SWAP1 JUMP JUMPDEST PUSH2 0x3A5 PUSH2 0x3DC CALLDATASIZE PUSH1 0x4 PUSH2 0x2064 JUMP JUMPDEST PUSH2 0x825 JUMP JUMPDEST PUSH1 0xD SLOAD PUSH2 0x385 SWAP1 PUSH1 0x1 PUSH1 0x1 PUSH1 0xA0 SHL SUB AND DUP2 JUMP JUMPDEST PUSH2 0x3A5 PUSH2 0x402 CALLDATASIZE PUSH1 0x4 PUSH2 0x2110 JUMP JUMPDEST PUSH2 0x8B7 JUMP JUMPDEST PUSH2 0x3A5 PUSH2 0x415 CALLDATASIZE PUSH1 0x4 PUSH2 0x2130 JUMP JUMPDEST PUSH2 0xC98 JUMP JUMPDEST PUSH2 0x2BD PUSH1 0x9 SLOAD DUP2 JUMP JUMPDEST PUSH1 0x5 SLOAD PUSH1 0x1 PUSH1 0xA0 SHL SWAP1 DIV PUSH1 0xFF AND PUSH2 0x30B JUMP JUMPDEST PUSH2 0x2BD PUSH1 0x7 SLOAD DUP2 JUMP JUMPDEST PUSH2 0x2BD PUSH2 0x44C CALLDATASIZE PUSH1 0x4 PUSH2 0x21B3 JUMP JUMPDEST PUSH2 0x10D6 JUMP JUMPDEST PUSH2 0x2BD PUSH2 0x45F CALLDATASIZE PUSH1 0x4 PUSH2 0x20F7 JUMP JUMPDEST PUSH1 0x1 PUSH1 0x1 PUSH1 0xA0 SHL SUB AND PUSH0 SWAP1 DUP2 MSTORE PUSH1 0x20 DUP2 SWAP1 MSTORE PUSH1 0x40 SWAP1 KECCAK256 SLOAD SWAP1 JUMP JUMPDEST PUSH2 0x3A5 PUSH2 0x10E9 JUMP JUMPDEST PUSH2 0x2BD PUSH2 0x1770 DUP2 JUMP JUMPDEST PUSH1 0xA SLOAD PUSH2 0x385 SWAP1 PUSH1 0x1 PUSH1 0x1 PUSH1 0xA0 SHL SUB AND DUP2 JUMP JUMPDEST PUSH2 0x3A5 PUSH2 0x10FA JUMP JUMPDEST PUSH2 0x2BD PUSH1 0xC SLOAD DUP2 JUMP JUMPDEST PUSH1 0x5 SLOAD PUSH1 0x1 PUSH1 0x1 PUSH1 0xA0 SHL SUB AND PUSH2 0x385 JUMP JUMPDEST PUSH2 0x2BD PUSH2 0x4CD CALLDATASIZE PUSH1 0x4 PUSH2 0x21B3 JUMP JUMPDEST PUSH2 0x110A JUMP JUMPDEST PUSH2 0x2D8 PUSH2 0x111D JUMP JUMPDEST PUSH2 0x30B PUSH2 0x4E8 CALLDATASIZE PUSH1 0x4 PUSH2 0x2096 JUMP JUMPDEST PUSH2 0x112C JUMP JUMPDEST PUSH1 0xB SLOAD PUSH2 0x385 SWAP1 PUSH1 0x1 PUSH1 0x1 PUSH1 0xA0 SHL SUB AND DUP2 JUMP JUMPDEST PUSH2 0x2BD PUSH2 0x50E CALLDATASIZE PUSH1 0x4 PUSH2 0x2064 JUMP JUMPDEST PUSH2 0x1139 JUMP JUMPDEST PUSH2 0x2BD PUSH2 0x521 CALLDATASIZE PUSH1 0x4 PUSH2 0x21DD JUMP JUMPDEST PUSH2 0x1145 JUMP JUMPDEST PUSH2 0x2BD PUSH2 0x534 CALLDATASIZE PUSH1 0x4 PUSH2 0x21DD JUMP JUMPDEST PUSH2 0x1179 JUMP JUMPDEST PUSH2 0x2BD PUSH2 0xBB8 DUP2 JUMP JUMPDEST PUSH2 0x2BD PUSH2 0x550 CALLDATASIZE PUSH1 0x4 PUSH2 0x2064 JUMP JUMPDEST PUSH1 0xE PUSH1 0x20 MSTORE PUSH0 SWAP1 DUP2 MSTORE PUSH1 0x40 SWAP1 KECCAK256 SLOAD DUP2 JUMP JUMPDEST PUSH2 0x2BD PUSH2 0x56F CALLDATASIZE PUSH1 0x4 PUSH2 0x2064 JUMP JUMPDEST PUSH2 0x1195 JUMP JUMPDEST PUSH2 0x2BD PUSH2 0x582 CALLDATASIZE PUSH1 0x4 PUSH2 0x20F7 JUMP JUMPDEST PUSH2 0x11A0 JUMP JUMPDEST PUSH2 0x2BD PUSH1 0x8 SLOAD DUP2 JUMP JUMPDEST PUSH2 0x2BD PUSH2 0x3E8 DUP2 JUMP JUMPDEST PUSH2 0x2BD PUSH2 0x5A7 CALLDATASIZE PUSH1 0x4 PUSH2 0x20F7 JUMP JUMPDEST PUSH2 0x11A9 JUMP JUMPDEST PUSH2 0x3A5 PUSH2 0x5BA CALLDATASIZE PUSH1 0x4 PUSH2 0x2064 JUMP JUMPDEST PUSH2 0x11C6 JUMP JUMPDEST PUSH2 0x2BD PUSH2 0x5CD CALLDATASIZE PUSH1 0x4 PUSH2 0x2216 JUMP JUMPDEST PUSH1 0x1 PUSH1 0x1 PUSH1 0xA0 SHL SUB SWAP2 DUP3 AND PUSH0 SWAP1 DUP2 MSTORE PUSH1 0x1 PUSH1 0x20 SWAP1 DUP2 MSTORE PUSH1 0x40 DUP1 DUP4 KECCAK256 SWAP4 SWAP1 SWAP5 AND DUP3 MSTORE SWAP2 SWAP1 SWAP2 MSTORE KECCAK256 SLOAD SWAP1 JUMP JUMPDEST PUSH2 0x3A5 PUSH2 0x605 CALLDATASIZE PUSH1 0x4 PUSH2 0x20F7 JUMP JUMPDEST PUSH2 0x1277 JUMP JUMPDEST PUSH2 0x3A5 PUSH2 0x618 CALLDATASIZE PUSH1 0x4 PUSH2 0x20F7 JUMP JUMPDEST PUSH2 0x12F2 JUMP JUMPDEST PUSH1 0x6 SLOAD PUSH2 0x385 SWAP1 PUSH1 0x1 PUSH1 0x1 PUSH1 0xA0 SHL SUB AND DUP2 JUMP JUMPDEST PUSH0 PUSH1 0x8 SLOAD PUSH1 0x7 SLOAD PUSH2 0x641 SWAP2 SWAP1 PUSH2 0x2252 JUMP JUMPDEST SWAP1 POP SWAP1 JUMP JUMPDEST PUSH1 0x60 PUSH1 0x3 DUP1 SLOAD PUSH2 0x655 SWAP1 PUSH2 0x2265 JUMP JUMPDEST DUP1 PUSH1 0x1F ADD PUSH1 0x20 DUP1 SWAP2 DIV MUL PUSH1 0x20 ADD PUSH1 0x40 MLOAD SWAP1 DUP2 ADD PUSH1 0x40 MSTORE DUP1 SWAP3 SWAP2 SWAP1 DUP2 DUP2 MSTORE PUSH1 0x20 ADD DUP3 DUP1 SLOAD PUSH2 0x681 SWAP1 PUSH2 0x2265 JUMP JUMPDEST DUP1 ISZERO PUSH2 0x6CC JUMPI DUP1 PUSH1 0x1F LT PUSH2 0x6A3 JUMPI PUSH2 0x100 DUP1 DUP4 SLOAD DIV MUL DUP4 MSTORE SWAP2 PUSH1 0x20 ADD SWAP2 PUSH2 0x6CC JUMP JUMPDEST DUP3 ADD SWAP2 SWAP1 PUSH0 MSTORE PUSH1 0x20 PUSH0 KECCAK256 SWAP1 JUMPDEST DUP2 SLOAD DUP2 MSTORE SWAP1 PUSH1 0x1 ADD SWAP1 PUSH1 0x20 ADD DUP1 DUP4 GT PUSH2 0x6AF JUMPI DUP3 SWAP1 SUB PUSH1 0x1F AND DUP3 ADD SWAP2 JUMPDEST POP POP POP POP POP SWAP1 POP SWAP1 JUMP JUMPDEST PUSH0 PUSH2 0x6E1 DUP3 PUSH0 PUSH2 0x132F JUMP JUMPDEST SWAP3 SWAP2 POP POP JUMP JUMPDEST PUSH0 CALLER PUSH2 0x6F4 DUP2 DUP6 DUP6 PUSH2 0x1367 JUMP JUMPDEST POP PUSH1 0x1 SWAP4 SWAP3 POP POP POP JUMP JUMPDEST PUSH0 PUSH2 0x6E1 DUP3 PUSH1 0x1 PUSH2 0x1379 JUMP JUMPDEST PUSH0 CALLER PUSH2 0x717 DUP6 DUP3 DUP6 PUSH2 0x13A8 JUMP JUMPDEST PUSH2 0x722 DUP6 DUP6 DUP6 PUSH2 0x1411 JUMP JUMPDEST PUSH1 0x1 SWAP2 POP POP JUMPDEST SWAP4 SWAP3 POP POP POP JUMP JUMPDEST PUSH0 PUSH2 0x641 DUP2 PUSH32 0x0 PUSH2 0x229D JUMP JUMPDEST PUSH2 0x762 PUSH2 0x146E JUMP JUMPDEST PUSH2 0x76A PUSH2 0x149B JUMP JUMPDEST JUMP JUMPDEST PUSH2 0x774 PUSH2 0x146E JUMP JUMPDEST PUSH1 0x1 PUSH1 0x1 PUSH1 0xA0 SHL SUB DUP2 AND PUSH2 0x7CA JUMPI PUSH1 0x40 MLOAD PUSH3 0x461BCD PUSH1 0xE5 SHL DUP2 MSTORE PUSH1 0x20 PUSH1 0x4 DUP3 ADD MSTORE PUSH1 0x18 PUSH1 0x24 DUP3 ADD MSTORE PUSH24 0x42726965725661756C743A207A65726F2061646472657373 PUSH1 0x40 SHL PUSH1 0x44 DUP3 ADD MSTORE PUSH1 0x64 ADD JUMPDEST PUSH1 0x40 MLOAD DUP1 SWAP2 SUB SWAP1 REVERT JUMPDEST PUSH1 0x6 SLOAD PUSH1 0x40 MLOAD PUSH1 0x1 PUSH1 0x1 PUSH1 0xA0 SHL SUB DUP1 DUP5 AND SWAP3 AND SWAP1 PUSH32 0x26F1333EB03795A71544EF03CD4BAC00A69DC4F0C136C970C379B353D23753DC SWAP1 PUSH0 SWAP1 LOG3 PUSH1 0x6 DUP1 SLOAD PUSH1 0x1 PUSH1 0x1 PUSH1 0xA0 SHL SUB NOT AND PUSH1 0x1 PUSH1 0x1 PUSH1 0xA0 SHL SUB SWAP3 SWAP1 SWAP3 AND SWAP2 SWAP1 SWAP2 OR SWAP1 SSTORE JUMP JUMPDEST PUSH2 0x82D PUSH2 0x146E JUMP JUMPDEST PUSH0 DUP2 GT PUSH2 0x87C JUMPI PUSH1 0x40 MLOAD PUSH3 0x461BCD PUSH1 0xE5 SHL DUP2 MSTORE PUSH1 0x20 PUSH1 0x4 DUP3 ADD MSTORE PUSH1 0x19 PUSH1 0x24 DUP3 ADD MSTORE PUSH32 0x42726965725661756C743A207A65726F20636170616369747900000000000000 PUSH1 0x44 DUP3 ADD MSTORE PUSH1 0x64 ADD PUSH2 0x7C1 JUMP JUMPDEST PUSH1 0x9 DUP2 SWAP1 SSTORE PUSH1 0x40 MLOAD DUP2 DUP2 MSTORE PUSH32 0x8B8564868E5DB4AC945B0FD897338876DCC0C95A5F183B340F47285EBBCB6AF1 SWAP1 PUSH1 0x20 ADD PUSH1 0x40 MLOAD DUP1 SWAP2 SUB SWAP1 LOG1 POP JUMP JUMPDEST PUSH1 0x6 SLOAD PUSH1 0x1 PUSH1 0x1 PUSH1 0xA0 SHL SUB AND CALLER EQ PUSH2 0x8E1 JUMPI PUSH1 0x40 MLOAD PUSH3 0x461BCD PUSH1 0xE5 SHL DUP2 MSTORE PUSH1 0x4 ADD PUSH2 0x7C1 SWAP1 PUSH2 0x22B6 JUMP JUMPDEST PUSH2 0x8E9 PUSH2 0x14F0 JUMP JUMPDEST PUSH0 DUP3 DUP2 MSTORE PUSH1 0xE PUSH1 0x20 MSTORE PUSH1 0x40 SWAP1 KECCAK256 SLOAD DUP1 PUSH2 0x95B JUMPI PUSH1 0x40 MLOAD PUSH3 0x461BCD PUSH1 0xE5 SHL DUP2 MSTORE PUSH1 0x20 PUSH1 0x4 DUP3 ADD MSTORE PUSH1 0x2E PUSH1 0x24 DUP3 ADD MSTORE PUSH32 0x42726965725661756C743A207472616465206E6F7420666F756E64206F722061 PUSH1 0x44 DUP3 ADD MSTORE PUSH14 0x1B1C9958591E481CD95D1D1B1959 PUSH1 0x92 SHL PUSH1 0x64 DUP3 ADD MSTORE PUSH1 0x84 ADD PUSH2 0x7C1 JUMP JUMPDEST PUSH0 PUSH32 0x0 PUSH1 0x40 MLOAD PUSH4 0x70A08231 PUSH1 0xE0 SHL DUP2 MSTORE ADDRESS PUSH1 0x4 DUP3 ADD MSTORE PUSH1 0x1 PUSH1 0x1 PUSH1 0xA0 SHL SUB SWAP2 SWAP1 SWAP2 AND SWAP1 PUSH4 0x70A08231 SWAP1 PUSH1 0x24 ADD PUSH1 0x20 PUSH1 0x40 MLOAD DUP1 DUP4 SUB DUP2 DUP7 GAS STATICCALL ISZERO DUP1 ISZERO PUSH2 0x9C1 JUMPI RETURNDATASIZE PUSH0 DUP1 RETURNDATACOPY RETURNDATASIZE PUSH0 REVERT JUMPDEST POP POP POP POP PUSH1 0x40 MLOAD RETURNDATASIZE PUSH1 0x1F NOT PUSH1 0x1F DUP3 ADD AND DUP3 ADD DUP1 PUSH1 0x40 MSTORE POP DUP2 ADD SWAP1 PUSH2 0x9E5 SWAP2 SWAP1 PUSH2 0x22FC JUMP JUMPDEST SWAP1 POP DUP3 PUSH1 0x7 SLOAD PUSH2 0x9F5 SWAP2 SWAP1 PUSH2 0x2252 JUMP JUMPDEST DUP2 LT ISZERO PUSH2 0xA6A JUMPI PUSH1 0x40 MLOAD PUSH3 0x461BCD PUSH1 0xE5 SHL DUP2 MSTORE PUSH1 0x20 PUSH1 0x4 DUP3 ADD MSTORE PUSH1 0x37 PUSH1 0x24 DUP3 ADD MSTORE PUSH32 0x42726965725661756C743A207061796F7574206E6F7420726563656976656420 PUSH1 0x44 DUP3 ADD MSTORE PUSH32 0x2D2072656465656D2066726F6D20435446206669727374000000000000000000 PUSH1 0x64 DUP3 ADD MSTORE PUSH1 0x84 ADD PUSH2 0x7C1 JUMP JUMPDEST PUSH0 DUP5 DUP2 MSTORE PUSH1 0xE PUSH1 0x20 MSTORE PUSH1 0x40 DUP2 KECCAK256 DUP2 SWAP1 SSTORE PUSH1 0x8 DUP1 SLOAD DUP5 SWAP3 SWAP1 PUSH2 0xA8C SWAP1 DUP5 SWAP1 PUSH2 0x2313 JUMP JUMPDEST SWAP1 SWAP2 SSTORE POP POP DUP2 DUP4 GT ISZERO PUSH2 0xC2B JUMPI PUSH0 PUSH2 0xAA4 DUP4 DUP6 PUSH2 0x2313 JUMP JUMPDEST SWAP1 POP PUSH0 PUSH2 0x2710 PUSH2 0xAB6 PUSH2 0xBB8 DUP5 PUSH2 0x2326 JUMP JUMPDEST PUSH2 0xAC0 SWAP2 SWAP1 PUSH2 0x2351 JUMP JUMPDEST SWAP1 POP PUSH0 PUSH2 0x2710 PUSH2 0xAD2 PUSH2 0x3E8 DUP6 PUSH2 0x2326 JUMP JUMPDEST PUSH2 0xADC SWAP2 SWAP1 PUSH2 0x2351 JUMP JUMPDEST SWAP1 POP PUSH0 DUP2 PUSH2 0xAEA DUP5 DUP7 PUSH2 0x2313 JUMP JUMPDEST PUSH2 0xAF4 SWAP2 SWAP1 PUSH2 0x2313 JUMP JUMPDEST SWAP1 POP DUP4 PUSH1 0xC PUSH0 DUP3 DUP3 SLOAD PUSH2 0xB07 SWAP2 SWAP1 PUSH2 0x2252 JUMP JUMPDEST SWAP1 SWAP2 SSTORE POP PUSH2 0xB17 SWAP1 POP DUP2 DUP8 PUSH2 0x2252 JUMP JUMPDEST PUSH1 0x7 PUSH0 DUP3 DUP3 SLOAD PUSH2 0xB27 SWAP2 SWAP1 PUSH2 0x2252 JUMP JUMPDEST SWAP1 SWAP2 SSTORE POP POP PUSH1 0xB SLOAD PUSH2 0xB6F SWAP1 PUSH1 0x1 PUSH1 0x1 PUSH1 0xA0 SHL SUB AND DUP5 PUSH32 0x0 JUMPDEST PUSH1 0x1 PUSH1 0x1 PUSH1 0xA0 SHL SUB AND SWAP2 SWAP1 PUSH2 0x150B JUMP JUMPDEST PUSH1 0xD SLOAD PUSH2 0xBA6 SWAP1 PUSH1 0x1 PUSH1 0x1 PUSH1 0xA0 SHL SUB AND DUP4 PUSH32 0x0 PUSH2 0xB5F JUMP JUMPDEST PUSH1 0x40 DUP1 MLOAD DUP5 DUP2 MSTORE PUSH1 0x20 DUP2 ADD DUP5 SWAP1 MSTORE SWAP1 DUP2 ADD DUP3 SWAP1 MSTORE PUSH32 0x312C5308F42848705A866C73DEC11FD0783C2D64AAC6A97E94467062AD3F4058 SWAP1 PUSH1 0x60 ADD PUSH1 0x40 MLOAD DUP1 SWAP2 SUB SWAP1 LOG1 PUSH1 0x40 DUP1 MLOAD DUP9 DUP2 MSTORE PUSH1 0x1 PUSH1 0x20 DUP3 ADD MSTORE DUP10 SWAP2 PUSH32 0xB838176051AAAD97F6FF91AA3A56C75219B4E7D94038A0BFB4BDE3527F52DFB0 SWAP2 ADD PUSH1 0x40 MLOAD DUP1 SWAP2 SUB SWAP1 LOG2 POP POP POP POP PUSH2 0xC7C JUMP JUMPDEST DUP3 PUSH1 0x7 PUSH0 DUP3 DUP3 SLOAD PUSH2 0xC3C SWAP2 SWAP1 PUSH2 0x2252 JUMP JUMPDEST SWAP1 SWAP2 SSTORE POP POP PUSH1 0x40 DUP1 MLOAD DUP5 DUP2 MSTORE PUSH0 PUSH1 0x20 DUP3 ADD MSTORE DUP6 SWAP2 PUSH32 0xB838176051AAAD97F6FF91AA3A56C75219B4E7D94038A0BFB4BDE3527F52DFB0 SWAP2 ADD PUSH1 0x40 MLOAD DUP1 SWAP2 SUB SWAP1 LOG2 JUMPDEST POP POP PUSH2 0xC94 PUSH1 0x1 PUSH0 DUP1 MLOAD PUSH1 0x20 PUSH2 0x2521 DUP4 CODECOPY DUP2 MLOAD SWAP2 MSTORE SSTORE JUMP JUMPDEST POP POP JUMP JUMPDEST PUSH1 0x6 SLOAD PUSH1 0x1 PUSH1 0x1 PUSH1 0xA0 SHL SUB AND CALLER EQ PUSH2 0xCC2 JUMPI PUSH1 0x40 MLOAD PUSH3 0x461BCD PUSH1 0xE5 SHL DUP2 MSTORE PUSH1 0x4 ADD PUSH2 0x7C1 SWAP1 PUSH2 0x22B6 JUMP JUMPDEST PUSH2 0xCCA PUSH2 0x1540 JUMP JUMPDEST PUSH2 0xCD2 PUSH2 0x14F0 JUMP JUMPDEST PUSH0 DUP2 GT PUSH2 0xD21 JUMPI PUSH1 0x40 MLOAD PUSH3 0x461BCD PUSH1 0xE5 SHL DUP2 MSTORE PUSH1 0x20 PUSH1 0x4 DUP3 ADD MSTORE PUSH1 0x1E PUSH1 0x24 DUP3 ADD MSTORE PUSH32 0x42726965725661756C743A20616D6F756E74206D757374206265203E20300000 PUSH1 0x44 DUP3 ADD MSTORE PUSH1 0x64 ADD PUSH2 0x7C1 JUMP JUMPDEST PUSH1 0x7 SLOAD DUP2 GT ISZERO PUSH2 0xD81 JUMPI PUSH1 0x40 MLOAD PUSH3 0x461BCD PUSH1 0xE5 SHL DUP2 MSTORE PUSH1 0x20 PUSH1 0x4 DUP3 ADD MSTORE PUSH1 0x25 PUSH1 0x24 DUP3 ADD MSTORE PUSH32 0x42726965725661756C743A20696E73756666696369656E742069646C65206361 PUSH1 0x44 DUP3 ADD MSTORE PUSH5 0x1C1A5D185B PUSH1 0xDA SHL PUSH1 0x64 DUP3 ADD MSTORE PUSH1 0x84 ADD PUSH2 0x7C1 JUMP JUMPDEST PUSH0 DUP6 DUP2 MSTORE PUSH1 0xE PUSH1 0x20 MSTORE PUSH1 0x40 SWAP1 KECCAK256 SLOAD ISZERO PUSH2 0xDE7 JUMPI PUSH1 0x40 MLOAD PUSH3 0x461BCD PUSH1 0xE5 SHL DUP2 MSTORE PUSH1 0x20 PUSH1 0x4 DUP3 ADD MSTORE PUSH1 0x22 PUSH1 0x24 DUP3 ADD MSTORE PUSH32 0x42726965725661756C743A207472616465496420616C72656164792061637469 PUSH1 0x44 DUP3 ADD MSTORE PUSH2 0x7665 PUSH1 0xF0 SHL PUSH1 0x64 DUP3 ADD MSTORE PUSH1 0x84 ADD PUSH2 0x7C1 JUMP JUMPDEST PUSH1 0x64 PUSH2 0xDF1 PUSH2 0x630 JUMP JUMPDEST PUSH2 0xDFC SWAP1 PUSH1 0x14 PUSH2 0x2326 JUMP JUMPDEST PUSH2 0xE06 SWAP2 SWAP1 PUSH2 0x2351 JUMP JUMPDEST DUP2 GT ISZERO PUSH2 0xE61 JUMPI PUSH1 0x40 MLOAD PUSH3 0x461BCD PUSH1 0xE5 SHL DUP2 MSTORE PUSH1 0x20 PUSH1 0x4 DUP3 ADD MSTORE PUSH1 0x23 PUSH1 0x24 DUP3 ADD MSTORE PUSH32 0x42726965725661756C743A206578636565647320323025207472616465206C69 PUSH1 0x44 DUP3 ADD MSTORE PUSH3 0x1B5A5D PUSH1 0xEA SHL PUSH1 0x64 DUP3 ADD MSTORE PUSH1 0x84 ADD PUSH2 0x7C1 JUMP JUMPDEST DUP1 PUSH1 0x7 PUSH0 DUP3 DUP3 SLOAD PUSH2 0xE72 SWAP2 SWAP1 PUSH2 0x2313 JUMP JUMPDEST SWAP3 POP POP DUP2 SWAP1 SSTORE POP DUP1 PUSH1 0x8 PUSH0 DUP3 DUP3 SLOAD PUSH2 0xE8A SWAP2 SWAP1 PUSH2 0x2252 JUMP JUMPDEST SWAP1 SWAP2 SSTORE POP POP PUSH0 DUP6 DUP2 MSTORE PUSH1 0xE PUSH1 0x20 MSTORE PUSH1 0x40 SWAP1 KECCAK256 DUP2 SWAP1 SSTORE PUSH1 0xA SLOAD PUSH2 0xEE1 SWAP1 PUSH1 0x1 PUSH1 0x1 PUSH1 0xA0 SHL SUB AND DUP3 PUSH32 0x0 PUSH1 0x1 PUSH1 0x1 PUSH1 0xA0 SHL SUB AND SWAP2 SWAP1 PUSH2 0x156B JUMP JUMPDEST PUSH1 0xA SLOAD PUSH0 SWAP1 PUSH1 0x1 PUSH1 0x1 PUSH1 0xA0 SHL SUB AND PUSH32 0x0 PUSH1 0x40 MLOAD PUSH2 0xF2A SWAP2 SWAP1 PUSH0 SWAP1 DUP10 SWAP1 DUP10 SWAP1 DUP10 SWAP1 DUP10 SWAP1 PUSH1 0x24 ADD PUSH2 0x2364 JUMP JUMPDEST PUSH1 0x40 DUP1 MLOAD PUSH1 0x1F NOT DUP2 DUP5 SUB ADD DUP2 MSTORE SWAP2 DUP2 MSTORE PUSH1 0x20 DUP3 ADD DUP1 MLOAD PUSH1 0x1 PUSH1 0x1 PUSH1 0xE0 SHL SUB AND PUSH4 0x72CE4275 PUSH1 0xE0 SHL OR SWAP1 MSTORE MLOAD PUSH2 0xF5F SWAP2 SWAP1 PUSH2 0x23C1 JUMP JUMPDEST PUSH0 PUSH1 0x40 MLOAD DUP1 DUP4 SUB DUP2 PUSH0 DUP7 GAS CALL SWAP2 POP POP RETURNDATASIZE DUP1 PUSH0 DUP2 EQ PUSH2 0xF98 JUMPI PUSH1 0x40 MLOAD SWAP2 POP PUSH1 0x1F NOT PUSH1 0x3F RETURNDATASIZE ADD AND DUP3 ADD PUSH1 0x40 MSTORE RETURNDATASIZE DUP3 MSTORE RETURNDATASIZE PUSH0 PUSH1 0x20 DUP5 ADD RETURNDATACOPY PUSH2 0xF9D JUMP JUMPDEST PUSH1 0x60 SWAP2 POP JUMPDEST POP POP SWAP1 POP DUP1 PUSH2 0x107D JUMPI PUSH1 0xA SLOAD PUSH2 0xFE8 SWAP1 PUSH1 0x1 PUSH1 0x1 PUSH1 0xA0 SHL SUB AND DUP4 PUSH32 0x0 PUSH1 0x1 PUSH1 0x1 PUSH1 0xA0 SHL SUB AND SWAP2 SWAP1 PUSH2 0x15F2 JUMP JUMPDEST DUP2 PUSH1 0x7 PUSH0 DUP3 DUP3 SLOAD PUSH2 0xFF9 SWAP2 SWAP1 PUSH2 0x2252 JUMP JUMPDEST SWAP3 POP POP DUP2 SWAP1 SSTORE POP DUP2 PUSH1 0x8 PUSH0 DUP3 DUP3 SLOAD PUSH2 0x1011 SWAP2 SWAP1 PUSH2 0x2313 JUMP JUMPDEST SWAP1 SWAP2 SSTORE POP POP PUSH0 DUP7 DUP2 MSTORE PUSH1 0xE PUSH1 0x20 MSTORE PUSH1 0x40 DUP1 DUP3 KECCAK256 SWAP2 SWAP1 SWAP2 SSTORE MLOAD PUSH3 0x461BCD PUSH1 0xE5 SHL DUP2 MSTORE PUSH2 0x7C1 SWAP1 PUSH1 0x4 ADD PUSH1 0x20 DUP1 DUP3 MSTORE PUSH1 0x24 SWAP1 DUP3 ADD MSTORE PUSH32 0x42726965725661756C743A204354462073706C6974506F736974696F6E206661 PUSH1 0x40 DUP3 ADD MSTORE PUSH4 0x1A5B1959 PUSH1 0xE2 SHL PUSH1 0x60 DUP3 ADD MSTORE PUSH1 0x80 ADD SWAP1 JUMP JUMPDEST DUP5 DUP7 PUSH32 0x46B5C28A0EFD2884FDC09E7246B9C9251B6429EB7FD2F84E7A704419276468F DUP5 PUSH1 0x40 MLOAD PUSH2 0x10B0 SWAP2 DUP2 MSTORE PUSH1 0x20 ADD SWAP1 JUMP JUMPDEST PUSH1 0x40 MLOAD DUP1 SWAP2 SUB SWAP1 LOG3 POP PUSH2 0x10CF PUSH1 0x1 PUSH0 DUP1 MLOAD PUSH1 0x20 PUSH2 0x2521 DUP4 CODECOPY DUP2 MLOAD SWAP2 MSTORE SSTORE JUMP JUMPDEST POP POP POP POP POP JUMP JUMPDEST PUSH0 PUSH2 0x10DF PUSH2 0x1540 JUMP JUMPDEST PUSH2 0x728 DUP4 DUP4 PUSH2 0x1699 JUMP JUMPDEST PUSH2 0x10F1 PUSH2 0x146E JUMP JUMPDEST PUSH2 0x76A PUSH0 PUSH2 0x16BC JUMP JUMPDEST PUSH2 0x1102 PUSH2 0x146E JUMP JUMPDEST PUSH2 0x76A PUSH2 0x170D JUMP JUMPDEST PUSH0 PUSH2 0x1113 PUSH2 0x1540 JUMP JUMPDEST PUSH2 0x728 DUP4 DUP4 PUSH2 0x1750 JUMP JUMPDEST PUSH1 0x60 PUSH1 0x4 DUP1 SLOAD PUSH2 0x655 SWAP1 PUSH2 0x2265 JUMP JUMPDEST PUSH0 CALLER PUSH2 0x6F4 DUP2 DUP6 DUP6 PUSH2 0x1411 JUMP JUMPDEST PUSH0 PUSH2 0x6E1 DUP3 PUSH1 0x1 PUSH2 0x132F JUMP JUMPDEST PUSH0 PUSH2 0x114E PUSH2 0x1540 JUMP JUMPDEST PUSH2 0x1156 PUSH2 0x14F0 JUMP JUMPDEST PUSH2 0x1161 DUP5 DUP5 DUP5 PUSH2 0x176B JUMP JUMPDEST SWAP1 POP PUSH2 0x728 PUSH1 0x1 PUSH0 DUP1 MLOAD PUSH1 0x20 PUSH2 0x2521 DUP4 CODECOPY DUP2 MLOAD SWAP2 MSTORE SSTORE JUMP JUMPDEST PUSH0 PUSH2 0x1182 PUSH2 0x1540 JUMP JUMPDEST PUSH2 0x118A PUSH2 0x14F0 JUMP JUMPDEST PUSH2 0x1161 DUP5 DUP5 DUP5 PUSH2 0x17C1 JUMP JUMPDEST PUSH0 PUSH2 0x6E1 DUP3 PUSH0 PUSH2 0x1379 JUMP JUMPDEST PUSH0 PUSH2 0x6E1 PUSH2 0x2F3 DUP4 JUMPDEST PUSH1 0x1 PUSH1 0x1 PUSH1 0xA0 SHL SUB DUP2 AND PUSH0 SWAP1 DUP2 MSTORE PUSH1 0x20 DUP2 SWAP1 MSTORE PUSH1 0x40 DUP2 KECCAK256 SLOAD PUSH2 0x6E1 JUMP JUMPDEST PUSH1 0x6 SLOAD PUSH1 0x1 PUSH1 0x1 PUSH1 0xA0 SHL SUB AND CALLER EQ PUSH2 0x11F0 JUMPI PUSH1 0x40 MLOAD PUSH3 0x461BCD PUSH1 0xE5 SHL DUP2 MSTORE PUSH1 0x4 ADD PUSH2 0x7C1 SWAP1 PUSH2 0x22B6 JUMP JUMPDEST PUSH0 DUP2 DUP2 MSTORE PUSH1 0xE PUSH1 0x20 MSTORE PUSH1 0x40 SWAP1 KECCAK256 SLOAD PUSH2 0x124A JUMPI PUSH1 0x40 MLOAD PUSH3 0x461BCD PUSH1 0xE5 SHL DUP2 MSTORE PUSH1 0x20 PUSH1 0x4 DUP3 ADD MSTORE PUSH1 0x1C PUSH1 0x24 DUP3 ADD MSTORE PUSH32 0x42726965725661756C743A207472616465206E6F742061637469766500000000 PUSH1 0x44 DUP3 ADD MSTORE PUSH1 0x64 ADD PUSH2 0x7C1 JUMP JUMPDEST PUSH1 0x40 MLOAD DUP2 SWAP1 PUSH32 0x7B1D12F6854DA251C168931AA977E79340EFD6470C55FB00DBE8E921CA3FB769 SWAP1 PUSH0 SWAP1 LOG2 POP JUMP JUMPDEST PUSH2 0x127F PUSH2 0x146E JUMP JUMPDEST PUSH1 0x1 PUSH1 0x1 PUSH1 0xA0 SHL SUB DUP2 AND PUSH2 0x12D0 JUMPI PUSH1 0x40 MLOAD PUSH3 0x461BCD PUSH1 0xE5 SHL DUP2 MSTORE PUSH1 0x20 PUSH1 0x4 DUP3 ADD MSTORE PUSH1 0x18 PUSH1 0x24 DUP3 ADD MSTORE PUSH24 0x42726965725661756C743A207A65726F2061646472657373 PUSH1 0x40 SHL PUSH1 0x44 DUP3 ADD MSTORE PUSH1 0x64 ADD PUSH2 0x7C1 JUMP JUMPDEST PUSH1 0xD DUP1 SLOAD PUSH1 0x1 PUSH1 0x1 PUSH1 0xA0 SHL SUB NOT AND PUSH1 0x1 PUSH1 0x1 PUSH1 0xA0 SHL SUB SWAP3 SWAP1 SWAP3 AND SWAP2 SWAP1 SWAP2 OR SWAP1 SSTORE JUMP JUMPDEST PUSH2 0x12FA PUSH2 0x146E JUMP JUMPDEST PUSH1 0x1 PUSH1 0x1 PUSH1 0xA0 SHL SUB DUP2 AND PUSH2 0x1323 JUMPI PUSH1 0x40 MLOAD PUSH4 0x1E4FBDF7 PUSH1 0xE0 SHL DUP2 MSTORE PUSH0 PUSH1 0x4 DUP3 ADD MSTORE PUSH1 0x24 ADD PUSH2 0x7C1 JUMP JUMPDEST PUSH2 0x132C DUP2 PUSH2 0x16BC JUMP JUMPDEST POP JUMP JUMPDEST PUSH0 PUSH2 0x728 PUSH2 0x133B PUSH2 0x630 JUMP JUMPDEST PUSH2 0x1346 SWAP1 PUSH1 0x1 PUSH2 0x2252 JUMP JUMPDEST PUSH2 0x1351 PUSH0 PUSH1 0xA PUSH2 0x24BC JUMP JUMPDEST PUSH1 0x2 SLOAD PUSH2 0x135E SWAP2 SWAP1 PUSH2 0x2252 JUMP JUMPDEST DUP6 SWAP2 SWAP1 DUP6 PUSH2 0x180E JUMP JUMPDEST PUSH2 0x1374 DUP4 DUP4 DUP4 PUSH1 0x1 PUSH2 0x1850 JUMP JUMPDEST POP POP POP JUMP JUMPDEST PUSH0 PUSH2 0x728 PUSH2 0x1388 DUP3 PUSH1 0xA PUSH2 0x24BC JUMP JUMPDEST PUSH1 0x2 SLOAD PUSH2 0x1395 SWAP2 SWAP1 PUSH2 0x2252 JUMP JUMPDEST PUSH2 0x139D PUSH2 0x630 JUMP JUMPDEST PUSH2 0x135E SWAP1 PUSH1 0x1 PUSH2 0x2252 JUMP JUMPDEST PUSH1 0x1 PUSH1 0x1 PUSH1 0xA0 SHL SUB DUP4 DUP2 AND PUSH0 SWAP1 DUP2 MSTORE PUSH1 0x1 PUSH1 0x20 SWAP1 DUP2 MSTORE PUSH1 0x40 DUP1 DUP4 KECCAK256 SWAP4 DUP7 AND DUP4 MSTORE SWAP3 SWAP1 MSTORE KECCAK256 SLOAD PUSH0 NOT DUP2 LT ISZERO PUSH2 0x140B JUMPI DUP2 DUP2 LT ISZERO PUSH2 0x13FD JUMPI DUP3 DUP2 DUP4 PUSH1 0x40 MLOAD PUSH4 0x7DC7A0D9 PUSH1 0xE1 SHL DUP2 MSTORE PUSH1 0x4 ADD PUSH2 0x7C1 SWAP4 SWAP3 SWAP2 SWAP1 PUSH2 0x24CA JUMP JUMPDEST PUSH2 0x140B DUP5 DUP5 DUP5 DUP5 SUB PUSH0 PUSH2 0x1850 JUMP JUMPDEST POP POP POP POP JUMP JUMPDEST PUSH1 0x1 PUSH1 0x1 PUSH1 0xA0 SHL SUB DUP4 AND PUSH2 0x143A JUMPI PUSH1 0x40 MLOAD PUSH4 0x4B637E8F PUSH1 0xE1 SHL DUP2 MSTORE PUSH0 PUSH1 0x4 DUP3 ADD MSTORE PUSH1 0x24 ADD PUSH2 0x7C1 JUMP JUMPDEST PUSH1 0x1 PUSH1 0x1 PUSH1 0xA0 SHL SUB DUP3 AND PUSH2 0x1463 JUMPI PUSH1 0x40 MLOAD PUSH4 0xEC442F05 PUSH1 0xE0 SHL DUP2 MSTORE PUSH0 PUSH1 0x4 DUP3 ADD MSTORE PUSH1 0x24 ADD PUSH2 0x7C1 JUMP JUMPDEST PUSH2 0x1374 DUP4 DUP4 DUP4 PUSH2 0x1922 JUMP JUMPDEST PUSH1 0x5 SLOAD PUSH1 0x1 PUSH1 0x1 PUSH1 0xA0 SHL SUB AND CALLER EQ PUSH2 0x76A JUMPI PUSH1 0x40 MLOAD PUSH4 0x118CDAA7 PUSH1 0xE0 SHL DUP2 MSTORE CALLER PUSH1 0x4 DUP3 ADD MSTORE PUSH1 0x24 ADD PUSH2 0x7C1 JUMP JUMPDEST PUSH2 0x14A3 PUSH2 0x1A35 JUMP JUMPDEST PUSH1 0x5 DUP1 SLOAD PUSH1 0xFF PUSH1 0xA0 SHL NOT AND SWAP1 SSTORE PUSH32 0x5DB9EE0A495BF2E6FF9C91A7834C1BA4FDD244A5E8AA4E537BD38AEAE4B073AA CALLER JUMPDEST PUSH1 0x40 MLOAD PUSH1 0x1 PUSH1 0x1 PUSH1 0xA0 SHL SUB SWAP1 SWAP2 AND DUP2 MSTORE PUSH1 0x20 ADD PUSH1 0x40 MLOAD DUP1 SWAP2 SUB SWAP1 LOG1 JUMP JUMPDEST PUSH2 0x14F8 PUSH2 0x1A5F JUMP JUMPDEST PUSH1 0x2 PUSH0 DUP1 MLOAD PUSH1 0x20 PUSH2 0x2521 DUP4 CODECOPY DUP2 MLOAD SWAP2 MSTORE SSTORE JUMP JUMPDEST PUSH2 0x1518 DUP4 DUP4 DUP4 PUSH1 0x1 PUSH2 0x1A8E JUMP JUMPDEST PUSH2 0x1374 JUMPI PUSH1 0x40 MLOAD PUSH4 0x5274AFE7 PUSH1 0xE0 SHL DUP2 MSTORE PUSH1 0x1 PUSH1 0x1 PUSH1 0xA0 SHL SUB DUP5 AND PUSH1 0x4 DUP3 ADD MSTORE PUSH1 0x24 ADD PUSH2 0x7C1 JUMP JUMPDEST PUSH1 0x5 SLOAD PUSH1 0x1 PUSH1 0xA0 SHL SWAP1 DIV PUSH1 0xFF AND ISZERO PUSH2 0x76A JUMPI PUSH1 0x40 MLOAD PUSH4 0xD93C0665 PUSH1 0xE0 SHL DUP2 MSTORE PUSH1 0x4 ADD PUSH1 0x40 MLOAD DUP1 SWAP2 SUB SWAP1 REVERT JUMPDEST PUSH1 0x40 MLOAD PUSH4 0x6EB1769F PUSH1 0xE1 SHL DUP2 MSTORE ADDRESS PUSH1 0x4 DUP3 ADD MSTORE PUSH1 0x1 PUSH1 0x1 PUSH1 0xA0 SHL SUB DUP4 DUP2 AND PUSH1 0x24 DUP4 ADD MSTORE PUSH0 SWAP2 SWAP1 DUP6 AND SWAP1 PUSH4 0xDD62ED3E SWAP1 PUSH1 0x44 ADD PUSH1 0x20 PUSH1 0x40 MLOAD DUP1 DUP4 SUB DUP2 DUP7 GAS STATICCALL ISZERO DUP1 ISZERO PUSH2 0x15B8 JUMPI RETURNDATASIZE PUSH0 DUP1 RETURNDATACOPY RETURNDATASIZE PUSH0 REVERT JUMPDEST POP POP POP POP PUSH1 0x40 MLOAD RETURNDATASIZE PUSH1 0x1F NOT PUSH1 0x1F DUP3 ADD AND DUP3 ADD DUP1 PUSH1 0x40 MSTORE POP DUP2 ADD SWAP1 PUSH2 0x15DC SWAP2 SWAP1 PUSH2 0x22FC JUMP JUMPDEST SWAP1 POP PUSH2 0x140B DUP5 DUP5 PUSH2 0x15ED DUP6 DUP6 PUSH2 0x2252 JUMP JUMPDEST PUSH2 0x1AF0 JUMP JUMPDEST PUSH1 0x40 MLOAD PUSH4 0x6EB1769F PUSH1 0xE1 SHL DUP2 MSTORE ADDRESS PUSH1 0x4 DUP3 ADD MSTORE PUSH1 0x1 PUSH1 0x1 PUSH1 0xA0 SHL SUB DUP4 DUP2 AND PUSH1 0x24 DUP4 ADD MSTORE PUSH0 SWAP2 SWAP1 DUP6 AND SWAP1 PUSH4 0xDD62ED3E SWAP1 PUSH1 0x44 ADD PUSH1 0x20 PUSH1 0x40 MLOAD DUP1 DUP4 SUB DUP2 DUP7 GAS STATICCALL ISZERO DUP1 ISZERO PUSH2 0x163F JUMPI RETURNDATASIZE PUSH0 DUP1 RETURNDATACOPY RETURNDATASIZE PUSH0 REVERT JUMPDEST POP POP POP POP PUSH1 0x40 MLOAD RETURNDATASIZE PUSH1 0x1F NOT PUSH1 0x1F DUP3 ADD AND DUP3 ADD DUP1 PUSH1 0x40 MSTORE POP DUP2 ADD SWAP1 PUSH2 0x1663 SWAP2 SWAP1 PUSH2 0x22FC JUMP JUMPDEST SWAP1 POP DUP2 DUP2 LT ISZERO PUSH2 0x168C JUMPI DUP3 DUP2 DUP4 PUSH1 0x40 MLOAD PUSH4 0xE570110F PUSH1 0xE0 SHL DUP2 MSTORE PUSH1 0x4 ADD PUSH2 0x7C1 SWAP4 SWAP3 SWAP2 SWAP1 PUSH2 0x24CA JUMP JUMPDEST PUSH2 0x140B DUP5 DUP5 DUP5 DUP5 SUB PUSH2 0x1AF0 JUMP JUMPDEST PUSH0 PUSH0 NOT PUSH0 PUSH2 0x16A6 DUP6 PUSH2 0x1195 JUMP JUMPDEST SWAP1 POP PUSH2 0x16B4 CALLER DUP6 DUP8 DUP5 PUSH2 0x1B42 JUMP JUMPDEST SWAP5 SWAP4 POP POP POP POP JUMP JUMPDEST PUSH1 0x5 DUP1 SLOAD PUSH1 0x1 PUSH1 0x1 PUSH1 0xA0 SHL SUB DUP4 DUP2 AND PUSH1 0x1 PUSH1 0x1 PUSH1 0xA0 SHL SUB NOT DUP4 AND DUP2 OR SWAP1 SWAP4 SSTORE PUSH1 0x40 MLOAD SWAP2 AND SWAP2 SWAP1 DUP3 SWAP1 PUSH32 0x8BE0079C531659141344CD1FD0A4F28419497F9722A3DAAFE3B4186F6B6457E0 SWAP1 PUSH0 SWAP1 LOG3 POP POP JUMP JUMPDEST PUSH2 0x1715 PUSH2 0x1540 JUMP JUMPDEST PUSH1 0x5 DUP1 SLOAD PUSH1 0xFF PUSH1 0xA0 SHL NOT AND PUSH1 0x1 PUSH1 0xA0 SHL OR SWAP1 SSTORE PUSH32 0x62E78CEA01BEE320CD4E420270B5EA74000D11B0C9F74754EBDBFC544B05A258 PUSH2 0x14D3 CALLER SWAP1 JUMP JUMPDEST PUSH0 PUSH0 NOT PUSH0 PUSH2 0x175D DUP6 PUSH2 0x1139 JUMP JUMPDEST SWAP1 POP PUSH2 0x16B4 CALLER DUP6 DUP4 DUP9 PUSH2 0x1B42 JUMP JUMPDEST PUSH0 DUP1 PUSH2 0x1776 DUP4 PUSH2 0x11A0 JUMP JUMPDEST SWAP1 POP DUP1 DUP6 GT ISZERO PUSH2 0x179F JUMPI DUP3 DUP6 DUP3 PUSH1 0x40 MLOAD PUSH4 0x3FA733BB PUSH1 0xE2 SHL DUP2 MSTORE PUSH1 0x4 ADD PUSH2 0x7C1 SWAP4 SWAP3 SWAP2 SWAP1 PUSH2 0x24CA JUMP JUMPDEST PUSH0 PUSH2 0x17A9 DUP7 PUSH2 0x6FE JUMP JUMPDEST SWAP1 POP PUSH2 0x17B8 CALLER DUP7 DUP7 DUP10 DUP6 PUSH2 0x1BCE JUMP JUMPDEST SWAP6 SWAP5 POP POP POP POP POP JUMP JUMPDEST PUSH0 DUP1 PUSH2 0x17CC DUP4 PUSH2 0x11A9 JUMP JUMPDEST SWAP1 POP DUP1 DUP6 GT ISZERO PUSH2 0x17F5 JUMPI DUP3 DUP6 DUP3 PUSH1 0x40 MLOAD PUSH4 0x2E52AFBB PUSH1 0xE2 SHL DUP2 MSTORE PUSH1 0x4 ADD PUSH2 0x7C1 SWAP4 SWAP3 SWAP2 SWAP1 PUSH2 0x24CA JUMP JUMPDEST PUSH0 PUSH2 0x17FF DUP7 PUSH2 0x6D6 JUMP JUMPDEST SWAP1 POP PUSH2 0x17B8 CALLER DUP7 DUP7 DUP5 DUP11 PUSH2 0x1BCE JUMP JUMPDEST PUSH0 PUSH2 0x183B PUSH2 0x181B DUP4 PUSH2 0x1C5A JUMP JUMPDEST DUP1 ISZERO PUSH2 0x1836 JUMPI POP PUSH0 DUP5 DUP1 PUSH2 0x1831 JUMPI PUSH2 0x1831 PUSH2 0x233D JUMP JUMPDEST DUP7 DUP9 MULMOD GT JUMPDEST ISZERO ISZERO SWAP1 JUMP JUMPDEST PUSH2 0x1846 DUP7 DUP7 DUP7 PUSH2 0x1C86 JUMP JUMPDEST PUSH2 0x17B8 SWAP2 SWAP1 PUSH2 0x2252 JUMP JUMPDEST PUSH1 0x1 PUSH1 0x1 PUSH1 0xA0 SHL SUB DUP5 AND PUSH2 0x1879 JUMPI PUSH1 0x40 MLOAD PUSH4 0xE602DF05 PUSH1 0xE0 SHL DUP2 MSTORE PUSH0 PUSH1 0x4 DUP3 ADD MSTORE PUSH1 0x24 ADD PUSH2 0x7C1 JUMP JUMPDEST PUSH1 0x1 PUSH1 0x1 PUSH1 0xA0 SHL SUB DUP4 AND PUSH2 0x18A2 JUMPI PUSH1 0x40 MLOAD PUSH4 0x4A1406B1 PUSH1 0xE1 SHL DUP2 MSTORE PUSH0 PUSH1 0x4 DUP3 ADD MSTORE PUSH1 0x24 ADD PUSH2 0x7C1 JUMP JUMPDEST PUSH1 0x1 PUSH1 0x1 PUSH1 0xA0 SHL SUB DUP1 DUP6 AND PUSH0 SWAP1 DUP2 MSTORE PUSH1 0x1 PUSH1 0x20 SWAP1 DUP2 MSTORE PUSH1 0x40 DUP1 DUP4 KECCAK256 SWAP4 DUP8 AND DUP4 MSTORE SWAP3 SWAP1 MSTORE KECCAK256 DUP3 SWAP1 SSTORE DUP1 ISZERO PUSH2 0x140B JUMPI DUP3 PUSH1 0x1 PUSH1 0x1 PUSH1 0xA0 SHL SUB AND DUP5 PUSH1 0x1 PUSH1 0x1 PUSH1 0xA0 SHL SUB AND PUSH32 0x8C5BE1E5EBEC7D5BD14F71427D1E84F3DD0314C0F7B2291E5B200AC8C7C3B925 DUP5 PUSH1 0x40 MLOAD PUSH2 0x1914 SWAP2 DUP2 MSTORE PUSH1 0x20 ADD SWAP1 JUMP JUMPDEST PUSH1 0x40 MLOAD DUP1 SWAP2 SUB SWAP1 LOG3 POP POP POP POP JUMP JUMPDEST PUSH1 0x1 PUSH1 0x1 PUSH1 0xA0 SHL SUB DUP4 AND PUSH2 0x194C JUMPI DUP1 PUSH1 0x2 PUSH0 DUP3 DUP3 SLOAD PUSH2 0x1941 SWAP2 SWAP1 PUSH2 0x2252 JUMP JUMPDEST SWAP1 SWAP2 SSTORE POP PUSH2 0x19A9 SWAP1 POP JUMP JUMPDEST PUSH1 0x1 PUSH1 0x1 PUSH1 0xA0 SHL SUB DUP4 AND PUSH0 SWAP1 DUP2 MSTORE PUSH1 0x20 DUP2 SWAP1 MSTORE PUSH1 0x40 SWAP1 KECCAK256 SLOAD DUP2 DUP2 LT ISZERO PUSH2 0x198B JUMPI DUP4 DUP2 DUP4 PUSH1 0x40 MLOAD PUSH4 0x391434E3 PUSH1 0xE2 SHL DUP2 MSTORE PUSH1 0x4 ADD PUSH2 0x7C1 SWAP4 SWAP3 SWAP2 SWAP1 PUSH2 0x24CA JUMP JUMPDEST PUSH1 0x1 PUSH1 0x1 PUSH1 0xA0 SHL SUB DUP5 AND PUSH0 SWAP1 DUP2 MSTORE PUSH1 0x20 DUP2 SWAP1 MSTORE PUSH1 0x40 SWAP1 KECCAK256 SWAP1 DUP3 SWAP1 SUB SWAP1 SSTORE JUMPDEST PUSH1 0x1 PUSH1 0x1 PUSH1 0xA0 SHL SUB DUP3 AND PUSH2 0x19C5 JUMPI PUSH1 0x2 DUP1 SLOAD DUP3 SWAP1 SUB SWAP1 SSTORE PUSH2 0x19E3 JUMP JUMPDEST PUSH1 0x1 PUSH1 0x1 PUSH1 0xA0 SHL SUB DUP3 AND PUSH0 SWAP1 DUP2 MSTORE PUSH1 0x20 DUP2 SWAP1 MSTORE PUSH1 0x40 SWAP1 KECCAK256 DUP1 SLOAD DUP3 ADD SWAP1 SSTORE JUMPDEST DUP2 PUSH1 0x1 PUSH1 0x1 PUSH1 0xA0 SHL SUB AND DUP4 PUSH1 0x1 PUSH1 0x1 PUSH1 0xA0 SHL SUB AND PUSH32 0xDDF252AD1BE2C89B69C2B068FC378DAA952BA7F163C4A11628F55A4DF523B3EF DUP4 PUSH1 0x40 MLOAD PUSH2 0x1A28 SWAP2 DUP2 MSTORE PUSH1 0x20 ADD SWAP1 JUMP JUMPDEST PUSH1 0x40 MLOAD DUP1 SWAP2 SUB SWAP1 LOG3 POP POP POP JUMP JUMPDEST PUSH1 0x5 SLOAD PUSH1 0x1 PUSH1 0xA0 SHL SWAP1 DIV PUSH1 0xFF AND PUSH2 0x76A JUMPI PUSH1 0x40 MLOAD PUSH4 0x8DFC202B PUSH1 0xE0 SHL DUP2 MSTORE PUSH1 0x4 ADD PUSH1 0x40 MLOAD DUP1 SWAP2 SUB SWAP1 REVERT JUMPDEST PUSH0 DUP1 MLOAD PUSH1 0x20 PUSH2 0x2521 DUP4 CODECOPY DUP2 MLOAD SWAP2 MSTORE SLOAD PUSH1 0x2 SUB PUSH2 0x76A JUMPI PUSH1 0x40 MLOAD PUSH4 0x3EE5AEB5 PUSH1 0xE0 SHL DUP2 MSTORE PUSH1 0x4 ADD PUSH1 0x40 MLOAD DUP1 SWAP2 SUB SWAP1 REVERT JUMPDEST PUSH1 0x40 MLOAD PUSH4 0xA9059CBB PUSH1 0xE0 SHL PUSH0 DUP2 DUP2 MSTORE PUSH1 0x1 PUSH1 0x1 PUSH1 0xA0 SHL SUB DUP7 AND PUSH1 0x4 MSTORE PUSH1 0x24 DUP6 SWAP1 MSTORE SWAP2 PUSH1 0x20 DUP4 PUSH1 0x44 DUP2 DUP1 DUP12 GAS CALL SWAP3 POP PUSH1 0x1 PUSH0 MLOAD EQ DUP4 AND PUSH2 0x1AE4 JUMPI DUP4 DUP4 ISZERO AND ISZERO PUSH2 0x1AD8 JUMPI RETURNDATASIZE PUSH0 DUP3 RETURNDATACOPY RETURNDATASIZE DUP2 REVERT JUMPDEST PUSH0 DUP8 EXTCODESIZE GT RETURNDATASIZE ISZERO AND DUP4 AND SWAP3 POP JUMPDEST PUSH1 0x40 MSTORE POP SWAP5 SWAP4 POP POP POP POP JUMP JUMPDEST PUSH2 0x1AFC DUP4 DUP4 DUP4 PUSH0 PUSH2 0x1D36 JUMP JUMPDEST PUSH2 0x1374 JUMPI PUSH2 0x1B0D DUP4 DUP4 PUSH0 PUSH1 0x1 PUSH2 0x1D36 JUMP JUMPDEST PUSH2 0x1B35 JUMPI PUSH1 0x40 MLOAD PUSH4 0x5274AFE7 PUSH1 0xE0 SHL DUP2 MSTORE PUSH1 0x1 PUSH1 0x1 PUSH1 0xA0 SHL SUB DUP5 AND PUSH1 0x4 DUP3 ADD MSTORE PUSH1 0x24 ADD PUSH2 0x7C1 JUMP JUMPDEST PUSH2 0x1518 DUP4 DUP4 DUP4 PUSH1 0x1 PUSH2 0x1D36 JUMP JUMPDEST PUSH1 0x9 SLOAD DUP3 PUSH2 0x1B4E PUSH2 0x630 JUMP JUMPDEST PUSH2 0x1B58 SWAP2 SWAP1 PUSH2 0x2252 JUMP JUMPDEST GT ISZERO PUSH2 0x1BA6 JUMPI PUSH1 0x40 MLOAD PUSH3 0x461BCD PUSH1 0xE5 SHL DUP2 MSTORE PUSH1 0x20 PUSH1 0x4 DUP3 ADD DUP2 SWAP1 MSTORE PUSH1 0x24 DUP3 ADD MSTORE PUSH32 0x42726965725661756C743A206D61782063617061636974792072656163686564 PUSH1 0x44 DUP3 ADD MSTORE PUSH1 0x64 ADD PUSH2 0x7C1 JUMP JUMPDEST PUSH2 0x1BB2 DUP5 DUP5 DUP5 DUP5 PUSH2 0x1D80 JUMP JUMPDEST DUP2 PUSH1 0x7 PUSH0 DUP3 DUP3 SLOAD PUSH2 0x1BC3 SWAP2 SWAP1 PUSH2 0x2252 JUMP JUMPDEST SWAP1 SWAP2 SSTORE POP POP POP POP POP POP JUMP JUMPDEST PUSH1 0x7 SLOAD DUP3 GT ISZERO PUSH2 0x1C36 JUMPI PUSH1 0x40 MLOAD PUSH3 0x461BCD PUSH1 0xE5 SHL DUP2 MSTORE PUSH1 0x20 PUSH1 0x4 DUP3 ADD MSTORE PUSH1 0x2D PUSH1 0x24 DUP3 ADD MSTORE PUSH32 0x42726965725661756C743A206F6E6C792069646C65206361706974616C206973 PUSH1 0x44 DUP3 ADD MSTORE PUSH13 0x20776974686472617761626C65 PUSH1 0x98 SHL PUSH1 0x64 DUP3 ADD MSTORE PUSH1 0x84 ADD PUSH2 0x7C1 JUMP JUMPDEST DUP2 PUSH1 0x7 PUSH0 DUP3 DUP3 SLOAD PUSH2 0x1C47 SWAP2 SWAP1 PUSH2 0x2313 JUMP JUMPDEST SWAP1 SWAP2 SSTORE POP PUSH2 0x10CF SWAP1 POP DUP6 DUP6 DUP6 DUP6 DUP6 PUSH2 0x1DE2 JUMP JUMPDEST PUSH0 PUSH1 0x2 DUP3 PUSH1 0x3 DUP2 GT ISZERO PUSH2 0x1C6F JUMPI PUSH2 0x1C6F PUSH2 0x24EB JUMP JUMPDEST PUSH2 0x1C79 SWAP2 SWAP1 PUSH2 0x24FF JUMP JUMPDEST PUSH1 0xFF AND PUSH1 0x1 EQ SWAP1 POP SWAP2 SWAP1 POP JUMP JUMPDEST PUSH0 DUP1 PUSH0 PUSH2 0x1C93 DUP7 DUP7 PUSH2 0x1E81 JUMP JUMPDEST SWAP2 POP SWAP2 POP DUP2 PUSH0 SUB PUSH2 0x1CB7 JUMPI DUP4 DUP2 DUP2 PUSH2 0x1CAD JUMPI PUSH2 0x1CAD PUSH2 0x233D JUMP JUMPDEST DIV SWAP3 POP POP POP PUSH2 0x728 JUMP JUMPDEST DUP2 DUP5 GT PUSH2 0x1CCE JUMPI PUSH2 0x1CCE PUSH1 0x3 DUP6 ISZERO MUL PUSH1 0x11 XOR PUSH2 0x1E9D JUMP JUMPDEST PUSH0 DUP5 DUP7 DUP9 MULMOD PUSH0 DUP7 DUP2 SUB DUP8 AND SWAP7 DUP8 SWAP1 DIV SWAP7 PUSH1 0x2 PUSH1 0x3 DUP10 MUL DUP2 XOR DUP1 DUP11 MUL DUP3 SUB MUL DUP1 DUP11 MUL DUP3 SUB MUL DUP1 DUP11 MUL DUP3 SUB MUL DUP1 DUP11 MUL DUP3 SUB MUL DUP1 DUP11 MUL DUP3 SUB MUL DUP1 DUP11 MUL SWAP1 SWAP2 SUB MUL SWAP2 DUP2 SWAP1 SUB DUP2 SWAP1 DIV PUSH1 0x1 ADD DUP6 DUP5 GT SWAP1 SWAP7 SUB SWAP6 SWAP1 SWAP6 MUL SWAP2 SWAP1 SWAP4 SUB SWAP4 SWAP1 SWAP4 DIV SWAP3 SWAP1 SWAP3 OR MUL SWAP2 POP POP SWAP4 SWAP3 POP POP POP JUMP JUMPDEST PUSH1 0x40 MLOAD PUSH4 0x95EA7B3 PUSH1 0xE0 SHL PUSH0 DUP2 DUP2 MSTORE PUSH1 0x1 PUSH1 0x1 PUSH1 0xA0 SHL SUB DUP7 AND PUSH1 0x4 MSTORE PUSH1 0x24 DUP6 SWAP1 MSTORE SWAP2 PUSH1 0x20 DUP4 PUSH1 0x44 DUP2 DUP1 DUP12 GAS CALL SWAP3 POP PUSH1 0x1 PUSH0 MLOAD EQ DUP4 AND PUSH2 0x1AE4 JUMPI DUP4 DUP4 ISZERO AND ISZERO PUSH2 0x1AD8 JUMPI RETURNDATASIZE PUSH0 DUP3 RETURNDATACOPY RETURNDATASIZE DUP2 REVERT JUMPDEST PUSH2 0x1D8A DUP5 DUP4 PUSH2 0x1EAE JUMP JUMPDEST PUSH2 0x1D94 DUP4 DUP3 PUSH2 0x1EDA JUMP JUMPDEST DUP3 PUSH1 0x1 PUSH1 0x1 PUSH1 0xA0 SHL SUB AND DUP5 PUSH1 0x1 PUSH1 0x1 PUSH1 0xA0 SHL SUB AND PUSH32 0xDCBC1C05240F31FF3AD067EF1EE35CE4997762752E3A095284754544F4C709D7 DUP5 DUP5 PUSH1 0x40 MLOAD PUSH2 0x1914 SWAP3 SWAP2 SWAP1 SWAP2 DUP3 MSTORE PUSH1 0x20 DUP3 ADD MSTORE PUSH1 0x40 ADD SWAP1 JUMP JUMPDEST DUP3 PUSH1 0x1 PUSH1 0x1 PUSH1 0xA0 SHL SUB AND DUP6 PUSH1 0x1 PUSH1 0x1 PUSH1 0xA0 SHL SUB AND EQ PUSH2 0x1E06 JUMPI PUSH2 0x1E06 DUP4 DUP7 DUP4 PUSH2 0x13A8 JUMP JUMPDEST PUSH2 0x1E10 DUP4 DUP3 PUSH2 0x1F0E JUMP JUMPDEST PUSH2 0x1E1A DUP5 DUP4 PUSH2 0x1F42 JUMP JUMPDEST DUP3 PUSH1 0x1 PUSH1 0x1 PUSH1 0xA0 SHL SUB AND DUP5 PUSH1 0x1 PUSH1 0x1 PUSH1 0xA0 SHL SUB AND DUP7 PUSH1 0x1 PUSH1 0x1 PUSH1 0xA0 SHL SUB AND PUSH32 0xFBDE797D201C681B91056529119E0B02407C7BB96A4A2C75C01FC9667232C8DB DUP6 DUP6 PUSH1 0x40 MLOAD PUSH2 0x1E72 SWAP3 SWAP2 SWAP1 SWAP2 DUP3 MSTORE PUSH1 0x20 DUP3 ADD MSTORE PUSH1 0x40 ADD SWAP1 JUMP JUMPDEST PUSH1 0x40 MLOAD DUP1 SWAP2 SUB SWAP1 LOG4 POP POP POP POP POP JUMP JUMPDEST PUSH0 DUP1 PUSH0 NOT DUP4 DUP6 MULMOD SWAP4 SWAP1 SWAP3 MUL DUP1 DUP5 LT SWAP4 DUP2 SWAP1 SUB SWAP4 SWAP1 SWAP4 SUB SWAP4 SWAP2 POP POP JUMP JUMPDEST PUSH4 0x4E487B71 PUSH0 MSTORE DUP1 PUSH1 0x20 MSTORE PUSH1 0x24 PUSH1 0x1C REVERT JUMPDEST PUSH2 0xC94 PUSH32 0x0 DUP4 ADDRESS DUP5 PUSH2 0x1F6D JUMP JUMPDEST PUSH1 0x1 PUSH1 0x1 PUSH1 0xA0 SHL SUB DUP3 AND PUSH2 0x1F03 JUMPI PUSH1 0x40 MLOAD PUSH4 0xEC442F05 PUSH1 0xE0 SHL DUP2 MSTORE PUSH0 PUSH1 0x4 DUP3 ADD MSTORE PUSH1 0x24 ADD PUSH2 0x7C1 JUMP JUMPDEST PUSH2 0xC94 PUSH0 DUP4 DUP4 PUSH2 0x1922 JUMP JUMPDEST PUSH1 0x1 PUSH1 0x1 PUSH1 0xA0 SHL SUB DUP3 AND PUSH2 0x1F37 JUMPI PUSH1 0x40 MLOAD PUSH4 0x4B637E8F PUSH1 0xE1 SHL DUP2 MSTORE PUSH0 PUSH1 0x4 DUP3 ADD MSTORE PUSH1 0x24 ADD PUSH2 0x7C1 JUMP JUMPDEST PUSH2 0xC94 DUP3 PUSH0 DUP4 PUSH2 0x1922 JUMP JUMPDEST PUSH2 0xC94 PUSH32 0x0 DUP4 DUP4 PUSH2 0x150B JUMP JUMPDEST PUSH2 0x1F7B DUP5 DUP5 DUP5 DUP5 PUSH1 0x1 PUSH2 0x1FA3 JUMP JUMPDEST PUSH2 0x140B JUMPI PUSH1 0x40 MLOAD PUSH4 0x5274AFE7 PUSH1 0xE0 SHL DUP2 MSTORE PUSH1 0x1 PUSH1 0x1 PUSH1 0xA0 SHL SUB DUP6 AND PUSH1 0x4 DUP3 ADD MSTORE PUSH1 0x24 ADD PUSH2 0x7C1 JUMP JUMPDEST PUSH1 0x40 MLOAD PUSH4 0x23B872DD PUSH1 0xE0 SHL PUSH0 DUP2 DUP2 MSTORE PUSH1 0x1 PUSH1 0x1 PUSH1 0xA0 SHL SUB DUP8 DUP2 AND PUSH1 0x4 MSTORE DUP7 AND PUSH1 0x24 MSTORE PUSH1 0x44 DUP6 SWAP1 MSTORE SWAP2 PUSH1 0x20 DUP4 PUSH1 0x64 DUP2 DUP1 DUP13 GAS CALL SWAP3 POP PUSH1 0x1 PUSH0 MLOAD EQ DUP4 AND PUSH2 0x1FFF JUMPI DUP4 DUP4 ISZERO AND ISZERO PUSH2 0x1FF3 JUMPI RETURNDATASIZE PUSH0 DUP3 RETURNDATACOPY RETURNDATASIZE DUP2 REVERT JUMPDEST PUSH0 DUP9 EXTCODESIZE GT RETURNDATASIZE ISZERO AND DUP4 AND SWAP3 POP JUMPDEST PUSH1 0x40 MSTORE POP PUSH0 PUSH1 0x60 MSTORE SWAP6 SWAP5 POP POP POP POP POP JUMP JUMPDEST PUSH0 JUMPDEST DUP4 DUP2 LT ISZERO PUSH2 0x202A JUMPI DUP2 DUP2 ADD MLOAD DUP4 DUP3 ADD MSTORE PUSH1 0x20 ADD PUSH2 0x2012 JUMP JUMPDEST POP POP PUSH0 SWAP2 ADD MSTORE JUMP JUMPDEST PUSH1 0x20 DUP2 MSTORE PUSH0 DUP3 MLOAD DUP1 PUSH1 0x20 DUP5 ADD MSTORE PUSH2 0x2050 DUP2 PUSH1 0x40 DUP6 ADD PUSH1 0x20 DUP8 ADD PUSH2 0x2010 JUMP JUMPDEST PUSH1 0x1F ADD PUSH1 0x1F NOT AND SWAP2 SWAP1 SWAP2 ADD PUSH1 0x40 ADD SWAP3 SWAP2 POP POP JUMP JUMPDEST PUSH0 PUSH1 0x20 DUP3 DUP5 SUB SLT ISZERO PUSH2 0x2074 JUMPI PUSH0 DUP1 REVERT JUMPDEST POP CALLDATALOAD SWAP2 SWAP1 POP JUMP JUMPDEST DUP1 CALLDATALOAD PUSH1 0x1 PUSH1 0x1 PUSH1 0xA0 SHL SUB DUP2 AND DUP2 EQ PUSH2 0x2091 JUMPI PUSH0 DUP1 REVERT JUMPDEST SWAP2 SWAP1 POP JUMP JUMPDEST PUSH0 DUP1 PUSH1 0x40 DUP4 DUP6 SUB SLT ISZERO PUSH2 0x20A7 JUMPI PUSH0 DUP1 REVERT JUMPDEST PUSH2 0x20B0 DUP4 PUSH2 0x207B JUMP JUMPDEST SWAP5 PUSH1 0x20 SWAP4 SWAP1 SWAP4 ADD CALLDATALOAD SWAP4 POP POP POP JUMP JUMPDEST PUSH0 DUP1 PUSH0 PUSH1 0x60 DUP5 DUP7 SUB SLT ISZERO PUSH2 0x20D0 JUMPI PUSH0 DUP1 REVERT JUMPDEST PUSH2 0x20D9 DUP5 PUSH2 0x207B JUMP JUMPDEST SWAP3 POP PUSH2 0x20E7 PUSH1 0x20 DUP6 ADD PUSH2 0x207B JUMP JUMPDEST SWAP2 POP PUSH1 0x40 DUP5 ADD CALLDATALOAD SWAP1 POP SWAP3 POP SWAP3 POP SWAP3 JUMP JUMPDEST PUSH0 PUSH1 0x20 DUP3 DUP5 SUB SLT ISZERO PUSH2 0x2107 JUMPI PUSH0 DUP1 REVERT JUMPDEST PUSH2 0x728 DUP3 PUSH2 0x207B JUMP JUMPDEST PUSH0 DUP1 PUSH1 0x40 DUP4 DUP6 SUB SLT ISZERO PUSH2 0x2121 JUMPI PUSH0 DUP1 REVERT JUMPDEST POP POP DUP1 CALLDATALOAD SWAP3 PUSH1 0x20 SWAP1 SWAP2 ADD CALLDATALOAD SWAP2 POP JUMP JUMPDEST PUSH0 DUP1 PUSH0 DUP1 PUSH0 PUSH1 0x80 DUP7 DUP9 SUB SLT ISZERO PUSH2 0x2144 JUMPI PUSH0 DUP1 REVERT JUMPDEST DUP6 CALLDATALOAD SWAP5 POP PUSH1 0x20 DUP7 ADD CALLDATALOAD SWAP4 POP PUSH1 0x40 DUP7 ADD CALLDATALOAD PUSH8 0xFFFFFFFFFFFFFFFF DUP1 DUP3 GT ISZERO PUSH2 0x2169 JUMPI PUSH0 DUP1 REVERT JUMPDEST DUP2 DUP9 ADD SWAP2 POP DUP9 PUSH1 0x1F DUP4 ADD SLT PUSH2 0x217C JUMPI PUSH0 DUP1 REVERT JUMPDEST DUP2 CALLDATALOAD DUP2 DUP2 GT ISZERO PUSH2 0x218A JUMPI PUSH0 DUP1 REVERT JUMPDEST DUP10 PUSH1 0x20 DUP3 PUSH1 0x5 SHL DUP6 ADD ADD GT ISZERO PUSH2 0x219E JUMPI PUSH0 DUP1 REVERT JUMPDEST SWAP7 SWAP10 SWAP6 SWAP9 POP POP PUSH1 0x20 ADD SWAP6 PUSH1 0x60 ADD CALLDATALOAD SWAP4 SWAP3 POP POP POP JUMP JUMPDEST PUSH0 DUP1 PUSH1 0x40 DUP4 DUP6 SUB SLT ISZERO PUSH2 0x21C4 JUMPI PUSH0 DUP1 REVERT JUMPDEST DUP3 CALLDATALOAD SWAP2 POP PUSH2 0x21D4 PUSH1 0x20 DUP5 ADD PUSH2 0x207B JUMP JUMPDEST SWAP1 POP SWAP3 POP SWAP3 SWAP1 POP JUMP JUMPDEST PUSH0 DUP1 PUSH0 PUSH1 0x60 DUP5 DUP7 SUB SLT ISZERO PUSH2 0x21EF JUMPI PUSH0 DUP1 REVERT JUMPDEST DUP4 CALLDATALOAD SWAP3 POP PUSH2 0x21FF PUSH1 0x20 DUP6 ADD PUSH2 0x207B JUMP JUMPDEST SWAP2 POP PUSH2 0x220D PUSH1 0x40 DUP6 ADD PUSH2 0x207B JUMP JUMPDEST SWAP1 POP SWAP3 POP SWAP3 POP SWAP3 JUMP JUMPDEST PUSH0 DUP1 PUSH1 0x40 DUP4 DUP6 SUB SLT ISZERO PUSH2 0x2227 JUMPI PUSH0 DUP1 REVERT JUMPDEST PUSH2 0x2230 DUP4 PUSH2 0x207B JUMP JUMPDEST SWAP2 POP PUSH2 0x21D4 PUSH1 0x20 DUP5 ADD PUSH2 0x207B JUMP JUMPDEST PUSH4 0x4E487B71 PUSH1 0xE0 SHL PUSH0 MSTORE PUSH1 0x11 PUSH1 0x4 MSTORE PUSH1 0x24 PUSH0 REVERT JUMPDEST DUP1 DUP3 ADD DUP1 DUP3 GT ISZERO PUSH2 0x6E1 JUMPI PUSH2 0x6E1 PUSH2 0x223E JUMP JUMPDEST PUSH1 0x1 DUP2 DUP2 SHR SWAP1 DUP3 AND DUP1 PUSH2 0x2279 JUMPI PUSH1 0x7F DUP3 AND SWAP2 POP JUMPDEST PUSH1 0x20 DUP3 LT DUP2 SUB PUSH2 0x2297 JUMPI PUSH4 0x4E487B71 PUSH1 0xE0 SHL PUSH0 MSTORE PUSH1 0x22 PUSH1 0x4 MSTORE PUSH1 0x24 PUSH0 REVERT JUMPDEST POP SWAP2 SWAP1 POP JUMP JUMPDEST PUSH1 0xFF DUP2 DUP2 AND DUP4 DUP3 AND ADD SWAP1 DUP2 GT ISZERO PUSH2 0x6E1 JUMPI PUSH2 0x6E1 PUSH2 0x223E JUMP JUMPDEST PUSH1 0x20 DUP1 DUP3 MSTORE PUSH1 0x26 SWAP1 DUP3 ADD MSTORE PUSH32 0x42726965725661756C743A2063616C6C6572206973206E6F7420746865206578 PUSH1 0x40 DUP3 ADD MSTORE PUSH6 0x32B1BABA37B9 PUSH1 0xD1 SHL PUSH1 0x60 DUP3 ADD MSTORE PUSH1 0x80 ADD SWAP1 JUMP JUMPDEST PUSH0 PUSH1 0x20 DUP3 DUP5 SUB SLT ISZERO PUSH2 0x230C JUMPI PUSH0 DUP1 REVERT JUMPDEST POP MLOAD SWAP2 SWAP1 POP JUMP JUMPDEST DUP2 DUP2 SUB DUP2 DUP2 GT ISZERO PUSH2 0x6E1 JUMPI PUSH2 0x6E1 PUSH2 0x223E JUMP JUMPDEST DUP1 DUP3 MUL DUP2 ISZERO DUP3 DUP3 DIV DUP5 EQ OR PUSH2 0x6E1 JUMPI PUSH2 0x6E1 PUSH2 0x223E JUMP JUMPDEST PUSH4 0x4E487B71 PUSH1 0xE0 SHL PUSH0 MSTORE PUSH1 0x12 PUSH1 0x4 MSTORE PUSH1 0x24 PUSH0 REVERT JUMPDEST PUSH0 DUP3 PUSH2 0x235F JUMPI PUSH2 0x235F PUSH2 0x233D JUMP JUMPDEST POP DIV SWAP1 JUMP JUMPDEST PUSH1 0x1 PUSH1 0x1 PUSH1 0xA0 SHL SUB DUP8 AND DUP2 MSTORE PUSH1 0x20 DUP2 ADD DUP7 SWAP1 MSTORE PUSH1 0x40 DUP2 ADD DUP6 SWAP1 MSTORE PUSH1 0xA0 PUSH1 0x60 DUP3 ADD DUP2 SWAP1 MSTORE DUP2 ADD DUP4 SWAP1 MSTORE PUSH0 PUSH1 0x1 PUSH1 0x1 PUSH1 0xFB SHL SUB DUP5 GT ISZERO PUSH2 0x23A0 JUMPI PUSH0 DUP1 REVERT JUMPDEST DUP4 PUSH1 0x5 SHL DUP1 DUP7 PUSH1 0xC0 DUP6 ADD CALLDATACOPY PUSH1 0x80 DUP4 ADD SWAP4 SWAP1 SWAP4 MSTORE POP ADD PUSH1 0xC0 ADD SWAP6 SWAP5 POP POP POP POP POP JUMP JUMPDEST PUSH0 DUP3 MLOAD PUSH2 0x23D2 DUP2 DUP5 PUSH1 0x20 DUP8 ADD PUSH2 0x2010 JUMP JUMPDEST SWAP2 SWAP1 SWAP2 ADD SWAP3 SWAP2 POP POP JUMP JUMPDEST PUSH1 0x1 DUP2 DUP2 JUMPDEST DUP1 DUP6 GT ISZERO PUSH2 0x2416 JUMPI DUP2 PUSH0 NOT DIV DUP3 GT ISZERO PUSH2 0x23FC JUMPI PUSH2 0x23FC PUSH2 0x223E JUMP JUMPDEST DUP1 DUP6 AND ISZERO PUSH2 0x2409 JUMPI SWAP2 DUP2 MUL SWAP2 JUMPDEST SWAP4 DUP5 SHR SWAP4 SWAP1 DUP1 MUL SWAP1 PUSH2 0x23E1 JUMP JUMPDEST POP SWAP3 POP SWAP3 SWAP1 POP JUMP JUMPDEST PUSH0 DUP3 PUSH2 0x242C JUMPI POP PUSH1 0x1 PUSH2 0x6E1 JUMP JUMPDEST DUP2 PUSH2 0x2438 JUMPI POP PUSH0 PUSH2 0x6E1 JUMP JUMPDEST DUP2 PUSH1 0x1 DUP2 EQ PUSH2 0x244E JUMPI PUSH1 0x2 DUP2 EQ PUSH2 0x2458 JUMPI PUSH2 0x2474 JUMP JUMPDEST PUSH1 0x1 SWAP2 POP POP PUSH2 0x6E1 JUMP JUMPDEST PUSH1 0xFF DUP5 GT ISZERO PUSH2 0x2469 JUMPI PUSH2 0x2469 PUSH2 0x223E JUMP JUMPDEST POP POP PUSH1 0x1 DUP3 SHL PUSH2 0x6E1 JUMP JUMPDEST POP PUSH1 0x20 DUP4 LT PUSH2 0x133 DUP4 LT AND PUSH1 0x4E DUP5 LT PUSH1 0xB DUP5 LT AND OR ISZERO PUSH2 0x2497 JUMPI POP DUP2 DUP2 EXP PUSH2 0x6E1 JUMP JUMPDEST PUSH2 0x24A1 DUP4 DUP4 PUSH2 0x23DC JUMP JUMPDEST DUP1 PUSH0 NOT DIV DUP3 GT ISZERO PUSH2 0x24B4 JUMPI PUSH2 0x24B4 PUSH2 0x223E JUMP JUMPDEST MUL SWAP4 SWAP3 POP POP POP JUMP JUMPDEST PUSH0 PUSH2 0x728 PUSH1 0xFF DUP5 AND DUP4 PUSH2 0x241E JUMP JUMPDEST PUSH1 0x1 PUSH1 0x1 PUSH1 0xA0 SHL SUB SWAP4 SWAP1 SWAP4 AND DUP4 MSTORE PUSH1 0x20 DUP4 ADD SWAP2 SWAP1 SWAP2 MSTORE PUSH1 0x40 DUP3 ADD MSTORE PUSH1 0x60 ADD SWAP1 JUMP JUMPDEST PUSH4 0x4E487B71 PUSH1 0xE0 SHL PUSH0 MSTORE PUSH1 0x21 PUSH1 0x4 MSTORE PUSH1 0x24 PUSH0 REVERT JUMPDEST PUSH0 PUSH1 0xFF DUP4 AND DUP1 PUSH2 0x2511 JUMPI PUSH2 0x2511 PUSH2 0x233D JUMP JUMPDEST DUP1 PUSH1 0xFF DUP5 AND MOD SWAP2 POP POP SWAP3 SWAP2 POP POP JUMP INVALID SWAP12 PUSH24 0x9B17422D0DF92223018B32B4D1FA46E071723D6817E2486D STOP EXTCODESIZE 0xEC 0xC5 PUSH0 STOP LOG2 PUSH5 0x6970667358 0x22 SLT KECCAK256 0xF9 0xD8 0xC6 MLOAD SWAP6 ORIGIN PUSH7 0x52AF9B060A0226 0xB4 SHR 0x4D DUP1 POP 0xBE PUSH27 0x6391CFB3BF11D3D4605AAC64736F6C634300081800330000000000 "},"methodIdentifiers":{"BUILDER_SHARE_BPS()":"bb764a05","DEPOSITOR_SHARE_BPS()":"747a9828","PLATFORM_SHARE_BPS()":"d8464354","activeLockedCapital()":"d6de49ba","allowance(address,address)":"dd62ed3e","approve(address,uint256)":"095ea7b3","asset()":"38d52e0f","balanceOf(address)":"70a08231","brierDaemon()":"ffb1ca80","builderWallet()":"b364b4da","convertToAssets(uint256)":"07a2d13a","convertToShares(uint256)":"c6e6f592","decimals()":"313ce567","deposit(uint256,address)":"6e553f65","executeTrade(bytes32,bytes32,uint256[],uint256)":"55b624db","feeRecipient()":"46904840","idleCapital()":"6b401c3d","markTradeStale(bytes32)":"da28a9be","maxCapacity()":"59b6a0c9","maxDeposit(address)":"402d267d","maxMint(address)":"c63d75b6","maxRedeem(address)":"d905777e","maxWithdraw(address)":"ce96cb77","mint(uint256,address)":"94bf804d","name()":"06fdde03","owner()":"8da5cb5b","pause()":"8456cb59","paused()":"5c975abb","polymarketCTF()":"77eb4e23","previewDeposit(uint256)":"ef8b30f7","previewMint(uint256)":"b3d7f6b9","previewRedeem(uint256)":"4cdad506","previewWithdraw(uint256)":"0a28a477","redeem(uint256,address,address)":"ba087652","renounceOwnership()":"715018a6","setDaemon(address)":"401dbe23","setFeeRecipient(address)":"e74b981b","setMaxCapacity(uint256)":"453d91c1","settleMarket(bytes32,uint256)":"5552aa40","symbol()":"95d89b41","totalAssets()":"01e1d114","totalProfit()":"86001519","totalSupply()":"18160ddd","tradeLockedCapital(bytes32)":"be03007c","transfer(address,uint256)":"a9059cbb","transferFrom(address,address,uint256)":"23b872dd","transferOwnership(address)":"f2fde38b","unpause()":"3f4ba83a","withdraw(uint256,address,address)":"b460af94"}}}}}