{"contracts/BrierVaultFactory.sol":{"BrierVaultFactory":{"abi":[{"inputs":[{"internalType":"address","name":"_vaultImplementation","type":"address"},{"internalType":"address","name":"_gnosisSafeAdmin","type":"address"}],"stateMutability":"nonpayable","type":"constructor"},{"inputs":[],"name":"ERC1167FailedCreateClone","type":"error"},{"inputs":[{"internalType":"address","name":"owner","type":"address"}],"name":"OwnableInvalidOwner","type":"error"},{"inputs":[{"internalType":"address","name":"account","type":"address"}],"name":"OwnableUnauthorizedAccount","type":"error"},{"anonymous":false,"inputs":[{"indexed":true,"internalType":"address","name":"previousOwner","type":"address"},{"indexed":true,"internalType":"address","name":"newOwner","type":"address"}],"name":"OwnershipTransferred","type":"event"},{"anonymous":false,"inputs":[{"indexed":false,"internalType":"string","name":"botId","type":"string"},{"indexed":false,"internalType":"address","name":"vaultAddress","type":"address"}],"name":"VaultDeployed","type":"event"},{"inputs":[{"internalType":"string","name":"botId","type":"string"},{"internalType":"contract IERC20","name":"asset","type":"address"},{"internalType":"string","name":"vaultName","type":"string"},{"internalType":"string","name":"vaultSymbol","type":"string"},{"internalType":"address","name":"brierDaemon","type":"address"},{"internalType":"address","name":"builderWallet","type":"address"},{"internalType":"address","name":"polymarketCTF","type":"address"},{"internalType":"address","name":"gnosisSafeAdmin","type":"address"},{"internalType":"address","name":"feeRecipient","type":"address"},{"internalType":"uint256","name":"maxCapacity","type":"uint256"},{"internalType":"uint256","name":"skinInGameAmount","type":"uint256"}],"name":"deployVault","outputs":[{"internalType":"address","name":"","type":"address"}],"stateMutability":"nonpayable","type":"function"},{"inputs":[],"name":"owner","outputs":[{"internalType":"address","name":"","type":"address"}],"stateMutability":"view","type":"function"},{"inputs":[],"name":"renounceOwnership","outputs":[],"stateMutability":"nonpayable","type":"function"},{"inputs":[{"internalType":"address","name":"newOwner","type":"address"}],"name":"transferOwnership","outputs":[],"stateMutability":"nonpayable","type":"function"},{"inputs":[],"name":"vaultImplementation","outputs":[{"internalType":"address","name":"","type":"address"}],"stateMutability":"view","type":"function"}],"evm":{"bytecode":{"linkReferences":{},"object":"60a060405234801561000f575f80fd5b5060405161078b38038061078b83398101604081905261002e9161014b565b806001600160a01b03811661005d57604051631e4fbdf760e01b81525f60048201526024015b60405180910390fd5b610066816100e1565b506001600160a01b0382166100cf5760405162461bcd60e51b815260206004820152602960248201527f42726965725661756c74466163746f72793a20696d706c656d656e746174696f6044820152686e206973207a65726f60b81b6064820152608401610054565b506001600160a01b031660805261017c565b5f80546001600160a01b038381166001600160a01b0319831681178455604051919092169283917f8be0079c531659141344cd1fd0a4f28419497f9722a3daafe3b4186f6b6457e09190a35050565b80516001600160a01b0381168114610146575f80fd5b919050565b5f806040838503121561015c575f80fd5b61016583610130565b915061017360208401610130565b90509250929050565b6080516105f26101995f395f818160a3015260fa01526105f25ff3fe608060405234801561000f575f80fd5b5060043610610055575f3560e01c8063715018a6146100595780638da5cb5b14610063578063a81bd1871461008b578063bba48a901461009e578063f2fde38b146100c5575b5f80fd5b6100616100d8565b005b5f546001600160a01b03165b6040516001600160a01b03909116815260200160405180910390f35b61006f6100993660046103bd565b6100eb565b61006f7f000000000000000000000000000000000000000000000000000000000000000081565b6100616100d33660046104b7565b6101d5565b6100e0610217565b6100e95f610243565b565b5f6100f4610217565b5f61011e7f0000000000000000000000000000000000000000000000000000000000000000610292565b604051638152a05f60e01b81529091506001600160a01b03821690638152a05f9061015f908f908f908f908f908f908f908f908f908f908f9060040161051c565b5f604051808303815f87803b158015610176575f80fd5b505af1158015610188573d5f803e3d5ffd5b505050507f08f24f52434ae7f88ddb29d10f5cbfd85f890eaf746af98d169f05ebd1386b6e8d826040516101bd929190610593565b60405180910390a19c9b505050505050505050505050565b6101dd610217565b6001600160a01b03811661020b57604051631e4fbdf760e01b81525f60048201526024015b60405180910390fd5b61021481610243565b50565b5f546001600160a01b031633146100e95760405163118cdaa760e01b8152336004820152602401610202565b5f80546001600160a01b038381166001600160a01b0319831681178455604051919092169283917f8be0079c531659141344cd1fd0a4f28419497f9722a3daafe3b4186f6b6457e09190a35050565b5f763d602d80600a3d3981f3363d3d373d3d3d363d730000008260601b60e81c175f526e5af43d82803e903d91602b57fd5bf38260781b17602052603760095ff090506001600160a01b0381166102fc576040516330be1a3d60e21b815260040160405180910390fd5b919050565b634e487b7160e01b5f52604160045260245ffd5b5f82601f830112610324575f80fd5b813567ffffffffffffffff8082111561033f5761033f610301565b604051601f8301601f19908116603f0116810190828211818310171561036757610367610301565b8160405283815286602085880101111561037f575f80fd5b836020870160208301375f602085830101528094505050505092915050565b6001600160a01b0381168114610214575f80fd5b80356102fc8161039e565b5f805f805f805f805f805f6101608c8e0312156103d8575f80fd5b67ffffffffffffffff808d3511156103ee575f80fd5b6103fb8e8e358f01610315565b9b5061040960208e016103b2565b9a508060408e0135111561041b575f80fd5b61042b8e60408f01358f01610315565b99508060608e0135111561043d575f80fd5b5061044e8d60608e01358e01610315565b975061045c60808d016103b2565b965061046a60a08d016103b2565b955061047860c08d016103b2565b945061048660e08d016103b2565b93506104956101008d016103b2565b92506101208c013591506101408c013590509295989b509295989b9093969950565b5f602082840312156104c7575f80fd5b81356104d28161039e565b9392505050565b5f81518084525f5b818110156104fd576020818501810151868301820152016104e1565b505f602082860101526020601f19601f83011685010191505092915050565b6001600160a01b038b81168252610140602083018190525f916105418483018e6104d9565b91508382036040850152610555828d6104d9565b9a811660608501529889166080840152505094861660a086015292851660c0850152931660e083015261010082019290925261012001529392505050565b604081525f6105a560408301856104d9565b905060018060a01b0383166020830152939250505056fea2646970667358221220dedc1ed9526600d094aba397c87960fbc3ee5a61d94e0be1c50efbab6e8768d664736f6c63430008180033","opcodes":"PUSH1 0xA0 PUSH1 0x40 MSTORE CALLVALUE DUP1 ISZERO PUSH2 0xF JUMPI PUSH0 DUP1 REVERT JUMPDEST POP PUSH1 0x40 MLOAD PUSH2 0x78B CODESIZE SUB DUP1 PUSH2 0x78B DUP4 CODECOPY DUP2 ADD PUSH1 0x40 DUP2 SWAP1 MSTORE PUSH2 0x2E SWAP2 PUSH2 0x14B JUMP JUMPDEST DUP1 PUSH1 0x1 PUSH1 0x1 PUSH1 0xA0 SHL SUB DUP2 AND PUSH2 0x5D JUMPI PUSH1 0x40 MLOAD PUSH4 0x1E4FBDF7 PUSH1 0xE0 SHL DUP2 MSTORE PUSH0 PUSH1 0x4 DUP3 ADD MSTORE PUSH1 0x24 ADD JUMPDEST PUSH1 0x40 MLOAD DUP1 SWAP2 SUB SWAP1 REVERT JUMPDEST PUSH2 0x66 DUP2 PUSH2 0xE1 JUMP JUMPDEST POP PUSH1 0x1 PUSH1 0x1 PUSH1 0xA0 SHL SUB DUP3 AND PUSH2 0xCF JUMPI PUSH1 0x40 MLOAD PUSH3 0x461BCD PUSH1 0xE5 SHL DUP2 MSTORE PUSH1 0x20 PUSH1 0x4 DUP3 ADD MSTORE PUSH1 0x29 PUSH1 0x24 DUP3 ADD MSTORE PUSH32 0x42726965725661756C74466163746F72793A20696D706C656D656E746174696F PUSH1 0x44 DUP3 ADD MSTORE PUSH9 0x6E206973207A65726F PUSH1 0xB8 SHL PUSH1 0x64 DUP3 ADD MSTORE PUSH1 0x84 ADD PUSH2 0x54 JUMP JUMPDEST POP PUSH1 0x1 PUSH1 0x1 PUSH1 0xA0 SHL SUB AND PUSH1 0x80 MSTORE PUSH2 0x17C JUMP JUMPDEST PUSH0 DUP1 SLOAD PUSH1 0x1 PUSH1 0x1 PUSH1 0xA0 SHL SUB DUP4 DUP2 AND PUSH1 0x1 PUSH1 0x1 PUSH1 0xA0 SHL SUB NOT DUP4 AND DUP2 OR DUP5 SSTORE PUSH1 0x40 MLOAD SWAP2 SWAP1 SWAP3 AND SWAP3 DUP4 SWAP2 PUSH32 0x8BE0079C531659141344CD1FD0A4F28419497F9722A3DAAFE3B4186F6B6457E0 SWAP2 SWAP1 LOG3 POP POP JUMP JUMPDEST DUP1 MLOAD PUSH1 0x1 PUSH1 0x1 PUSH1 0xA0 SHL SUB DUP2 AND DUP2 EQ PUSH2 0x146 JUMPI PUSH0 DUP1 REVERT JUMPDEST SWAP2 SWAP1 POP JUMP JUMPDEST PUSH0 DUP1 PUSH1 0x40 DUP4 DUP6 SUB SLT ISZERO PUSH2 0x15C JUMPI PUSH0 DUP1 REVERT JUMPDEST PUSH2 0x165 DUP4 PUSH2 0x130 JUMP JUMPDEST SWAP2 POP PUSH2 0x173 PUSH1 0x20 DUP5 ADD PUSH2 0x130 JUMP JUMPDEST SWAP1 POP SWAP3 POP SWAP3 SWAP1 POP JUMP JUMPDEST PUSH1 0x80 MLOAD PUSH2 0x5F2 PUSH2 0x199 PUSH0 CODECOPY PUSH0 DUP2 DUP2 PUSH1 0xA3 ADD MSTORE PUSH1 0xFA ADD MSTORE PUSH2 0x5F2 PUSH0 RETURN INVALID PUSH1 0x80 PUSH1 0x40 MSTORE CALLVALUE DUP1 ISZERO PUSH2 0xF JUMPI PUSH0 DUP1 REVERT JUMPDEST POP PUSH1 0x4 CALLDATASIZE LT PUSH2 0x55 JUMPI PUSH0 CALLDATALOAD PUSH1 0xE0 SHR DUP1 PUSH4 0x715018A6 EQ PUSH2 0x59 JUMPI DUP1 PUSH4 0x8DA5CB5B EQ PUSH2 0x63 JUMPI DUP1 PUSH4 0xA81BD187 EQ PUSH2 0x8B JUMPI DUP1 PUSH4 0xBBA48A90 EQ PUSH2 0x9E JUMPI DUP1 PUSH4 0xF2FDE38B EQ PUSH2 0xC5 JUMPI JUMPDEST PUSH0 DUP1 REVERT JUMPDEST PUSH2 0x61 PUSH2 0xD8 JUMP JUMPDEST STOP JUMPDEST PUSH0 SLOAD PUSH1 0x1 PUSH1 0x1 PUSH1 0xA0 SHL SUB AND JUMPDEST PUSH1 0x40 MLOAD PUSH1 0x1 PUSH1 0x1 PUSH1 0xA0 SHL SUB SWAP1 SWAP2 AND DUP2 MSTORE PUSH1 0x20 ADD PUSH1 0x40 MLOAD DUP1 SWAP2 SUB SWAP1 RETURN JUMPDEST PUSH2 0x6F PUSH2 0x99 CALLDATASIZE PUSH1 0x4 PUSH2 0x3BD JUMP JUMPDEST PUSH2 0xEB JUMP JUMPDEST PUSH2 0x6F PUSH32 0x0 DUP2 JUMP JUMPDEST PUSH2 0x61 PUSH2 0xD3 CALLDATASIZE PUSH1 0x4 PUSH2 0x4B7 JUMP JUMPDEST PUSH2 0x1D5 JUMP JUMPDEST PUSH2 0xE0 PUSH2 0x217 JUMP JUMPDEST PUSH2 0xE9 PUSH0 PUSH2 0x243 JUMP JUMPDEST JUMP JUMPDEST PUSH0 PUSH2 0xF4 PUSH2 0x217 JUMP JUMPDEST PUSH0 PUSH2 0x11E PUSH32 0x0 PUSH2 0x292 JUMP JUMPDEST PUSH1 0x40 MLOAD PUSH4 0x8152A05F PUSH1 0xE0 SHL DUP2 MSTORE SWAP1 SWAP2 POP PUSH1 0x1 PUSH1 0x1 PUSH1 0xA0 SHL SUB DUP3 AND SWAP1 PUSH4 0x8152A05F SWAP1 PUSH2 0x15F SWAP1 DUP16 SWAP1 DUP16 SWAP1 DUP16 SWAP1 DUP16 SWAP1 DUP16 SWAP1 DUP16 SWAP1 DUP16 SWAP1 DUP16 SWAP1 DUP16 SWAP1 DUP16 SWAP1 PUSH1 0x4 ADD PUSH2 0x51C JUMP JUMPDEST PUSH0 PUSH1 0x40 MLOAD DUP1 DUP4 SUB DUP2 PUSH0 DUP8 DUP1 EXTCODESIZE ISZERO DUP1 ISZERO PUSH2 0x176 JUMPI PUSH0 DUP1 REVERT JUMPDEST POP GAS CALL ISZERO DUP1 ISZERO PUSH2 0x188 JUMPI RETURNDATASIZE PUSH0 DUP1 RETURNDATACOPY RETURNDATASIZE PUSH0 REVERT JUMPDEST POP POP POP POP PUSH32 0x8F24F52434AE7F88DDB29D10F5CBFD85F890EAF746AF98D169F05EBD1386B6E DUP14 DUP3 PUSH1 0x40 MLOAD PUSH2 0x1BD SWAP3 SWAP2 SWAP1 PUSH2 0x593 JUMP JUMPDEST PUSH1 0x40 MLOAD DUP1 SWAP2 SUB SWAP1 LOG1 SWAP13 SWAP12 POP POP POP POP POP POP POP POP POP POP POP POP JUMP JUMPDEST PUSH2 0x1DD PUSH2 0x217 JUMP JUMPDEST PUSH1 0x1 PUSH1 0x1 PUSH1 0xA0 SHL SUB DUP2 AND PUSH2 0x20B JUMPI PUSH1 0x40 MLOAD PUSH4 0x1E4FBDF7 PUSH1 0xE0 SHL DUP2 MSTORE PUSH0 PUSH1 0x4 DUP3 ADD MSTORE PUSH1 0x24 ADD JUMPDEST PUSH1 0x40 MLOAD DUP1 SWAP2 SUB SWAP1 REVERT JUMPDEST PUSH2 0x214 DUP2 PUSH2 0x243 JUMP JUMPDEST POP JUMP JUMPDEST PUSH0 SLOAD PUSH1 0x1 PUSH1 0x1 PUSH1 0xA0 SHL SUB AND CALLER EQ PUSH2 0xE9 JUMPI PUSH1 0x40 MLOAD PUSH4 0x118CDAA7 PUSH1 0xE0 SHL DUP2 MSTORE CALLER PUSH1 0x4 DUP3 ADD MSTORE PUSH1 0x24 ADD PUSH2 0x202 JUMP JUMPDEST PUSH0 DUP1 SLOAD PUSH1 0x1 PUSH1 0x1 PUSH1 0xA0 SHL SUB DUP4 DUP2 AND PUSH1 0x1 PUSH1 0x1 PUSH1 0xA0 SHL SUB NOT DUP4 AND DUP2 OR DUP5 SSTORE PUSH1 0x40 MLOAD SWAP2 SWAP1 SWAP3 AND SWAP3 DUP4 SWAP2 PUSH32 0x8BE0079C531659141344CD1FD0A4F28419497F9722A3DAAFE3B4186F6B6457E0 SWAP2 SWAP1 LOG3 POP POP JUMP JUMPDEST PUSH0 PUSH23 0x3D602D80600A3D3981F3363D3D373D3D3D363D73000000 DUP3 PUSH1 0x60 SHL PUSH1 0xE8 SHR OR PUSH0 MSTORE PUSH15 0x5AF43D82803E903D91602B57FD5BF3 DUP3 PUSH1 0x78 SHL OR PUSH1 0x20 MSTORE PUSH1 0x37 PUSH1 0x9 PUSH0 CREATE SWAP1 POP PUSH1 0x1 PUSH1 0x1 PUSH1 0xA0 SHL SUB DUP2 AND PUSH2 0x2FC JUMPI PUSH1 0x40 MLOAD PUSH4 0x30BE1A3D PUSH1 0xE2 SHL DUP2 MSTORE PUSH1 0x4 ADD PUSH1 0x40 MLOAD DUP1 SWAP2 SUB SWAP1 REVERT JUMPDEST SWAP2 SWAP1 POP JUMP JUMPDEST PUSH4 0x4E487B71 PUSH1 0xE0 SHL PUSH0 MSTORE PUSH1 0x41 PUSH1 0x4 MSTORE PUSH1 0x24 PUSH0 REVERT JUMPDEST PUSH0 DUP3 PUSH1 0x1F DUP4 ADD SLT PUSH2 0x324 JUMPI PUSH0 DUP1 REVERT JUMPDEST DUP2 CALLDATALOAD PUSH8 0xFFFFFFFFFFFFFFFF DUP1 DUP3 GT ISZERO PUSH2 0x33F JUMPI PUSH2 0x33F PUSH2 0x301 JUMP JUMPDEST PUSH1 0x40 MLOAD PUSH1 0x1F DUP4 ADD PUSH1 0x1F NOT SWAP1 DUP2 AND PUSH1 0x3F ADD AND DUP2 ADD SWAP1 DUP3 DUP3 GT DUP2 DUP4 LT OR ISZERO PUSH2 0x367 JUMPI PUSH2 0x367 PUSH2 0x301 JUMP JUMPDEST DUP2 PUSH1 0x40 MSTORE DUP4 DUP2 MSTORE DUP7 PUSH1 0x20 DUP6 DUP9 ADD ADD GT ISZERO PUSH2 0x37F JUMPI PUSH0 DUP1 REVERT JUMPDEST DUP4 PUSH1 0x20 DUP8 ADD PUSH1 0x20 DUP4 ADD CALLDATACOPY PUSH0 PUSH1 0x20 DUP6 DUP4 ADD ADD MSTORE DUP1 SWAP5 POP POP POP POP POP SWAP3 SWAP2 POP POP JUMP JUMPDEST PUSH1 0x1 PUSH1 0x1 PUSH1 0xA0 SHL SUB DUP2 AND DUP2 EQ PUSH2 0x214 JUMPI PUSH0 DUP1 REVERT JUMPDEST DUP1 CALLDATALOAD PUSH2 0x2FC DUP2 PUSH2 0x39E JUMP JUMPDEST PUSH0 DUP1 PUSH0 DUP1 PUSH0 DUP1 PUSH0 DUP1 PUSH0 DUP1 PUSH0 PUSH2 0x160 DUP13 DUP15 SUB SLT ISZERO PUSH2 0x3D8 JUMPI PUSH0 DUP1 REVERT JUMPDEST PUSH8 0xFFFFFFFFFFFFFFFF DUP1 DUP14 CALLDATALOAD GT ISZERO PUSH2 0x3EE JUMPI PUSH0 DUP1 REVERT JUMPDEST PUSH2 0x3FB DUP15 DUP15 CALLDATALOAD DUP16 ADD PUSH2 0x315 JUMP JUMPDEST SWAP12 POP PUSH2 0x409 PUSH1 0x20 DUP15 ADD PUSH2 0x3B2 JUMP JUMPDEST SWAP11 POP DUP1 PUSH1 0x40 DUP15 ADD CALLDATALOAD GT ISZERO PUSH2 0x41B JUMPI PUSH0 DUP1 REVERT JUMPDEST PUSH2 0x42B DUP15 PUSH1 0x40 DUP16 ADD CALLDATALOAD DUP16 ADD PUSH2 0x315 JUMP JUMPDEST SWAP10 POP DUP1 PUSH1 0x60 DUP15 ADD CALLDATALOAD GT ISZERO PUSH2 0x43D JUMPI PUSH0 DUP1 REVERT JUMPDEST POP PUSH2 0x44E DUP14 PUSH1 0x60 DUP15 ADD CALLDATALOAD DUP15 ADD PUSH2 0x315 JUMP JUMPDEST SWAP8 POP PUSH2 0x45C PUSH1 0x80 DUP14 ADD PUSH2 0x3B2 JUMP JUMPDEST SWAP7 POP PUSH2 0x46A PUSH1 0xA0 DUP14 ADD PUSH2 0x3B2 JUMP JUMPDEST SWAP6 POP PUSH2 0x478 PUSH1 0xC0 DUP14 ADD PUSH2 0x3B2 JUMP JUMPDEST SWAP5 POP PUSH2 0x486 PUSH1 0xE0 DUP14 ADD PUSH2 0x3B2 JUMP JUMPDEST SWAP4 POP PUSH2 0x495 PUSH2 0x100 DUP14 ADD PUSH2 0x3B2 JUMP JUMPDEST SWAP3 POP PUSH2 0x120 DUP13 ADD CALLDATALOAD SWAP2 POP PUSH2 0x140 DUP13 ADD CALLDATALOAD SWAP1 POP SWAP3 SWAP6 SWAP9 SWAP12 POP SWAP3 SWAP6 SWAP9 SWAP12 SWAP1 SWAP4 SWAP7 SWAP10 POP JUMP JUMPDEST PUSH0 PUSH1 0x20 DUP3 DUP5 SUB SLT ISZERO PUSH2 0x4C7 JUMPI PUSH0 DUP1 REVERT JUMPDEST DUP2 CALLDATALOAD PUSH2 0x4D2 DUP2 PUSH2 0x39E JUMP JUMPDEST SWAP4 SWAP3 POP POP POP JUMP JUMPDEST PUSH0 DUP2 MLOAD DUP1 DUP5 MSTORE PUSH0 JUMPDEST DUP2 DUP2 LT ISZERO PUSH2 0x4FD JUMPI PUSH1 0x20 DUP2 DUP6 ADD DUP2 ADD MLOAD DUP7 DUP4 ADD DUP3 ADD MSTORE ADD PUSH2 0x4E1 JUMP JUMPDEST POP PUSH0 PUSH1 0x20 DUP3 DUP7 ADD ADD MSTORE PUSH1 0x20 PUSH1 0x1F NOT PUSH1 0x1F DUP4 ADD AND DUP6 ADD ADD SWAP2 POP POP SWAP3 SWAP2 POP POP JUMP JUMPDEST PUSH1 0x1 PUSH1 0x1 PUSH1 0xA0 SHL SUB DUP12 DUP2 AND DUP3 MSTORE PUSH2 0x140 PUSH1 0x20 DUP4 ADD DUP2 SWAP1 MSTORE PUSH0 SWAP2 PUSH2 0x541 DUP5 DUP4 ADD DUP15 PUSH2 0x4D9 JUMP JUMPDEST SWAP2 POP DUP4 DUP3 SUB PUSH1 0x40 DUP6 ADD MSTORE PUSH2 0x555 DUP3 DUP14 PUSH2 0x4D9 JUMP JUMPDEST SWAP11 DUP2 AND PUSH1 0x60 DUP6 ADD MSTORE SWAP9 DUP10 AND PUSH1 0x80 DUP5 ADD MSTORE POP POP SWAP5 DUP7 AND PUSH1 0xA0 DUP7 ADD MSTORE SWAP3 DUP6 AND PUSH1 0xC0 DUP6 ADD MSTORE SWAP4 AND PUSH1 0xE0 DUP4 ADD MSTORE PUSH2 0x100 DUP3 ADD SWAP3 SWAP1 SWAP3 MSTORE PUSH2 0x120 ADD MSTORE SWAP4 SWAP3 POP POP POP JUMP JUMPDEST PUSH1 0x40 DUP2 MSTORE PUSH0 PUSH2 0x5A5 PUSH1 0x40 DUP4 ADD DUP6 PUSH2 0x4D9 JUMP JUMPDEST SWAP1 POP PUSH1 0x1 DUP1 PUSH1 0xA0 SHL SUB DUP4 AND PUSH1 0x20 DUP4 ADD MSTORE SWAP4 SWAP3 POP POP POP JUMP INVALID LOG2 PUSH5 0x6970667358 0x22 SLT KECCAK256 0xDE 0xDC 0x1E 0xD9 MSTORE PUSH7 0xD094ABA397C8 PUSH26 0x60FBC3EE5A61D94E0BE1C50EFBAB6E8768D664736F6C63430008 XOR STOP CALLER "},"methodIdentifiers":{"deployVault(string,address,string,string,address,address,address,address,address,uint256,uint256)":"a81bd187","owner()":"8da5cb5b","renounceOwnership()":"715018a6","transferOwnership(address)":"f2fde38b","vaultImplementation()":"bba48a90"}}}}}