{"contracts/mocks/MockCTF.sol":{"MockCTF":{"abi":[{"anonymous":false,"inputs":[{"indexed":true,"internalType":"address","name":"collateralToken","type":"address"},{"indexed":false,"internalType":"bytes32","name":"parentCollectionId","type":"bytes32"},{"indexed":true,"internalType":"bytes32","name":"conditionId","type":"bytes32"},{"indexed":false,"internalType":"uint256[]","name":"partition","type":"uint256[]"},{"indexed":false,"internalType":"uint256","name":"amount","type":"uint256"}],"name":"PositionSplit","type":"event"},{"inputs":[{"internalType":"address","name":"collateralToken","type":"address"},{"internalType":"bytes32","name":"parentCollectionId","type":"bytes32"},{"internalType":"bytes32","name":"conditionId","type":"bytes32"},{"internalType":"uint256[]","name":"partition","type":"uint256[]"},{"internalType":"uint256","name":"amount","type":"uint256"}],"name":"splitPosition","outputs":[],"stateMutability":"nonpayable","type":"function"}],"evm":{"bytecode":{"linkReferences":{},"object":"608060405234801561000f575f80fd5b5061024e8061001d5f395ff3fe608060405234801561000f575f80fd5b5060043610610029575f3560e01c806372ce42751461002d575b5f80fd5b61004061003b366004610107565b610042565b005b6040516323b872dd60e01b8152336004820152306024820152604481018290526001600160a01b038716906323b872dd906064016020604051808303815f875af1158015610092573d5f803e3d5ffd5b505050506040513d601f19601f820116820180604052508101906100b691906101ae565b5083866001600160a01b03167f836505f07e172b9429afe656f4c31548d75119ed6f04bfb1752aa5bf161145b4878686866040516100f794939291906101d4565b60405180910390a3505050505050565b5f805f805f8060a0878903121561011c575f80fd5b86356001600160a01b0381168114610132575f80fd5b95506020870135945060408701359350606087013567ffffffffffffffff8082111561015c575f80fd5b818901915089601f83011261016f575f80fd5b81358181111561017d575f80fd5b8a60208260051b8501011115610191575f80fd5b602083019550809450505050608087013590509295509295509295565b5f602082840312156101be575f80fd5b815180151581146101cd575f80fd5b9392505050565b84815260606020820181905281018390525f6001600160fb1b038411156101f9575f80fd5b8360051b8086608085013760408301939093525001608001939250505056fea2646970667358221220b00f8342e1fe1718e9b994fd2cbb77d022bf2e2b0d3120e1cadf84df648aafa764736f6c63430008180033","opcodes":"PUSH1 0x80 PUSH1 0x40 MSTORE CALLVALUE DUP1 ISZERO PUSH2 0xF JUMPI PUSH0 DUP1 REVERT JUMPDEST POP PUSH2 0x24E DUP1 PUSH2 0x1D PUSH0 CODECOPY PUSH0 RETURN INVALID PUSH1 0x80 PUSH1 0x40 MSTORE CALLVALUE DUP1 ISZERO PUSH2 0xF JUMPI PUSH0 DUP1 REVERT JUMPDEST POP PUSH1 0x4 CALLDATASIZE LT PUSH2 0x29 JUMPI PUSH0 CALLDATALOAD PUSH1 0xE0 SHR DUP1 PUSH4 0x72CE4275 EQ PUSH2 0x2D JUMPI JUMPDEST PUSH0 DUP1 REVERT JUMPDEST PUSH2 0x40 PUSH2 0x3B CALLDATASIZE PUSH1 0x4 PUSH2 0x107 JUMP JUMPDEST PUSH2 0x42 JUMP JUMPDEST STOP JUMPDEST PUSH1 0x40 MLOAD PUSH4 0x23B872DD PUSH1 0xE0 SHL DUP2 MSTORE CALLER PUSH1 0x4 DUP3 ADD MSTORE ADDRESS PUSH1 0x24 DUP3 ADD MSTORE PUSH1 0x44 DUP2 ADD DUP3 SWAP1 MSTORE PUSH1 0x1 PUSH1 0x1 PUSH1 0xA0 SHL SUB DUP8 AND SWAP1 PUSH4 0x23B872DD SWAP1 PUSH1 0x64 ADD PUSH1 0x20 PUSH1 0x40 MLOAD DUP1 DUP4 SUB DUP2 PUSH0 DUP8 GAS CALL ISZERO DUP1 ISZERO PUSH2 0x92 JUMPI RETURNDATASIZE PUSH0 DUP1 RETURNDATACOPY RETURNDATASIZE PUSH0 REVERT JUMPDEST POP POP POP POP PUSH1 0x40 MLOAD RETURNDATASIZE PUSH1 0x1F NOT PUSH1 0x1F DUP3 ADD AND DUP3 ADD DUP1 PUSH1 0x40 MSTORE POP DUP2 ADD SWAP1 PUSH2 0xB6 SWAP2 SWAP1 PUSH2 0x1AE JUMP JUMPDEST POP DUP4 DUP7 PUSH1 0x1 PUSH1 0x1 PUSH1 0xA0 SHL SUB AND PUSH32 0x836505F07E172B9429AFE656F4C31548D75119ED6F04BFB1752AA5BF161145B4 DUP8 DUP7 DUP7 DUP7 PUSH1 0x40 MLOAD PUSH2 0xF7 SWAP5 SWAP4 SWAP3 SWAP2 SWAP1 PUSH2 0x1D4 JUMP JUMPDEST PUSH1 0x40 MLOAD DUP1 SWAP2 SUB SWAP1 LOG3 POP POP POP POP POP POP JUMP JUMPDEST PUSH0 DUP1 PUSH0 DUP1 PUSH0 DUP1 PUSH1 0xA0 DUP8 DUP10 SUB SLT ISZERO PUSH2 0x11C JUMPI PUSH0 DUP1 REVERT JUMPDEST DUP7 CALLDATALOAD PUSH1 0x1 PUSH1 0x1 PUSH1 0xA0 SHL SUB DUP2 AND DUP2 EQ PUSH2 0x132 JUMPI PUSH0 DUP1 REVERT JUMPDEST SWAP6 POP PUSH1 0x20 DUP8 ADD CALLDATALOAD SWAP5 POP PUSH1 0x40 DUP8 ADD CALLDATALOAD SWAP4 POP PUSH1 0x60 DUP8 ADD CALLDATALOAD PUSH8 0xFFFFFFFFFFFFFFFF DUP1 DUP3 GT ISZERO PUSH2 0x15C JUMPI PUSH0 DUP1 REVERT JUMPDEST DUP2 DUP10 ADD SWAP2 POP DUP10 PUSH1 0x1F DUP4 ADD SLT PUSH2 0x16F JUMPI PUSH0 DUP1 REVERT JUMPDEST DUP2 CALLDATALOAD DUP2 DUP2 GT ISZERO PUSH2 0x17D JUMPI PUSH0 DUP1 REVERT JUMPDEST DUP11 PUSH1 0x20 DUP3 PUSH1 0x5 SHL DUP6 ADD ADD GT ISZERO PUSH2 0x191 JUMPI PUSH0 DUP1 REVERT JUMPDEST PUSH1 0x20 DUP4 ADD SWAP6 POP DUP1 SWAP5 POP POP POP POP PUSH1 0x80 DUP8 ADD CALLDATALOAD SWAP1 POP SWAP3 SWAP6 POP SWAP3 SWAP6 POP SWAP3 SWAP6 JUMP JUMPDEST PUSH0 PUSH1 0x20 DUP3 DUP5 SUB SLT ISZERO PUSH2 0x1BE JUMPI PUSH0 DUP1 REVERT JUMPDEST DUP2 MLOAD DUP1 ISZERO ISZERO DUP2 EQ PUSH2 0x1CD JUMPI PUSH0 DUP1 REVERT JUMPDEST SWAP4 SWAP3 POP POP POP JUMP JUMPDEST DUP5 DUP2 MSTORE PUSH1 0x60 PUSH1 0x20 DUP3 ADD DUP2 SWAP1 MSTORE DUP2 ADD DUP4 SWAP1 MSTORE PUSH0 PUSH1 0x1 PUSH1 0x1 PUSH1 0xFB SHL SUB DUP5 GT ISZERO PUSH2 0x1F9 JUMPI PUSH0 DUP1 REVERT JUMPDEST DUP4 PUSH1 0x5 SHL DUP1 DUP7 PUSH1 0x80 DUP6 ADD CALLDATACOPY PUSH1 0x40 DUP4 ADD SWAP4 SWAP1 SWAP4 MSTORE POP ADD PUSH1 0x80 ADD SWAP4 SWAP3 POP POP POP JUMP INVALID LOG2 PUSH5 0x6970667358 0x22 SLT KECCAK256 0xB0 0xF DUP4 TIMESTAMP 0xE1 INVALID OR XOR 0xE9 0xB9 SWAP5 REVERT 0x2C 0xBB PUSH24 0xD022BF2E2B0D3120E1CADF84DF648AAFA764736F6C634300 ADDMOD XOR STOP CALLER "},"methodIdentifiers":{"splitPosition(address,bytes32,bytes32,uint256[],uint256)":"72ce4275"}}}}}