{"contracts/BrierVault.sol":{"BrierVault":{"abi":[{"inputs":[],"stateMutability":"nonpayable","type":"constructor"},{"inputs":[{"internalType":"address","name":"target","type":"address"}],"name":"AddressEmptyCode","type":"error"},{"inputs":[{"internalType":"address","name":"account","type":"address"}],"name":"AddressInsufficientBalance","type":"error"},{"inputs":[{"internalType":"address","name":"spender","type":"address"},{"internalType":"uint256","name":"allowance","type":"uint256"},{"internalType":"uint256","name":"needed","type":"uint256"}],"name":"ERC20InsufficientAllowance","type":"error"},{"inputs":[{"internalType":"address","name":"sender","type":"address"},{"internalType":"uint256","name":"balance","type":"uint256"},{"internalType":"uint256","name":"needed","type":"uint256"}],"name":"ERC20InsufficientBalance","type":"error"},{"inputs":[{"internalType":"address","name":"approver","type":"address"}],"name":"ERC20InvalidApprover","type":"error"},{"inputs":[{"internalType":"address","name":"receiver","type":"address"}],"name":"ERC20InvalidReceiver","type":"error"},{"inputs":[{"internalType":"address","name":"sender","type":"address"}],"name":"ERC20InvalidSender","type":"error"},{"inputs":[{"internalType":"address","name":"spender","type":"address"}],"name":"ERC20InvalidSpender","type":"error"},{"inputs":[{"internalType":"address","name":"receiver","type":"address"},{"internalType":"uint256","name":"assets","type":"uint256"},{"internalType":"uint256","name":"max","type":"uint256"}],"name":"ERC4626ExceededMaxDeposit","type":"error"},{"inputs":[{"internalType":"address","name":"receiver","type":"address"},{"internalType":"uint256","name":"shares","type":"uint256"},{"internalType":"uint256","name":"max","type":"uint256"}],"name":"ERC4626ExceededMaxMint","type":"error"},{"inputs":[{"internalType":"address","name":"owner","type":"address"},{"internalType":"uint256","name":"shares","type":"uint256"},{"internalType":"uint256","name":"max","type":"uint256"}],"name":"ERC4626ExceededMaxRedeem","type":"error"},{"inputs":[{"internalType":"address","name":"owner","type":"address"},{"internalType":"uint256","name":"assets","type":"uint256"},{"internalType":"uint256","name":"max","type":"uint256"}],"name":"ERC4626ExceededMaxWithdraw","type":"error"},{"inputs":[],"name":"EnforcedPause","type":"error"},{"inputs":[],"name":"ExpectedPause","type":"error"},{"inputs":[],"name":"FailedInnerCall","type":"error"},{"inputs":[],"name":"InvalidInitialization","type":"error"},{"inputs":[],"name":"MathOverflowedMulDiv","type":"error"},{"inputs":[],"name":"NotInitializing","type":"error"},{"inputs":[{"internalType":"address","name":"owner","type":"address"}],"name":"OwnableInvalidOwner","type":"error"},{"inputs":[{"internalType":"address","name":"account","type":"address"}],"name":"OwnableUnauthorizedAccount","type":"error"},{"inputs":[],"name":"ReentrancyGuardReentrantCall","type":"error"},{"inputs":[{"internalType":"address","name":"spender","type":"address"},{"internalType":"uint256","name":"currentAllowance","type":"uint256"},{"internalType":"uint256","name":"requestedDecrease","type":"uint256"}],"name":"SafeERC20FailedDecreaseAllowance","type":"error"},{"inputs":[{"internalType":"address","name":"token","type":"address"}],"name":"SafeERC20FailedOperation","type":"error"},{"anonymous":false,"inputs":[{"indexed":true,"internalType":"address","name":"owner","type":"address"},{"indexed":true,"internalType":"address","name":"spender","type":"address"},{"indexed":false,"internalType":"uint256","name":"value","type":"uint256"}],"name":"Approval","type":"event"},{"anonymous":false,"inputs":[{"indexed":false,"internalType":"uint256","name":"slashedAmount","type":"uint256"}],"name":"CircuitBreakerTriggered","type":"event"},{"anonymous":false,"inputs":[{"indexed":true,"internalType":"address","name":"oldDaemon","type":"address"},{"indexed":true,"internalType":"address","name":"newDaemon","type":"address"}],"name":"DaemonUpdated","type":"event"},{"anonymous":false,"inputs":[{"indexed":true,"internalType":"address","name":"sender","type":"address"},{"indexed":true,"internalType":"address","name":"owner","type":"address"},{"indexed":false,"internalType":"uint256","name":"assets","type":"uint256"},{"indexed":false,"internalType":"uint256","name":"shares","type":"uint256"}],"name":"Deposit","type":"event"},{"anonymous":false,"inputs":[{"indexed":false,"internalType":"uint256","name":"builderFee","type":"uint256"},{"indexed":false,"internalType":"uint256","name":"platformFee","type":"uint256"},{"indexed":false,"internalType":"uint256","name":"depositorProfit","type":"uint256"}],"name":"FeesDistributed","type":"event"},{"anonymous":false,"inputs":[{"indexed":false,"internalType":"uint64","name":"version","type":"uint64"}],"name":"Initialized","type":"event"},{"anonymous":false,"inputs":[{"indexed":false,"internalType":"uint256","name":"newCapacity","type":"uint256"}],"name":"MaxCapacityUpdated","type":"event"},{"anonymous":false,"inputs":[{"indexed":true,"internalType":"address","name":"previousOwner","type":"address"},{"indexed":true,"internalType":"address","name":"newOwner","type":"address"}],"name":"OwnershipTransferred","type":"event"},{"anonymous":false,"inputs":[{"indexed":false,"internalType":"address","name":"account","type":"address"}],"name":"Paused","type":"event"},{"anonymous":false,"inputs":[{"indexed":true,"internalType":"bytes32","name":"tradeId","type":"bytes32"},{"indexed":true,"internalType":"bytes32","name":"marketId","type":"bytes32"},{"indexed":false,"internalType":"uint256","name":"amount","type":"uint256"}],"name":"TradeExecuted","type":"event"},{"anonymous":false,"inputs":[{"indexed":true,"internalType":"bytes32","name":"tradeId","type":"bytes32"},{"indexed":false,"internalType":"uint256","name":"payout","type":"uint256"},{"indexed":false,"internalType":"bool","name":"profitable","type":"bool"}],"name":"TradeSettled","type":"event"},{"anonymous":false,"inputs":[{"indexed":true,"internalType":"bytes32","name":"tradeId","type":"bytes32"}],"name":"TradeStale","type":"event"},{"anonymous":false,"inputs":[{"indexed":true,"internalType":"address","name":"from","type":"address"},{"indexed":true,"internalType":"address","name":"to","type":"address"},{"indexed":false,"internalType":"uint256","name":"value","type":"uint256"}],"name":"Transfer","type":"event"},{"anonymous":false,"inputs":[{"indexed":false,"internalType":"address","name":"account","type":"address"}],"name":"Unpaused","type":"event"},{"anonymous":false,"inputs":[{"indexed":true,"internalType":"address","name":"sender","type":"address"},{"indexed":true,"internalType":"address","name":"receiver","type":"address"},{"indexed":true,"internalType":"address","name":"owner","type":"address"},{"indexed":false,"internalType":"uint256","name":"assets","type":"uint256"},{"indexed":false,"internalType":"uint256","name":"shares","type":"uint256"}],"name":"Withdraw","type":"event"},{"inputs":[],"name":"BUILDER_SHARE_BPS","outputs":[{"internalType":"uint256","name":"","type":"uint256"}],"stateMutability":"view","type":"function"},{"inputs":[],"name":"DEPOSITOR_SHARE_BPS","outputs":[{"internalType":"uint256","name":"","type":"uint256"}],"stateMutability":"view","type":"function"},{"inputs":[],"name":"PLATFORM_SHARE_BPS","outputs":[{"internalType":"uint256","name":"","type":"uint256"}],"stateMutability":"view","type":"function"},{"inputs":[],"name":"activeLockedCapital","outputs":[{"internalType":"uint256","name":"","type":"uint256"}],"stateMutability":"view","type":"function"},{"inputs":[{"internalType":"address","name":"owner","type":"address"},{"internalType":"address","name":"spender","type":"address"}],"name":"allowance","outputs":[{"internalType":"uint256","name":"","type":"uint256"}],"stateMutability":"view","type":"function"},{"inputs":[{"internalType":"address","name":"spender","type":"address"},{"internalType":"uint256","name":"value","type":"uint256"}],"name":"approve","outputs":[{"internalType":"bool","name":"","type":"bool"}],"stateMutability":"nonpayable","type":"function"},{"inputs":[],"name":"asset","outputs":[{"internalType":"address","name":"","type":"address"}],"stateMutability":"view","type":"function"},{"inputs":[{"internalType":"address","name":"account","type":"address"}],"name":"balanceOf","outputs":[{"internalType":"uint256","name":"","type":"uint256"}],"stateMutability":"view","type":"function"},{"inputs":[],"name":"brierDaemon","outputs":[{"internalType":"address","name":"","type":"address"}],"stateMutability":"view","type":"function"},{"inputs":[],"name":"builderWallet","outputs":[{"internalType":"address","name":"","type":"address"}],"stateMutability":"view","type":"function"},{"inputs":[{"internalType":"uint256","name":"shares","type":"uint256"}],"name":"convertToAssets","outputs":[{"internalType":"uint256","name":"","type":"uint256"}],"stateMutability":"view","type":"function"},{"inputs":[{"internalType":"uint256","name":"assets","type":"uint256"}],"name":"convertToShares","outputs":[{"internalType":"uint256","name":"","type":"uint256"}],"stateMutability":"view","type":"function"},{"inputs":[],"name":"decimals","outputs":[{"internalType":"uint8","name":"","type":"uint8"}],"stateMutability":"view","type":"function"},{"inputs":[{"internalType":"uint256","name":"assets","type":"uint256"},{"internalType":"address","name":"receiver","type":"address"}],"name":"deposit","outputs":[{"internalType":"uint256","name":"","type":"uint256"}],"stateMutability":"nonpayable","type":"function"},{"inputs":[{"internalType":"bytes32","name":"tradeId","type":"bytes32"},{"internalType":"bytes32","name":"marketId","type":"bytes32"},{"internalType":"uint256[]","name":"outcome","type":"uint256[]"},{"internalType":"uint256","name":"usdcAmount","type":"uint256"}],"name":"executeTrade","outputs":[],"stateMutability":"nonpayable","type":"function"},{"inputs":[],"name":"feeRecipient","outputs":[{"internalType":"address","name":"","type":"address"}],"stateMutability":"view","type":"function"},{"inputs":[],"name":"idleCapital","outputs":[{"internalType":"uint256","name":"","type":"uint256"}],"stateMutability":"view","type":"function"},{"inputs":[{"internalType":"contract IERC20","name":"asset_","type":"address"},{"internalType":"string","name":"vaultName_","type":"string"},{"internalType":"string","name":"vaultSymbol_","type":"string"},{"internalType":"address","name":"_brierDaemon","type":"address"},{"internalType":"address","name":"_builderWallet","type":"address"},{"internalType":"address","name":"_polymarketCTF","type":"address"},{"internalType":"address","name":"_gnosisSafeAdmin","type":"address"},{"internalType":"address","name":"_feeRecipient","type":"address"},{"internalType":"uint256","name":"_maxCapacity","type":"uint256"},{"internalType":"uint256","name":"_skinInGame","type":"uint256"}],"name":"initialize","outputs":[],"stateMutability":"nonpayable","type":"function"},{"inputs":[{"internalType":"bytes32","name":"tradeId","type":"bytes32"}],"name":"markTradeStale","outputs":[],"stateMutability":"nonpayable","type":"function"},{"inputs":[],"name":"maxCapacity","outputs":[{"internalType":"uint256","name":"","type":"uint256"}],"stateMutability":"view","type":"function"},{"inputs":[{"internalType":"address","name":"","type":"address"}],"name":"maxDeposit","outputs":[{"internalType":"uint256","name":"","type":"uint256"}],"stateMutability":"view","type":"function"},{"inputs":[{"internalType":"address","name":"","type":"address"}],"name":"maxMint","outputs":[{"internalType":"uint256","name":"","type":"uint256"}],"stateMutability":"view","type":"function"},{"inputs":[{"internalType":"address","name":"owner","type":"address"}],"name":"maxRedeem","outputs":[{"internalType":"uint256","name":"","type":"uint256"}],"stateMutability":"view","type":"function"},{"inputs":[{"internalType":"address","name":"owner","type":"address"}],"name":"maxWithdraw","outputs":[{"internalType":"uint256","name":"","type":"uint256"}],"stateMutability":"view","type":"function"},{"inputs":[{"internalType":"uint256","name":"shares","type":"uint256"},{"internalType":"address","name":"receiver","type":"address"}],"name":"mint","outputs":[{"internalType":"uint256","name":"","type":"uint256"}],"stateMutability":"nonpayable","type":"function"},{"inputs":[],"name":"name","outputs":[{"internalType":"string","name":"","type":"string"}],"stateMutability":"view","type":"function"},{"inputs":[],"name":"owner","outputs":[{"internalType":"address","name":"","type":"address"}],"stateMutability":"view","type":"function"},{"inputs":[],"name":"pause","outputs":[],"stateMutability":"nonpayable","type":"function"},{"inputs":[],"name":"paused","outputs":[{"internalType":"bool","name":"","type":"bool"}],"stateMutability":"view","type":"function"},{"inputs":[],"name":"polymarketCTF","outputs":[{"internalType":"address","name":"","type":"address"}],"stateMutability":"view","type":"function"},{"inputs":[{"internalType":"uint256","name":"assets","type":"uint256"}],"name":"previewDeposit","outputs":[{"internalType":"uint256","name":"","type":"uint256"}],"stateMutability":"view","type":"function"},{"inputs":[{"internalType":"uint256","name":"shares","type":"uint256"}],"name":"previewMint","outputs":[{"internalType":"uint256","name":"","type":"uint256"}],"stateMutability":"view","type":"function"},{"inputs":[{"internalType":"uint256","name":"shares","type":"uint256"}],"name":"previewRedeem","outputs":[{"internalType":"uint256","name":"","type":"uint256"}],"stateMutability":"view","type":"function"},{"inputs":[{"internalType":"uint256","name":"assets","type":"uint256"}],"name":"previewWithdraw","outputs":[{"internalType":"uint256","name":"","type":"uint256"}],"stateMutability":"view","type":"function"},{"inputs":[{"internalType":"uint256","name":"shares","type":"uint256"},{"internalType":"address","name":"receiver","type":"address"},{"internalType":"address","name":"owner","type":"address"}],"name":"redeem","outputs":[{"internalType":"uint256","name":"","type":"uint256"}],"stateMutability":"nonpayable","type":"function"},{"inputs":[],"name":"renounceOwnership","outputs":[],"stateMutability":"nonpayable","type":"function"},{"inputs":[{"internalType":"address","name":"_newDaemon","type":"address"}],"name":"setDaemon","outputs":[],"stateMutability":"nonpayable","type":"function"},{"inputs":[{"internalType":"address","name":"_newFeeRecipient","type":"address"}],"name":"setFeeRecipient","outputs":[],"stateMutability":"nonpayable","type":"function"},{"inputs":[{"internalType":"uint256","name":"_maxCapacity","type":"uint256"}],"name":"setMaxCapacity","outputs":[],"stateMutability":"nonpayable","type":"function"},{"inputs":[{"internalType":"bytes32","name":"tradeId","type":"bytes32"},{"internalType":"uint256","name":"payout","type":"uint256"}],"name":"settleMarket","outputs":[],"stateMutability":"nonpayable","type":"function"},{"inputs":[],"name":"skinInGame","outputs":[{"internalType":"uint256","name":"","type":"uint256"}],"stateMutability":"view","type":"function"},{"inputs":[],"name":"symbol","outputs":[{"internalType":"string","name":"","type":"string"}],"stateMutability":"view","type":"function"},{"inputs":[],"name":"totalAssets","outputs":[{"internalType":"uint256","name":"","type":"uint256"}],"stateMutability":"view","type":"function"},{"inputs":[],"name":"totalProfit","outputs":[{"internalType":"uint256","name":"","type":"uint256"}],"stateMutability":"view","type":"function"},{"inputs":[],"name":"totalSupply","outputs":[{"internalType":"uint256","name":"","type":"uint256"}],"stateMutability":"view","type":"function"},{"inputs":[{"internalType":"bytes32","name":"","type":"bytes32"}],"name":"tradeLockedCapital","outputs":[{"internalType":"uint256","name":"","type":"uint256"}],"stateMutability":"view","type":"function"},{"inputs":[{"internalType":"address","name":"to","type":"address"},{"internalType":"uint256","name":"value","type":"uint256"}],"name":"transfer","outputs":[{"internalType":"bool","name":"","type":"bool"}],"stateMutability":"nonpayable","type":"function"},{"inputs":[{"internalType":"address","name":"from","type":"address"},{"internalType":"address","name":"to","type":"address"},{"internalType":"uint256","name":"value","type":"uint256"}],"name":"transferFrom","outputs":[{"internalType":"bool","name":"","type":"bool"}],"stateMutability":"nonpayable","type":"function"},{"inputs":[{"internalType":"address","name":"newOwner","type":"address"}],"name":"transferOwnership","outputs":[],"stateMutability":"nonpayable","type":"function"},{"inputs":[],"name":"triggerCircuitBreaker","outputs":[],"stateMutability":"nonpayable","type":"function"},{"inputs":[],"name":"unpause","outputs":[],"stateMutability":"nonpayable","type":"function"},{"inputs":[{"internalType":"uint256","name":"assets","type":"uint256"},{"internalType":"address","name":"receiver","type":"address"},{"internalType":"address","name":"owner","type":"address"}],"name":"withdraw","outputs":[{"internalType":"uint256","name":"","type":"uint256"}],"stateMutability":"nonpayable","type":"function"}],"evm":{"bytecode":{"linkReferences":{},"object":"608060405234801562000010575f80fd5b506200001b62000021565b620000d5565b7ff0c57e16840df040f15088dc2f81fe391c3923bec73e23a9662efc9c229c6a00805468010000000000000000900460ff1615620000725760405163f92ee8a960e01b815260040160405180910390fd5b80546001600160401b0390811614620000d25780546001600160401b0319166001600160401b0390811782556040519081527fc7f505b2f371ae2175ee4913f4499e1f2633a7b5936321eed1cdaeb6115181d29060200160405180910390a15b50565b61314180620000e35f395ff3fe608060405234801561000f575f80fd5b50600436106102ff575f3560e01c80638456cb5911610195578063c63d75b6116100e4578063d905777e1161009e578063e74b981b11610079578063e74b981b14610630578063ef8b30f7146105b6578063f2fde38b14610643578063ffb1ca8014610656575f80fd5b8063d905777e146105f7578063da28a9be1461060a578063dd62ed3e1461061d575f80fd5b8063c63d75b61461040d578063c6e6f592146105b6578063c7318d73146105c9578063ce96cb77146105d2578063d6de49ba146105e5578063d8464354146105ee575f80fd5b8063a9059cbb1161014f578063b460af941161012a578063b460af9414610568578063ba0876521461057b578063bb764a051461058e578063be03007c14610597575f80fd5b8063a9059cbb1461052f578063b364b4da14610542578063b3d7f6b914610555575f80fd5b80638456cb59146104f357806386001519146104fb5780638b19fc19146105045780638da5cb5b1461050c57806394bf804d1461051457806395d89b4114610527575f80fd5b806346904840116102515780636b401c3d1161020b578063715018a6116101e6578063715018a6146104bc578063747a9828146104c457806377eb4e23146104cd5780638152a05f146104e0575f80fd5b80636b401c3d1461048d5780636e553f651461049657806370a08231146104a9575f80fd5b806346904840146104345780634cdad506146103335780635552aa401461044757806355b624db1461045a57806359b6a0c91461046d5780635c975abb14610476575f80fd5b806323b872dd116102bc5780633f4ba83a116102975780633f4ba83a146103f0578063401dbe23146103fa578063402d267d1461040d578063453d91c114610421575f80fd5b806323b872dd146103a3578063313ce567146103b657806338d52e0f146103d0575f80fd5b806301e1d1141461030357806306fdde031461031e57806307a2d13a14610333578063095ea7b3146103465780630a28a4771461036957806318160ddd1461037c575b5f80fd5b61030b610668565b6040519081526020015b60405180910390f35b61032661068b565b60405161031591906128e8565b61030b61034136600461291a565b61074b565b610359610354366004612955565b61075c565b6040519015158152602001610315565b61030b61037736600461291a565b610773565b7f52c63247e1f47db19d5ce0460030c497f067ca4cebf71ba98eeadabe20bace025461030b565b6103596103b136600461297f565b61077f565b6103be6107a4565b60405160ff9091168152602001610315565b6103d86107d3565b6040516001600160a01b039091168152602001610315565b6103f86107f4565b005b6103f86104083660046129bd565b610806565b61030b61041b3660046129bd565b505f1990565b6103f861042f36600461291a565b6108bd565b6007546103d8906001600160a01b031681565b6103f86104553660046129d8565b610950565b6103f86104683660046129f8565b610cdf565b61030b60035481565b5f805160206130cc8339815191525460ff16610359565b61030b60015481565b61030b6104a4366004612a7b565b6110d1565b61030b6104b73660046129bd565b6110e4565b6103f861110a565b61030b61177081565b6004546103d8906001600160a01b031681565b6103f86104ee366004612b46565b61111b565b6103f86113f9565b61030b60065481565b6103f8611409565b6103d8611511565b61030b610522366004612a7b565b611539565b61032661154c565b61035961053d366004612955565b61158a565b6005546103d8906001600160a01b031681565b61030b61056336600461291a565b611597565b61030b610576366004612c1b565b6115a3565b61030b610589366004612c1b565b6115d7565b61030b610bb881565b61030b6105a536600461291a565b60096020525f908152604090205481565b61030b6105c436600461291a565b6115f3565b61030b60085481565b61030b6105e03660046129bd565b6115fe565b61030b60025481565b61030b6103e881565b61030b6106053660046129bd565b611611565b6103f861061836600461291a565b61161b565b61030b61062b366004612c5a565b6116cb565b6103f861063e3660046129bd565b611714565b6103f86106513660046129bd565b61178f565b5f546103d8906001600160a01b031681565b5f60085460025460015461067c9190612c9a565b6106869190612c9a565b905090565b7f52c63247e1f47db19d5ce0460030c497f067ca4cebf71ba98eeadabe20bace0380546060915f8051602061308c833981519152916106c990612cad565b80601f01602080910402602001604051908101604052809291908181526020018280546106f590612cad565b80156107405780601f1061071757610100808354040283529160200191610740565b820191905f5260205f20905b81548152906001019060200180831161072357829003601f168201915b505050505091505090565b5f610756825f6117cc565b92915050565b5f33610769818585611823565b5060019392505050565b5f610756826001611835565b5f3361078c858285611883565b6107978585856118d3565b60019150505b9392505050565b5f805f805160206130ac83398151915290505f81546107cd9190600160a01b900460ff16612ce5565b91505090565b5f805f805160206130ac8339815191525b546001600160a01b031692915050565b6107fc611930565b610804611962565b565b61080e611930565b6001600160a01b0381166108645760405162461bcd60e51b815260206004820152601860248201527742726965725661756c743a207a65726f206164647265737360401b60448201526064015b60405180910390fd5b5f80546040516001600160a01b03808516939216917f26f1333eb03795a71544ef03cd4bac00a69dc4f0c136c970c379b353d23753dc91a35f80546001600160a01b0319166001600160a01b0392909216919091179055565b6108c5611930565b5f81116109145760405162461bcd60e51b815260206004820152601960248201527f42726965725661756c743a207a65726f20636170616369747900000000000000604482015260640161085b565b60038190556040518181527f8b8564868e5db4ac945b0fd897338876dcc0c95a5f183b340f47285ebbcb6af1906020015b60405180910390a150565b5f546001600160a01b031633146109795760405162461bcd60e51b815260040161085b90612cfe565b6109816119bb565b5f82815260096020526040902054806109f35760405162461bcd60e51b815260206004820152602e60248201527f42726965725661756c743a207472616465206e6f7420666f756e64206f72206160448201526d1b1c9958591e481cd95d1d1b195960921b606482015260840161085b565b5f6109fc6107d3565b6040516370a0823160e01b81523060048201526001600160a01b0391909116906370a0823190602401602060405180830381865afa158015610a40573d5f803e3d5ffd5b505050506040513d601f19601f82011682018060405250810190610a649190612d44565b905082600154610a749190612c9a565b811015610ae95760405162461bcd60e51b815260206004820152603760248201527f42726965725661756c743a207061796f7574206e6f742072656365697665642060448201527f2d2072656465656d2066726f6d20435446206669727374000000000000000000606482015260840161085b565b5f84815260096020526040812081905560028054849290610b0b908490612d5b565b909155505081831115610c72575f610b238385612d5b565b90505f612710610b35610bb884612d6e565b610b3f9190612d99565b90505f612710610b516103e885612d6e565b610b5b9190612d99565b90505f81610b698486612d5b565b610b739190612d5b565b90508360065f828254610b869190612c9a565b90915550610b9690508187612c9a565b60015f828254610ba69190612c9a565b9091555050600554610bd4906001600160a01b031684610bc46107d3565b6001600160a01b031691906119f2565b600754610bed906001600160a01b031683610bc46107d3565b60408051848152602081018490529081018290527f312c5308f42848705a866c73dec11fd0783c2d64aac6a97e94467062ad3f40589060600160405180910390a1604080518881526001602082015289917fb838176051aaad97f6ff91aa3a56c75219b4e7d94038a0bfb4bde3527f52dfb0910160405180910390a250505050610cc3565b8260015f828254610c839190612c9a565b9091555050604080518481525f602082015285917fb838176051aaad97f6ff91aa3a56c75219b4e7d94038a0bfb4bde3527f52dfb0910160405180910390a25b5050610cdb60015f805160206130ec83398151915255565b5050565b5f546001600160a01b03163314610d085760405162461bcd60e51b815260040161085b90612cfe565b610d10611a64565b610d186119bb565b5f8111610d675760405162461bcd60e51b815260206004820152601e60248201527f42726965725661756c743a20616d6f756e74206d757374206265203e20300000604482015260640161085b565b600154811115610dc75760405162461bcd60e51b815260206004820152602560248201527f42726965725661756c743a20696e73756666696369656e742069646c652063616044820152641c1a5d185b60da1b606482015260840161085b565b5f8581526009602052604090205415610e2d5760405162461bcd60e51b815260206004820152602260248201527f42726965725661756c743a207472616465496420616c72656164792061637469604482015261766560f01b606482015260840161085b565b6064610e37610668565b610e42906014612d6e565b610e4c9190612d99565b811115610ea75760405162461bcd60e51b815260206004820152602360248201527f42726965725661756c743a206578636565647320323025207472616465206c696044820152621b5a5d60ea1b606482015260840161085b565b8060015f828254610eb89190612d5b565b925050819055508060025f828254610ed09190612c9a565b90915550505f858152600960205260409020819055600454610f0e906001600160a01b031682610efe6107d3565b6001600160a01b03169190611a94565b6004545f906001600160a01b0316610f246107d3565b604051610f3e91905f908990899089908990602401612dac565b60408051601f198184030181529181526020820180516001600160e01b03166372ce427560e01b17905251610f739190612e09565b5f604051808303815f865af19150503d805f8114610fac576040519150601f19603f3d011682016040523d82523d5f602084013e610fb1565b606091505b505090508061107857600454610fe3906001600160a01b031683610fd36107d3565b6001600160a01b03169190611b1b565b8160015f828254610ff49190612c9a565b925050819055508160025f82825461100c9190612d5b565b90915550505f86815260096020526040808220919091555162461bcd60e51b815261085b9060040160208082526024908201527f42726965725661756c743a204354462073706c6974506f736974696f6e2066616040820152631a5b195960e21b606082015260800190565b84867f046b5c28a0efd2884fdc09e7246b9c9251b6429eb7fd2f84e7a704419276468f846040516110ab91815260200190565b60405180910390a3506110ca60015f805160206130ec83398151915255565b5050505050565b5f6110da611a64565b61079d8383611bc2565b6001600160a01b03165f9081525f8051602061308c833981519152602052604090205490565b611112611930565b6108045f611be5565b7ff0c57e16840df040f15088dc2f81fe391c3923bec73e23a9662efc9c229c6a008054600160401b810460ff16159067ffffffffffffffff165f811580156111605750825b90505f8267ffffffffffffffff16600114801561117c5750303b155b90508115801561118a575080155b156111a85760405163f92ee8a960e01b815260040160405180910390fd5b845467ffffffffffffffff1916600117855583156111d257845460ff60401b1916600160401b1785555b6001600160a01b038c166112285760405162461bcd60e51b815260206004820152601f60248201527f42726965725661756c743a207a65726f206461656d6f6e206164647265737300604482015260640161085b565b6001600160a01b038b1661127e5760405162461bcd60e51b815260206004820181905260248201527f42726965725661756c743a207a65726f206275696c6465722061646472657373604482015260640161085b565b6001600160a01b0388166112d45760405162461bcd60e51b815260206004820152601e60248201527f42726965725661756c743a207a65726f2066656520726563697069656e740000604482015260640161085b565b5f87116113235760405162461bcd60e51b815260206004820152601d60248201527f42726965725661756c743a207a65726f206d6178206361706163697479000000604482015260640161085b565b61132c8f611c55565b6113368e8e611c66565b61133f89611c78565b611347611c89565b61134f611c99565b5f80546001600160a01b03808f166001600160a01b031992831617909255600580548e8416908316179055600480548d841690831617905560078054928b16929091169190911790556003879055600886905583156113e857845460ff60401b19168555604051600181527fc7f505b2f371ae2175ee4913f4499e1f2633a7b5936321eed1cdaeb6115181d29060200160405180910390a15b505050505050505050505050505050565b611401611930565b610804611ca9565b5f546001600160a01b031633146114325760405162461bcd60e51b815260040161085b90612cfe565b61143a6119bb565b5f6008541161149d5760405162461bcd60e51b815260206004820152602960248201527f42726965725661756c743a204e6f20736b696e20696e2067616d65206c656674604482015268040e8de40e6d8c2e6d60bb1b606482015260840161085b565b600880545f9182905560018054919283926114b9908490612c9a565b909155506114c79050611ca9565b6040518181527fb93e15598c0191b5e8ad4033b4bfb998a7c8ba85d6b77f9dce086455bd2e8e229060200160405180910390a15061080460015f805160206130ec83398151915255565b5f807f9016d09d72d40fdae2fd8ceac6b6234c7706214fd39c1cd1e609a0528c1993006107e4565b5f611542611a64565b61079d8383611cf1565b7f52c63247e1f47db19d5ce0460030c497f067ca4cebf71ba98eeadabe20bace0480546060915f8051602061308c833981519152916106c990612cad565b5f336107698185856118d3565b5f6107568260016117cc565b5f6115ac611a64565b6115b46119bb565b6115bf848484611d0c565b905061079d60015f805160206130ec83398151915255565b5f6115e0611a64565b6115e86119bb565b6115bf848484611d62565b5f610756825f611835565b5f61075661160b836110e4565b5f6117cc565b5f610756826110e4565b5f546001600160a01b031633146116445760405162461bcd60e51b815260040161085b90612cfe565b5f8181526009602052604090205461169e5760405162461bcd60e51b815260206004820152601c60248201527f42726965725661756c743a207472616465206e6f742061637469766500000000604482015260640161085b565b60405181907f7b1d12f6854da251c168931aa977e79340efd6470c55fb00dbe8e921ca3fb769905f90a250565b6001600160a01b039182165f9081527f52c63247e1f47db19d5ce0460030c497f067ca4cebf71ba98eeadabe20bace016020908152604080832093909416825291909152205490565b61171c611930565b6001600160a01b03811661176d5760405162461bcd60e51b815260206004820152601860248201527742726965725661756c743a207a65726f206164647265737360401b604482015260640161085b565b600780546001600160a01b0319166001600160a01b0392909216919091179055565b611797611930565b6001600160a01b0381166117c057604051631e4fbdf760e01b81525f600482015260240161085b565b6117c981611be5565b50565b5f61079d6117d8610668565b6117e3906001612c9a565b6117ee5f600a612f04565b7f52c63247e1f47db19d5ce0460030c497f067ca4cebf71ba98eeadabe20bace025461181a9190612c9a565b85919085611daf565b6118308383836001611dfc565b505050565b5f61079d61184482600a612f04565b7f52c63247e1f47db19d5ce0460030c497f067ca4cebf71ba98eeadabe20bace02546118709190612c9a565b611878610668565b61181a906001612c9a565b5f61188e84846116cb565b90505f1981146118cd57818110156118bf57828183604051637dc7a0d960e11b815260040161085b93929190612f12565b6118cd84848484035f611dfc565b50505050565b6001600160a01b0383166118fc57604051634b637e8f60e11b81525f600482015260240161085b565b6001600160a01b0382166119255760405163ec442f0560e01b81525f600482015260240161085b565b611830838383611edf565b33611939611511565b6001600160a01b0316146108045760405163118cdaa760e01b815233600482015260240161085b565b61196a612005565b5f805160206130cc833981519152805460ff191681557f5db9ee0a495bf2e6ff9c91a7834c1ba4fdd244a5e8aa4e537bd38aeae4b073aa335b6040516001600160a01b039091168152602001610945565b5f805160206130ec8339815191528054600119016119ec57604051633ee5aeb560e01b815260040160405180910390fd5b60029055565b6040516001600160a01b0383811660248301526044820183905261183091859182169063a9059cbb906064015b604051602081830303815290604052915060e01b6020820180516001600160e01b038381831617835250505050612034565b60015f805160206130ec83398151915255565b5f805160206130cc8339815191525460ff16156108045760405163d93c066560e01b815260040160405180910390fd5b604051636eb1769f60e11b81523060048201526001600160a01b0383811660248301525f919085169063dd62ed3e90604401602060405180830381865afa158015611ae1573d5f803e3d5ffd5b505050506040513d601f19601f82011682018060405250810190611b059190612d44565b90506118cd8484611b168585612c9a565b612095565b604051636eb1769f60e11b81523060048201526001600160a01b0383811660248301525f919085169063dd62ed3e90604401602060405180830381865afa158015611b68573d5f803e3d5ffd5b505050506040513d601f19601f82011682018060405250810190611b8c9190612d44565b905081811015611bb55782818360405163e570110f60e01b815260040161085b93929190612f12565b6118cd8484848403612095565b5f5f195f611bcf856115f3565b9050611bdd33858784612124565b949350505050565b7f9016d09d72d40fdae2fd8ceac6b6234c7706214fd39c1cd1e609a0528c19930080546001600160a01b031981166001600160a01b03848116918217845560405192169182907f8be0079c531659141344cd1fd0a4f28419497f9722a3daafe3b4186f6b6457e0905f90a3505050565b611c5d6121b0565b6117c9816121f9565b611c6e6121b0565b610cdb8282612269565b611c806121b0565b6117c9816122b9565b611c916121b0565b6108046122c1565b611ca16121b0565b6108046122e1565b611cb1611a64565b5f805160206130cc833981519152805460ff191660011781557f62e78cea01bee320cd4e420270b5ea74000d11b0c9f74754ebdbfc544b05a258336119a3565b5f5f195f611cfe85611597565b9050611bdd33858388612124565b5f80611d17836115fe565b905080851115611d4057828582604051633fa733bb60e21b815260040161085b93929190612f12565b5f611d4a86610773565b9050611d5933868689856122e9565b95945050505050565b5f80611d6d83611611565b905080851115611d9657828582604051632e52afbb60e21b815260040161085b93929190612f12565b5f611da08661074b565b9050611d59338686848a6122e9565b5f80611dbc868686612375565b9050611dc783612434565b8015611de257505f8480611ddd57611ddd612d85565b868809115b15611d5957611df2600182612c9a565b9695505050505050565b5f8051602061308c8339815191526001600160a01b038516611e335760405163e602df0560e01b81525f600482015260240161085b565b6001600160a01b038416611e5c57604051634a1406b160e11b81525f600482015260240161085b565b6001600160a01b038086165f908152600183016020908152604080832093881683529290522083905581156110ca57836001600160a01b0316856001600160a01b03167f8c5be1e5ebec7d5bd14f71427d1e84f3dd0314c0f7b2291e5b200ac8c7c3b92585604051611ed091815260200190565b60405180910390a35050505050565b5f8051602061308c8339815191526001600160a01b038416611f195781816002015f828254611f0e9190612c9a565b90915550611f769050565b6001600160a01b0384165f9081526020829052604090205482811015611f585784818460405163391434e360e21b815260040161085b93929190612f12565b6001600160a01b0385165f9081526020839052604090209083900390555b6001600160a01b038316611f94576002810180548390039055611fb2565b6001600160a01b0383165f9081526020829052604090208054830190555b826001600160a01b0316846001600160a01b03167fddf252ad1be2c89b69c2b068fc378daa952ba7f163c4a11628f55a4df523b3ef84604051611ff791815260200190565b60405180910390a350505050565b5f805160206130cc8339815191525460ff1661080457604051638dfc202b60e01b815260040160405180910390fd5b5f6120486001600160a01b03841683612460565b905080515f1415801561206c57508080602001905181019061206a9190612f33565b155b1561183057604051635274afe760e01b81526001600160a01b038416600482015260240161085b565b604080516001600160a01b038416602482015260448082018490528251808303909101815260649091019091526020810180516001600160e01b031663095ea7b360e01b1790526120e6848261246d565b6118cd576040516001600160a01b0384811660248301525f604483015261211a91869182169063095ea7b390606401611a1f565b6118cd8482612034565b60035482612130610668565b61213a9190612c9a565b11156121885760405162461bcd60e51b815260206004820181905260248201527f42726965725661756c743a206d61782063617061636974792072656163686564604482015260640161085b565b6121948484848461250a565b8160015f8282546121a59190612c9a565b909155505050505050565b7ff0c57e16840df040f15088dc2f81fe391c3923bec73e23a9662efc9c229c6a0054600160401b900460ff1661080457604051631afcd79f60e31b815260040160405180910390fd5b6122016121b0565b5f805160206130ac8339815191525f8061221a84612587565b915091508161222a57601261222c565b805b83546001600160a81b031916600160a01b60ff92909216919091026001600160a01b031916176001600160a01b0394909416939093179091555050565b6122716121b0565b5f8051602061308c8339815191527f52c63247e1f47db19d5ce0460030c497f067ca4cebf71ba98eeadabe20bace036122aa8482612f96565b50600481016118cd8382612f96565b6117976121b0565b6122c96121b0565b5f805160206130cc833981519152805460ff19169055565b611a516121b0565b6001548211156123515760405162461bcd60e51b815260206004820152602d60248201527f42726965725661756c743a206f6e6c792069646c65206361706974616c20697360448201526c20776974686472617761626c6560981b606482015260840161085b565b8160015f8282546123629190612d5b565b909155506110ca9050858585858561265d565b5f838302815f1985870982811083820303915050805f036123a95783828161239f5761239f612d85565b049250505061079d565b8084116123c95760405163227bc15360e01b815260040160405180910390fd5b5f848688095f868103871696879004966002600389028118808a02820302808a02820302808a02820302808a02820302808a02820302808a02909103029181900381900460010186841190950394909402919094039290920491909117919091029150509392505050565b5f600282600381111561244957612449613056565b612453919061306a565b60ff166001149050919050565b606061079d83835f612711565b5f805f846001600160a01b0316846040516124889190612e09565b5f604051808303815f865af19150503d805f81146124c1576040519150601f19603f3d011682016040523d82523d5f602084013e6124c6565b606091505b50915091508180156124f05750805115806124f05750808060200190518101906124f09190612f33565b8015611d595750505050506001600160a01b03163b151590565b5f805160206130ac833981519152805461252f906001600160a01b03168630866127a0565b61253984836127d9565b836001600160a01b0316856001600160a01b03167fdcbc1c05240f31ff3ad067ef1ee35ce4997762752e3a095284754544f4c709d78585604051611ed0929190918252602082015260400190565b60408051600481526024810182526020810180516001600160e01b031663313ce56760e01b17905290515f918291829182916001600160a01b038716916125cd91612e09565b5f60405180830381855afa9150503d805f8114612605576040519150601f19603f3d011682016040523d82523d5f602084013e61260a565b606091505b509150915081801561261e57506020815110155b15612651575f818060200190518101906126389190612d44565b905060ff811161264f576001969095509350505050565b505b505f9485945092505050565b5f805160206130ac8339815191526001600160a01b038681169085161461268957612689848784611883565b612693848361280d565b80546126a9906001600160a01b031686856119f2565b836001600160a01b0316856001600160a01b0316876001600160a01b03167ffbde797d201c681b91056529119e0b02407c7bb96a4a2c75c01fc9667232c8db8686604051612701929190918252602082015260400190565b60405180910390a4505050505050565b6060814710156127365760405163cd78605960e01b815230600482015260240161085b565b5f80856001600160a01b031684866040516127519190612e09565b5f6040518083038185875af1925050503d805f811461278b576040519150601f19603f3d011682016040523d82523d5f602084013e612790565b606091505b5091509150611df2868383612841565b6040516001600160a01b0384811660248301528381166044830152606482018390526118cd9186918216906323b872dd90608401611a1f565b6001600160a01b0382166128025760405163ec442f0560e01b81525f600482015260240161085b565b610cdb5f8383611edf565b6001600160a01b03821661283657604051634b637e8f60e11b81525f600482015260240161085b565b610cdb825f83611edf565b606082612856576128518261289d565b61079d565b815115801561286d57506001600160a01b0384163b155b1561289657604051639996b31560e01b81526001600160a01b038516600482015260240161085b565b508061079d565b8051156128ad5780518082602001fd5b604051630a12f52160e11b815260040160405180910390fd5b5f5b838110156128e05781810151838201526020016128c8565b50505f910152565b602081525f82518060208401526129068160408501602087016128c6565b601f01601f19169190910160400192915050565b5f6020828403121561292a575f80fd5b5035919050565b6001600160a01b03811681146117c9575f80fd5b803561295081612931565b919050565b5f8060408385031215612966575f80fd5b823561297181612931565b946020939093013593505050565b5f805f60608486031215612991575f80fd5b833561299c81612931565b925060208401356129ac81612931565b929592945050506040919091013590565b5f602082840312156129cd575f80fd5b813561079d81612931565b5f80604083850312156129e9575f80fd5b50508035926020909101359150565b5f805f805f60808688031215612a0c575f80fd5b8535945060208601359350604086013567ffffffffffffffff80821115612a31575f80fd5b818801915088601f830112612a44575f80fd5b813581811115612a52575f80fd5b8960208260051b8501011115612a66575f80fd5b96999598505060200195606001359392505050565b5f8060408385031215612a8c575f80fd5b823591506020830135612a9e81612931565b809150509250929050565b634e487b7160e01b5f52604160045260245ffd5b5f82601f830112612acc575f80fd5b813567ffffffffffffffff80821115612ae757612ae7612aa9565b604051601f8301601f19908116603f01168101908282118183101715612b0f57612b0f612aa9565b81604052838152866020858801011115612b27575f80fd5b836020870160208301375f602085830101528094505050505092915050565b5f805f805f805f805f806101408b8d031215612b60575f80fd5b612b698b612945565b995060208b013567ffffffffffffffff80821115612b85575f80fd5b612b918e838f01612abd565b9a5060408d0135915080821115612ba6575f80fd5b50612bb38d828e01612abd565b985050612bc260608c01612945565b9650612bd060808c01612945565b9550612bde60a08c01612945565b9450612bec60c08c01612945565b9350612bfa60e08c01612945565b92506101008b013591506101208b013590509295989b9194979a5092959850565b5f805f60608486031215612c2d575f80fd5b833592506020840135612c3f81612931565b91506040840135612c4f81612931565b809150509250925092565b5f8060408385031215612c6b575f80fd5b8235612c7681612931565b91506020830135612a9e81612931565b634e487b7160e01b5f52601160045260245ffd5b8082018082111561075657610756612c86565b600181811c90821680612cc157607f821691505b602082108103612cdf57634e487b7160e01b5f52602260045260245ffd5b50919050565b60ff818116838216019081111561075657610756612c86565b60208082526026908201527f42726965725661756c743a2063616c6c6572206973206e6f742074686520657860408201526532b1baba37b960d11b606082015260800190565b5f60208284031215612d54575f80fd5b5051919050565b8181038181111561075657610756612c86565b808202811582820484141761075657610756612c86565b634e487b7160e01b5f52601260045260245ffd5b5f82612da757612da7612d85565b500490565b6001600160a01b0387168152602081018690526040810185905260a06060820181905281018390525f6001600160fb1b03841115612de8575f80fd5b8360051b808660c08501376080830193909352500160c00195945050505050565b5f8251612e1a8184602087016128c6565b9190910192915050565b600181815b80851115612e5e57815f1904821115612e4457612e44612c86565b80851615612e5157918102915b93841c9390800290612e29565b509250929050565b5f82612e7457506001610756565b81612e8057505f610756565b8160018114612e965760028114612ea057612ebc565b6001915050610756565b60ff841115612eb157612eb1612c86565b50506001821b610756565b5060208310610133831016604e8410600b8410161715612edf575081810a610756565b612ee98383612e24565b805f1904821115612efc57612efc612c86565b029392505050565b5f61079d60ff841683612e66565b6001600160a01b039390931683526020830191909152604082015260600190565b5f60208284031215612f43575f80fd5b8151801515811461079d575f80fd5b601f82111561183057805f5260205f20601f840160051c81016020851015612f775750805b601f840160051c820191505b818110156110ca575f8155600101612f83565b815167ffffffffffffffff811115612fb057612fb0612aa9565b612fc481612fbe8454612cad565b84612f52565b602080601f831160018114612ff7575f8415612fe05750858301515b5f19600386901b1c1916600185901b17855561304e565b5f85815260208120601f198616915b8281101561302557888601518255948401946001909101908401613006565b508582101561304257878501515f19600388901b60f8161c191681555b505060018460011b0185555b505050505050565b634e487b7160e01b5f52602160045260245ffd5b5f60ff83168061307c5761307c612d85565b8060ff8416069150509291505056fe52c63247e1f47db19d5ce0460030c497f067ca4cebf71ba98eeadabe20bace000773e532dfede91f04b12a73d3d2acd361424f41f76b4fb79f090161e36b4e00cd5ed15c6e187e77e9aee88184c21f4f2182ab5827cb3b7e07fbedcd63f033009b779b17422d0df92223018b32b4d1fa46e071723d6817e2486d003becc55f00a26469706673582212208b227669aaec5f5a845f36aaa10dc135c2bd62eef8eda74dd003398211fdd79b64736f6c63430008180033","opcodes":"PUSH1 0x80 PUSH1 0x40 MSTORE CALLVALUE DUP1 ISZERO PUSH3 0x10 JUMPI PUSH0 DUP1 REVERT JUMPDEST POP PUSH3 0x1B PUSH3 0x21 JUMP JUMPDEST PUSH3 0xD5 JUMP JUMPDEST PUSH32 0xF0C57E16840DF040F15088DC2F81FE391C3923BEC73E23A9662EFC9C229C6A00 DUP1 SLOAD PUSH9 0x10000000000000000 SWAP1 DIV PUSH1 0xFF AND ISZERO PUSH3 0x72 JUMPI PUSH1 0x40 MLOAD PUSH4 0xF92EE8A9 PUSH1 0xE0 SHL DUP2 MSTORE PUSH1 0x4 ADD PUSH1 0x40 MLOAD DUP1 SWAP2 SUB SWAP1 REVERT JUMPDEST DUP1 SLOAD PUSH1 0x1 PUSH1 0x1 PUSH1 0x40 SHL SUB SWAP1 DUP2 AND EQ PUSH3 0xD2 JUMPI DUP1 SLOAD PUSH1 0x1 PUSH1 0x1 PUSH1 0x40 SHL SUB NOT AND PUSH1 0x1 PUSH1 0x1 PUSH1 0x40 SHL SUB SWAP1 DUP2 OR DUP3 SSTORE PUSH1 0x40 MLOAD SWAP1 DUP2 MSTORE PUSH32 0xC7F505B2F371AE2175EE4913F4499E1F2633A7B5936321EED1CDAEB6115181D2 SWAP1 PUSH1 0x20 ADD PUSH1 0x40 MLOAD DUP1 SWAP2 SUB SWAP1 LOG1 JUMPDEST POP JUMP JUMPDEST PUSH2 0x3141 DUP1 PUSH3 0xE3 PUSH0 CODECOPY PUSH0 RETURN INVALID PUSH1 0x80 PUSH1 0x40 MSTORE CALLVALUE DUP1 ISZERO PUSH2 0xF JUMPI PUSH0 DUP1 REVERT JUMPDEST POP PUSH1 0x4 CALLDATASIZE LT PUSH2 0x2FF JUMPI PUSH0 CALLDATALOAD PUSH1 0xE0 SHR DUP1 PUSH4 0x8456CB59 GT PUSH2 0x195 JUMPI DUP1 PUSH4 0xC63D75B6 GT PUSH2 0xE4 JUMPI DUP1 PUSH4 0xD905777E GT PUSH2 0x9E JUMPI DUP1 PUSH4 0xE74B981B GT PUSH2 0x79 JUMPI DUP1 PUSH4 0xE74B981B EQ PUSH2 0x630 JUMPI DUP1 PUSH4 0xEF8B30F7 EQ PUSH2 0x5B6 JUMPI DUP1 PUSH4 0xF2FDE38B EQ PUSH2 0x643 JUMPI DUP1 PUSH4 0xFFB1CA80 EQ PUSH2 0x656 JUMPI PUSH0 DUP1 REVERT JUMPDEST DUP1 PUSH4 0xD905777E EQ PUSH2 0x5F7 JUMPI DUP1 PUSH4 0xDA28A9BE EQ PUSH2 0x60A JUMPI DUP1 PUSH4 0xDD62ED3E EQ PUSH2 0x61D JUMPI PUSH0 DUP1 REVERT JUMPDEST DUP1 PUSH4 0xC63D75B6 EQ PUSH2 0x40D JUMPI DUP1 PUSH4 0xC6E6F592 EQ PUSH2 0x5B6 JUMPI DUP1 PUSH4 0xC7318D73 EQ PUSH2 0x5C9 JUMPI DUP1 PUSH4 0xCE96CB77 EQ PUSH2 0x5D2 JUMPI DUP1 PUSH4 0xD6DE49BA EQ PUSH2 0x5E5 JUMPI DUP1 PUSH4 0xD8464354 EQ PUSH2 0x5EE JUMPI PUSH0 DUP1 REVERT JUMPDEST DUP1 PUSH4 0xA9059CBB GT PUSH2 0x14F JUMPI DUP1 PUSH4 0xB460AF94 GT PUSH2 0x12A JUMPI DUP1 PUSH4 0xB460AF94 EQ PUSH2 0x568 JUMPI DUP1 PUSH4 0xBA087652 EQ PUSH2 0x57B JUMPI DUP1 PUSH4 0xBB764A05 EQ PUSH2 0x58E JUMPI DUP1 PUSH4 0xBE03007C EQ PUSH2 0x597 JUMPI PUSH0 DUP1 REVERT JUMPDEST DUP1 PUSH4 0xA9059CBB EQ PUSH2 0x52F JUMPI DUP1 PUSH4 0xB364B4DA EQ PUSH2 0x542 JUMPI DUP1 PUSH4 0xB3D7F6B9 EQ PUSH2 0x555 JUMPI PUSH0 DUP1 REVERT JUMPDEST DUP1 PUSH4 0x8456CB59 EQ PUSH2 0x4F3 JUMPI DUP1 PUSH4 0x86001519 EQ PUSH2 0x4FB JUMPI DUP1 PUSH4 0x8B19FC19 EQ PUSH2 0x504 JUMPI DUP1 PUSH4 0x8DA5CB5B EQ PUSH2 0x50C JUMPI DUP1 PUSH4 0x94BF804D EQ PUSH2 0x514 JUMPI DUP1 PUSH4 0x95D89B41 EQ PUSH2 0x527 JUMPI PUSH0 DUP1 REVERT JUMPDEST DUP1 PUSH4 0x46904840 GT PUSH2 0x251 JUMPI DUP1 PUSH4 0x6B401C3D GT PUSH2 0x20B JUMPI DUP1 PUSH4 0x715018A6 GT PUSH2 0x1E6 JUMPI DUP1 PUSH4 0x715018A6 EQ PUSH2 0x4BC JUMPI DUP1 PUSH4 0x747A9828 EQ PUSH2 0x4C4 JUMPI DUP1 PUSH4 0x77EB4E23 EQ PUSH2 0x4CD JUMPI DUP1 PUSH4 0x8152A05F EQ PUSH2 0x4E0 JUMPI PUSH0 DUP1 REVERT JUMPDEST DUP1 PUSH4 0x6B401C3D EQ PUSH2 0x48D JUMPI DUP1 PUSH4 0x6E553F65 EQ PUSH2 0x496 JUMPI DUP1 PUSH4 0x70A08231 EQ PUSH2 0x4A9 JUMPI PUSH0 DUP1 REVERT JUMPDEST DUP1 PUSH4 0x46904840 EQ PUSH2 0x434 JUMPI DUP1 PUSH4 0x4CDAD506 EQ PUSH2 0x333 JUMPI DUP1 PUSH4 0x5552AA40 EQ PUSH2 0x447 JUMPI DUP1 PUSH4 0x55B624DB EQ PUSH2 0x45A JUMPI DUP1 PUSH4 0x59B6A0C9 EQ PUSH2 0x46D JUMPI DUP1 PUSH4 0x5C975ABB EQ PUSH2 0x476 JUMPI PUSH0 DUP1 REVERT JUMPDEST DUP1 PUSH4 0x23B872DD GT PUSH2 0x2BC JUMPI DUP1 PUSH4 0x3F4BA83A GT PUSH2 0x297 JUMPI DUP1 PUSH4 0x3F4BA83A EQ PUSH2 0x3F0 JUMPI DUP1 PUSH4 0x401DBE23 EQ PUSH2 0x3FA JUMPI DUP1 PUSH4 0x402D267D EQ PUSH2 0x40D JUMPI DUP1 PUSH4 0x453D91C1 EQ PUSH2 0x421 JUMPI PUSH0 DUP1 REVERT JUMPDEST DUP1 PUSH4 0x23B872DD EQ PUSH2 0x3A3 JUMPI DUP1 PUSH4 0x313CE567 EQ PUSH2 0x3B6 JUMPI DUP1 PUSH4 0x38D52E0F EQ PUSH2 0x3D0 JUMPI PUSH0 DUP1 REVERT JUMPDEST DUP1 PUSH4 0x1E1D114 EQ PUSH2 0x303 JUMPI DUP1 PUSH4 0x6FDDE03 EQ PUSH2 0x31E JUMPI DUP1 PUSH4 0x7A2D13A EQ PUSH2 0x333 JUMPI DUP1 PUSH4 0x95EA7B3 EQ PUSH2 0x346 JUMPI DUP1 PUSH4 0xA28A477 EQ PUSH2 0x369 JUMPI DUP1 PUSH4 0x18160DDD EQ PUSH2 0x37C JUMPI JUMPDEST PUSH0 DUP1 REVERT JUMPDEST PUSH2 0x30B PUSH2 0x668 JUMP JUMPDEST PUSH1 0x40 MLOAD SWAP1 DUP2 MSTORE PUSH1 0x20 ADD JUMPDEST PUSH1 0x40 MLOAD DUP1 SWAP2 SUB SWAP1 RETURN JUMPDEST PUSH2 0x326 PUSH2 0x68B JUMP JUMPDEST PUSH1 0x40 MLOAD PUSH2 0x315 SWAP2 SWAP1 PUSH2 0x28E8 JUMP JUMPDEST PUSH2 0x30B PUSH2 0x341 CALLDATASIZE PUSH1 0x4 PUSH2 0x291A JUMP JUMPDEST PUSH2 0x74B JUMP JUMPDEST PUSH2 0x359 PUSH2 0x354 CALLDATASIZE PUSH1 0x4 PUSH2 0x2955 JUMP JUMPDEST PUSH2 0x75C JUMP JUMPDEST PUSH1 0x40 MLOAD SWAP1 ISZERO ISZERO DUP2 MSTORE PUSH1 0x20 ADD PUSH2 0x315 JUMP JUMPDEST PUSH2 0x30B PUSH2 0x377 CALLDATASIZE PUSH1 0x4 PUSH2 0x291A JUMP JUMPDEST PUSH2 0x773 JUMP JUMPDEST PUSH32 0x52C63247E1F47DB19D5CE0460030C497F067CA4CEBF71BA98EEADABE20BACE02 SLOAD PUSH2 0x30B JUMP JUMPDEST PUSH2 0x359 PUSH2 0x3B1 CALLDATASIZE PUSH1 0x4 PUSH2 0x297F JUMP JUMPDEST PUSH2 0x77F JUMP JUMPDEST PUSH2 0x3BE PUSH2 0x7A4 JUMP JUMPDEST PUSH1 0x40 MLOAD PUSH1 0xFF SWAP1 SWAP2 AND DUP2 MSTORE PUSH1 0x20 ADD PUSH2 0x315 JUMP JUMPDEST PUSH2 0x3D8 PUSH2 0x7D3 JUMP JUMPDEST PUSH1 0x40 MLOAD PUSH1 0x1 PUSH1 0x1 PUSH1 0xA0 SHL SUB SWAP1 SWAP2 AND DUP2 MSTORE PUSH1 0x20 ADD PUSH2 0x315 JUMP JUMPDEST PUSH2 0x3F8 PUSH2 0x7F4 JUMP JUMPDEST STOP JUMPDEST PUSH2 0x3F8 PUSH2 0x408 CALLDATASIZE PUSH1 0x4 PUSH2 0x29BD JUMP JUMPDEST PUSH2 0x806 JUMP JUMPDEST PUSH2 0x30B PUSH2 0x41B CALLDATASIZE PUSH1 0x4 PUSH2 0x29BD JUMP JUMPDEST POP PUSH0 NOT SWAP1 JUMP JUMPDEST PUSH2 0x3F8 PUSH2 0x42F CALLDATASIZE PUSH1 0x4 PUSH2 0x291A JUMP JUMPDEST PUSH2 0x8BD JUMP JUMPDEST PUSH1 0x7 SLOAD PUSH2 0x3D8 SWAP1 PUSH1 0x1 PUSH1 0x1 PUSH1 0xA0 SHL SUB AND DUP2 JUMP JUMPDEST PUSH2 0x3F8 PUSH2 0x455 CALLDATASIZE PUSH1 0x4 PUSH2 0x29D8 JUMP JUMPDEST PUSH2 0x950 JUMP JUMPDEST PUSH2 0x3F8 PUSH2 0x468 CALLDATASIZE PUSH1 0x4 PUSH2 0x29F8 JUMP JUMPDEST PUSH2 0xCDF JUMP JUMPDEST PUSH2 0x30B PUSH1 0x3 SLOAD DUP2 JUMP JUMPDEST PUSH0 DUP1 MLOAD PUSH1 0x20 PUSH2 0x30CC DUP4 CODECOPY DUP2 MLOAD SWAP2 MSTORE SLOAD PUSH1 0xFF AND PUSH2 0x359 JUMP JUMPDEST PUSH2 0x30B PUSH1 0x1 SLOAD DUP2 JUMP JUMPDEST PUSH2 0x30B PUSH2 0x4A4 CALLDATASIZE PUSH1 0x4 PUSH2 0x2A7B JUMP JUMPDEST PUSH2 0x10D1 JUMP JUMPDEST PUSH2 0x30B PUSH2 0x4B7 CALLDATASIZE PUSH1 0x4 PUSH2 0x29BD JUMP JUMPDEST PUSH2 0x10E4 JUMP JUMPDEST PUSH2 0x3F8 PUSH2 0x110A JUMP JUMPDEST PUSH2 0x30B PUSH2 0x1770 DUP2 JUMP JUMPDEST PUSH1 0x4 SLOAD PUSH2 0x3D8 SWAP1 PUSH1 0x1 PUSH1 0x1 PUSH1 0xA0 SHL SUB AND DUP2 JUMP JUMPDEST PUSH2 0x3F8 PUSH2 0x4EE CALLDATASIZE PUSH1 0x4 PUSH2 0x2B46 JUMP JUMPDEST PUSH2 0x111B JUMP JUMPDEST PUSH2 0x3F8 PUSH2 0x13F9 JUMP JUMPDEST PUSH2 0x30B PUSH1 0x6 SLOAD DUP2 JUMP JUMPDEST PUSH2 0x3F8 PUSH2 0x1409 JUMP JUMPDEST PUSH2 0x3D8 PUSH2 0x1511 JUMP JUMPDEST PUSH2 0x30B PUSH2 0x522 CALLDATASIZE PUSH1 0x4 PUSH2 0x2A7B JUMP JUMPDEST PUSH2 0x1539 JUMP JUMPDEST PUSH2 0x326 PUSH2 0x154C JUMP JUMPDEST PUSH2 0x359 PUSH2 0x53D CALLDATASIZE PUSH1 0x4 PUSH2 0x2955 JUMP JUMPDEST PUSH2 0x158A JUMP JUMPDEST PUSH1 0x5 SLOAD PUSH2 0x3D8 SWAP1 PUSH1 0x1 PUSH1 0x1 PUSH1 0xA0 SHL SUB AND DUP2 JUMP JUMPDEST PUSH2 0x30B PUSH2 0x563 CALLDATASIZE PUSH1 0x4 PUSH2 0x291A JUMP JUMPDEST PUSH2 0x1597 JUMP JUMPDEST PUSH2 0x30B PUSH2 0x576 CALLDATASIZE PUSH1 0x4 PUSH2 0x2C1B JUMP JUMPDEST PUSH2 0x15A3 JUMP JUMPDEST PUSH2 0x30B PUSH2 0x589 CALLDATASIZE PUSH1 0x4 PUSH2 0x2C1B JUMP JUMPDEST PUSH2 0x15D7 JUMP JUMPDEST PUSH2 0x30B PUSH2 0xBB8 DUP2 JUMP JUMPDEST PUSH2 0x30B PUSH2 0x5A5 CALLDATASIZE PUSH1 0x4 PUSH2 0x291A JUMP JUMPDEST PUSH1 0x9 PUSH1 0x20 MSTORE PUSH0 SWAP1 DUP2 MSTORE PUSH1 0x40 SWAP1 KECCAK256 SLOAD DUP2 JUMP JUMPDEST PUSH2 0x30B PUSH2 0x5C4 CALLDATASIZE PUSH1 0x4 PUSH2 0x291A JUMP JUMPDEST PUSH2 0x15F3 JUMP JUMPDEST PUSH2 0x30B PUSH1 0x8 SLOAD DUP2 JUMP JUMPDEST PUSH2 0x30B PUSH2 0x5E0 CALLDATASIZE PUSH1 0x4 PUSH2 0x29BD JUMP JUMPDEST PUSH2 0x15FE JUMP JUMPDEST PUSH2 0x30B PUSH1 0x2 SLOAD DUP2 JUMP JUMPDEST PUSH2 0x30B PUSH2 0x3E8 DUP2 JUMP JUMPDEST PUSH2 0x30B PUSH2 0x605 CALLDATASIZE PUSH1 0x4 PUSH2 0x29BD JUMP JUMPDEST PUSH2 0x1611 JUMP JUMPDEST PUSH2 0x3F8 PUSH2 0x618 CALLDATASIZE PUSH1 0x4 PUSH2 0x291A JUMP JUMPDEST PUSH2 0x161B JUMP JUMPDEST PUSH2 0x30B PUSH2 0x62B CALLDATASIZE PUSH1 0x4 PUSH2 0x2C5A JUMP JUMPDEST PUSH2 0x16CB JUMP JUMPDEST PUSH2 0x3F8 PUSH2 0x63E CALLDATASIZE PUSH1 0x4 PUSH2 0x29BD JUMP JUMPDEST PUSH2 0x1714 JUMP JUMPDEST PUSH2 0x3F8 PUSH2 0x651 CALLDATASIZE PUSH1 0x4 PUSH2 0x29BD JUMP JUMPDEST PUSH2 0x178F JUMP JUMPDEST PUSH0 SLOAD PUSH2 0x3D8 SWAP1 PUSH1 0x1 PUSH1 0x1 PUSH1 0xA0 SHL SUB AND DUP2 JUMP JUMPDEST PUSH0 PUSH1 0x8 SLOAD PUSH1 0x2 SLOAD PUSH1 0x1 SLOAD PUSH2 0x67C SWAP2 SWAP1 PUSH2 0x2C9A JUMP JUMPDEST PUSH2 0x686 SWAP2 SWAP1 PUSH2 0x2C9A JUMP JUMPDEST SWAP1 POP SWAP1 JUMP JUMPDEST PUSH32 0x52C63247E1F47DB19D5CE0460030C497F067CA4CEBF71BA98EEADABE20BACE03 DUP1 SLOAD PUSH1 0x60 SWAP2 PUSH0 DUP1 MLOAD PUSH1 0x20 PUSH2 0x308C DUP4 CODECOPY DUP2 MLOAD SWAP2 MSTORE SWAP2 PUSH2 0x6C9 SWAP1 PUSH2 0x2CAD JUMP JUMPDEST DUP1 PUSH1 0x1F ADD PUSH1 0x20 DUP1 SWAP2 DIV MUL PUSH1 0x20 ADD PUSH1 0x40 MLOAD SWAP1 DUP2 ADD PUSH1 0x40 MSTORE DUP1 SWAP3 SWAP2 SWAP1 DUP2 DUP2 MSTORE PUSH1 0x20 ADD DUP3 DUP1 SLOAD PUSH2 0x6F5 SWAP1 PUSH2 0x2CAD JUMP JUMPDEST DUP1 ISZERO PUSH2 0x740 JUMPI DUP1 PUSH1 0x1F LT PUSH2 0x717 JUMPI PUSH2 0x100 DUP1 DUP4 SLOAD DIV MUL DUP4 MSTORE SWAP2 PUSH1 0x20 ADD SWAP2 PUSH2 0x740 JUMP JUMPDEST DUP3 ADD SWAP2 SWAP1 PUSH0 MSTORE PUSH1 0x20 PUSH0 KECCAK256 SWAP1 JUMPDEST DUP2 SLOAD DUP2 MSTORE SWAP1 PUSH1 0x1 ADD SWAP1 PUSH1 0x20 ADD DUP1 DUP4 GT PUSH2 0x723 JUMPI DUP3 SWAP1 SUB PUSH1 0x1F AND DUP3 ADD SWAP2 JUMPDEST POP POP POP POP POP SWAP2 POP POP SWAP1 JUMP JUMPDEST PUSH0 PUSH2 0x756 DUP3 PUSH0 PUSH2 0x17CC JUMP JUMPDEST SWAP3 SWAP2 POP POP JUMP JUMPDEST PUSH0 CALLER PUSH2 0x769 DUP2 DUP6 DUP6 PUSH2 0x1823 JUMP JUMPDEST POP PUSH1 0x1 SWAP4 SWAP3 POP POP POP JUMP JUMPDEST PUSH0 PUSH2 0x756 DUP3 PUSH1 0x1 PUSH2 0x1835 JUMP JUMPDEST PUSH0 CALLER PUSH2 0x78C DUP6 DUP3 DUP6 PUSH2 0x1883 JUMP JUMPDEST PUSH2 0x797 DUP6 DUP6 DUP6 PUSH2 0x18D3 JUMP JUMPDEST PUSH1 0x1 SWAP2 POP POP JUMPDEST SWAP4 SWAP3 POP POP POP JUMP JUMPDEST PUSH0 DUP1 PUSH0 DUP1 MLOAD PUSH1 0x20 PUSH2 0x30AC DUP4 CODECOPY DUP2 MLOAD SWAP2 MSTORE SWAP1 POP PUSH0 DUP2 SLOAD PUSH2 0x7CD SWAP2 SWAP1 PUSH1 0x1 PUSH1 0xA0 SHL SWAP1 DIV PUSH1 0xFF AND PUSH2 0x2CE5 JUMP JUMPDEST SWAP2 POP POP SWAP1 JUMP JUMPDEST PUSH0 DUP1 PUSH0 DUP1 MLOAD PUSH1 0x20 PUSH2 0x30AC DUP4 CODECOPY DUP2 MLOAD SWAP2 MSTORE JUMPDEST SLOAD PUSH1 0x1 PUSH1 0x1 PUSH1 0xA0 SHL SUB AND SWAP3 SWAP2 POP POP JUMP JUMPDEST PUSH2 0x7FC PUSH2 0x1930 JUMP JUMPDEST PUSH2 0x804 PUSH2 0x1962 JUMP JUMPDEST JUMP JUMPDEST PUSH2 0x80E PUSH2 0x1930 JUMP JUMPDEST PUSH1 0x1 PUSH1 0x1 PUSH1 0xA0 SHL SUB DUP2 AND PUSH2 0x864 JUMPI PUSH1 0x40 MLOAD PUSH3 0x461BCD PUSH1 0xE5 SHL DUP2 MSTORE PUSH1 0x20 PUSH1 0x4 DUP3 ADD MSTORE PUSH1 0x18 PUSH1 0x24 DUP3 ADD MSTORE PUSH24 0x42726965725661756C743A207A65726F2061646472657373 PUSH1 0x40 SHL PUSH1 0x44 DUP3 ADD MSTORE PUSH1 0x64 ADD JUMPDEST PUSH1 0x40 MLOAD DUP1 SWAP2 SUB SWAP1 REVERT JUMPDEST PUSH0 DUP1 SLOAD PUSH1 0x40 MLOAD PUSH1 0x1 PUSH1 0x1 PUSH1 0xA0 SHL SUB DUP1 DUP6 AND SWAP4 SWAP3 AND SWAP2 PUSH32 0x26F1333EB03795A71544EF03CD4BAC00A69DC4F0C136C970C379B353D23753DC SWAP2 LOG3 PUSH0 DUP1 SLOAD PUSH1 0x1 PUSH1 0x1 PUSH1 0xA0 SHL SUB NOT AND PUSH1 0x1 PUSH1 0x1 PUSH1 0xA0 SHL SUB SWAP3 SWAP1 SWAP3 AND SWAP2 SWAP1 SWAP2 OR SWAP1 SSTORE JUMP JUMPDEST PUSH2 0x8C5 PUSH2 0x1930 JUMP JUMPDEST PUSH0 DUP2 GT PUSH2 0x914 JUMPI PUSH1 0x40 MLOAD PUSH3 0x461BCD PUSH1 0xE5 SHL DUP2 MSTORE PUSH1 0x20 PUSH1 0x4 DUP3 ADD MSTORE PUSH1 0x19 PUSH1 0x24 DUP3 ADD MSTORE PUSH32 0x42726965725661756C743A207A65726F20636170616369747900000000000000 PUSH1 0x44 DUP3 ADD MSTORE PUSH1 0x64 ADD PUSH2 0x85B JUMP JUMPDEST PUSH1 0x3 DUP2 SWAP1 SSTORE PUSH1 0x40 MLOAD DUP2 DUP2 MSTORE PUSH32 0x8B8564868E5DB4AC945B0FD897338876DCC0C95A5F183B340F47285EBBCB6AF1 SWAP1 PUSH1 0x20 ADD JUMPDEST PUSH1 0x40 MLOAD DUP1 SWAP2 SUB SWAP1 LOG1 POP JUMP JUMPDEST PUSH0 SLOAD PUSH1 0x1 PUSH1 0x1 PUSH1 0xA0 SHL SUB AND CALLER EQ PUSH2 0x979 JUMPI PUSH1 0x40 MLOAD PUSH3 0x461BCD PUSH1 0xE5 SHL DUP2 MSTORE PUSH1 0x4 ADD PUSH2 0x85B SWAP1 PUSH2 0x2CFE JUMP JUMPDEST PUSH2 0x981 PUSH2 0x19BB JUMP JUMPDEST PUSH0 DUP3 DUP2 MSTORE PUSH1 0x9 PUSH1 0x20 MSTORE PUSH1 0x40 SWAP1 KECCAK256 SLOAD DUP1 PUSH2 0x9F3 JUMPI PUSH1 0x40 MLOAD PUSH3 0x461BCD PUSH1 0xE5 SHL DUP2 MSTORE PUSH1 0x20 PUSH1 0x4 DUP3 ADD MSTORE PUSH1 0x2E PUSH1 0x24 DUP3 ADD MSTORE PUSH32 0x42726965725661756C743A207472616465206E6F7420666F756E64206F722061 PUSH1 0x44 DUP3 ADD MSTORE PUSH14 0x1B1C9958591E481CD95D1D1B1959 PUSH1 0x92 SHL PUSH1 0x64 DUP3 ADD MSTORE PUSH1 0x84 ADD PUSH2 0x85B JUMP JUMPDEST PUSH0 PUSH2 0x9FC PUSH2 0x7D3 JUMP JUMPDEST PUSH1 0x40 MLOAD PUSH4 0x70A08231 PUSH1 0xE0 SHL DUP2 MSTORE ADDRESS PUSH1 0x4 DUP3 ADD MSTORE PUSH1 0x1 PUSH1 0x1 PUSH1 0xA0 SHL SUB SWAP2 SWAP1 SWAP2 AND SWAP1 PUSH4 0x70A08231 SWAP1 PUSH1 0x24 ADD PUSH1 0x20 PUSH1 0x40 MLOAD DUP1 DUP4 SUB DUP2 DUP7 GAS STATICCALL ISZERO DUP1 ISZERO PUSH2 0xA40 JUMPI RETURNDATASIZE PUSH0 DUP1 RETURNDATACOPY RETURNDATASIZE PUSH0 REVERT JUMPDEST POP POP POP POP PUSH1 0x40 MLOAD RETURNDATASIZE PUSH1 0x1F NOT PUSH1 0x1F DUP3 ADD AND DUP3 ADD DUP1 PUSH1 0x40 MSTORE POP DUP2 ADD SWAP1 PUSH2 0xA64 SWAP2 SWAP1 PUSH2 0x2D44 JUMP JUMPDEST SWAP1 POP DUP3 PUSH1 0x1 SLOAD PUSH2 0xA74 SWAP2 SWAP1 PUSH2 0x2C9A JUMP JUMPDEST DUP2 LT ISZERO PUSH2 0xAE9 JUMPI PUSH1 0x40 MLOAD PUSH3 0x461BCD PUSH1 0xE5 SHL DUP2 MSTORE PUSH1 0x20 PUSH1 0x4 DUP3 ADD MSTORE PUSH1 0x37 PUSH1 0x24 DUP3 ADD MSTORE PUSH32 0x42726965725661756C743A207061796F7574206E6F7420726563656976656420 PUSH1 0x44 DUP3 ADD MSTORE PUSH32 0x2D2072656465656D2066726F6D20435446206669727374000000000000000000 PUSH1 0x64 DUP3 ADD MSTORE PUSH1 0x84 ADD PUSH2 0x85B JUMP JUMPDEST PUSH0 DUP5 DUP2 MSTORE PUSH1 0x9 PUSH1 0x20 MSTORE PUSH1 0x40 DUP2 KECCAK256 DUP2 SWAP1 SSTORE PUSH1 0x2 DUP1 SLOAD DUP5 SWAP3 SWAP1 PUSH2 0xB0B SWAP1 DUP5 SWAP1 PUSH2 0x2D5B JUMP JUMPDEST SWAP1 SWAP2 SSTORE POP POP DUP2 DUP4 GT ISZERO PUSH2 0xC72 JUMPI PUSH0 PUSH2 0xB23 DUP4 DUP6 PUSH2 0x2D5B JUMP JUMPDEST SWAP1 POP PUSH0 PUSH2 0x2710 PUSH2 0xB35 PUSH2 0xBB8 DUP5 PUSH2 0x2D6E JUMP JUMPDEST PUSH2 0xB3F SWAP2 SWAP1 PUSH2 0x2D99 JUMP JUMPDEST SWAP1 POP PUSH0 PUSH2 0x2710 PUSH2 0xB51 PUSH2 0x3E8 DUP6 PUSH2 0x2D6E JUMP JUMPDEST PUSH2 0xB5B SWAP2 SWAP1 PUSH2 0x2D99 JUMP JUMPDEST SWAP1 POP PUSH0 DUP2 PUSH2 0xB69 DUP5 DUP7 PUSH2 0x2D5B JUMP JUMPDEST PUSH2 0xB73 SWAP2 SWAP1 PUSH2 0x2D5B JUMP JUMPDEST SWAP1 POP DUP4 PUSH1 0x6 PUSH0 DUP3 DUP3 SLOAD PUSH2 0xB86 SWAP2 SWAP1 PUSH2 0x2C9A JUMP JUMPDEST SWAP1 SWAP2 SSTORE POP PUSH2 0xB96 SWAP1 POP DUP2 DUP8 PUSH2 0x2C9A JUMP JUMPDEST PUSH1 0x1 PUSH0 DUP3 DUP3 SLOAD PUSH2 0xBA6 SWAP2 SWAP1 PUSH2 0x2C9A JUMP JUMPDEST SWAP1 SWAP2 SSTORE POP POP PUSH1 0x5 SLOAD PUSH2 0xBD4 SWAP1 PUSH1 0x1 PUSH1 0x1 PUSH1 0xA0 SHL SUB AND DUP5 PUSH2 0xBC4 PUSH2 0x7D3 JUMP JUMPDEST PUSH1 0x1 PUSH1 0x1 PUSH1 0xA0 SHL SUB AND SWAP2 SWAP1 PUSH2 0x19F2 JUMP JUMPDEST PUSH1 0x7 SLOAD PUSH2 0xBED SWAP1 PUSH1 0x1 PUSH1 0x1 PUSH1 0xA0 SHL SUB AND DUP4 PUSH2 0xBC4 PUSH2 0x7D3 JUMP JUMPDEST PUSH1 0x40 DUP1 MLOAD DUP5 DUP2 MSTORE PUSH1 0x20 DUP2 ADD DUP5 SWAP1 MSTORE SWAP1 DUP2 ADD DUP3 SWAP1 MSTORE PUSH32 0x312C5308F42848705A866C73DEC11FD0783C2D64AAC6A97E94467062AD3F4058 SWAP1 PUSH1 0x60 ADD PUSH1 0x40 MLOAD DUP1 SWAP2 SUB SWAP1 LOG1 PUSH1 0x40 DUP1 MLOAD DUP9 DUP2 MSTORE PUSH1 0x1 PUSH1 0x20 DUP3 ADD MSTORE DUP10 SWAP2 PUSH32 0xB838176051AAAD97F6FF91AA3A56C75219B4E7D94038A0BFB4BDE3527F52DFB0 SWAP2 ADD PUSH1 0x40 MLOAD DUP1 SWAP2 SUB SWAP1 LOG2 POP POP POP POP PUSH2 0xCC3 JUMP JUMPDEST DUP3 PUSH1 0x1 PUSH0 DUP3 DUP3 SLOAD PUSH2 0xC83 SWAP2 SWAP1 PUSH2 0x2C9A JUMP JUMPDEST SWAP1 SWAP2 SSTORE POP POP PUSH1 0x40 DUP1 MLOAD DUP5 DUP2 MSTORE PUSH0 PUSH1 0x20 DUP3 ADD MSTORE DUP6 SWAP2 PUSH32 0xB838176051AAAD97F6FF91AA3A56C75219B4E7D94038A0BFB4BDE3527F52DFB0 SWAP2 ADD PUSH1 0x40 MLOAD DUP1 SWAP2 SUB SWAP1 LOG2 JUMPDEST POP POP PUSH2 0xCDB PUSH1 0x1 PUSH0 DUP1 MLOAD PUSH1 0x20 PUSH2 0x30EC DUP4 CODECOPY DUP2 MLOAD SWAP2 MSTORE SSTORE JUMP JUMPDEST POP POP JUMP JUMPDEST PUSH0 SLOAD PUSH1 0x1 PUSH1 0x1 PUSH1 0xA0 SHL SUB AND CALLER EQ PUSH2 0xD08 JUMPI PUSH1 0x40 MLOAD PUSH3 0x461BCD PUSH1 0xE5 SHL DUP2 MSTORE PUSH1 0x4 ADD PUSH2 0x85B SWAP1 PUSH2 0x2CFE JUMP JUMPDEST PUSH2 0xD10 PUSH2 0x1A64 JUMP JUMPDEST PUSH2 0xD18 PUSH2 0x19BB JUMP JUMPDEST PUSH0 DUP2 GT PUSH2 0xD67 JUMPI PUSH1 0x40 MLOAD PUSH3 0x461BCD PUSH1 0xE5 SHL DUP2 MSTORE PUSH1 0x20 PUSH1 0x4 DUP3 ADD MSTORE PUSH1 0x1E PUSH1 0x24 DUP3 ADD MSTORE PUSH32 0x42726965725661756C743A20616D6F756E74206D757374206265203E20300000 PUSH1 0x44 DUP3 ADD MSTORE PUSH1 0x64 ADD PUSH2 0x85B JUMP JUMPDEST PUSH1 0x1 SLOAD DUP2 GT ISZERO PUSH2 0xDC7 JUMPI PUSH1 0x40 MLOAD PUSH3 0x461BCD PUSH1 0xE5 SHL DUP2 MSTORE PUSH1 0x20 PUSH1 0x4 DUP3 ADD MSTORE PUSH1 0x25 PUSH1 0x24 DUP3 ADD MSTORE PUSH32 0x42726965725661756C743A20696E73756666696369656E742069646C65206361 PUSH1 0x44 DUP3 ADD MSTORE PUSH5 0x1C1A5D185B PUSH1 0xDA SHL PUSH1 0x64 DUP3 ADD MSTORE PUSH1 0x84 ADD PUSH2 0x85B JUMP JUMPDEST PUSH0 DUP6 DUP2 MSTORE PUSH1 0x9 PUSH1 0x20 MSTORE PUSH1 0x40 SWAP1 KECCAK256 SLOAD ISZERO PUSH2 0xE2D JUMPI PUSH1 0x40 MLOAD PUSH3 0x461BCD PUSH1 0xE5 SHL DUP2 MSTORE PUSH1 0x20 PUSH1 0x4 DUP3 ADD MSTORE PUSH1 0x22 PUSH1 0x24 DUP3 ADD MSTORE PUSH32 0x42726965725661756C743A207472616465496420616C72656164792061637469 PUSH1 0x44 DUP3 ADD MSTORE PUSH2 0x7665 PUSH1 0xF0 SHL PUSH1 0x64 DUP3 ADD MSTORE PUSH1 0x84 ADD PUSH2 0x85B JUMP JUMPDEST PUSH1 0x64 PUSH2 0xE37 PUSH2 0x668 JUMP JUMPDEST PUSH2 0xE42 SWAP1 PUSH1 0x14 PUSH2 0x2D6E JUMP JUMPDEST PUSH2 0xE4C SWAP2 SWAP1 PUSH2 0x2D99 JUMP JUMPDEST DUP2 GT ISZERO PUSH2 0xEA7 JUMPI PUSH1 0x40 MLOAD PUSH3 0x461BCD PUSH1 0xE5 SHL DUP2 MSTORE PUSH1 0x20 PUSH1 0x4 DUP3 ADD MSTORE PUSH1 0x23 PUSH1 0x24 DUP3 ADD MSTORE PUSH32 0x42726965725661756C743A206578636565647320323025207472616465206C69 PUSH1 0x44 DUP3 ADD MSTORE PUSH3 0x1B5A5D PUSH1 0xEA SHL PUSH1 0x64 DUP3 ADD MSTORE PUSH1 0x84 ADD PUSH2 0x85B JUMP JUMPDEST DUP1 PUSH1 0x1 PUSH0 DUP3 DUP3 SLOAD PUSH2 0xEB8 SWAP2 SWAP1 PUSH2 0x2D5B JUMP JUMPDEST SWAP3 POP POP DUP2 SWAP1 SSTORE POP DUP1 PUSH1 0x2 PUSH0 DUP3 DUP3 SLOAD PUSH2 0xED0 SWAP2 SWAP1 PUSH2 0x2C9A JUMP JUMPDEST SWAP1 SWAP2 SSTORE POP POP PUSH0 DUP6 DUP2 MSTORE PUSH1 0x9 PUSH1 0x20 MSTORE PUSH1 0x40 SWAP1 KECCAK256 DUP2 SWAP1 SSTORE PUSH1 0x4 SLOAD PUSH2 0xF0E SWAP1 PUSH1 0x1 PUSH1 0x1 PUSH1 0xA0 SHL SUB AND DUP3 PUSH2 0xEFE PUSH2 0x7D3 JUMP JUMPDEST PUSH1 0x1 PUSH1 0x1 PUSH1 0xA0 SHL SUB AND SWAP2 SWAP1 PUSH2 0x1A94 JUMP JUMPDEST PUSH1 0x4 SLOAD PUSH0 SWAP1 PUSH1 0x1 PUSH1 0x1 PUSH1 0xA0 SHL SUB AND PUSH2 0xF24 PUSH2 0x7D3 JUMP JUMPDEST PUSH1 0x40 MLOAD PUSH2 0xF3E SWAP2 SWAP1 PUSH0 SWAP1 DUP10 SWAP1 DUP10 SWAP1 DUP10 SWAP1 DUP10 SWAP1 PUSH1 0x24 ADD PUSH2 0x2DAC JUMP JUMPDEST PUSH1 0x40 DUP1 MLOAD PUSH1 0x1F NOT DUP2 DUP5 SUB ADD DUP2 MSTORE SWAP2 DUP2 MSTORE PUSH1 0x20 DUP3 ADD DUP1 MLOAD PUSH1 0x1 PUSH1 0x1 PUSH1 0xE0 SHL SUB AND PUSH4 0x72CE4275 PUSH1 0xE0 SHL OR SWAP1 MSTORE MLOAD PUSH2 0xF73 SWAP2 SWAP1 PUSH2 0x2E09 JUMP JUMPDEST PUSH0 PUSH1 0x40 MLOAD DUP1 DUP4 SUB DUP2 PUSH0 DUP7 GAS CALL SWAP2 POP POP RETURNDATASIZE DUP1 PUSH0 DUP2 EQ PUSH2 0xFAC JUMPI PUSH1 0x40 MLOAD SWAP2 POP PUSH1 0x1F NOT PUSH1 0x3F RETURNDATASIZE ADD AND DUP3 ADD PUSH1 0x40 MSTORE RETURNDATASIZE DUP3 MSTORE RETURNDATASIZE PUSH0 PUSH1 0x20 DUP5 ADD RETURNDATACOPY PUSH2 0xFB1 JUMP JUMPDEST PUSH1 0x60 SWAP2 POP JUMPDEST POP POP SWAP1 POP DUP1 PUSH2 0x1078 JUMPI PUSH1 0x4 SLOAD PUSH2 0xFE3 SWAP1 PUSH1 0x1 PUSH1 0x1 PUSH1 0xA0 SHL SUB AND DUP4 PUSH2 0xFD3 PUSH2 0x7D3 JUMP JUMPDEST PUSH1 0x1 PUSH1 0x1 PUSH1 0xA0 SHL SUB AND SWAP2 SWAP1 PUSH2 0x1B1B JUMP JUMPDEST DUP2 PUSH1 0x1 PUSH0 DUP3 DUP3 SLOAD PUSH2 0xFF4 SWAP2 SWAP1 PUSH2 0x2C9A JUMP JUMPDEST SWAP3 POP POP DUP2 SWAP1 SSTORE POP DUP2 PUSH1 0x2 PUSH0 DUP3 DUP3 SLOAD PUSH2 0x100C SWAP2 SWAP1 PUSH2 0x2D5B JUMP JUMPDEST SWAP1 SWAP2 SSTORE POP POP PUSH0 DUP7 DUP2 MSTORE PUSH1 0x9 PUSH1 0x20 MSTORE PUSH1 0x40 DUP1 DUP3 KECCAK256 SWAP2 SWAP1 SWAP2 SSTORE MLOAD PUSH3 0x461BCD PUSH1 0xE5 SHL DUP2 MSTORE PUSH2 0x85B SWAP1 PUSH1 0x4 ADD PUSH1 0x20 DUP1 DUP3 MSTORE PUSH1 0x24 SWAP1 DUP3 ADD MSTORE PUSH32 0x42726965725661756C743A204354462073706C6974506F736974696F6E206661 PUSH1 0x40 DUP3 ADD MSTORE PUSH4 0x1A5B1959 PUSH1 0xE2 SHL PUSH1 0x60 DUP3 ADD MSTORE PUSH1 0x80 ADD SWAP1 JUMP JUMPDEST DUP5 DUP7 PUSH32 0x46B5C28A0EFD2884FDC09E7246B9C9251B6429EB7FD2F84E7A704419276468F DUP5 PUSH1 0x40 MLOAD PUSH2 0x10AB SWAP2 DUP2 MSTORE PUSH1 0x20 ADD SWAP1 JUMP JUMPDEST PUSH1 0x40 MLOAD DUP1 SWAP2 SUB SWAP1 LOG3 POP PUSH2 0x10CA PUSH1 0x1 PUSH0 DUP1 MLOAD PUSH1 0x20 PUSH2 0x30EC DUP4 CODECOPY DUP2 MLOAD SWAP2 MSTORE SSTORE JUMP JUMPDEST POP POP POP POP POP JUMP JUMPDEST PUSH0 PUSH2 0x10DA PUSH2 0x1A64 JUMP JUMPDEST PUSH2 0x79D DUP4 DUP4 PUSH2 0x1BC2 JUMP JUMPDEST PUSH1 0x1 PUSH1 0x1 PUSH1 0xA0 SHL SUB AND PUSH0 SWAP1 DUP2 MSTORE PUSH0 DUP1 MLOAD PUSH1 0x20 PUSH2 0x308C DUP4 CODECOPY DUP2 MLOAD SWAP2 MSTORE PUSH1 0x20 MSTORE PUSH1 0x40 SWAP1 KECCAK256 SLOAD SWAP1 JUMP JUMPDEST PUSH2 0x1112 PUSH2 0x1930 JUMP JUMPDEST PUSH2 0x804 PUSH0 PUSH2 0x1BE5 JUMP JUMPDEST PUSH32 0xF0C57E16840DF040F15088DC2F81FE391C3923BEC73E23A9662EFC9C229C6A00 DUP1 SLOAD PUSH1 0x1 PUSH1 0x40 SHL DUP2 DIV PUSH1 0xFF AND ISZERO SWAP1 PUSH8 0xFFFFFFFFFFFFFFFF AND PUSH0 DUP2 ISZERO DUP1 ISZERO PUSH2 0x1160 JUMPI POP DUP3 JUMPDEST SWAP1 POP PUSH0 DUP3 PUSH8 0xFFFFFFFFFFFFFFFF AND PUSH1 0x1 EQ DUP1 ISZERO PUSH2 0x117C JUMPI POP ADDRESS EXTCODESIZE ISZERO JUMPDEST SWAP1 POP DUP2 ISZERO DUP1 ISZERO PUSH2 0x118A JUMPI POP DUP1 ISZERO JUMPDEST ISZERO PUSH2 0x11A8 JUMPI PUSH1 0x40 MLOAD PUSH4 0xF92EE8A9 PUSH1 0xE0 SHL DUP2 MSTORE PUSH1 0x4 ADD PUSH1 0x40 MLOAD DUP1 SWAP2 SUB SWAP1 REVERT JUMPDEST DUP5 SLOAD PUSH8 0xFFFFFFFFFFFFFFFF NOT AND PUSH1 0x1 OR DUP6 SSTORE DUP4 ISZERO PUSH2 0x11D2 JUMPI DUP5 SLOAD PUSH1 0xFF PUSH1 0x40 SHL NOT AND PUSH1 0x1 PUSH1 0x40 SHL OR DUP6 SSTORE JUMPDEST PUSH1 0x1 PUSH1 0x1 PUSH1 0xA0 SHL SUB DUP13 AND PUSH2 0x1228 JUMPI PUSH1 0x40 MLOAD PUSH3 0x461BCD PUSH1 0xE5 SHL DUP2 MSTORE PUSH1 0x20 PUSH1 0x4 DUP3 ADD MSTORE PUSH1 0x1F PUSH1 0x24 DUP3 ADD MSTORE PUSH32 0x42726965725661756C743A207A65726F206461656D6F6E206164647265737300 PUSH1 0x44 DUP3 ADD MSTORE PUSH1 0x64 ADD PUSH2 0x85B JUMP JUMPDEST PUSH1 0x1 PUSH1 0x1 PUSH1 0xA0 SHL SUB DUP12 AND PUSH2 0x127E JUMPI PUSH1 0x40 MLOAD PUSH3 0x461BCD PUSH1 0xE5 SHL DUP2 MSTORE PUSH1 0x20 PUSH1 0x4 DUP3 ADD DUP2 SWAP1 MSTORE PUSH1 0x24 DUP3 ADD MSTORE PUSH32 0x42726965725661756C743A207A65726F206275696C6465722061646472657373 PUSH1 0x44 DUP3 ADD MSTORE PUSH1 0x64 ADD PUSH2 0x85B JUMP JUMPDEST PUSH1 0x1 PUSH1 0x1 PUSH1 0xA0 SHL SUB DUP9 AND PUSH2 0x12D4 JUMPI PUSH1 0x40 MLOAD PUSH3 0x461BCD PUSH1 0xE5 SHL DUP2 MSTORE PUSH1 0x20 PUSH1 0x4 DUP3 ADD MSTORE PUSH1 0x1E PUSH1 0x24 DUP3 ADD MSTORE PUSH32 0x42726965725661756C743A207A65726F2066656520726563697069656E740000 PUSH1 0x44 DUP3 ADD MSTORE PUSH1 0x64 ADD PUSH2 0x85B JUMP JUMPDEST PUSH0 DUP8 GT PUSH2 0x1323 JUMPI PUSH1 0x40 MLOAD PUSH3 0x461BCD PUSH1 0xE5 SHL DUP2 MSTORE PUSH1 0x20 PUSH1 0x4 DUP3 ADD MSTORE PUSH1 0x1D PUSH1 0x24 DUP3 ADD MSTORE PUSH32 0x42726965725661756C743A207A65726F206D6178206361706163697479000000 PUSH1 0x44 DUP3 ADD MSTORE PUSH1 0x64 ADD PUSH2 0x85B JUMP JUMPDEST PUSH2 0x132C DUP16 PUSH2 0x1C55 JUMP JUMPDEST PUSH2 0x1336 DUP15 DUP15 PUSH2 0x1C66 JUMP JUMPDEST PUSH2 0x133F DUP10 PUSH2 0x1C78 JUMP JUMPDEST PUSH2 0x1347 PUSH2 0x1C89 JUMP JUMPDEST PUSH2 0x134F PUSH2 0x1C99 JUMP JUMPDEST PUSH0 DUP1 SLOAD PUSH1 0x1 PUSH1 0x1 PUSH1 0xA0 SHL SUB DUP1 DUP16 AND PUSH1 0x1 PUSH1 0x1 PUSH1 0xA0 SHL SUB NOT SWAP3 DUP4 AND OR SWAP1 SWAP3 SSTORE PUSH1 0x5 DUP1 SLOAD DUP15 DUP5 AND SWAP1 DUP4 AND OR SWAP1 SSTORE PUSH1 0x4 DUP1 SLOAD DUP14 DUP5 AND SWAP1 DUP4 AND OR SWAP1 SSTORE PUSH1 0x7 DUP1 SLOAD SWAP3 DUP12 AND SWAP3 SWAP1 SWAP2 AND SWAP2 SWAP1 SWAP2 OR SWAP1 SSTORE PUSH1 0x3 DUP8 SWAP1 SSTORE PUSH1 0x8 DUP7 SWAP1 SSTORE DUP4 ISZERO PUSH2 0x13E8 JUMPI DUP5 SLOAD PUSH1 0xFF PUSH1 0x40 SHL NOT AND DUP6 SSTORE PUSH1 0x40 MLOAD PUSH1 0x1 DUP2 MSTORE PUSH32 0xC7F505B2F371AE2175EE4913F4499E1F2633A7B5936321EED1CDAEB6115181D2 SWAP1 PUSH1 0x20 ADD PUSH1 0x40 MLOAD DUP1 SWAP2 SUB SWAP1 LOG1 JUMPDEST POP POP POP POP POP POP POP POP POP POP POP POP POP POP POP JUMP JUMPDEST PUSH2 0x1401 PUSH2 0x1930 JUMP JUMPDEST PUSH2 0x804 PUSH2 0x1CA9 JUMP JUMPDEST PUSH0 SLOAD PUSH1 0x1 PUSH1 0x1 PUSH1 0xA0 SHL SUB AND CALLER EQ PUSH2 0x1432 JUMPI PUSH1 0x40 MLOAD PUSH3 0x461BCD PUSH1 0xE5 SHL DUP2 MSTORE PUSH1 0x4 ADD PUSH2 0x85B SWAP1 PUSH2 0x2CFE JUMP JUMPDEST PUSH2 0x143A PUSH2 0x19BB JUMP JUMPDEST PUSH0 PUSH1 0x8 SLOAD GT PUSH2 0x149D JUMPI PUSH1 0x40 MLOAD PUSH3 0x461BCD PUSH1 0xE5 SHL DUP2 MSTORE PUSH1 0x20 PUSH1 0x4 DUP3 ADD MSTORE PUSH1 0x29 PUSH1 0x24 DUP3 ADD MSTORE PUSH32 0x42726965725661756C743A204E6F20736B696E20696E2067616D65206C656674 PUSH1 0x44 DUP3 ADD MSTORE PUSH9 0x40E8DE40E6D8C2E6D PUSH1 0xBB SHL PUSH1 0x64 DUP3 ADD MSTORE PUSH1 0x84 ADD PUSH2 0x85B JUMP JUMPDEST PUSH1 0x8 DUP1 SLOAD PUSH0 SWAP2 DUP3 SWAP1 SSTORE PUSH1 0x1 DUP1 SLOAD SWAP2 SWAP3 DUP4 SWAP3 PUSH2 0x14B9 SWAP1 DUP5 SWAP1 PUSH2 0x2C9A JUMP JUMPDEST SWAP1 SWAP2 SSTORE POP PUSH2 0x14C7 SWAP1 POP PUSH2 0x1CA9 JUMP JUMPDEST PUSH1 0x40 MLOAD DUP2 DUP2 MSTORE PUSH32 0xB93E15598C0191B5E8AD4033B4BFB998A7C8BA85D6B77F9DCE086455BD2E8E22 SWAP1 PUSH1 0x20 ADD PUSH1 0x40 MLOAD DUP1 SWAP2 SUB SWAP1 LOG1 POP PUSH2 0x804 PUSH1 0x1 PUSH0 DUP1 MLOAD PUSH1 0x20 PUSH2 0x30EC DUP4 CODECOPY DUP2 MLOAD SWAP2 MSTORE SSTORE JUMP JUMPDEST PUSH0 DUP1 PUSH32 0x9016D09D72D40FDAE2FD8CEAC6B6234C7706214FD39C1CD1E609A0528C199300 PUSH2 0x7E4 JUMP JUMPDEST PUSH0 PUSH2 0x1542 PUSH2 0x1A64 JUMP JUMPDEST PUSH2 0x79D DUP4 DUP4 PUSH2 0x1CF1 JUMP JUMPDEST PUSH32 0x52C63247E1F47DB19D5CE0460030C497F067CA4CEBF71BA98EEADABE20BACE04 DUP1 SLOAD PUSH1 0x60 SWAP2 PUSH0 DUP1 MLOAD PUSH1 0x20 PUSH2 0x308C DUP4 CODECOPY DUP2 MLOAD SWAP2 MSTORE SWAP2 PUSH2 0x6C9 SWAP1 PUSH2 0x2CAD JUMP JUMPDEST PUSH0 CALLER PUSH2 0x769 DUP2 DUP6 DUP6 PUSH2 0x18D3 JUMP JUMPDEST PUSH0 PUSH2 0x756 DUP3 PUSH1 0x1 PUSH2 0x17CC JUMP JUMPDEST PUSH0 PUSH2 0x15AC PUSH2 0x1A64 JUMP JUMPDEST PUSH2 0x15B4 PUSH2 0x19BB JUMP JUMPDEST PUSH2 0x15BF DUP5 DUP5 DUP5 PUSH2 0x1D0C JUMP JUMPDEST SWAP1 POP PUSH2 0x79D PUSH1 0x1 PUSH0 DUP1 MLOAD PUSH1 0x20 PUSH2 0x30EC DUP4 CODECOPY DUP2 MLOAD SWAP2 MSTORE SSTORE JUMP JUMPDEST PUSH0 PUSH2 0x15E0 PUSH2 0x1A64 JUMP JUMPDEST PUSH2 0x15E8 PUSH2 0x19BB JUMP JUMPDEST PUSH2 0x15BF DUP5 DUP5 DUP5 PUSH2 0x1D62 JUMP JUMPDEST PUSH0 PUSH2 0x756 DUP3 PUSH0 PUSH2 0x1835 JUMP JUMPDEST PUSH0 PUSH2 0x756 PUSH2 0x160B DUP4 PUSH2 0x10E4 JUMP JUMPDEST PUSH0 PUSH2 0x17CC JUMP JUMPDEST PUSH0 PUSH2 0x756 DUP3 PUSH2 0x10E4 JUMP JUMPDEST PUSH0 SLOAD PUSH1 0x1 PUSH1 0x1 PUSH1 0xA0 SHL SUB AND CALLER EQ PUSH2 0x1644 JUMPI PUSH1 0x40 MLOAD PUSH3 0x461BCD PUSH1 0xE5 SHL DUP2 MSTORE PUSH1 0x4 ADD PUSH2 0x85B SWAP1 PUSH2 0x2CFE JUMP JUMPDEST PUSH0 DUP2 DUP2 MSTORE PUSH1 0x9 PUSH1 0x20 MSTORE PUSH1 0x40 SWAP1 KECCAK256 SLOAD PUSH2 0x169E JUMPI PUSH1 0x40 MLOAD PUSH3 0x461BCD PUSH1 0xE5 SHL DUP2 MSTORE PUSH1 0x20 PUSH1 0x4 DUP3 ADD MSTORE PUSH1 0x1C PUSH1 0x24 DUP3 ADD MSTORE PUSH32 0x42726965725661756C743A207472616465206E6F742061637469766500000000 PUSH1 0x44 DUP3 ADD MSTORE PUSH1 0x64 ADD PUSH2 0x85B JUMP JUMPDEST PUSH1 0x40 MLOAD DUP2 SWAP1 PUSH32 0x7B1D12F6854DA251C168931AA977E79340EFD6470C55FB00DBE8E921CA3FB769 SWAP1 PUSH0 SWAP1 LOG2 POP JUMP JUMPDEST PUSH1 0x1 PUSH1 0x1 PUSH1 0xA0 SHL SUB SWAP2 DUP3 AND PUSH0 SWAP1 DUP2 MSTORE PUSH32 0x52C63247E1F47DB19D5CE0460030C497F067CA4CEBF71BA98EEADABE20BACE01 PUSH1 0x20 SWAP1 DUP2 MSTORE PUSH1 0x40 DUP1 DUP4 KECCAK256 SWAP4 SWAP1 SWAP5 AND DUP3 MSTORE SWAP2 SWAP1 SWAP2 MSTORE KECCAK256 SLOAD SWAP1 JUMP JUMPDEST PUSH2 0x171C PUSH2 0x1930 JUMP JUMPDEST PUSH1 0x1 PUSH1 0x1 PUSH1 0xA0 SHL SUB DUP2 AND PUSH2 0x176D JUMPI PUSH1 0x40 MLOAD PUSH3 0x461BCD PUSH1 0xE5 SHL DUP2 MSTORE PUSH1 0x20 PUSH1 0x4 DUP3 ADD MSTORE PUSH1 0x18 PUSH1 0x24 DUP3 ADD MSTORE PUSH24 0x42726965725661756C743A207A65726F2061646472657373 PUSH1 0x40 SHL PUSH1 0x44 DUP3 ADD MSTORE PUSH1 0x64 ADD PUSH2 0x85B JUMP JUMPDEST PUSH1 0x7 DUP1 SLOAD PUSH1 0x1 PUSH1 0x1 PUSH1 0xA0 SHL SUB NOT AND PUSH1 0x1 PUSH1 0x1 PUSH1 0xA0 SHL SUB SWAP3 SWAP1 SWAP3 AND SWAP2 SWAP1 SWAP2 OR SWAP1 SSTORE JUMP JUMPDEST PUSH2 0x1797 PUSH2 0x1930 JUMP JUMPDEST PUSH1 0x1 PUSH1 0x1 PUSH1 0xA0 SHL SUB DUP2 AND PUSH2 0x17C0 JUMPI PUSH1 0x40 MLOAD PUSH4 0x1E4FBDF7 PUSH1 0xE0 SHL DUP2 MSTORE PUSH0 PUSH1 0x4 DUP3 ADD MSTORE PUSH1 0x24 ADD PUSH2 0x85B JUMP JUMPDEST PUSH2 0x17C9 DUP2 PUSH2 0x1BE5 JUMP JUMPDEST POP JUMP JUMPDEST PUSH0 PUSH2 0x79D PUSH2 0x17D8 PUSH2 0x668 JUMP JUMPDEST PUSH2 0x17E3 SWAP1 PUSH1 0x1 PUSH2 0x2C9A JUMP JUMPDEST PUSH2 0x17EE PUSH0 PUSH1 0xA PUSH2 0x2F04 JUMP JUMPDEST PUSH32 0x52C63247E1F47DB19D5CE0460030C497F067CA4CEBF71BA98EEADABE20BACE02 SLOAD PUSH2 0x181A SWAP2 SWAP1 PUSH2 0x2C9A JUMP JUMPDEST DUP6 SWAP2 SWAP1 DUP6 PUSH2 0x1DAF JUMP JUMPDEST PUSH2 0x1830 DUP4 DUP4 DUP4 PUSH1 0x1 PUSH2 0x1DFC JUMP JUMPDEST POP POP POP JUMP JUMPDEST PUSH0 PUSH2 0x79D PUSH2 0x1844 DUP3 PUSH1 0xA PUSH2 0x2F04 JUMP JUMPDEST PUSH32 0x52C63247E1F47DB19D5CE0460030C497F067CA4CEBF71BA98EEADABE20BACE02 SLOAD PUSH2 0x1870 SWAP2 SWAP1 PUSH2 0x2C9A JUMP JUMPDEST PUSH2 0x1878 PUSH2 0x668 JUMP JUMPDEST PUSH2 0x181A SWAP1 PUSH1 0x1 PUSH2 0x2C9A JUMP JUMPDEST PUSH0 PUSH2 0x188E DUP5 DUP5 PUSH2 0x16CB JUMP JUMPDEST SWAP1 POP PUSH0 NOT DUP2 EQ PUSH2 0x18CD JUMPI DUP2 DUP2 LT ISZERO PUSH2 0x18BF JUMPI DUP3 DUP2 DUP4 PUSH1 0x40 MLOAD PUSH4 0x7DC7A0D9 PUSH1 0xE1 SHL DUP2 MSTORE PUSH1 0x4 ADD PUSH2 0x85B SWAP4 SWAP3 SWAP2 SWAP1 PUSH2 0x2F12 JUMP JUMPDEST PUSH2 0x18CD DUP5 DUP5 DUP5 DUP5 SUB PUSH0 PUSH2 0x1DFC JUMP JUMPDEST POP POP POP POP JUMP JUMPDEST PUSH1 0x1 PUSH1 0x1 PUSH1 0xA0 SHL SUB DUP4 AND PUSH2 0x18FC JUMPI PUSH1 0x40 MLOAD PUSH4 0x4B637E8F PUSH1 0xE1 SHL DUP2 MSTORE PUSH0 PUSH1 0x4 DUP3 ADD MSTORE PUSH1 0x24 ADD PUSH2 0x85B JUMP JUMPDEST PUSH1 0x1 PUSH1 0x1 PUSH1 0xA0 SHL SUB DUP3 AND PUSH2 0x1925 JUMPI PUSH1 0x40 MLOAD PUSH4 0xEC442F05 PUSH1 0xE0 SHL DUP2 MSTORE PUSH0 PUSH1 0x4 DUP3 ADD MSTORE PUSH1 0x24 ADD PUSH2 0x85B JUMP JUMPDEST PUSH2 0x1830 DUP4 DUP4 DUP4 PUSH2 0x1EDF JUMP JUMPDEST CALLER PUSH2 0x1939 PUSH2 0x1511 JUMP JUMPDEST PUSH1 0x1 PUSH1 0x1 PUSH1 0xA0 SHL SUB AND EQ PUSH2 0x804 JUMPI PUSH1 0x40 MLOAD PUSH4 0x118CDAA7 PUSH1 0xE0 SHL DUP2 MSTORE CALLER PUSH1 0x4 DUP3 ADD MSTORE PUSH1 0x24 ADD PUSH2 0x85B JUMP JUMPDEST PUSH2 0x196A PUSH2 0x2005 JUMP JUMPDEST PUSH0 DUP1 MLOAD PUSH1 0x20 PUSH2 0x30CC DUP4 CODECOPY DUP2 MLOAD SWAP2 MSTORE DUP1 SLOAD PUSH1 0xFF NOT AND DUP2 SSTORE PUSH32 0x5DB9EE0A495BF2E6FF9C91A7834C1BA4FDD244A5E8AA4E537BD38AEAE4B073AA CALLER JUMPDEST PUSH1 0x40 MLOAD PUSH1 0x1 PUSH1 0x1 PUSH1 0xA0 SHL SUB SWAP1 SWAP2 AND DUP2 MSTORE PUSH1 0x20 ADD PUSH2 0x945 JUMP JUMPDEST PUSH0 DUP1 MLOAD PUSH1 0x20 PUSH2 0x30EC DUP4 CODECOPY DUP2 MLOAD SWAP2 MSTORE DUP1 SLOAD PUSH1 0x1 NOT ADD PUSH2 0x19EC JUMPI PUSH1 0x40 MLOAD PUSH4 0x3EE5AEB5 PUSH1 0xE0 SHL DUP2 MSTORE PUSH1 0x4 ADD PUSH1 0x40 MLOAD DUP1 SWAP2 SUB SWAP1 REVERT JUMPDEST PUSH1 0x2 SWAP1 SSTORE JUMP JUMPDEST PUSH1 0x40 MLOAD PUSH1 0x1 PUSH1 0x1 PUSH1 0xA0 SHL SUB DUP4 DUP2 AND PUSH1 0x24 DUP4 ADD MSTORE PUSH1 0x44 DUP3 ADD DUP4 SWAP1 MSTORE PUSH2 0x1830 SWAP2 DUP6 SWAP2 DUP3 AND SWAP1 PUSH4 0xA9059CBB SWAP1 PUSH1 0x64 ADD JUMPDEST PUSH1 0x40 MLOAD PUSH1 0x20 DUP2 DUP4 SUB SUB DUP2 MSTORE SWAP1 PUSH1 0x40 MSTORE SWAP2 POP PUSH1 0xE0 SHL PUSH1 0x20 DUP3 ADD DUP1 MLOAD PUSH1 0x1 PUSH1 0x1 PUSH1 0xE0 SHL SUB DUP4 DUP2 DUP4 AND OR DUP4 MSTORE POP POP POP POP PUSH2 0x2034 JUMP JUMPDEST PUSH1 0x1 PUSH0 DUP1 MLOAD PUSH1 0x20 PUSH2 0x30EC DUP4 CODECOPY DUP2 MLOAD SWAP2 MSTORE SSTORE JUMP JUMPDEST PUSH0 DUP1 MLOAD PUSH1 0x20 PUSH2 0x30CC DUP4 CODECOPY DUP2 MLOAD SWAP2 MSTORE SLOAD PUSH1 0xFF AND ISZERO PUSH2 0x804 JUMPI PUSH1 0x40 MLOAD PUSH4 0xD93C0665 PUSH1 0xE0 SHL DUP2 MSTORE PUSH1 0x4 ADD PUSH1 0x40 MLOAD DUP1 SWAP2 SUB SWAP1 REVERT JUMPDEST PUSH1 0x40 MLOAD PUSH4 0x6EB1769F PUSH1 0xE1 SHL DUP2 MSTORE ADDRESS PUSH1 0x4 DUP3 ADD MSTORE PUSH1 0x1 PUSH1 0x1 PUSH1 0xA0 SHL SUB DUP4 DUP2 AND PUSH1 0x24 DUP4 ADD MSTORE PUSH0 SWAP2 SWAP1 DUP6 AND SWAP1 PUSH4 0xDD62ED3E SWAP1 PUSH1 0x44 ADD PUSH1 0x20 PUSH1 0x40 MLOAD DUP1 DUP4 SUB DUP2 DUP7 GAS STATICCALL ISZERO DUP1 ISZERO PUSH2 0x1AE1 JUMPI RETURNDATASIZE PUSH0 DUP1 RETURNDATACOPY RETURNDATASIZE PUSH0 REVERT JUMPDEST POP POP POP POP PUSH1 0x40 MLOAD RETURNDATASIZE PUSH1 0x1F NOT PUSH1 0x1F DUP3 ADD AND DUP3 ADD DUP1 PUSH1 0x40 MSTORE POP DUP2 ADD SWAP1 PUSH2 0x1B05 SWAP2 SWAP1 PUSH2 0x2D44 JUMP JUMPDEST SWAP1 POP PUSH2 0x18CD DUP5 DUP5 PUSH2 0x1B16 DUP6 DUP6 PUSH2 0x2C9A JUMP JUMPDEST PUSH2 0x2095 JUMP JUMPDEST PUSH1 0x40 MLOAD PUSH4 0x6EB1769F PUSH1 0xE1 SHL DUP2 MSTORE ADDRESS PUSH1 0x4 DUP3 ADD MSTORE PUSH1 0x1 PUSH1 0x1 PUSH1 0xA0 SHL SUB DUP4 DUP2 AND PUSH1 0x24 DUP4 ADD MSTORE PUSH0 SWAP2 SWAP1 DUP6 AND SWAP1 PUSH4 0xDD62ED3E SWAP1 PUSH1 0x44 ADD PUSH1 0x20 PUSH1 0x40 MLOAD DUP1 DUP4 SUB DUP2 DUP7 GAS STATICCALL ISZERO DUP1 ISZERO PUSH2 0x1B68 JUMPI RETURNDATASIZE PUSH0 DUP1 RETURNDATACOPY RETURNDATASIZE PUSH0 REVERT JUMPDEST POP POP POP POP PUSH1 0x40 MLOAD RETURNDATASIZE PUSH1 0x1F NOT PUSH1 0x1F DUP3 ADD AND DUP3 ADD DUP1 PUSH1 0x40 MSTORE POP DUP2 ADD SWAP1 PUSH2 0x1B8C SWAP2 SWAP1 PUSH2 0x2D44 JUMP JUMPDEST SWAP1 POP DUP2 DUP2 LT ISZERO PUSH2 0x1BB5 JUMPI DUP3 DUP2 DUP4 PUSH1 0x40 MLOAD PUSH4 0xE570110F PUSH1 0xE0 SHL DUP2 MSTORE PUSH1 0x4 ADD PUSH2 0x85B SWAP4 SWAP3 SWAP2 SWAP1 PUSH2 0x2F12 JUMP JUMPDEST PUSH2 0x18CD DUP5 DUP5 DUP5 DUP5 SUB PUSH2 0x2095 JUMP JUMPDEST PUSH0 PUSH0 NOT PUSH0 PUSH2 0x1BCF DUP6 PUSH2 0x15F3 JUMP JUMPDEST SWAP1 POP PUSH2 0x1BDD CALLER DUP6 DUP8 DUP5 PUSH2 0x2124 JUMP JUMPDEST SWAP5 SWAP4 POP POP POP POP JUMP JUMPDEST PUSH32 0x9016D09D72D40FDAE2FD8CEAC6B6234C7706214FD39C1CD1E609A0528C199300 DUP1 SLOAD PUSH1 0x1 PUSH1 0x1 PUSH1 0xA0 SHL SUB NOT DUP2 AND PUSH1 0x1 PUSH1 0x1 PUSH1 0xA0 SHL SUB DUP5 DUP2 AND SWAP2 DUP3 OR DUP5 SSTORE PUSH1 0x40 MLOAD SWAP3 AND SWAP2 DUP3 SWAP1 PUSH32 0x8BE0079C531659141344CD1FD0A4F28419497F9722A3DAAFE3B4186F6B6457E0 SWAP1 PUSH0 SWAP1 LOG3 POP POP POP JUMP JUMPDEST PUSH2 0x1C5D PUSH2 0x21B0 JUMP JUMPDEST PUSH2 0x17C9 DUP2 PUSH2 0x21F9 JUMP JUMPDEST PUSH2 0x1C6E PUSH2 0x21B0 JUMP JUMPDEST PUSH2 0xCDB DUP3 DUP3 PUSH2 0x2269 JUMP JUMPDEST PUSH2 0x1C80 PUSH2 0x21B0 JUMP JUMPDEST PUSH2 0x17C9 DUP2 PUSH2 0x22B9 JUMP JUMPDEST PUSH2 0x1C91 PUSH2 0x21B0 JUMP JUMPDEST PUSH2 0x804 PUSH2 0x22C1 JUMP JUMPDEST PUSH2 0x1CA1 PUSH2 0x21B0 JUMP JUMPDEST PUSH2 0x804 PUSH2 0x22E1 JUMP JUMPDEST PUSH2 0x1CB1 PUSH2 0x1A64 JUMP JUMPDEST PUSH0 DUP1 MLOAD PUSH1 0x20 PUSH2 0x30CC DUP4 CODECOPY DUP2 MLOAD SWAP2 MSTORE DUP1 SLOAD PUSH1 0xFF NOT AND PUSH1 0x1 OR DUP2 SSTORE PUSH32 0x62E78CEA01BEE320CD4E420270B5EA74000D11B0C9F74754EBDBFC544B05A258 CALLER PUSH2 0x19A3 JUMP JUMPDEST PUSH0 PUSH0 NOT PUSH0 PUSH2 0x1CFE DUP6 PUSH2 0x1597 JUMP JUMPDEST SWAP1 POP PUSH2 0x1BDD CALLER DUP6 DUP4 DUP9 PUSH2 0x2124 JUMP JUMPDEST PUSH0 DUP1 PUSH2 0x1D17 DUP4 PUSH2 0x15FE JUMP JUMPDEST SWAP1 POP DUP1 DUP6 GT ISZERO PUSH2 0x1D40 JUMPI DUP3 DUP6 DUP3 PUSH1 0x40 MLOAD PUSH4 0x3FA733BB PUSH1 0xE2 SHL DUP2 MSTORE PUSH1 0x4 ADD PUSH2 0x85B SWAP4 SWAP3 SWAP2 SWAP1 PUSH2 0x2F12 JUMP JUMPDEST PUSH0 PUSH2 0x1D4A DUP7 PUSH2 0x773 JUMP JUMPDEST SWAP1 POP PUSH2 0x1D59 CALLER DUP7 DUP7 DUP10 DUP6 PUSH2 0x22E9 JUMP JUMPDEST SWAP6 SWAP5 POP POP POP POP POP JUMP JUMPDEST PUSH0 DUP1 PUSH2 0x1D6D DUP4 PUSH2 0x1611 JUMP JUMPDEST SWAP1 POP DUP1 DUP6 GT ISZERO PUSH2 0x1D96 JUMPI DUP3 DUP6 DUP3 PUSH1 0x40 MLOAD PUSH4 0x2E52AFBB PUSH1 0xE2 SHL DUP2 MSTORE PUSH1 0x4 ADD PUSH2 0x85B SWAP4 SWAP3 SWAP2 SWAP1 PUSH2 0x2F12 JUMP JUMPDEST PUSH0 PUSH2 0x1DA0 DUP7 PUSH2 0x74B JUMP JUMPDEST SWAP1 POP PUSH2 0x1D59 CALLER DUP7 DUP7 DUP5 DUP11 PUSH2 0x22E9 JUMP JUMPDEST PUSH0 DUP1 PUSH2 0x1DBC DUP7 DUP7 DUP7 PUSH2 0x2375 JUMP JUMPDEST SWAP1 POP PUSH2 0x1DC7 DUP4 PUSH2 0x2434 JUMP JUMPDEST DUP1 ISZERO PUSH2 0x1DE2 JUMPI POP PUSH0 DUP5 DUP1 PUSH2 0x1DDD JUMPI PUSH2 0x1DDD PUSH2 0x2D85 JUMP JUMPDEST DUP7 DUP9 MULMOD GT JUMPDEST ISZERO PUSH2 0x1D59 JUMPI PUSH2 0x1DF2 PUSH1 0x1 DUP3 PUSH2 0x2C9A JUMP JUMPDEST SWAP7 SWAP6 POP POP POP POP POP POP JUMP JUMPDEST PUSH0 DUP1 MLOAD PUSH1 0x20 PUSH2 0x308C DUP4 CODECOPY DUP2 MLOAD SWAP2 MSTORE PUSH1 0x1 PUSH1 0x1 PUSH1 0xA0 SHL SUB DUP6 AND PUSH2 0x1E33 JUMPI PUSH1 0x40 MLOAD PUSH4 0xE602DF05 PUSH1 0xE0 SHL DUP2 MSTORE PUSH0 PUSH1 0x4 DUP3 ADD MSTORE PUSH1 0x24 ADD PUSH2 0x85B JUMP JUMPDEST PUSH1 0x1 PUSH1 0x1 PUSH1 0xA0 SHL SUB DUP5 AND PUSH2 0x1E5C JUMPI PUSH1 0x40 MLOAD PUSH4 0x4A1406B1 PUSH1 0xE1 SHL DUP2 MSTORE PUSH0 PUSH1 0x4 DUP3 ADD MSTORE PUSH1 0x24 ADD PUSH2 0x85B JUMP JUMPDEST PUSH1 0x1 PUSH1 0x1 PUSH1 0xA0 SHL SUB DUP1 DUP7 AND PUSH0 SWAP1 DUP2 MSTORE PUSH1 0x1 DUP4 ADD PUSH1 0x20 SWAP1 DUP2 MSTORE PUSH1 0x40 DUP1 DUP4 KECCAK256 SWAP4 DUP9 AND DUP4 MSTORE SWAP3 SWAP1 MSTORE KECCAK256 DUP4 SWAP1 SSTORE DUP2 ISZERO PUSH2 0x10CA JUMPI DUP4 PUSH1 0x1 PUSH1 0x1 PUSH1 0xA0 SHL SUB AND DUP6 PUSH1 0x1 PUSH1 0x1 PUSH1 0xA0 SHL SUB AND PUSH32 0x8C5BE1E5EBEC7D5BD14F71427D1E84F3DD0314C0F7B2291E5B200AC8C7C3B925 DUP6 PUSH1 0x40 MLOAD PUSH2 0x1ED0 SWAP2 DUP2 MSTORE PUSH1 0x20 ADD SWAP1 JUMP JUMPDEST PUSH1 0x40 MLOAD DUP1 SWAP2 SUB SWAP1 LOG3 POP POP POP POP POP JUMP JUMPDEST PUSH0 DUP1 MLOAD PUSH1 0x20 PUSH2 0x308C DUP4 CODECOPY DUP2 MLOAD SWAP2 MSTORE PUSH1 0x1 PUSH1 0x1 PUSH1 0xA0 SHL SUB DUP5 AND PUSH2 0x1F19 JUMPI DUP2 DUP2 PUSH1 0x2 ADD PUSH0 DUP3 DUP3 SLOAD PUSH2 0x1F0E SWAP2 SWAP1 PUSH2 0x2C9A JUMP JUMPDEST SWAP1 SWAP2 SSTORE POP PUSH2 0x1F76 SWAP1 POP JUMP JUMPDEST PUSH1 0x1 PUSH1 0x1 PUSH1 0xA0 SHL SUB DUP5 AND PUSH0 SWAP1 DUP2 MSTORE PUSH1 0x20 DUP3 SWAP1 MSTORE PUSH1 0x40 SWAP1 KECCAK256 SLOAD DUP3 DUP2 LT ISZERO PUSH2 0x1F58 JUMPI DUP5 DUP2 DUP5 PUSH1 0x40 MLOAD PUSH4 0x391434E3 PUSH1 0xE2 SHL DUP2 MSTORE PUSH1 0x4 ADD PUSH2 0x85B SWAP4 SWAP3 SWAP2 SWAP1 PUSH2 0x2F12 JUMP JUMPDEST PUSH1 0x1 PUSH1 0x1 PUSH1 0xA0 SHL SUB DUP6 AND PUSH0 SWAP1 DUP2 MSTORE PUSH1 0x20 DUP4 SWAP1 MSTORE PUSH1 0x40 SWAP1 KECCAK256 SWAP1 DUP4 SWAP1 SUB SWAP1 SSTORE JUMPDEST PUSH1 0x1 PUSH1 0x1 PUSH1 0xA0 SHL SUB DUP4 AND PUSH2 0x1F94 JUMPI PUSH1 0x2 DUP2 ADD DUP1 SLOAD DUP4 SWAP1 SUB SWAP1 SSTORE PUSH2 0x1FB2 JUMP JUMPDEST PUSH1 0x1 PUSH1 0x1 PUSH1 0xA0 SHL SUB DUP4 AND PUSH0 SWAP1 DUP2 MSTORE PUSH1 0x20 DUP3 SWAP1 MSTORE PUSH1 0x40 SWAP1 KECCAK256 DUP1 SLOAD DUP4 ADD SWAP1 SSTORE JUMPDEST DUP3 PUSH1 0x1 PUSH1 0x1 PUSH1 0xA0 SHL SUB AND DUP5 PUSH1 0x1 PUSH1 0x1 PUSH1 0xA0 SHL SUB AND PUSH32 0xDDF252AD1BE2C89B69C2B068FC378DAA952BA7F163C4A11628F55A4DF523B3EF DUP5 PUSH1 0x40 MLOAD PUSH2 0x1FF7 SWAP2 DUP2 MSTORE PUSH1 0x20 ADD SWAP1 JUMP JUMPDEST PUSH1 0x40 MLOAD DUP1 SWAP2 SUB SWAP1 LOG3 POP POP POP POP JUMP JUMPDEST PUSH0 DUP1 MLOAD PUSH1 0x20 PUSH2 0x30CC DUP4 CODECOPY DUP2 MLOAD SWAP2 MSTORE SLOAD PUSH1 0xFF AND PUSH2 0x804 JUMPI PUSH1 0x40 MLOAD PUSH4 0x8DFC202B PUSH1 0xE0 SHL DUP2 MSTORE PUSH1 0x4 ADD PUSH1 0x40 MLOAD DUP1 SWAP2 SUB SWAP1 REVERT JUMPDEST PUSH0 PUSH2 0x2048 PUSH1 0x1 PUSH1 0x1 PUSH1 0xA0 SHL SUB DUP5 AND DUP4 PUSH2 0x2460 JUMP JUMPDEST SWAP1 POP DUP1 MLOAD PUSH0 EQ ISZERO DUP1 ISZERO PUSH2 0x206C JUMPI POP DUP1 DUP1 PUSH1 0x20 ADD SWAP1 MLOAD DUP2 ADD SWAP1 PUSH2 0x206A SWAP2 SWAP1 PUSH2 0x2F33 JUMP JUMPDEST ISZERO JUMPDEST ISZERO PUSH2 0x1830 JUMPI PUSH1 0x40 MLOAD PUSH4 0x5274AFE7 PUSH1 0xE0 SHL DUP2 MSTORE PUSH1 0x1 PUSH1 0x1 PUSH1 0xA0 SHL SUB DUP5 AND PUSH1 0x4 DUP3 ADD MSTORE PUSH1 0x24 ADD PUSH2 0x85B JUMP JUMPDEST PUSH1 0x40 DUP1 MLOAD PUSH1 0x1 PUSH1 0x1 PUSH1 0xA0 SHL SUB DUP5 AND PUSH1 0x24 DUP3 ADD MSTORE PUSH1 0x44 DUP1 DUP3 ADD DUP5 SWAP1 MSTORE DUP3 MLOAD DUP1 DUP4 SUB SWAP1 SWAP2 ADD DUP2 MSTORE PUSH1 0x64 SWAP1 SWAP2 ADD SWAP1 SWAP2 MSTORE PUSH1 0x20 DUP2 ADD DUP1 MLOAD PUSH1 0x1 PUSH1 0x1 PUSH1 0xE0 SHL SUB AND PUSH4 0x95EA7B3 PUSH1 0xE0 SHL OR SWAP1 MSTORE PUSH2 0x20E6 DUP5 DUP3 PUSH2 0x246D JUMP JUMPDEST PUSH2 0x18CD JUMPI PUSH1 0x40 MLOAD PUSH1 0x1 PUSH1 0x1 PUSH1 0xA0 SHL SUB DUP5 DUP2 AND PUSH1 0x24 DUP4 ADD MSTORE PUSH0 PUSH1 0x44 DUP4 ADD MSTORE PUSH2 0x211A SWAP2 DUP7 SWAP2 DUP3 AND SWAP1 PUSH4 0x95EA7B3 SWAP1 PUSH1 0x64 ADD PUSH2 0x1A1F JUMP JUMPDEST PUSH2 0x18CD DUP5 DUP3 PUSH2 0x2034 JUMP JUMPDEST PUSH1 0x3 SLOAD DUP3 PUSH2 0x2130 PUSH2 0x668 JUMP JUMPDEST PUSH2 0x213A SWAP2 SWAP1 PUSH2 0x2C9A JUMP JUMPDEST GT ISZERO PUSH2 0x2188 JUMPI PUSH1 0x40 MLOAD PUSH3 0x461BCD PUSH1 0xE5 SHL DUP2 MSTORE PUSH1 0x20 PUSH1 0x4 DUP3 ADD DUP2 SWAP1 MSTORE PUSH1 0x24 DUP3 ADD MSTORE PUSH32 0x42726965725661756C743A206D61782063617061636974792072656163686564 PUSH1 0x44 DUP3 ADD MSTORE PUSH1 0x64 ADD PUSH2 0x85B JUMP JUMPDEST PUSH2 0x2194 DUP5 DUP5 DUP5 DUP5 PUSH2 0x250A JUMP JUMPDEST DUP2 PUSH1 0x1 PUSH0 DUP3 DUP3 SLOAD PUSH2 0x21A5 SWAP2 SWAP1 PUSH2 0x2C9A JUMP JUMPDEST SWAP1 SWAP2 SSTORE POP POP POP POP POP POP JUMP JUMPDEST PUSH32 0xF0C57E16840DF040F15088DC2F81FE391C3923BEC73E23A9662EFC9C229C6A00 SLOAD PUSH1 0x1 PUSH1 0x40 SHL SWAP1 DIV PUSH1 0xFF AND PUSH2 0x804 JUMPI PUSH1 0x40 MLOAD PUSH4 0x1AFCD79F PUSH1 0xE3 SHL DUP2 MSTORE PUSH1 0x4 ADD PUSH1 0x40 MLOAD DUP1 SWAP2 SUB SWAP1 REVERT JUMPDEST PUSH2 0x2201 PUSH2 0x21B0 JUMP JUMPDEST PUSH0 DUP1 MLOAD PUSH1 0x20 PUSH2 0x30AC DUP4 CODECOPY DUP2 MLOAD SWAP2 MSTORE PUSH0 DUP1 PUSH2 0x221A DUP5 PUSH2 0x2587 JUMP JUMPDEST SWAP2 POP SWAP2 POP DUP2 PUSH2 0x222A JUMPI PUSH1 0x12 PUSH2 0x222C JUMP JUMPDEST DUP1 JUMPDEST DUP4 SLOAD PUSH1 0x1 PUSH1 0x1 PUSH1 0xA8 SHL SUB NOT AND PUSH1 0x1 PUSH1 0xA0 SHL PUSH1 0xFF SWAP3 SWAP1 SWAP3 AND SWAP2 SWAP1 SWAP2 MUL PUSH1 0x1 PUSH1 0x1 PUSH1 0xA0 SHL SUB NOT AND OR PUSH1 0x1 PUSH1 0x1 PUSH1 0xA0 SHL SUB SWAP5 SWAP1 SWAP5 AND SWAP4 SWAP1 SWAP4 OR SWAP1 SWAP2 SSTORE POP POP JUMP JUMPDEST PUSH2 0x2271 PUSH2 0x21B0 JUMP JUMPDEST PUSH0 DUP1 MLOAD PUSH1 0x20 PUSH2 0x308C DUP4 CODECOPY DUP2 MLOAD SWAP2 MSTORE PUSH32 0x52C63247E1F47DB19D5CE0460030C497F067CA4CEBF71BA98EEADABE20BACE03 PUSH2 0x22AA DUP5 DUP3 PUSH2 0x2F96 JUMP JUMPDEST POP PUSH1 0x4 DUP2 ADD PUSH2 0x18CD DUP4 DUP3 PUSH2 0x2F96 JUMP JUMPDEST PUSH2 0x1797 PUSH2 0x21B0 JUMP JUMPDEST PUSH2 0x22C9 PUSH2 0x21B0 JUMP JUMPDEST PUSH0 DUP1 MLOAD PUSH1 0x20 PUSH2 0x30CC DUP4 CODECOPY DUP2 MLOAD SWAP2 MSTORE DUP1 SLOAD PUSH1 0xFF NOT AND SWAP1 SSTORE JUMP JUMPDEST PUSH2 0x1A51 PUSH2 0x21B0 JUMP JUMPDEST PUSH1 0x1 SLOAD DUP3 GT ISZERO PUSH2 0x2351 JUMPI PUSH1 0x40 MLOAD PUSH3 0x461BCD PUSH1 0xE5 SHL DUP2 MSTORE PUSH1 0x20 PUSH1 0x4 DUP3 ADD MSTORE PUSH1 0x2D PUSH1 0x24 DUP3 ADD MSTORE PUSH32 0x42726965725661756C743A206F6E6C792069646C65206361706974616C206973 PUSH1 0x44 DUP3 ADD MSTORE PUSH13 0x20776974686472617761626C65 PUSH1 0x98 SHL PUSH1 0x64 DUP3 ADD MSTORE PUSH1 0x84 ADD PUSH2 0x85B JUMP JUMPDEST DUP2 PUSH1 0x1 PUSH0 DUP3 DUP3 SLOAD PUSH2 0x2362 SWAP2 SWAP1 PUSH2 0x2D5B JUMP JUMPDEST SWAP1 SWAP2 SSTORE POP PUSH2 0x10CA SWAP1 POP DUP6 DUP6 DUP6 DUP6 DUP6 PUSH2 0x265D JUMP JUMPDEST PUSH0 DUP4 DUP4 MUL DUP2 PUSH0 NOT DUP6 DUP8 MULMOD DUP3 DUP2 LT DUP4 DUP3 SUB SUB SWAP2 POP POP DUP1 PUSH0 SUB PUSH2 0x23A9 JUMPI DUP4 DUP3 DUP2 PUSH2 0x239F JUMPI PUSH2 0x239F PUSH2 0x2D85 JUMP JUMPDEST DIV SWAP3 POP POP POP PUSH2 0x79D JUMP JUMPDEST DUP1 DUP5 GT PUSH2 0x23C9 JUMPI PUSH1 0x40 MLOAD PUSH4 0x227BC153 PUSH1 0xE0 SHL DUP2 MSTORE PUSH1 0x4 ADD PUSH1 0x40 MLOAD DUP1 SWAP2 SUB SWAP1 REVERT JUMPDEST PUSH0 DUP5 DUP7 DUP9 MULMOD PUSH0 DUP7 DUP2 SUB DUP8 AND SWAP7 DUP8 SWAP1 DIV SWAP7 PUSH1 0x2 PUSH1 0x3 DUP10 MUL DUP2 XOR DUP1 DUP11 MUL DUP3 SUB MUL DUP1 DUP11 MUL DUP3 SUB MUL DUP1 DUP11 MUL DUP3 SUB MUL DUP1 DUP11 MUL DUP3 SUB MUL DUP1 DUP11 MUL DUP3 SUB MUL DUP1 DUP11 MUL SWAP1 SWAP2 SUB MUL SWAP2 DUP2 SWAP1 SUB DUP2 SWAP1 DIV PUSH1 0x1 ADD DUP7 DUP5 GT SWAP1 SWAP6 SUB SWAP5 SWAP1 SWAP5 MUL SWAP2 SWAP1 SWAP5 SUB SWAP3 SWAP1 SWAP3 DIV SWAP2 SWAP1 SWAP2 OR SWAP2 SWAP1 SWAP2 MUL SWAP2 POP POP SWAP4 SWAP3 POP POP POP JUMP JUMPDEST PUSH0 PUSH1 0x2 DUP3 PUSH1 0x3 DUP2 GT ISZERO PUSH2 0x2449 JUMPI PUSH2 0x2449 PUSH2 0x3056 JUMP JUMPDEST PUSH2 0x2453 SWAP2 SWAP1 PUSH2 0x306A JUMP JUMPDEST PUSH1 0xFF AND PUSH1 0x1 EQ SWAP1 POP SWAP2 SWAP1 POP JUMP JUMPDEST PUSH1 0x60 PUSH2 0x79D DUP4 DUP4 PUSH0 PUSH2 0x2711 JUMP JUMPDEST PUSH0 DUP1 PUSH0 DUP5 PUSH1 0x1 PUSH1 0x1 PUSH1 0xA0 SHL SUB AND DUP5 PUSH1 0x40 MLOAD PUSH2 0x2488 SWAP2 SWAP1 PUSH2 0x2E09 JUMP JUMPDEST PUSH0 PUSH1 0x40 MLOAD DUP1 DUP4 SUB DUP2 PUSH0 DUP7 GAS CALL SWAP2 POP POP RETURNDATASIZE DUP1 PUSH0 DUP2 EQ PUSH2 0x24C1 JUMPI PUSH1 0x40 MLOAD SWAP2 POP PUSH1 0x1F NOT PUSH1 0x3F RETURNDATASIZE ADD AND DUP3 ADD PUSH1 0x40 MSTORE RETURNDATASIZE DUP3 MSTORE RETURNDATASIZE PUSH0 PUSH1 0x20 DUP5 ADD RETURNDATACOPY PUSH2 0x24C6 JUMP JUMPDEST PUSH1 0x60 SWAP2 POP JUMPDEST POP SWAP2 POP SWAP2 POP DUP2 DUP1 ISZERO PUSH2 0x24F0 JUMPI POP DUP1 MLOAD ISZERO DUP1 PUSH2 0x24F0 JUMPI POP DUP1 DUP1 PUSH1 0x20 ADD SWAP1 MLOAD DUP2 ADD SWAP1 PUSH2 0x24F0 SWAP2 SWAP1 PUSH2 0x2F33 JUMP JUMPDEST DUP1 ISZERO PUSH2 0x1D59 JUMPI POP POP POP POP POP PUSH1 0x1 PUSH1 0x1 PUSH1 0xA0 SHL SUB AND EXTCODESIZE ISZERO ISZERO SWAP1 JUMP JUMPDEST PUSH0 DUP1 MLOAD PUSH1 0x20 PUSH2 0x30AC DUP4 CODECOPY DUP2 MLOAD SWAP2 MSTORE DUP1 SLOAD PUSH2 0x252F SWAP1 PUSH1 0x1 PUSH1 0x1 PUSH1 0xA0 SHL SUB AND DUP7 ADDRESS DUP7 PUSH2 0x27A0 JUMP JUMPDEST PUSH2 0x2539 DUP5 DUP4 PUSH2 0x27D9 JUMP JUMPDEST DUP4 PUSH1 0x1 PUSH1 0x1 PUSH1 0xA0 SHL SUB AND DUP6 PUSH1 0x1 PUSH1 0x1 PUSH1 0xA0 SHL SUB AND PUSH32 0xDCBC1C05240F31FF3AD067EF1EE35CE4997762752E3A095284754544F4C709D7 DUP6 DUP6 PUSH1 0x40 MLOAD PUSH2 0x1ED0 SWAP3 SWAP2 SWAP1 SWAP2 DUP3 MSTORE PUSH1 0x20 DUP3 ADD MSTORE PUSH1 0x40 ADD SWAP1 JUMP JUMPDEST PUSH1 0x40 DUP1 MLOAD PUSH1 0x4 DUP2 MSTORE PUSH1 0x24 DUP2 ADD DUP3 MSTORE PUSH1 0x20 DUP2 ADD DUP1 MLOAD PUSH1 0x1 PUSH1 0x1 PUSH1 0xE0 SHL SUB AND PUSH4 0x313CE567 PUSH1 0xE0 SHL OR SWAP1 MSTORE SWAP1 MLOAD PUSH0 SWAP2 DUP3 SWAP2 DUP3 SWAP2 DUP3 SWAP2 PUSH1 0x1 PUSH1 0x1 PUSH1 0xA0 SHL SUB DUP8 AND SWAP2 PUSH2 0x25CD SWAP2 PUSH2 0x2E09 JUMP JUMPDEST PUSH0 PUSH1 0x40 MLOAD DUP1 DUP4 SUB DUP2 DUP6 GAS STATICCALL SWAP2 POP POP RETURNDATASIZE DUP1 PUSH0 DUP2 EQ PUSH2 0x2605 JUMPI PUSH1 0x40 MLOAD SWAP2 POP PUSH1 0x1F NOT PUSH1 0x3F RETURNDATASIZE ADD AND DUP3 ADD PUSH1 0x40 MSTORE RETURNDATASIZE DUP3 MSTORE RETURNDATASIZE PUSH0 PUSH1 0x20 DUP5 ADD RETURNDATACOPY PUSH2 0x260A JUMP JUMPDEST PUSH1 0x60 SWAP2 POP JUMPDEST POP SWAP2 POP SWAP2 POP DUP2 DUP1 ISZERO PUSH2 0x261E JUMPI POP PUSH1 0x20 DUP2 MLOAD LT ISZERO JUMPDEST ISZERO PUSH2 0x2651 JUMPI PUSH0 DUP2 DUP1 PUSH1 0x20 ADD SWAP1 MLOAD DUP2 ADD SWAP1 PUSH2 0x2638 SWAP2 SWAP1 PUSH2 0x2D44 JUMP JUMPDEST SWAP1 POP PUSH1 0xFF DUP2 GT PUSH2 0x264F JUMPI PUSH1 0x1 SWAP7 SWAP1 SWAP6 POP SWAP4 POP POP POP POP JUMP JUMPDEST POP JUMPDEST POP PUSH0 SWAP5 DUP6 SWAP5 POP SWAP3 POP POP POP JUMP JUMPDEST PUSH0 DUP1 MLOAD PUSH1 0x20 PUSH2 0x30AC DUP4 CODECOPY DUP2 MLOAD SWAP2 MSTORE PUSH1 0x1 PUSH1 0x1 PUSH1 0xA0 SHL SUB DUP7 DUP2 AND SWAP1 DUP6 AND EQ PUSH2 0x2689 JUMPI PUSH2 0x2689 DUP5 DUP8 DUP5 PUSH2 0x1883 JUMP JUMPDEST PUSH2 0x2693 DUP5 DUP4 PUSH2 0x280D JUMP JUMPDEST DUP1 SLOAD PUSH2 0x26A9 SWAP1 PUSH1 0x1 PUSH1 0x1 PUSH1 0xA0 SHL SUB AND DUP7 DUP6 PUSH2 0x19F2 JUMP JUMPDEST DUP4 PUSH1 0x1 PUSH1 0x1 PUSH1 0xA0 SHL SUB AND DUP6 PUSH1 0x1 PUSH1 0x1 PUSH1 0xA0 SHL SUB AND DUP8 PUSH1 0x1 PUSH1 0x1 PUSH1 0xA0 SHL SUB AND PUSH32 0xFBDE797D201C681B91056529119E0B02407C7BB96A4A2C75C01FC9667232C8DB DUP7 DUP7 PUSH1 0x40 MLOAD PUSH2 0x2701 SWAP3 SWAP2 SWAP1 SWAP2 DUP3 MSTORE PUSH1 0x20 DUP3 ADD MSTORE PUSH1 0x40 ADD SWAP1 JUMP JUMPDEST PUSH1 0x40 MLOAD DUP1 SWAP2 SUB SWAP1 LOG4 POP POP POP POP POP POP JUMP JUMPDEST PUSH1 0x60 DUP2 SELFBALANCE LT ISZERO PUSH2 0x2736 JUMPI PUSH1 0x40 MLOAD PUSH4 0xCD786059 PUSH1 0xE0 SHL DUP2 MSTORE ADDRESS PUSH1 0x4 DUP3 ADD MSTORE PUSH1 0x24 ADD PUSH2 0x85B JUMP JUMPDEST PUSH0 DUP1 DUP6 PUSH1 0x1 PUSH1 0x1 PUSH1 0xA0 SHL SUB AND DUP5 DUP7 PUSH1 0x40 MLOAD PUSH2 0x2751 SWAP2 SWAP1 PUSH2 0x2E09 JUMP JUMPDEST PUSH0 PUSH1 0x40 MLOAD DUP1 DUP4 SUB DUP2 DUP6 DUP8 GAS CALL SWAP3 POP POP POP RETURNDATASIZE DUP1 PUSH0 DUP2 EQ PUSH2 0x278B JUMPI PUSH1 0x40 MLOAD SWAP2 POP PUSH1 0x1F NOT PUSH1 0x3F RETURNDATASIZE ADD AND DUP3 ADD PUSH1 0x40 MSTORE RETURNDATASIZE DUP3 MSTORE RETURNDATASIZE PUSH0 PUSH1 0x20 DUP5 ADD RETURNDATACOPY PUSH2 0x2790 JUMP JUMPDEST PUSH1 0x60 SWAP2 POP JUMPDEST POP SWAP2 POP SWAP2 POP PUSH2 0x1DF2 DUP7 DUP4 DUP4 PUSH2 0x2841 JUMP JUMPDEST PUSH1 0x40 MLOAD PUSH1 0x1 PUSH1 0x1 PUSH1 0xA0 SHL SUB DUP5 DUP2 AND PUSH1 0x24 DUP4 ADD MSTORE DUP4 DUP2 AND PUSH1 0x44 DUP4 ADD MSTORE PUSH1 0x64 DUP3 ADD DUP4 SWAP1 MSTORE PUSH2 0x18CD SWAP2 DUP7 SWAP2 DUP3 AND SWAP1 PUSH4 0x23B872DD SWAP1 PUSH1 0x84 ADD PUSH2 0x1A1F JUMP JUMPDEST PUSH1 0x1 PUSH1 0x1 PUSH1 0xA0 SHL SUB DUP3 AND PUSH2 0x2802 JUMPI PUSH1 0x40 MLOAD PUSH4 0xEC442F05 PUSH1 0xE0 SHL DUP2 MSTORE PUSH0 PUSH1 0x4 DUP3 ADD MSTORE PUSH1 0x24 ADD PUSH2 0x85B JUMP JUMPDEST PUSH2 0xCDB PUSH0 DUP4 DUP4 PUSH2 0x1EDF JUMP JUMPDEST PUSH1 0x1 PUSH1 0x1 PUSH1 0xA0 SHL SUB DUP3 AND PUSH2 0x2836 JUMPI PUSH1 0x40 MLOAD PUSH4 0x4B637E8F PUSH1 0xE1 SHL DUP2 MSTORE PUSH0 PUSH1 0x4 DUP3 ADD MSTORE PUSH1 0x24 ADD PUSH2 0x85B JUMP JUMPDEST PUSH2 0xCDB DUP3 PUSH0 DUP4 PUSH2 0x1EDF JUMP JUMPDEST PUSH1 0x60 DUP3 PUSH2 0x2856 JUMPI PUSH2 0x2851 DUP3 PUSH2 0x289D JUMP JUMPDEST PUSH2 0x79D JUMP JUMPDEST DUP2 MLOAD ISZERO DUP1 ISZERO PUSH2 0x286D JUMPI POP PUSH1 0x1 PUSH1 0x1 PUSH1 0xA0 SHL SUB DUP5 AND EXTCODESIZE ISZERO JUMPDEST ISZERO PUSH2 0x2896 JUMPI PUSH1 0x40 MLOAD PUSH4 0x9996B315 PUSH1 0xE0 SHL DUP2 MSTORE PUSH1 0x1 PUSH1 0x1 PUSH1 0xA0 SHL SUB DUP6 AND PUSH1 0x4 DUP3 ADD MSTORE PUSH1 0x24 ADD PUSH2 0x85B JUMP JUMPDEST POP DUP1 PUSH2 0x79D JUMP JUMPDEST DUP1 MLOAD ISZERO PUSH2 0x28AD JUMPI DUP1 MLOAD DUP1 DUP3 PUSH1 0x20 ADD REVERT JUMPDEST PUSH1 0x40 MLOAD PUSH4 0xA12F521 PUSH1 0xE1 SHL DUP2 MSTORE PUSH1 0x4 ADD PUSH1 0x40 MLOAD DUP1 SWAP2 SUB SWAP1 REVERT JUMPDEST PUSH0 JUMPDEST DUP4 DUP2 LT ISZERO PUSH2 0x28E0 JUMPI DUP2 DUP2 ADD MLOAD DUP4 DUP3 ADD MSTORE PUSH1 0x20 ADD PUSH2 0x28C8 JUMP JUMPDEST POP POP PUSH0 SWAP2 ADD MSTORE JUMP JUMPDEST PUSH1 0x20 DUP2 MSTORE PUSH0 DUP3 MLOAD DUP1 PUSH1 0x20 DUP5 ADD MSTORE PUSH2 0x2906 DUP2 PUSH1 0x40 DUP6 ADD PUSH1 0x20 DUP8 ADD PUSH2 0x28C6 JUMP JUMPDEST PUSH1 0x1F ADD PUSH1 0x1F NOT AND SWAP2 SWAP1 SWAP2 ADD PUSH1 0x40 ADD SWAP3 SWAP2 POP POP JUMP JUMPDEST PUSH0 PUSH1 0x20 DUP3 DUP5 SUB SLT ISZERO PUSH2 0x292A JUMPI PUSH0 DUP1 REVERT JUMPDEST POP CALLDATALOAD SWAP2 SWAP1 POP JUMP JUMPDEST PUSH1 0x1 PUSH1 0x1 PUSH1 0xA0 SHL SUB DUP2 AND DUP2 EQ PUSH2 0x17C9 JUMPI PUSH0 DUP1 REVERT JUMPDEST DUP1 CALLDATALOAD PUSH2 0x2950 DUP2 PUSH2 0x2931 JUMP JUMPDEST SWAP2 SWAP1 POP JUMP JUMPDEST PUSH0 DUP1 PUSH1 0x40 DUP4 DUP6 SUB SLT ISZERO PUSH2 0x2966 JUMPI PUSH0 DUP1 REVERT JUMPDEST DUP3 CALLDATALOAD PUSH2 0x2971 DUP2 PUSH2 0x2931 JUMP JUMPDEST SWAP5 PUSH1 0x20 SWAP4 SWAP1 SWAP4 ADD CALLDATALOAD SWAP4 POP POP POP JUMP JUMPDEST PUSH0 DUP1 PUSH0 PUSH1 0x60 DUP5 DUP7 SUB SLT ISZERO PUSH2 0x2991 JUMPI PUSH0 DUP1 REVERT JUMPDEST DUP4 CALLDATALOAD PUSH2 0x299C DUP2 PUSH2 0x2931 JUMP JUMPDEST SWAP3 POP PUSH1 0x20 DUP5 ADD CALLDATALOAD PUSH2 0x29AC DUP2 PUSH2 0x2931 JUMP JUMPDEST SWAP3 SWAP6 SWAP3 SWAP5 POP POP POP PUSH1 0x40 SWAP2 SWAP1 SWAP2 ADD CALLDATALOAD SWAP1 JUMP JUMPDEST PUSH0 PUSH1 0x20 DUP3 DUP5 SUB SLT ISZERO PUSH2 0x29CD JUMPI PUSH0 DUP1 REVERT JUMPDEST DUP2 CALLDATALOAD PUSH2 0x79D DUP2 PUSH2 0x2931 JUMP JUMPDEST PUSH0 DUP1 PUSH1 0x40 DUP4 DUP6 SUB SLT ISZERO PUSH2 0x29E9 JUMPI PUSH0 DUP1 REVERT JUMPDEST POP POP DUP1 CALLDATALOAD SWAP3 PUSH1 0x20 SWAP1 SWAP2 ADD CALLDATALOAD SWAP2 POP JUMP JUMPDEST PUSH0 DUP1 PUSH0 DUP1 PUSH0 PUSH1 0x80 DUP7 DUP9 SUB SLT ISZERO PUSH2 0x2A0C JUMPI PUSH0 DUP1 REVERT JUMPDEST DUP6 CALLDATALOAD SWAP5 POP PUSH1 0x20 DUP7 ADD CALLDATALOAD SWAP4 POP PUSH1 0x40 DUP7 ADD CALLDATALOAD PUSH8 0xFFFFFFFFFFFFFFFF DUP1 DUP3 GT ISZERO PUSH2 0x2A31 JUMPI PUSH0 DUP1 REVERT JUMPDEST DUP2 DUP9 ADD SWAP2 POP DUP9 PUSH1 0x1F DUP4 ADD SLT PUSH2 0x2A44 JUMPI PUSH0 DUP1 REVERT JUMPDEST DUP2 CALLDATALOAD DUP2 DUP2 GT ISZERO PUSH2 0x2A52 JUMPI PUSH0 DUP1 REVERT JUMPDEST DUP10 PUSH1 0x20 DUP3 PUSH1 0x5 SHL DUP6 ADD ADD GT ISZERO PUSH2 0x2A66 JUMPI PUSH0 DUP1 REVERT JUMPDEST SWAP7 SWAP10 SWAP6 SWAP9 POP POP PUSH1 0x20 ADD SWAP6 PUSH1 0x60 ADD CALLDATALOAD SWAP4 SWAP3 POP POP POP JUMP JUMPDEST PUSH0 DUP1 PUSH1 0x40 DUP4 DUP6 SUB SLT ISZERO PUSH2 0x2A8C JUMPI PUSH0 DUP1 REVERT JUMPDEST DUP3 CALLDATALOAD SWAP2 POP PUSH1 0x20 DUP4 ADD CALLDATALOAD PUSH2 0x2A9E DUP2 PUSH2 0x2931 JUMP JUMPDEST DUP1 SWAP2 POP POP SWAP3 POP SWAP3 SWAP1 POP JUMP JUMPDEST PUSH4 0x4E487B71 PUSH1 0xE0 SHL PUSH0 MSTORE PUSH1 0x41 PUSH1 0x4 MSTORE PUSH1 0x24 PUSH0 REVERT JUMPDEST PUSH0 DUP3 PUSH1 0x1F DUP4 ADD SLT PUSH2 0x2ACC JUMPI PUSH0 DUP1 REVERT JUMPDEST DUP2 CALLDATALOAD PUSH8 0xFFFFFFFFFFFFFFFF DUP1 DUP3 GT ISZERO PUSH2 0x2AE7 JUMPI PUSH2 0x2AE7 PUSH2 0x2AA9 JUMP JUMPDEST PUSH1 0x40 MLOAD PUSH1 0x1F DUP4 ADD PUSH1 0x1F NOT SWAP1 DUP2 AND PUSH1 0x3F ADD AND DUP2 ADD SWAP1 DUP3 DUP3 GT DUP2 DUP4 LT OR ISZERO PUSH2 0x2B0F JUMPI PUSH2 0x2B0F PUSH2 0x2AA9 JUMP JUMPDEST DUP2 PUSH1 0x40 MSTORE DUP4 DUP2 MSTORE DUP7 PUSH1 0x20 DUP6 DUP9 ADD ADD GT ISZERO PUSH2 0x2B27 JUMPI PUSH0 DUP1 REVERT JUMPDEST DUP4 PUSH1 0x20 DUP8 ADD PUSH1 0x20 DUP4 ADD CALLDATACOPY PUSH0 PUSH1 0x20 DUP6 DUP4 ADD ADD MSTORE DUP1 SWAP5 POP POP POP POP POP SWAP3 SWAP2 POP POP JUMP JUMPDEST PUSH0 DUP1 PUSH0 DUP1 PUSH0 DUP1 PUSH0 DUP1 PUSH0 DUP1 PUSH2 0x140 DUP12 DUP14 SUB SLT ISZERO PUSH2 0x2B60 JUMPI PUSH0 DUP1 REVERT JUMPDEST PUSH2 0x2B69 DUP12 PUSH2 0x2945 JUMP JUMPDEST SWAP10 POP PUSH1 0x20 DUP12 ADD CALLDATALOAD PUSH8 0xFFFFFFFFFFFFFFFF DUP1 DUP3 GT ISZERO PUSH2 0x2B85 JUMPI PUSH0 DUP1 REVERT JUMPDEST PUSH2 0x2B91 DUP15 DUP4 DUP16 ADD PUSH2 0x2ABD JUMP JUMPDEST SWAP11 POP PUSH1 0x40 DUP14 ADD CALLDATALOAD SWAP2 POP DUP1 DUP3 GT ISZERO PUSH2 0x2BA6 JUMPI PUSH0 DUP1 REVERT JUMPDEST POP PUSH2 0x2BB3 DUP14 DUP3 DUP15 ADD PUSH2 0x2ABD JUMP JUMPDEST SWAP9 POP POP PUSH2 0x2BC2 PUSH1 0x60 DUP13 ADD PUSH2 0x2945 JUMP JUMPDEST SWAP7 POP PUSH2 0x2BD0 PUSH1 0x80 DUP13 ADD PUSH2 0x2945 JUMP JUMPDEST SWAP6 POP PUSH2 0x2BDE PUSH1 0xA0 DUP13 ADD PUSH2 0x2945 JUMP JUMPDEST SWAP5 POP PUSH2 0x2BEC PUSH1 0xC0 DUP13 ADD PUSH2 0x2945 JUMP JUMPDEST SWAP4 POP PUSH2 0x2BFA PUSH1 0xE0 DUP13 ADD PUSH2 0x2945 JUMP JUMPDEST SWAP3 POP PUSH2 0x100 DUP12 ADD CALLDATALOAD SWAP2 POP PUSH2 0x120 DUP12 ADD CALLDATALOAD SWAP1 POP SWAP3 SWAP6 SWAP9 SWAP12 SWAP2 SWAP5 SWAP8 SWAP11 POP SWAP3 SWAP6 SWAP9 POP JUMP JUMPDEST PUSH0 DUP1 PUSH0 PUSH1 0x60 DUP5 DUP7 SUB SLT ISZERO PUSH2 0x2C2D JUMPI PUSH0 DUP1 REVERT JUMPDEST DUP4 CALLDATALOAD SWAP3 POP PUSH1 0x20 DUP5 ADD CALLDATALOAD PUSH2 0x2C3F DUP2 PUSH2 0x2931 JUMP JUMPDEST SWAP2 POP PUSH1 0x40 DUP5 ADD CALLDATALOAD PUSH2 0x2C4F DUP2 PUSH2 0x2931 JUMP JUMPDEST DUP1 SWAP2 POP POP SWAP3 POP SWAP3 POP SWAP3 JUMP JUMPDEST PUSH0 DUP1 PUSH1 0x40 DUP4 DUP6 SUB SLT ISZERO PUSH2 0x2C6B JUMPI PUSH0 DUP1 REVERT JUMPDEST DUP3 CALLDATALOAD PUSH2 0x2C76 DUP2 PUSH2 0x2931 JUMP JUMPDEST SWAP2 POP PUSH1 0x20 DUP4 ADD CALLDATALOAD PUSH2 0x2A9E DUP2 PUSH2 0x2931 JUMP JUMPDEST PUSH4 0x4E487B71 PUSH1 0xE0 SHL PUSH0 MSTORE PUSH1 0x11 PUSH1 0x4 MSTORE PUSH1 0x24 PUSH0 REVERT JUMPDEST DUP1 DUP3 ADD DUP1 DUP3 GT ISZERO PUSH2 0x756 JUMPI PUSH2 0x756 PUSH2 0x2C86 JUMP JUMPDEST PUSH1 0x1 DUP2 DUP2 SHR SWAP1 DUP3 AND DUP1 PUSH2 0x2CC1 JUMPI PUSH1 0x7F DUP3 AND SWAP2 POP JUMPDEST PUSH1 0x20 DUP3 LT DUP2 SUB PUSH2 0x2CDF JUMPI PUSH4 0x4E487B71 PUSH1 0xE0 SHL PUSH0 MSTORE PUSH1 0x22 PUSH1 0x4 MSTORE PUSH1 0x24 PUSH0 REVERT JUMPDEST POP SWAP2 SWAP1 POP JUMP JUMPDEST PUSH1 0xFF DUP2 DUP2 AND DUP4 DUP3 AND ADD SWAP1 DUP2 GT ISZERO PUSH2 0x756 JUMPI PUSH2 0x756 PUSH2 0x2C86 JUMP JUMPDEST PUSH1 0x20 DUP1 DUP3 MSTORE PUSH1 0x26 SWAP1 DUP3 ADD MSTORE PUSH32 0x42726965725661756C743A2063616C6C6572206973206E6F7420746865206578 PUSH1 0x40 DUP3 ADD MSTORE PUSH6 0x32B1BABA37B9 PUSH1 0xD1 SHL PUSH1 0x60 DUP3 ADD MSTORE PUSH1 0x80 ADD SWAP1 JUMP JUMPDEST PUSH0 PUSH1 0x20 DUP3 DUP5 SUB SLT ISZERO PUSH2 0x2D54 JUMPI PUSH0 DUP1 REVERT JUMPDEST POP MLOAD SWAP2 SWAP1 POP JUMP JUMPDEST DUP2 DUP2 SUB DUP2 DUP2 GT ISZERO PUSH2 0x756 JUMPI PUSH2 0x756 PUSH2 0x2C86 JUMP JUMPDEST DUP1 DUP3 MUL DUP2 ISZERO DUP3 DUP3 DIV DUP5 EQ OR PUSH2 0x756 JUMPI PUSH2 0x756 PUSH2 0x2C86 JUMP JUMPDEST PUSH4 0x4E487B71 PUSH1 0xE0 SHL PUSH0 MSTORE PUSH1 0x12 PUSH1 0x4 MSTORE PUSH1 0x24 PUSH0 REVERT JUMPDEST PUSH0 DUP3 PUSH2 0x2DA7 JUMPI PUSH2 0x2DA7 PUSH2 0x2D85 JUMP JUMPDEST POP DIV SWAP1 JUMP JUMPDEST PUSH1 0x1 PUSH1 0x1 PUSH1 0xA0 SHL SUB DUP8 AND DUP2 MSTORE PUSH1 0x20 DUP2 ADD DUP7 SWAP1 MSTORE PUSH1 0x40 DUP2 ADD DUP6 SWAP1 MSTORE PUSH1 0xA0 PUSH1 0x60 DUP3 ADD DUP2 SWAP1 MSTORE DUP2 ADD DUP4 SWAP1 MSTORE PUSH0 PUSH1 0x1 PUSH1 0x1 PUSH1 0xFB SHL SUB DUP5 GT ISZERO PUSH2 0x2DE8 JUMPI PUSH0 DUP1 REVERT JUMPDEST DUP4 PUSH1 0x5 SHL DUP1 DUP7 PUSH1 0xC0 DUP6 ADD CALLDATACOPY PUSH1 0x80 DUP4 ADD SWAP4 SWAP1 SWAP4 MSTORE POP ADD PUSH1 0xC0 ADD SWAP6 SWAP5 POP POP POP POP POP JUMP JUMPDEST PUSH0 DUP3 MLOAD PUSH2 0x2E1A DUP2 DUP5 PUSH1 0x20 DUP8 ADD PUSH2 0x28C6 JUMP JUMPDEST SWAP2 SWAP1 SWAP2 ADD SWAP3 SWAP2 POP POP JUMP JUMPDEST PUSH1 0x1 DUP2 DUP2 JUMPDEST DUP1 DUP6 GT ISZERO PUSH2 0x2E5E JUMPI DUP2 PUSH0 NOT DIV DUP3 GT ISZERO PUSH2 0x2E44 JUMPI PUSH2 0x2E44 PUSH2 0x2C86 JUMP JUMPDEST DUP1 DUP6 AND ISZERO PUSH2 0x2E51 JUMPI SWAP2 DUP2 MUL SWAP2 JUMPDEST SWAP4 DUP5 SHR SWAP4 SWAP1 DUP1 MUL SWAP1 PUSH2 0x2E29 JUMP JUMPDEST POP SWAP3 POP SWAP3 SWAP1 POP JUMP JUMPDEST PUSH0 DUP3 PUSH2 0x2E74 JUMPI POP PUSH1 0x1 PUSH2 0x756 JUMP JUMPDEST DUP2 PUSH2 0x2E80 JUMPI POP PUSH0 PUSH2 0x756 JUMP JUMPDEST DUP2 PUSH1 0x1 DUP2 EQ PUSH2 0x2E96 JUMPI PUSH1 0x2 DUP2 EQ PUSH2 0x2EA0 JUMPI PUSH2 0x2EBC JUMP JUMPDEST PUSH1 0x1 SWAP2 POP POP PUSH2 0x756 JUMP JUMPDEST PUSH1 0xFF DUP5 GT ISZERO PUSH2 0x2EB1 JUMPI PUSH2 0x2EB1 PUSH2 0x2C86 JUMP JUMPDEST POP POP PUSH1 0x1 DUP3 SHL PUSH2 0x756 JUMP JUMPDEST POP PUSH1 0x20 DUP4 LT PUSH2 0x133 DUP4 LT AND PUSH1 0x4E DUP5 LT PUSH1 0xB DUP5 LT AND OR ISZERO PUSH2 0x2EDF JUMPI POP DUP2 DUP2 EXP PUSH2 0x756 JUMP JUMPDEST PUSH2 0x2EE9 DUP4 DUP4 PUSH2 0x2E24 JUMP JUMPDEST DUP1 PUSH0 NOT DIV DUP3 GT ISZERO PUSH2 0x2EFC JUMPI PUSH2 0x2EFC PUSH2 0x2C86 JUMP JUMPDEST MUL SWAP4 SWAP3 POP POP POP JUMP JUMPDEST PUSH0 PUSH2 0x79D PUSH1 0xFF DUP5 AND DUP4 PUSH2 0x2E66 JUMP JUMPDEST PUSH1 0x1 PUSH1 0x1 PUSH1 0xA0 SHL SUB SWAP4 SWAP1 SWAP4 AND DUP4 MSTORE PUSH1 0x20 DUP4 ADD SWAP2 SWAP1 SWAP2 MSTORE PUSH1 0x40 DUP3 ADD MSTORE PUSH1 0x60 ADD SWAP1 JUMP JUMPDEST PUSH0 PUSH1 0x20 DUP3 DUP5 SUB SLT ISZERO PUSH2 0x2F43 JUMPI PUSH0 DUP1 REVERT JUMPDEST DUP2 MLOAD DUP1 ISZERO ISZERO DUP2 EQ PUSH2 0x79D JUMPI PUSH0 DUP1 REVERT JUMPDEST PUSH1 0x1F DUP3 GT ISZERO PUSH2 0x1830 JUMPI DUP1 PUSH0 MSTORE PUSH1 0x20 PUSH0 KECCAK256 PUSH1 0x1F DUP5 ADD PUSH1 0x5 SHR DUP2 ADD PUSH1 0x20 DUP6 LT ISZERO PUSH2 0x2F77 JUMPI POP DUP1 JUMPDEST PUSH1 0x1F DUP5 ADD PUSH1 0x5 SHR DUP3 ADD SWAP2 POP JUMPDEST DUP2 DUP2 LT ISZERO PUSH2 0x10CA JUMPI PUSH0 DUP2 SSTORE PUSH1 0x1 ADD PUSH2 0x2F83 JUMP JUMPDEST DUP2 MLOAD PUSH8 0xFFFFFFFFFFFFFFFF DUP2 GT ISZERO PUSH2 0x2FB0 JUMPI PUSH2 0x2FB0 PUSH2 0x2AA9 JUMP JUMPDEST PUSH2 0x2FC4 DUP2 PUSH2 0x2FBE DUP5 SLOAD PUSH2 0x2CAD JUMP JUMPDEST DUP5 PUSH2 0x2F52 JUMP JUMPDEST PUSH1 0x20 DUP1 PUSH1 0x1F DUP4 GT PUSH1 0x1 DUP2 EQ PUSH2 0x2FF7 JUMPI PUSH0 DUP5 ISZERO PUSH2 0x2FE0 JUMPI POP DUP6 DUP4 ADD MLOAD JUMPDEST PUSH0 NOT PUSH1 0x3 DUP7 SWAP1 SHL SHR NOT AND PUSH1 0x1 DUP6 SWAP1 SHL OR DUP6 SSTORE PUSH2 0x304E JUMP JUMPDEST PUSH0 DUP6 DUP2 MSTORE PUSH1 0x20 DUP2 KECCAK256 PUSH1 0x1F NOT DUP7 AND SWAP2 JUMPDEST DUP3 DUP2 LT ISZERO PUSH2 0x3025 JUMPI DUP9 DUP7 ADD MLOAD DUP3 SSTORE SWAP5 DUP5 ADD SWAP5 PUSH1 0x1 SWAP1 SWAP2 ADD SWAP1 DUP5 ADD PUSH2 0x3006 JUMP JUMPDEST POP DUP6 DUP3 LT ISZERO PUSH2 0x3042 JUMPI DUP8 DUP6 ADD MLOAD PUSH0 NOT PUSH1 0x3 DUP9 SWAP1 SHL PUSH1 0xF8 AND SHR NOT AND DUP2 SSTORE JUMPDEST POP POP PUSH1 0x1 DUP5 PUSH1 0x1 SHL ADD DUP6 SSTORE JUMPDEST POP POP POP POP POP POP JUMP JUMPDEST PUSH4 0x4E487B71 PUSH1 0xE0 SHL PUSH0 MSTORE PUSH1 0x21 PUSH1 0x4 MSTORE PUSH1 0x24 PUSH0 REVERT JUMPDEST PUSH0 PUSH1 0xFF DUP4 AND DUP1 PUSH2 0x307C JUMPI PUSH2 0x307C PUSH2 0x2D85 JUMP JUMPDEST DUP1 PUSH1 0xFF DUP5 AND MOD SWAP2 POP POP SWAP3 SWAP2 POP POP JUMP INVALID MSTORE 0xC6 ORIGIN SELFBALANCE 0xE1 DELEGATECALL PUSH30 0xB19D5CE0460030C497F067CA4CEBF71BA98EEADABE20BACE000773E532DF 0xED 0xE9 0x1F DIV 0xB1 0x2A PUSH20 0xD3D2ACD361424F41F76B4FB79F090161E36B4E00 0xCD MCOPY 0xD1 TLOAD PUSH15 0x187E77E9AEE88184C21F4F2182AB58 0x27 0xCB EXTCODESIZE PUSH31 0x7FBEDCD63F033009B779B17422D0DF92223018B32B4D1FA46E071723D6817 0xE2 BASEFEE PUSH14 0x3BECC55F00A264697066735822 SLT KECCAK256 DUP12 0x22 PUSH23 0x69AAEC5F5A845F36AAA10DC135C2BD62EEF8EDA74DD003 CODECOPY DUP3 GT REVERT 0xD7 SWAP12 PUSH5 0x736F6C6343 STOP ADDMOD XOR STOP CALLER "},"methodIdentifiers":{"BUILDER_SHARE_BPS()":"bb764a05","DEPOSITOR_SHARE_BPS()":"747a9828","PLATFORM_SHARE_BPS()":"d8464354","activeLockedCapital()":"d6de49ba","allowance(address,address)":"dd62ed3e","approve(address,uint256)":"095ea7b3","asset()":"38d52e0f","balanceOf(address)":"70a08231","brierDaemon()":"ffb1ca80","builderWallet()":"b364b4da","convertToAssets(uint256)":"07a2d13a","convertToShares(uint256)":"c6e6f592","decimals()":"313ce567","deposit(uint256,address)":"6e553f65","executeTrade(bytes32,bytes32,uint256[],uint256)":"55b624db","feeRecipient()":"46904840","idleCapital()":"6b401c3d","initialize(address,string,string,address,address,address,address,address,uint256,uint256)":"8152a05f","markTradeStale(bytes32)":"da28a9be","maxCapacity()":"59b6a0c9","maxDeposit(address)":"402d267d","maxMint(address)":"c63d75b6","maxRedeem(address)":"d905777e","maxWithdraw(address)":"ce96cb77","mint(uint256,address)":"94bf804d","name()":"06fdde03","owner()":"8da5cb5b","pause()":"8456cb59","paused()":"5c975abb","polymarketCTF()":"77eb4e23","previewDeposit(uint256)":"ef8b30f7","previewMint(uint256)":"b3d7f6b9","previewRedeem(uint256)":"4cdad506","previewWithdraw(uint256)":"0a28a477","redeem(uint256,address,address)":"ba087652","renounceOwnership()":"715018a6","setDaemon(address)":"401dbe23","setFeeRecipient(address)":"e74b981b","setMaxCapacity(uint256)":"453d91c1","settleMarket(bytes32,uint256)":"5552aa40","skinInGame()":"c7318d73","symbol()":"95d89b41","totalAssets()":"01e1d114","totalProfit()":"86001519","totalSupply()":"18160ddd","tradeLockedCapital(bytes32)":"be03007c","transfer(address,uint256)":"a9059cbb","transferFrom(address,address,uint256)":"23b872dd","transferOwnership(address)":"f2fde38b","triggerCircuitBreaker()":"8b19fc19","unpause()":"3f4ba83a","withdraw(uint256,address,address)":"b460af94"}}}}}