{
  "_format": "hh-sol-artifact-1",
  "contractName": "BrierVault",
  "sourceName": "contracts/BrierVault.sol",
  "abi": [
    {
      "inputs": [
        {
          "internalType": "contract IERC20",
          "name": "asset_",
          "type": "address"
        },
        {
          "internalType": "string",
          "name": "vaultName_",
          "type": "string"
        },
        {
          "internalType": "string",
          "name": "vaultSymbol_",
          "type": "string"
        },
        {
          "internalType": "address",
          "name": "_brierDaemon",
          "type": "address"
        },
        {
          "internalType": "address",
          "name": "_builderWallet",
          "type": "address"
        },
        {
          "internalType": "address",
          "name": "_polymarketCTF",
          "type": "address"
        },
        {
          "internalType": "address",
          "name": "_vaultOwner",
          "type": "address"
        },
        {
          "internalType": "uint256",
          "name": "_performanceFeeBps",
          "type": "uint256"
        }
      ],
      "stateMutability": "nonpayable",
      "type": "constructor"
    },
    {
      "inputs": [
        {
          "internalType": "address",
          "name": "spender",
          "type": "address"
        },
        {
          "internalType": "uint256",
          "name": "allowance",
          "type": "uint256"
        },
        {
          "internalType": "uint256",
          "name": "needed",
          "type": "uint256"
        }
      ],
      "name": "ERC20InsufficientAllowance",
      "type": "error"
    },
    {
      "inputs": [
        {
          "internalType": "address",
          "name": "sender",
          "type": "address"
        },
        {
          "internalType": "uint256",
          "name": "balance",
          "type": "uint256"
        },
        {
          "internalType": "uint256",
          "name": "needed",
          "type": "uint256"
        }
      ],
      "name": "ERC20InsufficientBalance",
      "type": "error"
    },
    {
      "inputs": [
        {
          "internalType": "address",
          "name": "approver",
          "type": "address"
        }
      ],
      "name": "ERC20InvalidApprover",
      "type": "error"
    },
    {
      "inputs": [
        {
          "internalType": "address",
          "name": "receiver",
          "type": "address"
        }
      ],
      "name": "ERC20InvalidReceiver",
      "type": "error"
    },
    {
      "inputs": [
        {
          "internalType": "address",
          "name": "sender",
          "type": "address"
        }
      ],
      "name": "ERC20InvalidSender",
      "type": "error"
    },
    {
      "inputs": [
        {
          "internalType": "address",
          "name": "spender",
          "type": "address"
        }
      ],
      "name": "ERC20InvalidSpender",
      "type": "error"
    },
    {
      "inputs": [
        {
          "internalType": "address",
          "name": "receiver",
          "type": "address"
        },
        {
          "internalType": "uint256",
          "name": "assets",
          "type": "uint256"
        },
        {
          "internalType": "uint256",
          "name": "max",
          "type": "uint256"
        }
      ],
      "name": "ERC4626ExceededMaxDeposit",
      "type": "error"
    },
    {
      "inputs": [
        {
          "internalType": "address",
          "name": "receiver",
          "type": "address"
        },
        {
          "internalType": "uint256",
          "name": "shares",
          "type": "uint256"
        },
        {
          "internalType": "uint256",
          "name": "max",
          "type": "uint256"
        }
      ],
      "name": "ERC4626ExceededMaxMint",
      "type": "error"
    },
    {
      "inputs": [
        {
          "internalType": "address",
          "name": "owner",
          "type": "address"
        },
        {
          "internalType": "uint256",
          "name": "shares",
          "type": "uint256"
        },
        {
          "internalType": "uint256",
          "name": "max",
          "type": "uint256"
        }
      ],
      "name": "ERC4626ExceededMaxRedeem",
      "type": "error"
    },
    {
      "inputs": [
        {
          "internalType": "address",
          "name": "owner",
          "type": "address"
        },
        {
          "internalType": "uint256",
          "name": "assets",
          "type": "uint256"
        },
        {
          "internalType": "uint256",
          "name": "max",
          "type": "uint256"
        }
      ],
      "name": "ERC4626ExceededMaxWithdraw",
      "type": "error"
    },
    {
      "inputs": [],
      "name": "EnforcedPause",
      "type": "error"
    },
    {
      "inputs": [],
      "name": "ExpectedPause",
      "type": "error"
    },
    {
      "inputs": [
        {
          "internalType": "address",
          "name": "owner",
          "type": "address"
        }
      ],
      "name": "OwnableInvalidOwner",
      "type": "error"
    },
    {
      "inputs": [
        {
          "internalType": "address",
          "name": "account",
          "type": "address"
        }
      ],
      "name": "OwnableUnauthorizedAccount",
      "type": "error"
    },
    {
      "inputs": [
        {
          "internalType": "address",
          "name": "token",
          "type": "address"
        }
      ],
      "name": "SafeERC20FailedOperation",
      "type": "error"
    },
    {
      "anonymous": false,
      "inputs": [
        {
          "indexed": true,
          "internalType": "address",
          "name": "owner",
          "type": "address"
        },
        {
          "indexed": true,
          "internalType": "address",
          "name": "spender",
          "type": "address"
        },
        {
          "indexed": false,
          "internalType": "uint256",
          "name": "value",
          "type": "uint256"
        }
      ],
      "name": "Approval",
      "type": "event"
    },
    {
      "anonymous": false,
      "inputs": [
        {
          "indexed": true,
          "internalType": "address",
          "name": "sender",
          "type": "address"
        },
        {
          "indexed": true,
          "internalType": "address",
          "name": "owner",
          "type": "address"
        },
        {
          "indexed": false,
          "internalType": "uint256",
          "name": "assets",
          "type": "uint256"
        },
        {
          "indexed": false,
          "internalType": "uint256",
          "name": "shares",
          "type": "uint256"
        }
      ],
      "name": "Deposit",
      "type": "event"
    },
    {
      "anonymous": false,
      "inputs": [
        {
          "indexed": true,
          "internalType": "address",
          "name": "previousOwner",
          "type": "address"
        },
        {
          "indexed": true,
          "internalType": "address",
          "name": "newOwner",
          "type": "address"
        }
      ],
      "name": "OwnershipTransferred",
      "type": "event"
    },
    {
      "anonymous": false,
      "inputs": [
        {
          "indexed": false,
          "internalType": "address",
          "name": "account",
          "type": "address"
        }
      ],
      "name": "Paused",
      "type": "event"
    },
    {
      "anonymous": false,
      "inputs": [
        {
          "indexed": true,
          "internalType": "address",
          "name": "builder",
          "type": "address"
        },
        {
          "indexed": false,
          "internalType": "uint256",
          "name": "amount",
          "type": "uint256"
        }
      ],
      "name": "PerformanceFeePaid",
      "type": "event"
    },
    {
      "anonymous": false,
      "inputs": [
        {
          "indexed": true,
          "internalType": "bytes32",
          "name": "conditionId",
          "type": "bytes32"
        },
        {
          "indexed": false,
          "internalType": "uint256",
          "name": "amount",
          "type": "uint256"
        }
      ],
      "name": "TradeExecuted",
      "type": "event"
    },
    {
      "anonymous": false,
      "inputs": [
        {
          "indexed": true,
          "internalType": "address",
          "name": "from",
          "type": "address"
        },
        {
          "indexed": true,
          "internalType": "address",
          "name": "to",
          "type": "address"
        },
        {
          "indexed": false,
          "internalType": "uint256",
          "name": "value",
          "type": "uint256"
        }
      ],
      "name": "Transfer",
      "type": "event"
    },
    {
      "anonymous": false,
      "inputs": [
        {
          "indexed": false,
          "internalType": "address",
          "name": "account",
          "type": "address"
        }
      ],
      "name": "Unpaused",
      "type": "event"
    },
    {
      "anonymous": false,
      "inputs": [
        {
          "indexed": true,
          "internalType": "address",
          "name": "sender",
          "type": "address"
        },
        {
          "indexed": true,
          "internalType": "address",
          "name": "receiver",
          "type": "address"
        },
        {
          "indexed": true,
          "internalType": "address",
          "name": "owner",
          "type": "address"
        },
        {
          "indexed": false,
          "internalType": "uint256",
          "name": "assets",
          "type": "uint256"
        },
        {
          "indexed": false,
          "internalType": "uint256",
          "name": "shares",
          "type": "uint256"
        }
      ],
      "name": "Withdraw",
      "type": "event"
    },
    {
      "inputs": [
        {
          "internalType": "address",
          "name": "owner",
          "type": "address"
        },
        {
          "internalType": "address",
          "name": "spender",
          "type": "address"
        }
      ],
      "name": "allowance",
      "outputs": [
        {
          "internalType": "uint256",
          "name": "",
          "type": "uint256"
        }
      ],
      "stateMutability": "view",
      "type": "function"
    },
    {
      "inputs": [
        {
          "internalType": "address",
          "name": "spender",
          "type": "address"
        },
        {
          "internalType": "uint256",
          "name": "value",
          "type": "uint256"
        }
      ],
      "name": "approve",
      "outputs": [
        {
          "internalType": "bool",
          "name": "",
          "type": "bool"
        }
      ],
      "stateMutability": "nonpayable",
      "type": "function"
    },
    {
      "inputs": [],
      "name": "asset",
      "outputs": [
        {
          "internalType": "address",
          "name": "",
          "type": "address"
        }
      ],
      "stateMutability": "view",
      "type": "function"
    },
    {
      "inputs": [
        {
          "internalType": "address",
          "name": "account",
          "type": "address"
        }
      ],
      "name": "balanceOf",
      "outputs": [
        {
          "internalType": "uint256",
          "name": "",
          "type": "uint256"
        }
      ],
      "stateMutability": "view",
      "type": "function"
    },
    {
      "inputs": [],
      "name": "brierDaemon",
      "outputs": [
        {
          "internalType": "address",
          "name": "",
          "type": "address"
        }
      ],
      "stateMutability": "view",
      "type": "function"
    },
    {
      "inputs": [],
      "name": "builderWallet",
      "outputs": [
        {
          "internalType": "address",
          "name": "",
          "type": "address"
        }
      ],
      "stateMutability": "view",
      "type": "function"
    },
    {
      "inputs": [
        {
          "internalType": "uint256",
          "name": "shares",
          "type": "uint256"
        }
      ],
      "name": "convertToAssets",
      "outputs": [
        {
          "internalType": "uint256",
          "name": "",
          "type": "uint256"
        }
      ],
      "stateMutability": "view",
      "type": "function"
    },
    {
      "inputs": [
        {
          "internalType": "uint256",
          "name": "assets",
          "type": "uint256"
        }
      ],
      "name": "convertToShares",
      "outputs": [
        {
          "internalType": "uint256",
          "name": "",
          "type": "uint256"
        }
      ],
      "stateMutability": "view",
      "type": "function"
    },
    {
      "inputs": [],
      "name": "decimals",
      "outputs": [
        {
          "internalType": "uint8",
          "name": "",
          "type": "uint8"
        }
      ],
      "stateMutability": "view",
      "type": "function"
    },
    {
      "inputs": [
        {
          "internalType": "uint256",
          "name": "assets",
          "type": "uint256"
        },
        {
          "internalType": "address",
          "name": "receiver",
          "type": "address"
        }
      ],
      "name": "deposit",
      "outputs": [
        {
          "internalType": "uint256",
          "name": "",
          "type": "uint256"
        }
      ],
      "stateMutability": "nonpayable",
      "type": "function"
    },
    {
      "inputs": [
        {
          "internalType": "bytes32",
          "name": "conditionId",
          "type": "bytes32"
        },
        {
          "internalType": "uint256[]",
          "name": "partition",
          "type": "uint256[]"
        },
        {
          "internalType": "uint256",
          "name": "amount",
          "type": "uint256"
        }
      ],
      "name": "executeMirrorTrade",
      "outputs": [],
      "stateMutability": "nonpayable",
      "type": "function"
    },
    {
      "inputs": [
        {
          "internalType": "address",
          "name": "",
          "type": "address"
        }
      ],
      "name": "maxDeposit",
      "outputs": [
        {
          "internalType": "uint256",
          "name": "",
          "type": "uint256"
        }
      ],
      "stateMutability": "view",
      "type": "function"
    },
    {
      "inputs": [
        {
          "internalType": "address",
          "name": "",
          "type": "address"
        }
      ],
      "name": "maxMint",
      "outputs": [
        {
          "internalType": "uint256",
          "name": "",
          "type": "uint256"
        }
      ],
      "stateMutability": "view",
      "type": "function"
    },
    {
      "inputs": [
        {
          "internalType": "address",
          "name": "owner",
          "type": "address"
        }
      ],
      "name": "maxRedeem",
      "outputs": [
        {
          "internalType": "uint256",
          "name": "",
          "type": "uint256"
        }
      ],
      "stateMutability": "view",
      "type": "function"
    },
    {
      "inputs": [
        {
          "internalType": "address",
          "name": "owner",
          "type": "address"
        }
      ],
      "name": "maxWithdraw",
      "outputs": [
        {
          "internalType": "uint256",
          "name": "",
          "type": "uint256"
        }
      ],
      "stateMutability": "view",
      "type": "function"
    },
    {
      "inputs": [
        {
          "internalType": "uint256",
          "name": "shares",
          "type": "uint256"
        },
        {
          "internalType": "address",
          "name": "receiver",
          "type": "address"
        }
      ],
      "name": "mint",
      "outputs": [
        {
          "internalType": "uint256",
          "name": "",
          "type": "uint256"
        }
      ],
      "stateMutability": "nonpayable",
      "type": "function"
    },
    {
      "inputs": [],
      "name": "name",
      "outputs": [
        {
          "internalType": "string",
          "name": "",
          "type": "string"
        }
      ],
      "stateMutability": "view",
      "type": "function"
    },
    {
      "inputs": [],
      "name": "owner",
      "outputs": [
        {
          "internalType": "address",
          "name": "",
          "type": "address"
        }
      ],
      "stateMutability": "view",
      "type": "function"
    },
    {
      "inputs": [],
      "name": "pause",
      "outputs": [],
      "stateMutability": "nonpayable",
      "type": "function"
    },
    {
      "inputs": [],
      "name": "paused",
      "outputs": [
        {
          "internalType": "bool",
          "name": "",
          "type": "bool"
        }
      ],
      "stateMutability": "view",
      "type": "function"
    },
    {
      "inputs": [],
      "name": "performanceFeeBps",
      "outputs": [
        {
          "internalType": "uint256",
          "name": "",
          "type": "uint256"
        }
      ],
      "stateMutability": "view",
      "type": "function"
    },
    {
      "inputs": [],
      "name": "polymarketCTF",
      "outputs": [
        {
          "internalType": "address",
          "name": "",
          "type": "address"
        }
      ],
      "stateMutability": "view",
      "type": "function"
    },
    {
      "inputs": [
        {
          "internalType": "uint256",
          "name": "assets",
          "type": "uint256"
        }
      ],
      "name": "previewDeposit",
      "outputs": [
        {
          "internalType": "uint256",
          "name": "",
          "type": "uint256"
        }
      ],
      "stateMutability": "view",
      "type": "function"
    },
    {
      "inputs": [
        {
          "internalType": "uint256",
          "name": "shares",
          "type": "uint256"
        }
      ],
      "name": "previewMint",
      "outputs": [
        {
          "internalType": "uint256",
          "name": "",
          "type": "uint256"
        }
      ],
      "stateMutability": "view",
      "type": "function"
    },
    {
      "inputs": [
        {
          "internalType": "uint256",
          "name": "shares",
          "type": "uint256"
        }
      ],
      "name": "previewRedeem",
      "outputs": [
        {
          "internalType": "uint256",
          "name": "",
          "type": "uint256"
        }
      ],
      "stateMutability": "view",
      "type": "function"
    },
    {
      "inputs": [
        {
          "internalType": "uint256",
          "name": "assets",
          "type": "uint256"
        }
      ],
      "name": "previewWithdraw",
      "outputs": [
        {
          "internalType": "uint256",
          "name": "",
          "type": "uint256"
        }
      ],
      "stateMutability": "view",
      "type": "function"
    },
    {
      "inputs": [
        {
          "internalType": "uint256",
          "name": "shares",
          "type": "uint256"
        },
        {
          "internalType": "address",
          "name": "receiver",
          "type": "address"
        },
        {
          "internalType": "address",
          "name": "owner",
          "type": "address"
        }
      ],
      "name": "redeem",
      "outputs": [
        {
          "internalType": "uint256",
          "name": "",
          "type": "uint256"
        }
      ],
      "stateMutability": "nonpayable",
      "type": "function"
    },
    {
      "inputs": [],
      "name": "renounceOwnership",
      "outputs": [],
      "stateMutability": "nonpayable",
      "type": "function"
    },
    {
      "inputs": [
        {
          "internalType": "address",
          "name": "_newDaemon",
          "type": "address"
        }
      ],
      "name": "setDaemon",
      "outputs": [],
      "stateMutability": "nonpayable",
      "type": "function"
    },
    {
      "inputs": [
        {
          "internalType": "uint256",
          "name": "_newFeeBps",
          "type": "uint256"
        }
      ],
      "name": "setPerformanceFee",
      "outputs": [],
      "stateMutability": "nonpayable",
      "type": "function"
    },
    {
      "inputs": [
        {
          "internalType": "bytes32",
          "name": "",
          "type": "bytes32"
        },
        {
          "internalType": "uint256",
          "name": "initialInvestment",
          "type": "uint256"
        },
        {
          "internalType": "uint256",
          "name": "payout",
          "type": "uint256"
        }
      ],
      "name": "settleMarket",
      "outputs": [],
      "stateMutability": "nonpayable",
      "type": "function"
    },
    {
      "inputs": [],
      "name": "symbol",
      "outputs": [
        {
          "internalType": "string",
          "name": "",
          "type": "string"
        }
      ],
      "stateMutability": "view",
      "type": "function"
    },
    {
      "inputs": [],
      "name": "totalAssets",
      "outputs": [
        {
          "internalType": "uint256",
          "name": "",
          "type": "uint256"
        }
      ],
      "stateMutability": "view",
      "type": "function"
    },
    {
      "inputs": [],
      "name": "totalProfit",
      "outputs": [
        {
          "internalType": "uint256",
          "name": "",
          "type": "uint256"
        }
      ],
      "stateMutability": "view",
      "type": "function"
    },
    {
      "inputs": [],
      "name": "totalSupply",
      "outputs": [
        {
          "internalType": "uint256",
          "name": "",
          "type": "uint256"
        }
      ],
      "stateMutability": "view",
      "type": "function"
    },
    {
      "inputs": [
        {
          "internalType": "address",
          "name": "to",
          "type": "address"
        },
        {
          "internalType": "uint256",
          "name": "value",
          "type": "uint256"
        }
      ],
      "name": "transfer",
      "outputs": [
        {
          "internalType": "bool",
          "name": "",
          "type": "bool"
        }
      ],
      "stateMutability": "nonpayable",
      "type": "function"
    },
    {
      "inputs": [
        {
          "internalType": "address",
          "name": "from",
          "type": "address"
        },
        {
          "internalType": "address",
          "name": "to",
          "type": "address"
        },
        {
          "internalType": "uint256",
          "name": "value",
          "type": "uint256"
        }
      ],
      "name": "transferFrom",
      "outputs": [
        {
          "internalType": "bool",
          "name": "",
          "type": "bool"
        }
      ],
      "stateMutability": "nonpayable",
      "type": "function"
    },
    {
      "inputs": [
        {
          "internalType": "address",
          "name": "newOwner",
          "type": "address"
        }
      ],
      "name": "transferOwnership",
      "outputs": [],
      "stateMutability": "nonpayable",
      "type": "function"
    },
    {
      "inputs": [],
      "name": "unpause",
      "outputs": [],
      "stateMutability": "nonpayable",
      "type": "function"
    },
    {
      "inputs": [
        {
          "internalType": "uint256",
          "name": "assets",
          "type": "uint256"
        },
        {
          "internalType": "address",
          "name": "receiver",
          "type": "address"
        },
        {
          "internalType": "address",
          "name": "owner",
          "type": "address"
        }
      ],
      "name": "withdraw",
      "outputs": [
        {
          "internalType": "uint256",
          "name": "",
          "type": "uint256"
        }
      ],
      "stateMutability": "nonpayable",
      "type": "function"
    }
  ],
  "bytecode": "0x60c060405234801562000010575f80fd5b50604051620020c3380380620020c38339810160408190526200003391620002f9565b8188888860036200004583826200045d565b5060046200005482826200045d565b5050505f806200006a836200011560201b60201c565b91509150816200007c5760126200007e565b805b60ff1660a05250506001600160a01b039081166080528116620000ba57604051631e4fbdf760e01b81525f600482015260240160405180910390fd5b620000c581620001ae565b50600680546001600160a01b03199081166001600160a01b03978816179091556008805482169587169590951790945560078054909416929094169190911790915550600a555062000529915050565b5f80806200012260405190565b6040805160048152602481019091526020810180516001600160e01b0390811663313ce56760e01b179091529192505f9182916200016491889190620001ff16565b5090925090506200017483604052565b81801562000183575060203d10155b801562000191575060ff8111155b6200019e575f80620001a2565b6001815b94509450505050915091565b600580546001600160a01b038381166001600160a01b0319831681179093556040519116919082907f8be0079c531659141344cd1fd0a4f28419497f9722a3daafe3b4186f6b6457e0905f90a35050565b5f805f60405f855160208701885afa92505f51915060205190509250925092565b6001600160a01b038116811462000235575f80fd5b50565b634e487b7160e01b5f52604160045260245ffd5b5f82601f8301126200025c575f80fd5b81516001600160401b038082111562000279576200027962000238565b604051601f8301601f19908116603f01168101908282118183101715620002a457620002a462000238565b8160405283815260209250866020858801011115620002c1575f80fd5b5f91505b83821015620002e45785820183015181830184015290820190620002c5565b5f602085830101528094505050505092915050565b5f805f805f805f80610100898b03121562000312575f80fd5b88516200031f8162000220565b60208a01519098506001600160401b03808211156200033c575f80fd5b6200034a8c838d016200024c565b985060408b015191508082111562000360575f80fd5b506200036f8b828c016200024c565b9650506060890151620003828162000220565b60808a0151909550620003958162000220565b60a08a0151909450620003a88162000220565b60c08a0151909350620003bb8162000220565b8092505060e089015190509295985092959890939650565b600181811c90821680620003e857607f821691505b6020821081036200040757634e487b7160e01b5f52602260045260245ffd5b50919050565b601f8211156200045857805f5260205f20601f840160051c81016020851015620004345750805b601f840160051c820191505b8181101562000455575f815560010162000440565b50505b505050565b81516001600160401b0381111562000479576200047962000238565b62000491816200048a8454620003d3565b846200040d565b602080601f831160018114620004c7575f8415620004af5750858301515b5f19600386901b1c1916600185901b17855562000521565b5f85815260208120601f198616915b82811015620004f757888601518255948401946001909101908401620004d6565b50858210156200051557878501515f19600388901b60f8161c191681555b505060018460011b0185555b505050505050565b60805160a051611b4e620005755f395f61094a01525f81816103080152818161053c01528181610731015281816107d401528181610bc00152818161131e01526114250152611b4e5ff3fe608060405234801561000f575f80fd5b506004361061023f575f3560e01c80638456cb5911610135578063ba087652116100b4578063dd62ed3e11610079578063dd62ed3e146104c8578063ddb0adf714610500578063ef8b30f71461048f578063f2fde38b14610513578063ffb1ca8014610526575f80fd5b8063ba0876521461047c578063c63d75b61461035b578063c6e6f5921461048f578063ce96cb77146104a2578063d905777e146104b5575f80fd5b8063a9059cbb116100fa578063a9059cbb14610427578063b364b4da1461043a578063b3d7f6b91461044d578063b460af9414610460578063b9d4e87914610473575f80fd5b80638456cb59146103ea57806386001519146103f25780638da5cb5b146103fb57806394bf804d1461040c57806395d89b411461041f575f80fd5b80633f4ba83a116101c15780636e553f65116101865780636e553f651461038157806370897b231461039457806370a08231146103a7578063715018a6146103cf57806377eb4e23146103d7575f80fd5b80633f4ba83a14610340578063401dbe2314610348578063402d267d1461035b5780634cdad506146102735780635c975abb1461036f575f80fd5b806318160ddd1161020757806318160ddd146102bc5780631b1065fb146102c457806323b872dd146102d9578063313ce567146102ec57806338d52e0f14610306575f80fd5b806301e1d1141461024357806306fdde031461025e57806307a2d13a14610273578063095ea7b3146102865780630a28a477146102a9575b5f80fd5b61024b610539565b6040519081526020015b60405180910390f35b6102666105c8565b6040516102559190611609565b61024b61028136600461163b565b610658565b61029961029436600461166d565b610669565b6040519015158152602001610255565b61024b6102b736600461163b565b610680565b60025461024b565b6102d76102d2366004611695565b61068c565b005b6102996102e7366004611713565b61091e565b6102f4610943565b60405160ff9091168152602001610255565b7f00000000000000000000000000000000000000000000000000000000000000005b6040516001600160a01b039091168152602001610255565b6102d761096e565b6102d761035636600461174c565b610980565b61024b61036936600461174c565b505f1990565b600554600160a01b900460ff16610299565b61024b61038f366004611765565b6109aa565b6102d76103a236600461163b565b6109bd565b61024b6103b536600461174c565b6001600160a01b03165f9081526020819052604090205490565b6102d7610a1c565b600754610328906001600160a01b031681565b6102d7610a2d565b61024b60095481565b6005546001600160a01b0316610328565b61024b61041a366004611765565b610a3d565b610266610a50565b61029961043536600461166d565b610a5f565b600854610328906001600160a01b031681565b61024b61045b36600461163b565b610a6c565b61024b61046e36600461178f565b610a78565b61024b600a5481565b61024b61048a36600461178f565b610ace565b61024b61049d36600461163b565b610b1b565b61024b6104b036600461174c565b610b26565b61024b6104c336600461174c565b610b2f565b61024b6104d63660046117c8565b6001600160a01b039182165f90815260016020908152604080832093909416825291909152205490565b6102d761050e3660046117f0565b610b4c565b6102d761052136600461174c565b610c99565b600654610328906001600160a01b031681565b5f7f00000000000000000000000000000000000000000000000000000000000000006040516370a0823160e01b81523060048201526001600160a01b0391909116906370a0823190602401602060405180830381865afa15801561059f573d5f803e3d5ffd5b505050506040513d601f19601f820116820180604052508101906105c39190611819565b905090565b6060600380546105d790611830565b80601f016020809104026020016040519081016040528092919081815260200182805461060390611830565b801561064e5780601f106106255761010080835404028352916020019161064e565b820191905f5260205f20905b81548152906001019060200180831161063157829003601f168201915b5050505050905090565b5f610663825f610cd6565b92915050565b5f33610676818585610d0e565b5060019392505050565b5f610663826001610d1b565b6006546001600160a01b031633146106bf5760405162461bcd60e51b81526004016106b690611868565b60405180910390fd5b6106c7610d4a565b6106cf610539565b81111561072f5760405162461bcd60e51b815260206004820152602860248201527f42726965725661756c743a20496e73756666696369656e74207661756c74206c604482015267697175696469747960c01b60648201526084016106b6565b7f000000000000000000000000000000000000000000000000000000000000000060075460405163095ea7b360e01b81526001600160a01b0391821660048201526024810184905291169063095ea7b3906044016020604051808303815f875af115801561079f573d5f803e3d5ffd5b505050506040513d601f19601f820116820180604052508101906107c391906118ac565b506007545f906001600160a01b03167f000000000000000000000000000000000000000000000000000000000000000060405161080d91905f9089908990899089906024016118cb565b60408051601f198184030181529181526020820180516001600160e01b03166372ce427560e01b179052516108429190611928565b5f604051808303815f865af19150503d805f811461087b576040519150601f19603f3d011682016040523d82523d5f602084013e610880565b606091505b50509050806108dd5760405162461bcd60e51b8152602060048201526024808201527f42726965725661756c743a204354462073706c6974506f736974696f6e2066616044820152631a5b195960e21b60648201526084016106b6565b847f5933a51e3f187adbd3f927aa2f3f7aec185b35615022dcf9b92e3e01784b88928360405161090f91815260200190565b60405180910390a25050505050565b5f3361092b858285610d75565b610936858585610dde565b60019150505b9392505050565b5f6105c3817f0000000000000000000000000000000000000000000000000000000000000000611957565b610976610e3b565b61097e610e68565b565b610988610e3b565b600680546001600160a01b0319166001600160a01b0392909216919091179055565b5f6109b3610d4a565b61093c8383610ebd565b6109c5610e3b565b611388811115610a175760405162461bcd60e51b815260206004820152601860248201527f42726965725661756c743a2046656520746f6f2068696768000000000000000060448201526064016106b6565b600a55565b610a24610e3b565b61097e5f610ee0565b610a35610e3b565b61097e610f31565b5f610a46610d4a565b61093c8383610f74565b6060600480546105d790611830565b5f33610676818585610dde565b5f610663826001610cd6565b5f80610a8383610b26565b905080851115610aac57828582604051633fa733bb60e21b81526004016106b693929190611970565b5f610ab686610680565b9050610ac53386868985610f8f565b95945050505050565b5f80610ad983610b2f565b905080851115610b0257828582604051632e52afbb60e21b81526004016106b693929190611970565b5f610b0c86610658565b9050610ac5338686848a610f8f565b5f610663825f610d1b565b5f610663610281835b6001600160a01b0381165f90815260208190526040812054610663565b6006546001600160a01b03163314610b765760405162461bcd60e51b81526004016106b690611868565b81811115610c94575f610b898383611991565b90505f612710600a5483610b9d91906119a4565b610ba791906119cf565b90508160095f828254610bba91906119e2565b909155507f0000000000000000000000000000000000000000000000000000000000000000905060085460405163a9059cbb60e01b81526001600160a01b0391821660048201526024810184905291169063a9059cbb906044016020604051808303815f875af1158015610c30573d5f803e3d5ffd5b505050506040513d601f19601f82011682018060405250810190610c5491906118ac565b506008546040518281526001600160a01b03909116907fafdbf88d8a6e3bd4dbd770e775c7e168f61db74aea5e21852ac1061bf1cb625d9060200161090f565b505050565b610ca1610e3b565b6001600160a01b038116610cca57604051631e4fbdf760e01b81525f60048201526024016106b6565b610cd381610ee0565b50565b5f61093c610ce2610539565b610ced9060016119e2565b610cf85f600a611ad5565b600254610d0591906119e2565b8591908561102e565b610c948383836001611070565b5f61093c610d2a82600a611ad5565b600254610d3791906119e2565b610d3f610539565b610d059060016119e2565b600554600160a01b900460ff161561097e5760405163d93c066560e01b815260040160405180910390fd5b6001600160a01b038381165f908152600160209081526040808320938616835292905220545f19811015610dd85781811015610dca57828183604051637dc7a0d960e11b81526004016106b693929190611970565b610dd884848484035f611070565b50505050565b6001600160a01b038316610e0757604051634b637e8f60e11b81525f60048201526024016106b6565b6001600160a01b038216610e305760405163ec442f0560e01b81525f60048201526024016106b6565b610c94838383611142565b6005546001600160a01b0316331461097e5760405163118cdaa760e01b81523360048201526024016106b6565b610e70611255565b6005805460ff60a01b191690557f5db9ee0a495bf2e6ff9c91a7834c1ba4fdd244a5e8aa4e537bd38aeae4b073aa335b6040516001600160a01b03909116815260200160405180910390a1565b5f5f195f610eca85610b1b565b9050610ed83385878461127f565b949350505050565b600580546001600160a01b038381166001600160a01b0319831681179093556040519116919082907f8be0079c531659141344cd1fd0a4f28419497f9722a3daafe3b4186f6b6457e0905f90a35050565b610f39610d4a565b6005805460ff60a01b1916600160a01b1790557f62e78cea01bee320cd4e420270b5ea74000d11b0c9f74754ebdbfc544b05a258610ea03390565b5f5f195f610f8185610a6c565b9050610ed83385838861127f565b826001600160a01b0316856001600160a01b031614610fb357610fb3838683610d75565b610fbd83826112e1565b610fc78483611319565b826001600160a01b0316846001600160a01b0316866001600160a01b03167ffbde797d201c681b91056529119e0b02407c7bb96a4a2c75c01fc9667232c8db858560405161101f929190918252602082015260400190565b60405180910390a45050505050565b5f61105b61103b83611344565b801561105657505f8480611051576110516119bb565b868809115b151590565b611066868686611370565b610ac591906119e2565b6001600160a01b0384166110995760405163e602df0560e01b81525f60048201526024016106b6565b6001600160a01b0383166110c257604051634a1406b160e11b81525f60048201526024016106b6565b6001600160a01b038085165f9081526001602090815260408083209387168352929052208290558015610dd857826001600160a01b0316846001600160a01b03167f8c5be1e5ebec7d5bd14f71427d1e84f3dd0314c0f7b2291e5b200ac8c7c3b9258460405161113491815260200190565b60405180910390a350505050565b6001600160a01b03831661116c578060025f82825461116191906119e2565b909155506111c99050565b6001600160a01b0383165f90815260208190526040902054818110156111ab5783818360405163391434e360e21b81526004016106b693929190611970565b6001600160a01b0384165f9081526020819052604090209082900390555b6001600160a01b0382166111e557600280548290039055611203565b6001600160a01b0382165f9081526020819052604090208054820190555b816001600160a01b0316836001600160a01b03167fddf252ad1be2c89b69c2b068fc378daa952ba7f163c4a11628f55a4df523b3ef8360405161124891815260200190565b60405180910390a3505050565b600554600160a01b900460ff1661097e57604051638dfc202b60e01b815260040160405180910390fd5b6112898483611420565b611293838261144c565b826001600160a01b0316846001600160a01b03167fdcbc1c05240f31ff3ad067ef1ee35ce4997762752e3a095284754544f4c709d78484604051611134929190918252602082015260400190565b6001600160a01b03821661130a57604051634b637e8f60e11b81525f60048201526024016106b6565b611315825f83611142565b5050565b6113157f00000000000000000000000000000000000000000000000000000000000000008383611480565b5f600282600381111561135957611359611ae3565b6113639190611af7565b60ff166001149050919050565b5f805f61137d86866114b5565b91509150815f036113a157838181611397576113976119bb565b049250505061093c565b8184116113b8576113b860038515026011186114d1565b5f848688095f868103871696879004966002600389028118808a02820302808a02820302808a02820302808a02820302808a02820302808a02909103029181900381900460010185841190960395909502919093039390930492909217029150509392505050565b6113157f00000000000000000000000000000000000000000000000000000000000000008330846114e2565b6001600160a01b0382166114755760405163ec442f0560e01b81525f60048201526024016106b6565b6113155f8383611142565b61148d8383836001611518565b610c9457604051635274afe760e01b81526001600160a01b03841660048201526024016106b6565b5f805f1983850993909202808410938190039390930393915050565b634e487b715f52806020526024601cfd5b6114f084848484600161157a565b610dd857604051635274afe760e01b81526001600160a01b03851660048201526024016106b6565b60405163a9059cbb60e01b5f8181526001600160a01b038616600452602485905291602083604481808b5af1925060015f5114831661156e578383151615611562573d5f823e3d81fd5b5f873b113d1516831692505b60405250949350505050565b6040516323b872dd60e01b5f8181526001600160a01b038781166004528616602452604485905291602083606481808c5af1925060015f511483166115d65783831516156115ca573d5f823e3d81fd5b5f883b113d1516831692505b604052505f60605295945050505050565b5f5b838110156116015781810151838201526020016115e9565b50505f910152565b602081525f82518060208401526116278160408501602087016115e7565b601f01601f19169190910160400192915050565b5f6020828403121561164b575f80fd5b5035919050565b80356001600160a01b0381168114611668575f80fd5b919050565b5f806040838503121561167e575f80fd5b61168783611652565b946020939093013593505050565b5f805f80606085870312156116a8575f80fd5b84359350602085013567ffffffffffffffff808211156116c6575f80fd5b818701915087601f8301126116d9575f80fd5b8135818111156116e7575f80fd5b8860208260051b85010111156116fb575f80fd5b95986020929092019750949560400135945092505050565b5f805f60608486031215611725575f80fd5b61172e84611652565b925061173c60208501611652565b9150604084013590509250925092565b5f6020828403121561175c575f80fd5b61093c82611652565b5f8060408385031215611776575f80fd5b8235915061178660208401611652565b90509250929050565b5f805f606084860312156117a1575f80fd5b833592506117b160208501611652565b91506117bf60408501611652565b90509250925092565b5f80604083850312156117d9575f80fd5b6117e283611652565b915061178660208401611652565b5f805f60608486031215611802575f80fd5b505081359360208301359350604090920135919050565b5f60208284031215611829575f80fd5b5051919050565b600181811c9082168061184457607f821691505b60208210810361186257634e487b7160e01b5f52602260045260245ffd5b50919050565b60208082526024908201527f42726965725661756c743a2043616c6c6572206973206e6f742074686520646160408201526332b6b7b760e11b606082015260800190565b5f602082840312156118bc575f80fd5b8151801515811461093c575f80fd5b6001600160a01b0387168152602081018690526040810185905260a06060820181905281018390525f6001600160fb1b03841115611907575f80fd5b8360051b808660c08501376080830193909352500160c00195945050505050565b5f82516119398184602087016115e7565b9190910192915050565b634e487b7160e01b5f52601160045260245ffd5b60ff818116838216019081111561066357610663611943565b6001600160a01b039390931683526020830191909152604082015260600190565b8181038181111561066357610663611943565b808202811582820484141761066357610663611943565b634e487b7160e01b5f52601260045260245ffd5b5f826119dd576119dd6119bb565b500490565b8082018082111561066357610663611943565b600181815b80851115611a2f57815f1904821115611a1557611a15611943565b80851615611a2257918102915b93841c93908002906119fa565b509250929050565b5f82611a4557506001610663565b81611a5157505f610663565b8160018114611a675760028114611a7157611a8d565b6001915050610663565b60ff841115611a8257611a82611943565b50506001821b610663565b5060208310610133831016604e8410600b8410161715611ab0575081810a610663565b611aba83836119f5565b805f1904821115611acd57611acd611943565b029392505050565b5f61093c60ff841683611a37565b634e487b7160e01b5f52602160045260245ffd5b5f60ff831680611b0957611b096119bb565b8060ff8416069150509291505056fea2646970667358221220614881e92c2d66d728c757a08a511dff552891c847c1ad8543ad50a6acc6789564736f6c63430008180033",
  "linkReferences": {},
  "deployedLinkReferences": {}
}