{
  "_format": "hh-sol-artifact-1",
  "contractName": "BrierVault",
  "sourceName": "contracts/BrierVault.sol",
  "abi": [
    {
      "inputs": [],
      "stateMutability": "nonpayable",
      "type": "constructor"
    },
    {
      "inputs": [
        {
          "internalType": "address",
          "name": "target",
          "type": "address"
        }
      ],
      "name": "AddressEmptyCode",
      "type": "error"
    },
    {
      "inputs": [
        {
          "internalType": "address",
          "name": "account",
          "type": "address"
        }
      ],
      "name": "AddressInsufficientBalance",
      "type": "error"
    },
    {
      "inputs": [
        {
          "internalType": "address",
          "name": "spender",
          "type": "address"
        },
        {
          "internalType": "uint256",
          "name": "allowance",
          "type": "uint256"
        },
        {
          "internalType": "uint256",
          "name": "needed",
          "type": "uint256"
        }
      ],
      "name": "ERC20InsufficientAllowance",
      "type": "error"
    },
    {
      "inputs": [
        {
          "internalType": "address",
          "name": "sender",
          "type": "address"
        },
        {
          "internalType": "uint256",
          "name": "balance",
          "type": "uint256"
        },
        {
          "internalType": "uint256",
          "name": "needed",
          "type": "uint256"
        }
      ],
      "name": "ERC20InsufficientBalance",
      "type": "error"
    },
    {
      "inputs": [
        {
          "internalType": "address",
          "name": "approver",
          "type": "address"
        }
      ],
      "name": "ERC20InvalidApprover",
      "type": "error"
    },
    {
      "inputs": [
        {
          "internalType": "address",
          "name": "receiver",
          "type": "address"
        }
      ],
      "name": "ERC20InvalidReceiver",
      "type": "error"
    },
    {
      "inputs": [
        {
          "internalType": "address",
          "name": "sender",
          "type": "address"
        }
      ],
      "name": "ERC20InvalidSender",
      "type": "error"
    },
    {
      "inputs": [
        {
          "internalType": "address",
          "name": "spender",
          "type": "address"
        }
      ],
      "name": "ERC20InvalidSpender",
      "type": "error"
    },
    {
      "inputs": [
        {
          "internalType": "address",
          "name": "receiver",
          "type": "address"
        },
        {
          "internalType": "uint256",
          "name": "assets",
          "type": "uint256"
        },
        {
          "internalType": "uint256",
          "name": "max",
          "type": "uint256"
        }
      ],
      "name": "ERC4626ExceededMaxDeposit",
      "type": "error"
    },
    {
      "inputs": [
        {
          "internalType": "address",
          "name": "receiver",
          "type": "address"
        },
        {
          "internalType": "uint256",
          "name": "shares",
          "type": "uint256"
        },
        {
          "internalType": "uint256",
          "name": "max",
          "type": "uint256"
        }
      ],
      "name": "ERC4626ExceededMaxMint",
      "type": "error"
    },
    {
      "inputs": [
        {
          "internalType": "address",
          "name": "owner",
          "type": "address"
        },
        {
          "internalType": "uint256",
          "name": "shares",
          "type": "uint256"
        },
        {
          "internalType": "uint256",
          "name": "max",
          "type": "uint256"
        }
      ],
      "name": "ERC4626ExceededMaxRedeem",
      "type": "error"
    },
    {
      "inputs": [
        {
          "internalType": "address",
          "name": "owner",
          "type": "address"
        },
        {
          "internalType": "uint256",
          "name": "assets",
          "type": "uint256"
        },
        {
          "internalType": "uint256",
          "name": "max",
          "type": "uint256"
        }
      ],
      "name": "ERC4626ExceededMaxWithdraw",
      "type": "error"
    },
    {
      "inputs": [],
      "name": "EnforcedPause",
      "type": "error"
    },
    {
      "inputs": [],
      "name": "ExpectedPause",
      "type": "error"
    },
    {
      "inputs": [],
      "name": "FailedInnerCall",
      "type": "error"
    },
    {
      "inputs": [],
      "name": "InvalidInitialization",
      "type": "error"
    },
    {
      "inputs": [],
      "name": "MathOverflowedMulDiv",
      "type": "error"
    },
    {
      "inputs": [],
      "name": "NotInitializing",
      "type": "error"
    },
    {
      "inputs": [
        {
          "internalType": "address",
          "name": "owner",
          "type": "address"
        }
      ],
      "name": "OwnableInvalidOwner",
      "type": "error"
    },
    {
      "inputs": [
        {
          "internalType": "address",
          "name": "account",
          "type": "address"
        }
      ],
      "name": "OwnableUnauthorizedAccount",
      "type": "error"
    },
    {
      "inputs": [],
      "name": "ReentrancyGuardReentrantCall",
      "type": "error"
    },
    {
      "inputs": [
        {
          "internalType": "address",
          "name": "spender",
          "type": "address"
        },
        {
          "internalType": "uint256",
          "name": "currentAllowance",
          "type": "uint256"
        },
        {
          "internalType": "uint256",
          "name": "requestedDecrease",
          "type": "uint256"
        }
      ],
      "name": "SafeERC20FailedDecreaseAllowance",
      "type": "error"
    },
    {
      "inputs": [
        {
          "internalType": "address",
          "name": "token",
          "type": "address"
        }
      ],
      "name": "SafeERC20FailedOperation",
      "type": "error"
    },
    {
      "anonymous": false,
      "inputs": [
        {
          "indexed": true,
          "internalType": "address",
          "name": "owner",
          "type": "address"
        },
        {
          "indexed": true,
          "internalType": "address",
          "name": "spender",
          "type": "address"
        },
        {
          "indexed": false,
          "internalType": "uint256",
          "name": "value",
          "type": "uint256"
        }
      ],
      "name": "Approval",
      "type": "event"
    },
    {
      "anonymous": false,
      "inputs": [
        {
          "indexed": false,
          "internalType": "uint256",
          "name": "slashedAmount",
          "type": "uint256"
        }
      ],
      "name": "CircuitBreakerTriggered",
      "type": "event"
    },
    {
      "anonymous": false,
      "inputs": [
        {
          "indexed": true,
          "internalType": "address",
          "name": "oldDaemon",
          "type": "address"
        },
        {
          "indexed": true,
          "internalType": "address",
          "name": "newDaemon",
          "type": "address"
        }
      ],
      "name": "DaemonUpdated",
      "type": "event"
    },
    {
      "anonymous": false,
      "inputs": [
        {
          "indexed": true,
          "internalType": "address",
          "name": "sender",
          "type": "address"
        },
        {
          "indexed": true,
          "internalType": "address",
          "name": "owner",
          "type": "address"
        },
        {
          "indexed": false,
          "internalType": "uint256",
          "name": "assets",
          "type": "uint256"
        },
        {
          "indexed": false,
          "internalType": "uint256",
          "name": "shares",
          "type": "uint256"
        }
      ],
      "name": "Deposit",
      "type": "event"
    },
    {
      "anonymous": false,
      "inputs": [
        {
          "indexed": false,
          "internalType": "uint256",
          "name": "builderFee",
          "type": "uint256"
        },
        {
          "indexed": false,
          "internalType": "uint256",
          "name": "platformFee",
          "type": "uint256"
        },
        {
          "indexed": false,
          "internalType": "uint256",
          "name": "depositorProfit",
          "type": "uint256"
        }
      ],
      "name": "FeesDistributed",
      "type": "event"
    },
    {
      "anonymous": false,
      "inputs": [
        {
          "indexed": false,
          "internalType": "uint64",
          "name": "version",
          "type": "uint64"
        }
      ],
      "name": "Initialized",
      "type": "event"
    },
    {
      "anonymous": false,
      "inputs": [
        {
          "indexed": false,
          "internalType": "uint256",
          "name": "newCapacity",
          "type": "uint256"
        }
      ],
      "name": "MaxCapacityUpdated",
      "type": "event"
    },
    {
      "anonymous": false,
      "inputs": [
        {
          "indexed": true,
          "internalType": "address",
          "name": "previousOwner",
          "type": "address"
        },
        {
          "indexed": true,
          "internalType": "address",
          "name": "newOwner",
          "type": "address"
        }
      ],
      "name": "OwnershipTransferred",
      "type": "event"
    },
    {
      "anonymous": false,
      "inputs": [
        {
          "indexed": false,
          "internalType": "address",
          "name": "account",
          "type": "address"
        }
      ],
      "name": "Paused",
      "type": "event"
    },
    {
      "anonymous": false,
      "inputs": [
        {
          "indexed": true,
          "internalType": "address",
          "name": "funder",
          "type": "address"
        },
        {
          "indexed": false,
          "internalType": "uint256",
          "name": "amount",
          "type": "uint256"
        },
        {
          "indexed": false,
          "internalType": "uint256",
          "name": "totalSkin",
          "type": "uint256"
        }
      ],
      "name": "SkinFunded",
      "type": "event"
    },
    {
      "anonymous": false,
      "inputs": [
        {
          "indexed": true,
          "internalType": "bytes32",
          "name": "tradeId",
          "type": "bytes32"
        },
        {
          "indexed": true,
          "internalType": "bytes32",
          "name": "marketId",
          "type": "bytes32"
        },
        {
          "indexed": false,
          "internalType": "uint256",
          "name": "amount",
          "type": "uint256"
        }
      ],
      "name": "TradeExecuted",
      "type": "event"
    },
    {
      "anonymous": false,
      "inputs": [
        {
          "indexed": true,
          "internalType": "bytes32",
          "name": "tradeId",
          "type": "bytes32"
        },
        {
          "indexed": false,
          "internalType": "uint256",
          "name": "payout",
          "type": "uint256"
        },
        {
          "indexed": false,
          "internalType": "bool",
          "name": "profitable",
          "type": "bool"
        }
      ],
      "name": "TradeSettled",
      "type": "event"
    },
    {
      "anonymous": false,
      "inputs": [
        {
          "indexed": true,
          "internalType": "bytes32",
          "name": "tradeId",
          "type": "bytes32"
        }
      ],
      "name": "TradeStale",
      "type": "event"
    },
    {
      "anonymous": false,
      "inputs": [
        {
          "indexed": true,
          "internalType": "address",
          "name": "from",
          "type": "address"
        },
        {
          "indexed": true,
          "internalType": "address",
          "name": "to",
          "type": "address"
        },
        {
          "indexed": false,
          "internalType": "uint256",
          "name": "value",
          "type": "uint256"
        }
      ],
      "name": "Transfer",
      "type": "event"
    },
    {
      "anonymous": false,
      "inputs": [
        {
          "indexed": false,
          "internalType": "address",
          "name": "account",
          "type": "address"
        }
      ],
      "name": "Unpaused",
      "type": "event"
    },
    {
      "anonymous": false,
      "inputs": [
        {
          "indexed": true,
          "internalType": "address",
          "name": "sender",
          "type": "address"
        },
        {
          "indexed": true,
          "internalType": "address",
          "name": "receiver",
          "type": "address"
        },
        {
          "indexed": true,
          "internalType": "address",
          "name": "owner",
          "type": "address"
        },
        {
          "indexed": false,
          "internalType": "uint256",
          "name": "assets",
          "type": "uint256"
        },
        {
          "indexed": false,
          "internalType": "uint256",
          "name": "shares",
          "type": "uint256"
        }
      ],
      "name": "Withdraw",
      "type": "event"
    },
    {
      "inputs": [],
      "name": "BUILDER_SHARE_BPS",
      "outputs": [
        {
          "internalType": "uint256",
          "name": "",
          "type": "uint256"
        }
      ],
      "stateMutability": "view",
      "type": "function"
    },
    {
      "inputs": [],
      "name": "DEPOSITOR_SHARE_BPS",
      "outputs": [
        {
          "internalType": "uint256",
          "name": "",
          "type": "uint256"
        }
      ],
      "stateMutability": "view",
      "type": "function"
    },
    {
      "inputs": [],
      "name": "PLATFORM_SHARE_BPS",
      "outputs": [
        {
          "internalType": "uint256",
          "name": "",
          "type": "uint256"
        }
      ],
      "stateMutability": "view",
      "type": "function"
    },
    {
      "inputs": [],
      "name": "activeLockedCapital",
      "outputs": [
        {
          "internalType": "uint256",
          "name": "",
          "type": "uint256"
        }
      ],
      "stateMutability": "view",
      "type": "function"
    },
    {
      "inputs": [
        {
          "internalType": "address",
          "name": "owner",
          "type": "address"
        },
        {
          "internalType": "address",
          "name": "spender",
          "type": "address"
        }
      ],
      "name": "allowance",
      "outputs": [
        {
          "internalType": "uint256",
          "name": "",
          "type": "uint256"
        }
      ],
      "stateMutability": "view",
      "type": "function"
    },
    {
      "inputs": [
        {
          "internalType": "address",
          "name": "spender",
          "type": "address"
        },
        {
          "internalType": "uint256",
          "name": "value",
          "type": "uint256"
        }
      ],
      "name": "approve",
      "outputs": [
        {
          "internalType": "bool",
          "name": "",
          "type": "bool"
        }
      ],
      "stateMutability": "nonpayable",
      "type": "function"
    },
    {
      "inputs": [],
      "name": "asset",
      "outputs": [
        {
          "internalType": "address",
          "name": "",
          "type": "address"
        }
      ],
      "stateMutability": "view",
      "type": "function"
    },
    {
      "inputs": [
        {
          "internalType": "address",
          "name": "account",
          "type": "address"
        }
      ],
      "name": "balanceOf",
      "outputs": [
        {
          "internalType": "uint256",
          "name": "",
          "type": "uint256"
        }
      ],
      "stateMutability": "view",
      "type": "function"
    },
    {
      "inputs": [],
      "name": "brierDaemon",
      "outputs": [
        {
          "internalType": "address",
          "name": "",
          "type": "address"
        }
      ],
      "stateMutability": "view",
      "type": "function"
    },
    {
      "inputs": [],
      "name": "builderWallet",
      "outputs": [
        {
          "internalType": "address",
          "name": "",
          "type": "address"
        }
      ],
      "stateMutability": "view",
      "type": "function"
    },
    {
      "inputs": [
        {
          "internalType": "uint256",
          "name": "shares",
          "type": "uint256"
        }
      ],
      "name": "convertToAssets",
      "outputs": [
        {
          "internalType": "uint256",
          "name": "",
          "type": "uint256"
        }
      ],
      "stateMutability": "view",
      "type": "function"
    },
    {
      "inputs": [
        {
          "internalType": "uint256",
          "name": "assets",
          "type": "uint256"
        }
      ],
      "name": "convertToShares",
      "outputs": [
        {
          "internalType": "uint256",
          "name": "",
          "type": "uint256"
        }
      ],
      "stateMutability": "view",
      "type": "function"
    },
    {
      "inputs": [],
      "name": "decimals",
      "outputs": [
        {
          "internalType": "uint8",
          "name": "",
          "type": "uint8"
        }
      ],
      "stateMutability": "view",
      "type": "function"
    },
    {
      "inputs": [
        {
          "internalType": "uint256",
          "name": "assets",
          "type": "uint256"
        },
        {
          "internalType": "address",
          "name": "receiver",
          "type": "address"
        }
      ],
      "name": "deposit",
      "outputs": [
        {
          "internalType": "uint256",
          "name": "",
          "type": "uint256"
        }
      ],
      "stateMutability": "nonpayable",
      "type": "function"
    },
    {
      "inputs": [
        {
          "internalType": "bytes32",
          "name": "tradeId",
          "type": "bytes32"
        },
        {
          "internalType": "bytes32",
          "name": "marketId",
          "type": "bytes32"
        },
        {
          "internalType": "uint256[]",
          "name": "outcome",
          "type": "uint256[]"
        },
        {
          "internalType": "uint256",
          "name": "usdcAmount",
          "type": "uint256"
        }
      ],
      "name": "executeTrade",
      "outputs": [],
      "stateMutability": "nonpayable",
      "type": "function"
    },
    {
      "inputs": [],
      "name": "feeRecipient",
      "outputs": [
        {
          "internalType": "address",
          "name": "",
          "type": "address"
        }
      ],
      "stateMutability": "view",
      "type": "function"
    },
    {
      "inputs": [
        {
          "internalType": "uint256",
          "name": "amount",
          "type": "uint256"
        }
      ],
      "name": "fundSkinInGame",
      "outputs": [],
      "stateMutability": "nonpayable",
      "type": "function"
    },
    {
      "inputs": [],
      "name": "idleCapital",
      "outputs": [
        {
          "internalType": "uint256",
          "name": "",
          "type": "uint256"
        }
      ],
      "stateMutability": "view",
      "type": "function"
    },
    {
      "inputs": [
        {
          "internalType": "contract IERC20",
          "name": "asset_",
          "type": "address"
        },
        {
          "internalType": "string",
          "name": "vaultName_",
          "type": "string"
        },
        {
          "internalType": "string",
          "name": "vaultSymbol_",
          "type": "string"
        },
        {
          "internalType": "address",
          "name": "_brierDaemon",
          "type": "address"
        },
        {
          "internalType": "address",
          "name": "_builderWallet",
          "type": "address"
        },
        {
          "internalType": "address",
          "name": "_polymarketCTF",
          "type": "address"
        },
        {
          "internalType": "address",
          "name": "_gnosisSafeAdmin",
          "type": "address"
        },
        {
          "internalType": "address",
          "name": "_feeRecipient",
          "type": "address"
        },
        {
          "internalType": "uint256",
          "name": "_maxCapacity",
          "type": "uint256"
        },
        {
          "internalType": "uint256",
          "name": "_skinInGame",
          "type": "uint256"
        }
      ],
      "name": "initialize",
      "outputs": [],
      "stateMutability": "nonpayable",
      "type": "function"
    },
    {
      "inputs": [
        {
          "internalType": "bytes32",
          "name": "tradeId",
          "type": "bytes32"
        }
      ],
      "name": "markTradeStale",
      "outputs": [],
      "stateMutability": "nonpayable",
      "type": "function"
    },
    {
      "inputs": [],
      "name": "maxCapacity",
      "outputs": [
        {
          "internalType": "uint256",
          "name": "",
          "type": "uint256"
        }
      ],
      "stateMutability": "view",
      "type": "function"
    },
    {
      "inputs": [
        {
          "internalType": "address",
          "name": "",
          "type": "address"
        }
      ],
      "name": "maxDeposit",
      "outputs": [
        {
          "internalType": "uint256",
          "name": "",
          "type": "uint256"
        }
      ],
      "stateMutability": "view",
      "type": "function"
    },
    {
      "inputs": [
        {
          "internalType": "address",
          "name": "",
          "type": "address"
        }
      ],
      "name": "maxMint",
      "outputs": [
        {
          "internalType": "uint256",
          "name": "",
          "type": "uint256"
        }
      ],
      "stateMutability": "view",
      "type": "function"
    },
    {
      "inputs": [
        {
          "internalType": "address",
          "name": "owner",
          "type": "address"
        }
      ],
      "name": "maxRedeem",
      "outputs": [
        {
          "internalType": "uint256",
          "name": "",
          "type": "uint256"
        }
      ],
      "stateMutability": "view",
      "type": "function"
    },
    {
      "inputs": [
        {
          "internalType": "address",
          "name": "owner",
          "type": "address"
        }
      ],
      "name": "maxWithdraw",
      "outputs": [
        {
          "internalType": "uint256",
          "name": "",
          "type": "uint256"
        }
      ],
      "stateMutability": "view",
      "type": "function"
    },
    {
      "inputs": [
        {
          "internalType": "uint256",
          "name": "shares",
          "type": "uint256"
        },
        {
          "internalType": "address",
          "name": "receiver",
          "type": "address"
        }
      ],
      "name": "mint",
      "outputs": [
        {
          "internalType": "uint256",
          "name": "",
          "type": "uint256"
        }
      ],
      "stateMutability": "nonpayable",
      "type": "function"
    },
    {
      "inputs": [],
      "name": "name",
      "outputs": [
        {
          "internalType": "string",
          "name": "",
          "type": "string"
        }
      ],
      "stateMutability": "view",
      "type": "function"
    },
    {
      "inputs": [],
      "name": "owner",
      "outputs": [
        {
          "internalType": "address",
          "name": "",
          "type": "address"
        }
      ],
      "stateMutability": "view",
      "type": "function"
    },
    {
      "inputs": [],
      "name": "pause",
      "outputs": [],
      "stateMutability": "nonpayable",
      "type": "function"
    },
    {
      "inputs": [],
      "name": "paused",
      "outputs": [
        {
          "internalType": "bool",
          "name": "",
          "type": "bool"
        }
      ],
      "stateMutability": "view",
      "type": "function"
    },
    {
      "inputs": [],
      "name": "polymarketCTF",
      "outputs": [
        {
          "internalType": "address",
          "name": "",
          "type": "address"
        }
      ],
      "stateMutability": "view",
      "type": "function"
    },
    {
      "inputs": [
        {
          "internalType": "uint256",
          "name": "assets",
          "type": "uint256"
        }
      ],
      "name": "previewDeposit",
      "outputs": [
        {
          "internalType": "uint256",
          "name": "",
          "type": "uint256"
        }
      ],
      "stateMutability": "view",
      "type": "function"
    },
    {
      "inputs": [
        {
          "internalType": "uint256",
          "name": "shares",
          "type": "uint256"
        }
      ],
      "name": "previewMint",
      "outputs": [
        {
          "internalType": "uint256",
          "name": "",
          "type": "uint256"
        }
      ],
      "stateMutability": "view",
      "type": "function"
    },
    {
      "inputs": [
        {
          "internalType": "uint256",
          "name": "shares",
          "type": "uint256"
        }
      ],
      "name": "previewRedeem",
      "outputs": [
        {
          "internalType": "uint256",
          "name": "",
          "type": "uint256"
        }
      ],
      "stateMutability": "view",
      "type": "function"
    },
    {
      "inputs": [
        {
          "internalType": "uint256",
          "name": "assets",
          "type": "uint256"
        }
      ],
      "name": "previewWithdraw",
      "outputs": [
        {
          "internalType": "uint256",
          "name": "",
          "type": "uint256"
        }
      ],
      "stateMutability": "view",
      "type": "function"
    },
    {
      "inputs": [
        {
          "internalType": "uint256",
          "name": "shares",
          "type": "uint256"
        },
        {
          "internalType": "address",
          "name": "receiver",
          "type": "address"
        },
        {
          "internalType": "address",
          "name": "owner",
          "type": "address"
        }
      ],
      "name": "redeem",
      "outputs": [
        {
          "internalType": "uint256",
          "name": "",
          "type": "uint256"
        }
      ],
      "stateMutability": "nonpayable",
      "type": "function"
    },
    {
      "inputs": [],
      "name": "renounceOwnership",
      "outputs": [],
      "stateMutability": "nonpayable",
      "type": "function"
    },
    {
      "inputs": [],
      "name": "requiredSkinInGame",
      "outputs": [
        {
          "internalType": "uint256",
          "name": "",
          "type": "uint256"
        }
      ],
      "stateMutability": "view",
      "type": "function"
    },
    {
      "inputs": [
        {
          "internalType": "address",
          "name": "_newDaemon",
          "type": "address"
        }
      ],
      "name": "setDaemon",
      "outputs": [],
      "stateMutability": "nonpayable",
      "type": "function"
    },
    {
      "inputs": [
        {
          "internalType": "address",
          "name": "_newFeeRecipient",
          "type": "address"
        }
      ],
      "name": "setFeeRecipient",
      "outputs": [],
      "stateMutability": "nonpayable",
      "type": "function"
    },
    {
      "inputs": [
        {
          "internalType": "uint256",
          "name": "_maxCapacity",
          "type": "uint256"
        }
      ],
      "name": "setMaxCapacity",
      "outputs": [],
      "stateMutability": "nonpayable",
      "type": "function"
    },
    {
      "inputs": [
        {
          "internalType": "bytes32",
          "name": "tradeId",
          "type": "bytes32"
        },
        {
          "internalType": "uint256",
          "name": "payout",
          "type": "uint256"
        }
      ],
      "name": "settleMarket",
      "outputs": [],
      "stateMutability": "nonpayable",
      "type": "function"
    },
    {
      "inputs": [],
      "name": "skinInGame",
      "outputs": [
        {
          "internalType": "uint256",
          "name": "",
          "type": "uint256"
        }
      ],
      "stateMutability": "view",
      "type": "function"
    },
    {
      "inputs": [],
      "name": "symbol",
      "outputs": [
        {
          "internalType": "string",
          "name": "",
          "type": "string"
        }
      ],
      "stateMutability": "view",
      "type": "function"
    },
    {
      "inputs": [],
      "name": "totalAssets",
      "outputs": [
        {
          "internalType": "uint256",
          "name": "",
          "type": "uint256"
        }
      ],
      "stateMutability": "view",
      "type": "function"
    },
    {
      "inputs": [],
      "name": "totalProfit",
      "outputs": [
        {
          "internalType": "uint256",
          "name": "",
          "type": "uint256"
        }
      ],
      "stateMutability": "view",
      "type": "function"
    },
    {
      "inputs": [],
      "name": "totalSupply",
      "outputs": [
        {
          "internalType": "uint256",
          "name": "",
          "type": "uint256"
        }
      ],
      "stateMutability": "view",
      "type": "function"
    },
    {
      "inputs": [
        {
          "internalType": "bytes32",
          "name": "",
          "type": "bytes32"
        }
      ],
      "name": "tradeLockedCapital",
      "outputs": [
        {
          "internalType": "uint256",
          "name": "",
          "type": "uint256"
        }
      ],
      "stateMutability": "view",
      "type": "function"
    },
    {
      "inputs": [
        {
          "internalType": "address",
          "name": "to",
          "type": "address"
        },
        {
          "internalType": "uint256",
          "name": "value",
          "type": "uint256"
        }
      ],
      "name": "transfer",
      "outputs": [
        {
          "internalType": "bool",
          "name": "",
          "type": "bool"
        }
      ],
      "stateMutability": "nonpayable",
      "type": "function"
    },
    {
      "inputs": [
        {
          "internalType": "address",
          "name": "from",
          "type": "address"
        },
        {
          "internalType": "address",
          "name": "to",
          "type": "address"
        },
        {
          "internalType": "uint256",
          "name": "value",
          "type": "uint256"
        }
      ],
      "name": "transferFrom",
      "outputs": [
        {
          "internalType": "bool",
          "name": "",
          "type": "bool"
        }
      ],
      "stateMutability": "nonpayable",
      "type": "function"
    },
    {
      "inputs": [
        {
          "internalType": "address",
          "name": "newOwner",
          "type": "address"
        }
      ],
      "name": "transferOwnership",
      "outputs": [],
      "stateMutability": "nonpayable",
      "type": "function"
    },
    {
      "inputs": [],
      "name": "triggerCircuitBreaker",
      "outputs": [],
      "stateMutability": "nonpayable",
      "type": "function"
    },
    {
      "inputs": [],
      "name": "unpause",
      "outputs": [],
      "stateMutability": "nonpayable",
      "type": "function"
    },
    {
      "inputs": [
        {
          "internalType": "uint256",
          "name": "assets",
          "type": "uint256"
        },
        {
          "internalType": "address",
          "name": "receiver",
          "type": "address"
        },
        {
          "internalType": "address",
          "name": "owner",
          "type": "address"
        }
      ],
      "name": "withdraw",
      "outputs": [
        {
          "internalType": "uint256",
          "name": "",
          "type": "uint256"
        }
      ],
      "stateMutability": "nonpayable",
      "type": "function"
    }
  ],
  "bytecode": "0x608060405234801562000010575f80fd5b506200001b62000021565b620000d5565b7ff0c57e16840df040f15088dc2f81fe391c3923bec73e23a9662efc9c229c6a00805468010000000000000000900460ff1615620000725760405163f92ee8a960e01b815260040160405180910390fd5b80546001600160401b0390811614620000d25780546001600160401b0319166001600160401b0390811782556040519081527fc7f505b2f371ae2175ee4913f4499e1f2633a7b5936321eed1cdaeb6115181d29060200160405180910390a15b50565b61326980620000e35f395ff3fe608060405234801561000f575f80fd5b5060043610610333575f3560e01c80638456cb59116101af578063c63d75b6116100fe578063d905777e1161009e578063e74b981b11610079578063e74b981b14610680578063ef8b30f7146105fd578063f2fde38b14610693578063ffb1ca80146106a6575f80fd5b8063d905777e14610647578063da28a9be1461065a578063dd62ed3e1461066d575f80fd5b8063c96b2890116100d9578063c96b289014610619578063ce96cb7714610622578063d6de49ba14610635578063d84643541461063e575f80fd5b8063c63d75b614610454578063c6e6f592146105fd578063c7318d7314610610575f80fd5b8063a9059cbb11610169578063b460af9411610144578063b460af94146105af578063ba087652146105c2578063bb764a05146105d5578063be03007c146105de575f80fd5b8063a9059cbb14610576578063b364b4da14610589578063b3d7f6b91461059c575f80fd5b80638456cb591461053a57806386001519146105425780638b19fc191461054b5780638da5cb5b1461055357806394bf804d1461055b57806395d89b411461056e575f80fd5b8063453d91c1116102855780636b401c3d11610225578063715018a611610200578063715018a614610503578063747a98281461050b57806377eb4e23146105145780638152a05f14610527575f80fd5b80636b401c3d146104d45780636e553f65146104dd57806370a08231146104f0575f80fd5b80635552aa40116102605780635552aa401461048e57806355b624db146104a157806359b6a0c9146104b45780635c975abb146104bd575f80fd5b8063453d91c114610468578063469048401461047b5780634cdad50614610367575f80fd5b806318160ddd116102f057806338d52e0f116102cb57806338d52e0f146104195780633f4ba83a14610439578063401dbe2314610441578063402d267d14610454575f80fd5b806318160ddd146103c557806323b872dd146103ec578063313ce567146103ff575f80fd5b806301e1d1141461033757806306fdde031461035257806307a2d13a14610367578063095ea7b31461037a5780630a28a4771461039d578063113586a4146103b0575b5f80fd5b61033f6106b8565b6040519081526020015b60405180910390f35b61035a6106ce565b6040516103499190612a10565b61033f610375366004612a42565b61078e565b61038d610388366004612a7d565b61079f565b6040519015158152602001610349565b61033f6103ab366004612a42565b6107b6565b6103c36103be366004612a42565b6107c2565b005b7f52c63247e1f47db19d5ce0460030c497f067ca4cebf71ba98eeadabe20bace025461033f565b61038d6103fa366004612aa7565b6108b0565b6104076108d5565b60405160ff9091168152602001610349565b610421610904565b6040516001600160a01b039091168152602001610349565b6103c3610925565b6103c361044f366004612ae5565b610937565b61033f610462366004612ae5565b505f1990565b6103c3610476366004612a42565b6109e9565b600754610421906001600160a01b031681565b6103c361049c366004612b00565b610a7c565b6103c36104af366004612b20565b610e0b565b61033f60035481565b5f805160206131f48339815191525460ff1661038d565b61033f60015481565b61033f6104eb366004612ba3565b6111fd565b61033f6104fe366004612ae5565b611210565b6103c3611236565b61033f61177081565b600454610421906001600160a01b031681565b6103c3610535366004612c6e565b611247565b6103c3611524565b61033f60065481565b6103c3611534565b61042161163c565b61033f610569366004612ba3565b611664565b61035a611677565b61038d610584366004612a7d565b6116b5565b600554610421906001600160a01b031681565b61033f6105aa366004612a42565b6116c2565b61033f6105bd366004612d43565b6116ce565b61033f6105d0366004612d43565b611702565b61033f610bb881565b61033f6105ec366004612a42565b600a6020525f908152604090205481565b61033f61060b366004612a42565b61171e565b61033f60085481565b61033f60095481565b61033f610630366004612ae5565b611729565b61033f60025481565b61033f6103e881565b61033f610655366004612ae5565b61173c565b6103c3610668366004612a42565b611746565b61033f61067b366004612d82565b6117f6565b6103c361068e366004612ae5565b61183f565b6103c36106a1366004612ae5565b6118ba565b5f54610421906001600160a01b031681565b5f6002546001546106c99190612dc2565b905090565b7f52c63247e1f47db19d5ce0460030c497f067ca4cebf71ba98eeadabe20bace0380546060915f805160206131b48339815191529161070c90612dd5565b80601f016020809104026020016040519081016040528092919081815260200182805461073890612dd5565b80156107835780601f1061075a57610100808354040283529160200191610783565b820191905f5260205f20905b81548152906001019060200180831161076657829003601f168201915b505050505091505090565b5f610799825f6118f4565b92915050565b5f336107ac81858561194b565b5060019392505050565b5f61079982600161195d565b6107ca6119ab565b5f811161081e5760405162461bcd60e51b815260206004820152601760248201527f42726965725661756c743a207a65726f20616d6f756e7400000000000000000060448201526064015b60405180910390fd5b61083d33308361082c610904565b6001600160a01b03169291906119e2565b8060085f82825461084e9190612dc2565b909155505060085460405133917faab9c3c5e9c7d1e87f76d683a8ced00f9fa2dac9c914037c66ff5a185192c1239161088f91858252602082015260400190565b60405180910390a26108ad60015f8051602061321483398151915255565b50565b5f336108bd858285611a62565b6108c8858585611aac565b60019150505b9392505050565b5f805f805160206131d483398151915290505f81546108fe9190600160a01b900460ff16612e0d565b91505090565b5f805f805160206131d48339815191525b546001600160a01b031692915050565b61092d611b09565b610935611b3b565b565b61093f611b09565b6001600160a01b0381166109905760405162461bcd60e51b815260206004820152601860248201527742726965725661756c743a207a65726f206164647265737360401b6044820152606401610815565b5f80546040516001600160a01b03808516939216917f26f1333eb03795a71544ef03cd4bac00a69dc4f0c136c970c379b353d23753dc91a35f80546001600160a01b0319166001600160a01b0392909216919091179055565b6109f1611b09565b5f8111610a405760405162461bcd60e51b815260206004820152601960248201527f42726965725661756c743a207a65726f206361706163697479000000000000006044820152606401610815565b60038190556040518181527f8b8564868e5db4ac945b0fd897338876dcc0c95a5f183b340f47285ebbcb6af1906020015b60405180910390a150565b5f546001600160a01b03163314610aa55760405162461bcd60e51b815260040161081590612e26565b610aad6119ab565b5f828152600a602052604090205480610b1f5760405162461bcd60e51b815260206004820152602e60248201527f42726965725661756c743a207472616465206e6f7420666f756e64206f72206160448201526d1b1c9958591e481cd95d1d1b195960921b6064820152608401610815565b5f610b28610904565b6040516370a0823160e01b81523060048201526001600160a01b0391909116906370a0823190602401602060405180830381865afa158015610b6c573d5f803e3d5ffd5b505050506040513d601f19601f82011682018060405250810190610b909190612e6c565b905082600154610ba09190612dc2565b811015610c155760405162461bcd60e51b815260206004820152603760248201527f42726965725661756c743a207061796f7574206e6f742072656365697665642060448201527f2d2072656465656d2066726f6d204354462066697273740000000000000000006064820152608401610815565b5f848152600a6020526040812081905560028054849290610c37908490612e83565b909155505081831115610d9e575f610c4f8385612e83565b90505f612710610c61610bb884612e96565b610c6b9190612ec1565b90505f612710610c7d6103e885612e96565b610c879190612ec1565b90505f81610c958486612e83565b610c9f9190612e83565b90508360065f828254610cb29190612dc2565b90915550610cc290508187612dc2565b60015f828254610cd29190612dc2565b9091555050600554610d00906001600160a01b031684610cf0610904565b6001600160a01b03169190611b94565b600754610d19906001600160a01b031683610cf0610904565b60408051848152602081018490529081018290527f312c5308f42848705a866c73dec11fd0783c2d64aac6a97e94467062ad3f40589060600160405180910390a1604080518881526001602082015289917fb838176051aaad97f6ff91aa3a56c75219b4e7d94038a0bfb4bde3527f52dfb0910160405180910390a250505050610def565b8260015f828254610daf9190612dc2565b9091555050604080518481525f602082015285917fb838176051aaad97f6ff91aa3a56c75219b4e7d94038a0bfb4bde3527f52dfb0910160405180910390a25b5050610e0760015f8051602061321483398151915255565b5050565b5f546001600160a01b03163314610e345760405162461bcd60e51b815260040161081590612e26565b610e3c611bc5565b610e446119ab565b5f8111610e935760405162461bcd60e51b815260206004820152601e60248201527f42726965725661756c743a20616d6f756e74206d757374206265203e203000006044820152606401610815565b600154811115610ef35760405162461bcd60e51b815260206004820152602560248201527f42726965725661756c743a20696e73756666696369656e742069646c652063616044820152641c1a5d185b60da1b6064820152608401610815565b5f858152600a602052604090205415610f595760405162461bcd60e51b815260206004820152602260248201527f42726965725661756c743a207472616465496420616c72656164792061637469604482015261766560f01b6064820152608401610815565b6064610f636106b8565b610f6e906014612e96565b610f789190612ec1565b811115610fd35760405162461bcd60e51b815260206004820152602360248201527f42726965725661756c743a206578636565647320323025207472616465206c696044820152621b5a5d60ea1b6064820152608401610815565b8060015f828254610fe49190612e83565b925050819055508060025f828254610ffc9190612dc2565b90915550505f858152600a6020526040902081905560045461103a906001600160a01b03168261102a610904565b6001600160a01b03169190611bf5565b6004545f906001600160a01b0316611050610904565b60405161106a91905f908990899089908990602401612ed4565b60408051601f198184030181529181526020820180516001600160e01b03166372ce427560e01b1790525161109f9190612f31565b5f604051808303815f865af19150503d805f81146110d8576040519150601f19603f3d011682016040523d82523d5f602084013e6110dd565b606091505b50509050806111a45760045461110f906001600160a01b0316836110ff610904565b6001600160a01b03169190611c7c565b8160015f8282546111209190612dc2565b925050819055508160025f8282546111389190612e83565b90915550505f868152600a6020526040808220919091555162461bcd60e51b81526108159060040160208082526024908201527f42726965725661756c743a204354462073706c6974506f736974696f6e2066616040820152631a5b195960e21b606082015260800190565b84867f046b5c28a0efd2884fdc09e7246b9c9251b6429eb7fd2f84e7a704419276468f846040516111d791815260200190565b60405180910390a3506111f660015f8051602061321483398151915255565b5050505050565b5f611206611bc5565b6108ce8383611d23565b6001600160a01b03165f9081525f805160206131b4833981519152602052604090205490565b61123e611b09565b6109355f611d46565b7ff0c57e16840df040f15088dc2f81fe391c3923bec73e23a9662efc9c229c6a008054600160401b810460ff16159067ffffffffffffffff165f8115801561128c5750825b90505f8267ffffffffffffffff1660011480156112a85750303b155b9050811580156112b6575080155b156112d45760405163f92ee8a960e01b815260040160405180910390fd5b845467ffffffffffffffff1916600117855583156112fe57845460ff60401b1916600160401b1785555b6001600160a01b038c166113545760405162461bcd60e51b815260206004820152601f60248201527f42726965725661756c743a207a65726f206461656d6f6e2061646472657373006044820152606401610815565b6001600160a01b038b166113aa5760405162461bcd60e51b815260206004820181905260248201527f42726965725661756c743a207a65726f206275696c64657220616464726573736044820152606401610815565b6001600160a01b0388166114005760405162461bcd60e51b815260206004820152601e60248201527f42726965725661756c743a207a65726f2066656520726563697069656e7400006044820152606401610815565b5f871161144f5760405162461bcd60e51b815260206004820152601d60248201527f42726965725661756c743a207a65726f206d61782063617061636974790000006044820152606401610815565b6114588f611db6565b6114628e8e611dc7565b61146b89611dd9565b611473611dea565b61147b611dfa565b5f80546001600160a01b03808f166001600160a01b0319928316178355600580548f8316908416179055600480548e831690841617905560078054918c169190921617905560038890556009879055600855831561151357845460ff60401b19168555604051600181527fc7f505b2f371ae2175ee4913f4499e1f2633a7b5936321eed1cdaeb6115181d29060200160405180910390a15b505050505050505050505050505050565b61152c611b09565b610935611e0a565b5f546001600160a01b0316331461155d5760405162461bcd60e51b815260040161081590612e26565b6115656119ab565b5f600854116115c85760405162461bcd60e51b815260206004820152602960248201527f42726965725661756c743a204e6f20736b696e20696e2067616d65206c656674604482015268040e8de40e6d8c2e6d60bb1b6064820152608401610815565b600880545f9182905560018054919283926115e4908490612dc2565b909155506115f29050611e0a565b6040518181527fb93e15598c0191b5e8ad4033b4bfb998a7c8ba85d6b77f9dce086455bd2e8e229060200160405180910390a15061093560015f8051602061321483398151915255565b5f807f9016d09d72d40fdae2fd8ceac6b6234c7706214fd39c1cd1e609a0528c199300610915565b5f61166d611bc5565b6108ce8383611e52565b7f52c63247e1f47db19d5ce0460030c497f067ca4cebf71ba98eeadabe20bace0480546060915f805160206131b48339815191529161070c90612dd5565b5f336107ac818585611aac565b5f6107998260016118f4565b5f6116d7611bc5565b6116df6119ab565b6116ea848484611e6d565b90506108ce60015f8051602061321483398151915255565b5f61170b611bc5565b6117136119ab565b6116ea848484611ec3565b5f610799825f61195d565b5f61079961173683611210565b5f6118f4565b5f61079982611210565b5f546001600160a01b0316331461176f5760405162461bcd60e51b815260040161081590612e26565b5f818152600a60205260409020546117c95760405162461bcd60e51b815260206004820152601c60248201527f42726965725661756c743a207472616465206e6f7420616374697665000000006044820152606401610815565b60405181907f7b1d12f6854da251c168931aa977e79340efd6470c55fb00dbe8e921ca3fb769905f90a250565b6001600160a01b039182165f9081527f52c63247e1f47db19d5ce0460030c497f067ca4cebf71ba98eeadabe20bace016020908152604080832093909416825291909152205490565b611847611b09565b6001600160a01b0381166118985760405162461bcd60e51b815260206004820152601860248201527742726965725661756c743a207a65726f206164647265737360401b6044820152606401610815565b600780546001600160a01b0319166001600160a01b0392909216919091179055565b6118c2611b09565b6001600160a01b0381166118eb57604051631e4fbdf760e01b81525f6004820152602401610815565b6108ad81611d46565b5f6108ce6119006106b8565b61190b906001612dc2565b6119165f600a61302c565b7f52c63247e1f47db19d5ce0460030c497f067ca4cebf71ba98eeadabe20bace02546119429190612dc2565b85919085611f10565b6119588383836001611f5d565b505050565b5f6108ce61196c82600a61302c565b7f52c63247e1f47db19d5ce0460030c497f067ca4cebf71ba98eeadabe20bace02546119989190612dc2565b6119a06106b8565b611942906001612dc2565b5f805160206132148339815191528054600119016119dc57604051633ee5aeb560e01b815260040160405180910390fd5b60029055565b6040516001600160a01b038481166024830152838116604483015260648201839052611a499186918216906323b872dd906084015b604051602081830303815290604052915060e01b6020820180516001600160e01b038381831617835250505050612040565b50505050565b60015f8051602061321483398151915255565b5f611a6d84846117f6565b90505f198114611a495781811015611a9e57828183604051637dc7a0d960e11b81526004016108159392919061303a565b611a4984848484035f611f5d565b6001600160a01b038316611ad557604051634b637e8f60e11b81525f6004820152602401610815565b6001600160a01b038216611afe5760405163ec442f0560e01b81525f6004820152602401610815565b6119588383836120a1565b33611b1261163c565b6001600160a01b0316146109355760405163118cdaa760e01b8152336004820152602401610815565b611b436121c7565b5f805160206131f4833981519152805460ff191681557f5db9ee0a495bf2e6ff9c91a7834c1ba4fdd244a5e8aa4e537bd38aeae4b073aa335b6040516001600160a01b039091168152602001610a71565b6040516001600160a01b0383811660248301526044820183905261195891859182169063a9059cbb90606401611a17565b5f805160206131f48339815191525460ff16156109355760405163d93c066560e01b815260040160405180910390fd5b604051636eb1769f60e11b81523060048201526001600160a01b0383811660248301525f919085169063dd62ed3e90604401602060405180830381865afa158015611c42573d5f803e3d5ffd5b505050506040513d601f19601f82011682018060405250810190611c669190612e6c565b9050611a498484611c778585612dc2565b6121f6565b604051636eb1769f60e11b81523060048201526001600160a01b0383811660248301525f919085169063dd62ed3e90604401602060405180830381865afa158015611cc9573d5f803e3d5ffd5b505050506040513d601f19601f82011682018060405250810190611ced9190612e6c565b905081811015611d165782818360405163e570110f60e01b81526004016108159392919061303a565b611a4984848484036121f6565b5f5f195f611d308561171e565b9050611d3e33858784612285565b949350505050565b7f9016d09d72d40fdae2fd8ceac6b6234c7706214fd39c1cd1e609a0528c19930080546001600160a01b031981166001600160a01b03848116918217845560405192169182907f8be0079c531659141344cd1fd0a4f28419497f9722a3daafe3b4186f6b6457e0905f90a3505050565b611dbe612311565b6108ad8161235a565b611dcf612311565b610e0782826123ca565b611de1612311565b6108ad8161241a565b611df2612311565b610935612422565b611e02612311565b610935612442565b611e12611bc5565b5f805160206131f4833981519152805460ff191660011781557f62e78cea01bee320cd4e420270b5ea74000d11b0c9f74754ebdbfc544b05a25833611b7c565b5f5f195f611e5f856116c2565b9050611d3e33858388612285565b5f80611e7883611729565b905080851115611ea157828582604051633fa733bb60e21b81526004016108159392919061303a565b5f611eab866107b6565b9050611eba338686898561244a565b95945050505050565b5f80611ece8361173c565b905080851115611ef757828582604051632e52afbb60e21b81526004016108159392919061303a565b5f611f018661078e565b9050611eba338686848a61244a565b5f80611f1d8686866124d6565b9050611f2883612595565b8015611f4357505f8480611f3e57611f3e612ead565b868809115b15611eba57611f53600182612dc2565b9695505050505050565b5f805160206131b48339815191526001600160a01b038516611f945760405163e602df0560e01b81525f6004820152602401610815565b6001600160a01b038416611fbd57604051634a1406b160e11b81525f6004820152602401610815565b6001600160a01b038086165f908152600183016020908152604080832093881683529290522083905581156111f657836001600160a01b0316856001600160a01b03167f8c5be1e5ebec7d5bd14f71427d1e84f3dd0314c0f7b2291e5b200ac8c7c3b9258560405161203191815260200190565b60405180910390a35050505050565b5f6120546001600160a01b038416836125c1565b905080515f14158015612078575080806020019051810190612076919061305b565b155b1561195857604051635274afe760e01b81526001600160a01b0384166004820152602401610815565b5f805160206131b48339815191526001600160a01b0384166120db5781816002015f8282546120d09190612dc2565b909155506121389050565b6001600160a01b0384165f908152602082905260409020548281101561211a5784818460405163391434e360e21b81526004016108159392919061303a565b6001600160a01b0385165f9081526020839052604090209083900390555b6001600160a01b038316612156576002810180548390039055612174565b6001600160a01b0383165f9081526020829052604090208054830190555b826001600160a01b0316846001600160a01b03167fddf252ad1be2c89b69c2b068fc378daa952ba7f163c4a11628f55a4df523b3ef846040516121b991815260200190565b60405180910390a350505050565b5f805160206131f48339815191525460ff1661093557604051638dfc202b60e01b815260040160405180910390fd5b604080516001600160a01b038416602482015260448082018490528251808303909101815260649091019091526020810180516001600160e01b031663095ea7b360e01b17905261224784826125ce565b611a49576040516001600160a01b0384811660248301525f604483015261227b91869182169063095ea7b390606401611a17565b611a498482612040565b600354826122916106b8565b61229b9190612dc2565b11156122e95760405162461bcd60e51b815260206004820181905260248201527f42726965725661756c743a206d617820636170616369747920726561636865646044820152606401610815565b6122f58484848461266b565b8160015f8282546123069190612dc2565b909155505050505050565b7ff0c57e16840df040f15088dc2f81fe391c3923bec73e23a9662efc9c229c6a0054600160401b900460ff1661093557604051631afcd79f60e31b815260040160405180910390fd5b612362612311565b5f805160206131d48339815191525f8061237b846126e8565b915091508161238b57601261238d565b805b83546001600160a81b031916600160a01b60ff92909216919091026001600160a01b031916176001600160a01b0394909416939093179091555050565b6123d2612311565b5f805160206131b48339815191527f52c63247e1f47db19d5ce0460030c497f067ca4cebf71ba98eeadabe20bace0361240b84826130be565b5060048101611a4983826130be565b6118c2612311565b61242a612311565b5f805160206131f4833981519152805460ff19169055565b611a4f612311565b6001548211156124b25760405162461bcd60e51b815260206004820152602d60248201527f42726965725661756c743a206f6e6c792069646c65206361706974616c20697360448201526c20776974686472617761626c6560981b6064820152608401610815565b8160015f8282546124c39190612e83565b909155506111f6905085858585856127be565b5f838302815f1985870982811083820303915050805f0361250a5783828161250057612500612ead565b04925050506108ce565b80841161252a5760405163227bc15360e01b815260040160405180910390fd5b5f848688095f868103871696879004966002600389028118808a02820302808a02820302808a02820302808a02820302808a02820302808a02909103029181900381900460010186841190950394909402919094039290920491909117919091029150509392505050565b5f60028260038111156125aa576125aa61317e565b6125b49190613192565b60ff166001149050919050565b60606108ce83835f612872565b5f805f846001600160a01b0316846040516125e99190612f31565b5f604051808303815f865af19150503d805f8114612622576040519150601f19603f3d011682016040523d82523d5f602084013e612627565b606091505b5091509150818015612651575080511580612651575080806020019051810190612651919061305b565b8015611eba5750505050506001600160a01b03163b151590565b5f805160206131d48339815191528054612690906001600160a01b03168630866119e2565b61269a8483612901565b836001600160a01b0316856001600160a01b03167fdcbc1c05240f31ff3ad067ef1ee35ce4997762752e3a095284754544f4c709d78585604051612031929190918252602082015260400190565b60408051600481526024810182526020810180516001600160e01b031663313ce56760e01b17905290515f918291829182916001600160a01b0387169161272e91612f31565b5f60405180830381855afa9150503d805f8114612766576040519150601f19603f3d011682016040523d82523d5f602084013e61276b565b606091505b509150915081801561277f57506020815110155b156127b2575f818060200190518101906127999190612e6c565b905060ff81116127b0576001969095509350505050565b505b505f9485945092505050565b5f805160206131d48339815191526001600160a01b03868116908516146127ea576127ea848784611a62565b6127f48483612935565b805461280a906001600160a01b03168685611b94565b836001600160a01b0316856001600160a01b0316876001600160a01b03167ffbde797d201c681b91056529119e0b02407c7bb96a4a2c75c01fc9667232c8db8686604051612862929190918252602082015260400190565b60405180910390a4505050505050565b6060814710156128975760405163cd78605960e01b8152306004820152602401610815565b5f80856001600160a01b031684866040516128b29190612f31565b5f6040518083038185875af1925050503d805f81146128ec576040519150601f19603f3d011682016040523d82523d5f602084013e6128f1565b606091505b5091509150611f53868383612969565b6001600160a01b03821661292a5760405163ec442f0560e01b81525f6004820152602401610815565b610e075f83836120a1565b6001600160a01b03821661295e57604051634b637e8f60e11b81525f6004820152602401610815565b610e07825f836120a1565b60608261297e57612979826129c5565b6108ce565b815115801561299557506001600160a01b0384163b155b156129be57604051639996b31560e01b81526001600160a01b0385166004820152602401610815565b50806108ce565b8051156129d55780518082602001fd5b604051630a12f52160e11b815260040160405180910390fd5b5f5b83811015612a085781810151838201526020016129f0565b50505f910152565b602081525f8251806020840152612a2e8160408501602087016129ee565b601f01601f19169190910160400192915050565b5f60208284031215612a52575f80fd5b5035919050565b6001600160a01b03811681146108ad575f80fd5b8035612a7881612a59565b919050565b5f8060408385031215612a8e575f80fd5b8235612a9981612a59565b946020939093013593505050565b5f805f60608486031215612ab9575f80fd5b8335612ac481612a59565b92506020840135612ad481612a59565b929592945050506040919091013590565b5f60208284031215612af5575f80fd5b81356108ce81612a59565b5f8060408385031215612b11575f80fd5b50508035926020909101359150565b5f805f805f60808688031215612b34575f80fd5b8535945060208601359350604086013567ffffffffffffffff80821115612b59575f80fd5b818801915088601f830112612b6c575f80fd5b813581811115612b7a575f80fd5b8960208260051b8501011115612b8e575f80fd5b96999598505060200195606001359392505050565b5f8060408385031215612bb4575f80fd5b823591506020830135612bc681612a59565b809150509250929050565b634e487b7160e01b5f52604160045260245ffd5b5f82601f830112612bf4575f80fd5b813567ffffffffffffffff80821115612c0f57612c0f612bd1565b604051601f8301601f19908116603f01168101908282118183101715612c3757612c37612bd1565b81604052838152866020858801011115612c4f575f80fd5b836020870160208301375f602085830101528094505050505092915050565b5f805f805f805f805f806101408b8d031215612c88575f80fd5b612c918b612a6d565b995060208b013567ffffffffffffffff80821115612cad575f80fd5b612cb98e838f01612be5565b9a5060408d0135915080821115612cce575f80fd5b50612cdb8d828e01612be5565b985050612cea60608c01612a6d565b9650612cf860808c01612a6d565b9550612d0660a08c01612a6d565b9450612d1460c08c01612a6d565b9350612d2260e08c01612a6d565b92506101008b013591506101208b013590509295989b9194979a5092959850565b5f805f60608486031215612d55575f80fd5b833592506020840135612d6781612a59565b91506040840135612d7781612a59565b809150509250925092565b5f8060408385031215612d93575f80fd5b8235612d9e81612a59565b91506020830135612bc681612a59565b634e487b7160e01b5f52601160045260245ffd5b8082018082111561079957610799612dae565b600181811c90821680612de957607f821691505b602082108103612e0757634e487b7160e01b5f52602260045260245ffd5b50919050565b60ff818116838216019081111561079957610799612dae565b60208082526026908201527f42726965725661756c743a2063616c6c6572206973206e6f742074686520657860408201526532b1baba37b960d11b606082015260800190565b5f60208284031215612e7c575f80fd5b5051919050565b8181038181111561079957610799612dae565b808202811582820484141761079957610799612dae565b634e487b7160e01b5f52601260045260245ffd5b5f82612ecf57612ecf612ead565b500490565b6001600160a01b0387168152602081018690526040810185905260a06060820181905281018390525f6001600160fb1b03841115612f10575f80fd5b8360051b808660c08501376080830193909352500160c00195945050505050565b5f8251612f428184602087016129ee565b9190910192915050565b600181815b80851115612f8657815f1904821115612f6c57612f6c612dae565b80851615612f7957918102915b93841c9390800290612f51565b509250929050565b5f82612f9c57506001610799565b81612fa857505f610799565b8160018114612fbe5760028114612fc857612fe4565b6001915050610799565b60ff841115612fd957612fd9612dae565b50506001821b610799565b5060208310610133831016604e8410600b8410161715613007575081810a610799565b6130118383612f4c565b805f190482111561302457613024612dae565b029392505050565b5f6108ce60ff841683612f8e565b6001600160a01b039390931683526020830191909152604082015260600190565b5f6020828403121561306b575f80fd5b815180151581146108ce575f80fd5b601f82111561195857805f5260205f20601f840160051c8101602085101561309f5750805b601f840160051c820191505b818110156111f6575f81556001016130ab565b815167ffffffffffffffff8111156130d8576130d8612bd1565b6130ec816130e68454612dd5565b8461307a565b602080601f83116001811461311f575f84156131085750858301515b5f19600386901b1c1916600185901b178555613176565b5f85815260208120601f198616915b8281101561314d5788860151825594840194600190910190840161312e565b508582101561316a57878501515f19600388901b60f8161c191681555b505060018460011b0185555b505050505050565b634e487b7160e01b5f52602160045260245ffd5b5f60ff8316806131a4576131a4612ead565b8060ff8416069150509291505056fe52c63247e1f47db19d5ce0460030c497f067ca4cebf71ba98eeadabe20bace000773e532dfede91f04b12a73d3d2acd361424f41f76b4fb79f090161e36b4e00cd5ed15c6e187e77e9aee88184c21f4f2182ab5827cb3b7e07fbedcd63f033009b779b17422d0df92223018b32b4d1fa46e071723d6817e2486d003becc55f00a26469706673582212204d01b34b3d76e1dcbd0306bb7bc6e6b44179a50d1b055493199fd4f66953321264736f6c63430008180033",
  "linkReferences": {},
  "deployedLinkReferences": {}
}