{
  "_format": "hh-sol-artifact-1",
  "contractName": "BrierVault",
  "sourceName": "contracts/BrierVault.sol",
  "abi": [
    {
      "inputs": [],
      "stateMutability": "nonpayable",
      "type": "constructor"
    },
    {
      "inputs": [
        {
          "internalType": "address",
          "name": "target",
          "type": "address"
        }
      ],
      "name": "AddressEmptyCode",
      "type": "error"
    },
    {
      "inputs": [
        {
          "internalType": "address",
          "name": "account",
          "type": "address"
        }
      ],
      "name": "AddressInsufficientBalance",
      "type": "error"
    },
    {
      "inputs": [
        {
          "internalType": "address",
          "name": "spender",
          "type": "address"
        },
        {
          "internalType": "uint256",
          "name": "allowance",
          "type": "uint256"
        },
        {
          "internalType": "uint256",
          "name": "needed",
          "type": "uint256"
        }
      ],
      "name": "ERC20InsufficientAllowance",
      "type": "error"
    },
    {
      "inputs": [
        {
          "internalType": "address",
          "name": "sender",
          "type": "address"
        },
        {
          "internalType": "uint256",
          "name": "balance",
          "type": "uint256"
        },
        {
          "internalType": "uint256",
          "name": "needed",
          "type": "uint256"
        }
      ],
      "name": "ERC20InsufficientBalance",
      "type": "error"
    },
    {
      "inputs": [
        {
          "internalType": "address",
          "name": "approver",
          "type": "address"
        }
      ],
      "name": "ERC20InvalidApprover",
      "type": "error"
    },
    {
      "inputs": [
        {
          "internalType": "address",
          "name": "receiver",
          "type": "address"
        }
      ],
      "name": "ERC20InvalidReceiver",
      "type": "error"
    },
    {
      "inputs": [
        {
          "internalType": "address",
          "name": "sender",
          "type": "address"
        }
      ],
      "name": "ERC20InvalidSender",
      "type": "error"
    },
    {
      "inputs": [
        {
          "internalType": "address",
          "name": "spender",
          "type": "address"
        }
      ],
      "name": "ERC20InvalidSpender",
      "type": "error"
    },
    {
      "inputs": [
        {
          "internalType": "address",
          "name": "receiver",
          "type": "address"
        },
        {
          "internalType": "uint256",
          "name": "assets",
          "type": "uint256"
        },
        {
          "internalType": "uint256",
          "name": "max",
          "type": "uint256"
        }
      ],
      "name": "ERC4626ExceededMaxDeposit",
      "type": "error"
    },
    {
      "inputs": [
        {
          "internalType": "address",
          "name": "receiver",
          "type": "address"
        },
        {
          "internalType": "uint256",
          "name": "shares",
          "type": "uint256"
        },
        {
          "internalType": "uint256",
          "name": "max",
          "type": "uint256"
        }
      ],
      "name": "ERC4626ExceededMaxMint",
      "type": "error"
    },
    {
      "inputs": [
        {
          "internalType": "address",
          "name": "owner",
          "type": "address"
        },
        {
          "internalType": "uint256",
          "name": "shares",
          "type": "uint256"
        },
        {
          "internalType": "uint256",
          "name": "max",
          "type": "uint256"
        }
      ],
      "name": "ERC4626ExceededMaxRedeem",
      "type": "error"
    },
    {
      "inputs": [
        {
          "internalType": "address",
          "name": "owner",
          "type": "address"
        },
        {
          "internalType": "uint256",
          "name": "assets",
          "type": "uint256"
        },
        {
          "internalType": "uint256",
          "name": "max",
          "type": "uint256"
        }
      ],
      "name": "ERC4626ExceededMaxWithdraw",
      "type": "error"
    },
    {
      "inputs": [],
      "name": "EnforcedPause",
      "type": "error"
    },
    {
      "inputs": [],
      "name": "ExpectedPause",
      "type": "error"
    },
    {
      "inputs": [],
      "name": "FailedInnerCall",
      "type": "error"
    },
    {
      "inputs": [],
      "name": "InvalidInitialization",
      "type": "error"
    },
    {
      "inputs": [],
      "name": "MathOverflowedMulDiv",
      "type": "error"
    },
    {
      "inputs": [],
      "name": "NotInitializing",
      "type": "error"
    },
    {
      "inputs": [
        {
          "internalType": "address",
          "name": "owner",
          "type": "address"
        }
      ],
      "name": "OwnableInvalidOwner",
      "type": "error"
    },
    {
      "inputs": [
        {
          "internalType": "address",
          "name": "account",
          "type": "address"
        }
      ],
      "name": "OwnableUnauthorizedAccount",
      "type": "error"
    },
    {
      "inputs": [],
      "name": "ReentrancyGuardReentrantCall",
      "type": "error"
    },
    {
      "inputs": [
        {
          "internalType": "address",
          "name": "spender",
          "type": "address"
        },
        {
          "internalType": "uint256",
          "name": "currentAllowance",
          "type": "uint256"
        },
        {
          "internalType": "uint256",
          "name": "requestedDecrease",
          "type": "uint256"
        }
      ],
      "name": "SafeERC20FailedDecreaseAllowance",
      "type": "error"
    },
    {
      "inputs": [
        {
          "internalType": "address",
          "name": "token",
          "type": "address"
        }
      ],
      "name": "SafeERC20FailedOperation",
      "type": "error"
    },
    {
      "anonymous": false,
      "inputs": [
        {
          "indexed": true,
          "internalType": "address",
          "name": "owner",
          "type": "address"
        },
        {
          "indexed": true,
          "internalType": "address",
          "name": "spender",
          "type": "address"
        },
        {
          "indexed": false,
          "internalType": "uint256",
          "name": "value",
          "type": "uint256"
        }
      ],
      "name": "Approval",
      "type": "event"
    },
    {
      "anonymous": false,
      "inputs": [
        {
          "indexed": false,
          "internalType": "uint256",
          "name": "slashedAmount",
          "type": "uint256"
        }
      ],
      "name": "CircuitBreakerTriggered",
      "type": "event"
    },
    {
      "anonymous": false,
      "inputs": [
        {
          "indexed": true,
          "internalType": "address",
          "name": "oldDaemon",
          "type": "address"
        },
        {
          "indexed": true,
          "internalType": "address",
          "name": "newDaemon",
          "type": "address"
        }
      ],
      "name": "DaemonUpdated",
      "type": "event"
    },
    {
      "anonymous": false,
      "inputs": [
        {
          "indexed": true,
          "internalType": "address",
          "name": "sender",
          "type": "address"
        },
        {
          "indexed": true,
          "internalType": "address",
          "name": "owner",
          "type": "address"
        },
        {
          "indexed": false,
          "internalType": "uint256",
          "name": "assets",
          "type": "uint256"
        },
        {
          "indexed": false,
          "internalType": "uint256",
          "name": "shares",
          "type": "uint256"
        }
      ],
      "name": "Deposit",
      "type": "event"
    },
    {
      "anonymous": false,
      "inputs": [
        {
          "indexed": false,
          "internalType": "uint256",
          "name": "builderFee",
          "type": "uint256"
        },
        {
          "indexed": false,
          "internalType": "uint256",
          "name": "platformFee",
          "type": "uint256"
        },
        {
          "indexed": false,
          "internalType": "uint256",
          "name": "depositorProfit",
          "type": "uint256"
        }
      ],
      "name": "FeesDistributed",
      "type": "event"
    },
    {
      "anonymous": false,
      "inputs": [
        {
          "indexed": false,
          "internalType": "uint64",
          "name": "version",
          "type": "uint64"
        }
      ],
      "name": "Initialized",
      "type": "event"
    },
    {
      "anonymous": false,
      "inputs": [
        {
          "indexed": false,
          "internalType": "uint256",
          "name": "newCapacity",
          "type": "uint256"
        }
      ],
      "name": "MaxCapacityUpdated",
      "type": "event"
    },
    {
      "anonymous": false,
      "inputs": [
        {
          "indexed": true,
          "internalType": "address",
          "name": "previousOwner",
          "type": "address"
        },
        {
          "indexed": true,
          "internalType": "address",
          "name": "newOwner",
          "type": "address"
        }
      ],
      "name": "OwnershipTransferred",
      "type": "event"
    },
    {
      "anonymous": false,
      "inputs": [
        {
          "indexed": false,
          "internalType": "address",
          "name": "account",
          "type": "address"
        }
      ],
      "name": "Paused",
      "type": "event"
    },
    {
      "anonymous": false,
      "inputs": [
        {
          "indexed": true,
          "internalType": "bytes32",
          "name": "tradeId",
          "type": "bytes32"
        },
        {
          "indexed": true,
          "internalType": "bytes32",
          "name": "marketId",
          "type": "bytes32"
        },
        {
          "indexed": false,
          "internalType": "uint256",
          "name": "amount",
          "type": "uint256"
        }
      ],
      "name": "TradeExecuted",
      "type": "event"
    },
    {
      "anonymous": false,
      "inputs": [
        {
          "indexed": true,
          "internalType": "bytes32",
          "name": "tradeId",
          "type": "bytes32"
        },
        {
          "indexed": false,
          "internalType": "uint256",
          "name": "payout",
          "type": "uint256"
        },
        {
          "indexed": false,
          "internalType": "bool",
          "name": "profitable",
          "type": "bool"
        }
      ],
      "name": "TradeSettled",
      "type": "event"
    },
    {
      "anonymous": false,
      "inputs": [
        {
          "indexed": true,
          "internalType": "bytes32",
          "name": "tradeId",
          "type": "bytes32"
        }
      ],
      "name": "TradeStale",
      "type": "event"
    },
    {
      "anonymous": false,
      "inputs": [
        {
          "indexed": true,
          "internalType": "address",
          "name": "from",
          "type": "address"
        },
        {
          "indexed": true,
          "internalType": "address",
          "name": "to",
          "type": "address"
        },
        {
          "indexed": false,
          "internalType": "uint256",
          "name": "value",
          "type": "uint256"
        }
      ],
      "name": "Transfer",
      "type": "event"
    },
    {
      "anonymous": false,
      "inputs": [
        {
          "indexed": false,
          "internalType": "address",
          "name": "account",
          "type": "address"
        }
      ],
      "name": "Unpaused",
      "type": "event"
    },
    {
      "anonymous": false,
      "inputs": [
        {
          "indexed": true,
          "internalType": "address",
          "name": "sender",
          "type": "address"
        },
        {
          "indexed": true,
          "internalType": "address",
          "name": "receiver",
          "type": "address"
        },
        {
          "indexed": true,
          "internalType": "address",
          "name": "owner",
          "type": "address"
        },
        {
          "indexed": false,
          "internalType": "uint256",
          "name": "assets",
          "type": "uint256"
        },
        {
          "indexed": false,
          "internalType": "uint256",
          "name": "shares",
          "type": "uint256"
        }
      ],
      "name": "Withdraw",
      "type": "event"
    },
    {
      "inputs": [],
      "name": "BUILDER_SHARE_BPS",
      "outputs": [
        {
          "internalType": "uint256",
          "name": "",
          "type": "uint256"
        }
      ],
      "stateMutability": "view",
      "type": "function"
    },
    {
      "inputs": [],
      "name": "DEPOSITOR_SHARE_BPS",
      "outputs": [
        {
          "internalType": "uint256",
          "name": "",
          "type": "uint256"
        }
      ],
      "stateMutability": "view",
      "type": "function"
    },
    {
      "inputs": [],
      "name": "PLATFORM_SHARE_BPS",
      "outputs": [
        {
          "internalType": "uint256",
          "name": "",
          "type": "uint256"
        }
      ],
      "stateMutability": "view",
      "type": "function"
    },
    {
      "inputs": [],
      "name": "activeLockedCapital",
      "outputs": [
        {
          "internalType": "uint256",
          "name": "",
          "type": "uint256"
        }
      ],
      "stateMutability": "view",
      "type": "function"
    },
    {
      "inputs": [
        {
          "internalType": "address",
          "name": "owner",
          "type": "address"
        },
        {
          "internalType": "address",
          "name": "spender",
          "type": "address"
        }
      ],
      "name": "allowance",
      "outputs": [
        {
          "internalType": "uint256",
          "name": "",
          "type": "uint256"
        }
      ],
      "stateMutability": "view",
      "type": "function"
    },
    {
      "inputs": [
        {
          "internalType": "address",
          "name": "spender",
          "type": "address"
        },
        {
          "internalType": "uint256",
          "name": "value",
          "type": "uint256"
        }
      ],
      "name": "approve",
      "outputs": [
        {
          "internalType": "bool",
          "name": "",
          "type": "bool"
        }
      ],
      "stateMutability": "nonpayable",
      "type": "function"
    },
    {
      "inputs": [],
      "name": "asset",
      "outputs": [
        {
          "internalType": "address",
          "name": "",
          "type": "address"
        }
      ],
      "stateMutability": "view",
      "type": "function"
    },
    {
      "inputs": [
        {
          "internalType": "address",
          "name": "account",
          "type": "address"
        }
      ],
      "name": "balanceOf",
      "outputs": [
        {
          "internalType": "uint256",
          "name": "",
          "type": "uint256"
        }
      ],
      "stateMutability": "view",
      "type": "function"
    },
    {
      "inputs": [],
      "name": "brierDaemon",
      "outputs": [
        {
          "internalType": "address",
          "name": "",
          "type": "address"
        }
      ],
      "stateMutability": "view",
      "type": "function"
    },
    {
      "inputs": [],
      "name": "builderWallet",
      "outputs": [
        {
          "internalType": "address",
          "name": "",
          "type": "address"
        }
      ],
      "stateMutability": "view",
      "type": "function"
    },
    {
      "inputs": [
        {
          "internalType": "uint256",
          "name": "shares",
          "type": "uint256"
        }
      ],
      "name": "convertToAssets",
      "outputs": [
        {
          "internalType": "uint256",
          "name": "",
          "type": "uint256"
        }
      ],
      "stateMutability": "view",
      "type": "function"
    },
    {
      "inputs": [
        {
          "internalType": "uint256",
          "name": "assets",
          "type": "uint256"
        }
      ],
      "name": "convertToShares",
      "outputs": [
        {
          "internalType": "uint256",
          "name": "",
          "type": "uint256"
        }
      ],
      "stateMutability": "view",
      "type": "function"
    },
    {
      "inputs": [],
      "name": "decimals",
      "outputs": [
        {
          "internalType": "uint8",
          "name": "",
          "type": "uint8"
        }
      ],
      "stateMutability": "view",
      "type": "function"
    },
    {
      "inputs": [
        {
          "internalType": "uint256",
          "name": "assets",
          "type": "uint256"
        },
        {
          "internalType": "address",
          "name": "receiver",
          "type": "address"
        }
      ],
      "name": "deposit",
      "outputs": [
        {
          "internalType": "uint256",
          "name": "",
          "type": "uint256"
        }
      ],
      "stateMutability": "nonpayable",
      "type": "function"
    },
    {
      "inputs": [
        {
          "internalType": "bytes32",
          "name": "tradeId",
          "type": "bytes32"
        },
        {
          "internalType": "bytes32",
          "name": "marketId",
          "type": "bytes32"
        },
        {
          "internalType": "uint256[]",
          "name": "outcome",
          "type": "uint256[]"
        },
        {
          "internalType": "uint256",
          "name": "usdcAmount",
          "type": "uint256"
        }
      ],
      "name": "executeTrade",
      "outputs": [],
      "stateMutability": "nonpayable",
      "type": "function"
    },
    {
      "inputs": [],
      "name": "feeRecipient",
      "outputs": [
        {
          "internalType": "address",
          "name": "",
          "type": "address"
        }
      ],
      "stateMutability": "view",
      "type": "function"
    },
    {
      "inputs": [],
      "name": "idleCapital",
      "outputs": [
        {
          "internalType": "uint256",
          "name": "",
          "type": "uint256"
        }
      ],
      "stateMutability": "view",
      "type": "function"
    },
    {
      "inputs": [
        {
          "internalType": "contract IERC20",
          "name": "asset_",
          "type": "address"
        },
        {
          "internalType": "string",
          "name": "vaultName_",
          "type": "string"
        },
        {
          "internalType": "string",
          "name": "vaultSymbol_",
          "type": "string"
        },
        {
          "internalType": "address",
          "name": "_brierDaemon",
          "type": "address"
        },
        {
          "internalType": "address",
          "name": "_builderWallet",
          "type": "address"
        },
        {
          "internalType": "address",
          "name": "_polymarketCTF",
          "type": "address"
        },
        {
          "internalType": "address",
          "name": "_gnosisSafeAdmin",
          "type": "address"
        },
        {
          "internalType": "address",
          "name": "_feeRecipient",
          "type": "address"
        },
        {
          "internalType": "uint256",
          "name": "_maxCapacity",
          "type": "uint256"
        },
        {
          "internalType": "uint256",
          "name": "_skinInGame",
          "type": "uint256"
        }
      ],
      "name": "initialize",
      "outputs": [],
      "stateMutability": "nonpayable",
      "type": "function"
    },
    {
      "inputs": [
        {
          "internalType": "bytes32",
          "name": "tradeId",
          "type": "bytes32"
        }
      ],
      "name": "markTradeStale",
      "outputs": [],
      "stateMutability": "nonpayable",
      "type": "function"
    },
    {
      "inputs": [],
      "name": "maxCapacity",
      "outputs": [
        {
          "internalType": "uint256",
          "name": "",
          "type": "uint256"
        }
      ],
      "stateMutability": "view",
      "type": "function"
    },
    {
      "inputs": [
        {
          "internalType": "address",
          "name": "",
          "type": "address"
        }
      ],
      "name": "maxDeposit",
      "outputs": [
        {
          "internalType": "uint256",
          "name": "",
          "type": "uint256"
        }
      ],
      "stateMutability": "view",
      "type": "function"
    },
    {
      "inputs": [
        {
          "internalType": "address",
          "name": "",
          "type": "address"
        }
      ],
      "name": "maxMint",
      "outputs": [
        {
          "internalType": "uint256",
          "name": "",
          "type": "uint256"
        }
      ],
      "stateMutability": "view",
      "type": "function"
    },
    {
      "inputs": [
        {
          "internalType": "address",
          "name": "owner",
          "type": "address"
        }
      ],
      "name": "maxRedeem",
      "outputs": [
        {
          "internalType": "uint256",
          "name": "",
          "type": "uint256"
        }
      ],
      "stateMutability": "view",
      "type": "function"
    },
    {
      "inputs": [
        {
          "internalType": "address",
          "name": "owner",
          "type": "address"
        }
      ],
      "name": "maxWithdraw",
      "outputs": [
        {
          "internalType": "uint256",
          "name": "",
          "type": "uint256"
        }
      ],
      "stateMutability": "view",
      "type": "function"
    },
    {
      "inputs": [
        {
          "internalType": "uint256",
          "name": "shares",
          "type": "uint256"
        },
        {
          "internalType": "address",
          "name": "receiver",
          "type": "address"
        }
      ],
      "name": "mint",
      "outputs": [
        {
          "internalType": "uint256",
          "name": "",
          "type": "uint256"
        }
      ],
      "stateMutability": "nonpayable",
      "type": "function"
    },
    {
      "inputs": [],
      "name": "name",
      "outputs": [
        {
          "internalType": "string",
          "name": "",
          "type": "string"
        }
      ],
      "stateMutability": "view",
      "type": "function"
    },
    {
      "inputs": [],
      "name": "owner",
      "outputs": [
        {
          "internalType": "address",
          "name": "",
          "type": "address"
        }
      ],
      "stateMutability": "view",
      "type": "function"
    },
    {
      "inputs": [],
      "name": "pause",
      "outputs": [],
      "stateMutability": "nonpayable",
      "type": "function"
    },
    {
      "inputs": [],
      "name": "paused",
      "outputs": [
        {
          "internalType": "bool",
          "name": "",
          "type": "bool"
        }
      ],
      "stateMutability": "view",
      "type": "function"
    },
    {
      "inputs": [],
      "name": "polymarketCTF",
      "outputs": [
        {
          "internalType": "address",
          "name": "",
          "type": "address"
        }
      ],
      "stateMutability": "view",
      "type": "function"
    },
    {
      "inputs": [
        {
          "internalType": "uint256",
          "name": "assets",
          "type": "uint256"
        }
      ],
      "name": "previewDeposit",
      "outputs": [
        {
          "internalType": "uint256",
          "name": "",
          "type": "uint256"
        }
      ],
      "stateMutability": "view",
      "type": "function"
    },
    {
      "inputs": [
        {
          "internalType": "uint256",
          "name": "shares",
          "type": "uint256"
        }
      ],
      "name": "previewMint",
      "outputs": [
        {
          "internalType": "uint256",
          "name": "",
          "type": "uint256"
        }
      ],
      "stateMutability": "view",
      "type": "function"
    },
    {
      "inputs": [
        {
          "internalType": "uint256",
          "name": "shares",
          "type": "uint256"
        }
      ],
      "name": "previewRedeem",
      "outputs": [
        {
          "internalType": "uint256",
          "name": "",
          "type": "uint256"
        }
      ],
      "stateMutability": "view",
      "type": "function"
    },
    {
      "inputs": [
        {
          "internalType": "uint256",
          "name": "assets",
          "type": "uint256"
        }
      ],
      "name": "previewWithdraw",
      "outputs": [
        {
          "internalType": "uint256",
          "name": "",
          "type": "uint256"
        }
      ],
      "stateMutability": "view",
      "type": "function"
    },
    {
      "inputs": [
        {
          "internalType": "uint256",
          "name": "shares",
          "type": "uint256"
        },
        {
          "internalType": "address",
          "name": "receiver",
          "type": "address"
        },
        {
          "internalType": "address",
          "name": "owner",
          "type": "address"
        }
      ],
      "name": "redeem",
      "outputs": [
        {
          "internalType": "uint256",
          "name": "",
          "type": "uint256"
        }
      ],
      "stateMutability": "nonpayable",
      "type": "function"
    },
    {
      "inputs": [],
      "name": "renounceOwnership",
      "outputs": [],
      "stateMutability": "nonpayable",
      "type": "function"
    },
    {
      "inputs": [
        {
          "internalType": "address",
          "name": "_newDaemon",
          "type": "address"
        }
      ],
      "name": "setDaemon",
      "outputs": [],
      "stateMutability": "nonpayable",
      "type": "function"
    },
    {
      "inputs": [
        {
          "internalType": "address",
          "name": "_newFeeRecipient",
          "type": "address"
        }
      ],
      "name": "setFeeRecipient",
      "outputs": [],
      "stateMutability": "nonpayable",
      "type": "function"
    },
    {
      "inputs": [
        {
          "internalType": "uint256",
          "name": "_maxCapacity",
          "type": "uint256"
        }
      ],
      "name": "setMaxCapacity",
      "outputs": [],
      "stateMutability": "nonpayable",
      "type": "function"
    },
    {
      "inputs": [
        {
          "internalType": "bytes32",
          "name": "tradeId",
          "type": "bytes32"
        },
        {
          "internalType": "uint256",
          "name": "payout",
          "type": "uint256"
        }
      ],
      "name": "settleMarket",
      "outputs": [],
      "stateMutability": "nonpayable",
      "type": "function"
    },
    {
      "inputs": [],
      "name": "skinInGame",
      "outputs": [
        {
          "internalType": "uint256",
          "name": "",
          "type": "uint256"
        }
      ],
      "stateMutability": "view",
      "type": "function"
    },
    {
      "inputs": [],
      "name": "symbol",
      "outputs": [
        {
          "internalType": "string",
          "name": "",
          "type": "string"
        }
      ],
      "stateMutability": "view",
      "type": "function"
    },
    {
      "inputs": [],
      "name": "totalAssets",
      "outputs": [
        {
          "internalType": "uint256",
          "name": "",
          "type": "uint256"
        }
      ],
      "stateMutability": "view",
      "type": "function"
    },
    {
      "inputs": [],
      "name": "totalProfit",
      "outputs": [
        {
          "internalType": "uint256",
          "name": "",
          "type": "uint256"
        }
      ],
      "stateMutability": "view",
      "type": "function"
    },
    {
      "inputs": [],
      "name": "totalSupply",
      "outputs": [
        {
          "internalType": "uint256",
          "name": "",
          "type": "uint256"
        }
      ],
      "stateMutability": "view",
      "type": "function"
    },
    {
      "inputs": [
        {
          "internalType": "bytes32",
          "name": "",
          "type": "bytes32"
        }
      ],
      "name": "tradeLockedCapital",
      "outputs": [
        {
          "internalType": "uint256",
          "name": "",
          "type": "uint256"
        }
      ],
      "stateMutability": "view",
      "type": "function"
    },
    {
      "inputs": [
        {
          "internalType": "address",
          "name": "to",
          "type": "address"
        },
        {
          "internalType": "uint256",
          "name": "value",
          "type": "uint256"
        }
      ],
      "name": "transfer",
      "outputs": [
        {
          "internalType": "bool",
          "name": "",
          "type": "bool"
        }
      ],
      "stateMutability": "nonpayable",
      "type": "function"
    },
    {
      "inputs": [
        {
          "internalType": "address",
          "name": "from",
          "type": "address"
        },
        {
          "internalType": "address",
          "name": "to",
          "type": "address"
        },
        {
          "internalType": "uint256",
          "name": "value",
          "type": "uint256"
        }
      ],
      "name": "transferFrom",
      "outputs": [
        {
          "internalType": "bool",
          "name": "",
          "type": "bool"
        }
      ],
      "stateMutability": "nonpayable",
      "type": "function"
    },
    {
      "inputs": [
        {
          "internalType": "address",
          "name": "newOwner",
          "type": "address"
        }
      ],
      "name": "transferOwnership",
      "outputs": [],
      "stateMutability": "nonpayable",
      "type": "function"
    },
    {
      "inputs": [],
      "name": "triggerCircuitBreaker",
      "outputs": [],
      "stateMutability": "nonpayable",
      "type": "function"
    },
    {
      "inputs": [],
      "name": "unpause",
      "outputs": [],
      "stateMutability": "nonpayable",
      "type": "function"
    },
    {
      "inputs": [
        {
          "internalType": "uint256",
          "name": "assets",
          "type": "uint256"
        },
        {
          "internalType": "address",
          "name": "receiver",
          "type": "address"
        },
        {
          "internalType": "address",
          "name": "owner",
          "type": "address"
        }
      ],
      "name": "withdraw",
      "outputs": [
        {
          "internalType": "uint256",
          "name": "",
          "type": "uint256"
        }
      ],
      "stateMutability": "nonpayable",
      "type": "function"
    }
  ],
  "bytecode": "0x608060405234801562000010575f80fd5b506200001b62000021565b620000d5565b7ff0c57e16840df040f15088dc2f81fe391c3923bec73e23a9662efc9c229c6a00805468010000000000000000900460ff1615620000725760405163f92ee8a960e01b815260040160405180910390fd5b80546001600160401b0390811614620000d25780546001600160401b0319166001600160401b0390811782556040519081527fc7f505b2f371ae2175ee4913f4499e1f2633a7b5936321eed1cdaeb6115181d29060200160405180910390a15b50565b61314180620000e35f395ff3fe608060405234801561000f575f80fd5b50600436106102ff575f3560e01c80638456cb5911610195578063c63d75b6116100e4578063d905777e1161009e578063e74b981b11610079578063e74b981b14610630578063ef8b30f7146105b6578063f2fde38b14610643578063ffb1ca8014610656575f80fd5b8063d905777e146105f7578063da28a9be1461060a578063dd62ed3e1461061d575f80fd5b8063c63d75b61461040d578063c6e6f592146105b6578063c7318d73146105c9578063ce96cb77146105d2578063d6de49ba146105e5578063d8464354146105ee575f80fd5b8063a9059cbb1161014f578063b460af941161012a578063b460af9414610568578063ba0876521461057b578063bb764a051461058e578063be03007c14610597575f80fd5b8063a9059cbb1461052f578063b364b4da14610542578063b3d7f6b914610555575f80fd5b80638456cb59146104f357806386001519146104fb5780638b19fc19146105045780638da5cb5b1461050c57806394bf804d1461051457806395d89b4114610527575f80fd5b806346904840116102515780636b401c3d1161020b578063715018a6116101e6578063715018a6146104bc578063747a9828146104c457806377eb4e23146104cd5780638152a05f146104e0575f80fd5b80636b401c3d1461048d5780636e553f651461049657806370a08231146104a9575f80fd5b806346904840146104345780634cdad506146103335780635552aa401461044757806355b624db1461045a57806359b6a0c91461046d5780635c975abb14610476575f80fd5b806323b872dd116102bc5780633f4ba83a116102975780633f4ba83a146103f0578063401dbe23146103fa578063402d267d1461040d578063453d91c114610421575f80fd5b806323b872dd146103a3578063313ce567146103b657806338d52e0f146103d0575f80fd5b806301e1d1141461030357806306fdde031461031e57806307a2d13a14610333578063095ea7b3146103465780630a28a4771461036957806318160ddd1461037c575b5f80fd5b61030b610668565b6040519081526020015b60405180910390f35b61032661068b565b60405161031591906128e8565b61030b61034136600461291a565b61074b565b610359610354366004612955565b61075c565b6040519015158152602001610315565b61030b61037736600461291a565b610773565b7f52c63247e1f47db19d5ce0460030c497f067ca4cebf71ba98eeadabe20bace025461030b565b6103596103b136600461297f565b61077f565b6103be6107a4565b60405160ff9091168152602001610315565b6103d86107d3565b6040516001600160a01b039091168152602001610315565b6103f86107f4565b005b6103f86104083660046129bd565b610806565b61030b61041b3660046129bd565b505f1990565b6103f861042f36600461291a565b6108bd565b6007546103d8906001600160a01b031681565b6103f86104553660046129d8565b610950565b6103f86104683660046129f8565b610cdf565b61030b60035481565b5f805160206130cc8339815191525460ff16610359565b61030b60015481565b61030b6104a4366004612a7b565b6110d1565b61030b6104b73660046129bd565b6110e4565b6103f861110a565b61030b61177081565b6004546103d8906001600160a01b031681565b6103f86104ee366004612b46565b61111b565b6103f86113f9565b61030b60065481565b6103f8611409565b6103d8611511565b61030b610522366004612a7b565b611539565b61032661154c565b61035961053d366004612955565b61158a565b6005546103d8906001600160a01b031681565b61030b61056336600461291a565b611597565b61030b610576366004612c1b565b6115a3565b61030b610589366004612c1b565b6115d7565b61030b610bb881565b61030b6105a536600461291a565b60096020525f908152604090205481565b61030b6105c436600461291a565b6115f3565b61030b60085481565b61030b6105e03660046129bd565b6115fe565b61030b60025481565b61030b6103e881565b61030b6106053660046129bd565b611611565b6103f861061836600461291a565b61161b565b61030b61062b366004612c5a565b6116cb565b6103f861063e3660046129bd565b611714565b6103f86106513660046129bd565b61178f565b5f546103d8906001600160a01b031681565b5f60085460025460015461067c9190612c9a565b6106869190612c9a565b905090565b7f52c63247e1f47db19d5ce0460030c497f067ca4cebf71ba98eeadabe20bace0380546060915f8051602061308c833981519152916106c990612cad565b80601f01602080910402602001604051908101604052809291908181526020018280546106f590612cad565b80156107405780601f1061071757610100808354040283529160200191610740565b820191905f5260205f20905b81548152906001019060200180831161072357829003601f168201915b505050505091505090565b5f610756825f6117cc565b92915050565b5f33610769818585611823565b5060019392505050565b5f610756826001611835565b5f3361078c858285611883565b6107978585856118d3565b60019150505b9392505050565b5f805f805160206130ac83398151915290505f81546107cd9190600160a01b900460ff16612ce5565b91505090565b5f805f805160206130ac8339815191525b546001600160a01b031692915050565b6107fc611930565b610804611962565b565b61080e611930565b6001600160a01b0381166108645760405162461bcd60e51b815260206004820152601860248201527742726965725661756c743a207a65726f206164647265737360401b60448201526064015b60405180910390fd5b5f80546040516001600160a01b03808516939216917f26f1333eb03795a71544ef03cd4bac00a69dc4f0c136c970c379b353d23753dc91a35f80546001600160a01b0319166001600160a01b0392909216919091179055565b6108c5611930565b5f81116109145760405162461bcd60e51b815260206004820152601960248201527f42726965725661756c743a207a65726f20636170616369747900000000000000604482015260640161085b565b60038190556040518181527f8b8564868e5db4ac945b0fd897338876dcc0c95a5f183b340f47285ebbcb6af1906020015b60405180910390a150565b5f546001600160a01b031633146109795760405162461bcd60e51b815260040161085b90612cfe565b6109816119bb565b5f82815260096020526040902054806109f35760405162461bcd60e51b815260206004820152602e60248201527f42726965725661756c743a207472616465206e6f7420666f756e64206f72206160448201526d1b1c9958591e481cd95d1d1b195960921b606482015260840161085b565b5f6109fc6107d3565b6040516370a0823160e01b81523060048201526001600160a01b0391909116906370a0823190602401602060405180830381865afa158015610a40573d5f803e3d5ffd5b505050506040513d601f19601f82011682018060405250810190610a649190612d44565b905082600154610a749190612c9a565b811015610ae95760405162461bcd60e51b815260206004820152603760248201527f42726965725661756c743a207061796f7574206e6f742072656365697665642060448201527f2d2072656465656d2066726f6d20435446206669727374000000000000000000606482015260840161085b565b5f84815260096020526040812081905560028054849290610b0b908490612d5b565b909155505081831115610c72575f610b238385612d5b565b90505f612710610b35610bb884612d6e565b610b3f9190612d99565b90505f612710610b516103e885612d6e565b610b5b9190612d99565b90505f81610b698486612d5b565b610b739190612d5b565b90508360065f828254610b869190612c9a565b90915550610b9690508187612c9a565b60015f828254610ba69190612c9a565b9091555050600554610bd4906001600160a01b031684610bc46107d3565b6001600160a01b031691906119f2565b600754610bed906001600160a01b031683610bc46107d3565b60408051848152602081018490529081018290527f312c5308f42848705a866c73dec11fd0783c2d64aac6a97e94467062ad3f40589060600160405180910390a1604080518881526001602082015289917fb838176051aaad97f6ff91aa3a56c75219b4e7d94038a0bfb4bde3527f52dfb0910160405180910390a250505050610cc3565b8260015f828254610c839190612c9a565b9091555050604080518481525f602082015285917fb838176051aaad97f6ff91aa3a56c75219b4e7d94038a0bfb4bde3527f52dfb0910160405180910390a25b5050610cdb60015f805160206130ec83398151915255565b5050565b5f546001600160a01b03163314610d085760405162461bcd60e51b815260040161085b90612cfe565b610d10611a64565b610d186119bb565b5f8111610d675760405162461bcd60e51b815260206004820152601e60248201527f42726965725661756c743a20616d6f756e74206d757374206265203e20300000604482015260640161085b565b600154811115610dc75760405162461bcd60e51b815260206004820152602560248201527f42726965725661756c743a20696e73756666696369656e742069646c652063616044820152641c1a5d185b60da1b606482015260840161085b565b5f8581526009602052604090205415610e2d5760405162461bcd60e51b815260206004820152602260248201527f42726965725661756c743a207472616465496420616c72656164792061637469604482015261766560f01b606482015260840161085b565b6064610e37610668565b610e42906014612d6e565b610e4c9190612d99565b811115610ea75760405162461bcd60e51b815260206004820152602360248201527f42726965725661756c743a206578636565647320323025207472616465206c696044820152621b5a5d60ea1b606482015260840161085b565b8060015f828254610eb89190612d5b565b925050819055508060025f828254610ed09190612c9a565b90915550505f858152600960205260409020819055600454610f0e906001600160a01b031682610efe6107d3565b6001600160a01b03169190611a94565b6004545f906001600160a01b0316610f246107d3565b604051610f3e91905f908990899089908990602401612dac565b60408051601f198184030181529181526020820180516001600160e01b03166372ce427560e01b17905251610f739190612e09565b5f604051808303815f865af19150503d805f8114610fac576040519150601f19603f3d011682016040523d82523d5f602084013e610fb1565b606091505b505090508061107857600454610fe3906001600160a01b031683610fd36107d3565b6001600160a01b03169190611b1b565b8160015f828254610ff49190612c9a565b925050819055508160025f82825461100c9190612d5b565b90915550505f86815260096020526040808220919091555162461bcd60e51b815261085b9060040160208082526024908201527f42726965725661756c743a204354462073706c6974506f736974696f6e2066616040820152631a5b195960e21b606082015260800190565b84867f046b5c28a0efd2884fdc09e7246b9c9251b6429eb7fd2f84e7a704419276468f846040516110ab91815260200190565b60405180910390a3506110ca60015f805160206130ec83398151915255565b5050505050565b5f6110da611a64565b61079d8383611bc2565b6001600160a01b03165f9081525f8051602061308c833981519152602052604090205490565b611112611930565b6108045f611be5565b7ff0c57e16840df040f15088dc2f81fe391c3923bec73e23a9662efc9c229c6a008054600160401b810460ff16159067ffffffffffffffff165f811580156111605750825b90505f8267ffffffffffffffff16600114801561117c5750303b155b90508115801561118a575080155b156111a85760405163f92ee8a960e01b815260040160405180910390fd5b845467ffffffffffffffff1916600117855583156111d257845460ff60401b1916600160401b1785555b6001600160a01b038c166112285760405162461bcd60e51b815260206004820152601f60248201527f42726965725661756c743a207a65726f206461656d6f6e206164647265737300604482015260640161085b565b6001600160a01b038b1661127e5760405162461bcd60e51b815260206004820181905260248201527f42726965725661756c743a207a65726f206275696c6465722061646472657373604482015260640161085b565b6001600160a01b0388166112d45760405162461bcd60e51b815260206004820152601e60248201527f42726965725661756c743a207a65726f2066656520726563697069656e740000604482015260640161085b565b5f87116113235760405162461bcd60e51b815260206004820152601d60248201527f42726965725661756c743a207a65726f206d6178206361706163697479000000604482015260640161085b565b61132c8f611c55565b6113368e8e611c66565b61133f89611c78565b611347611c89565b61134f611c99565b5f80546001600160a01b03808f166001600160a01b031992831617909255600580548e8416908316179055600480548d841690831617905560078054928b16929091169190911790556003879055600886905583156113e857845460ff60401b19168555604051600181527fc7f505b2f371ae2175ee4913f4499e1f2633a7b5936321eed1cdaeb6115181d29060200160405180910390a15b505050505050505050505050505050565b611401611930565b610804611ca9565b5f546001600160a01b031633146114325760405162461bcd60e51b815260040161085b90612cfe565b61143a6119bb565b5f6008541161149d5760405162461bcd60e51b815260206004820152602960248201527f42726965725661756c743a204e6f20736b696e20696e2067616d65206c656674604482015268040e8de40e6d8c2e6d60bb1b606482015260840161085b565b600880545f9182905560018054919283926114b9908490612c9a565b909155506114c79050611ca9565b6040518181527fb93e15598c0191b5e8ad4033b4bfb998a7c8ba85d6b77f9dce086455bd2e8e229060200160405180910390a15061080460015f805160206130ec83398151915255565b5f807f9016d09d72d40fdae2fd8ceac6b6234c7706214fd39c1cd1e609a0528c1993006107e4565b5f611542611a64565b61079d8383611cf1565b7f52c63247e1f47db19d5ce0460030c497f067ca4cebf71ba98eeadabe20bace0480546060915f8051602061308c833981519152916106c990612cad565b5f336107698185856118d3565b5f6107568260016117cc565b5f6115ac611a64565b6115b46119bb565b6115bf848484611d0c565b905061079d60015f805160206130ec83398151915255565b5f6115e0611a64565b6115e86119bb565b6115bf848484611d62565b5f610756825f611835565b5f61075661160b836110e4565b5f6117cc565b5f610756826110e4565b5f546001600160a01b031633146116445760405162461bcd60e51b815260040161085b90612cfe565b5f8181526009602052604090205461169e5760405162461bcd60e51b815260206004820152601c60248201527f42726965725661756c743a207472616465206e6f742061637469766500000000604482015260640161085b565b60405181907f7b1d12f6854da251c168931aa977e79340efd6470c55fb00dbe8e921ca3fb769905f90a250565b6001600160a01b039182165f9081527f52c63247e1f47db19d5ce0460030c497f067ca4cebf71ba98eeadabe20bace016020908152604080832093909416825291909152205490565b61171c611930565b6001600160a01b03811661176d5760405162461bcd60e51b815260206004820152601860248201527742726965725661756c743a207a65726f206164647265737360401b604482015260640161085b565b600780546001600160a01b0319166001600160a01b0392909216919091179055565b611797611930565b6001600160a01b0381166117c057604051631e4fbdf760e01b81525f600482015260240161085b565b6117c981611be5565b50565b5f61079d6117d8610668565b6117e3906001612c9a565b6117ee5f600a612f04565b7f52c63247e1f47db19d5ce0460030c497f067ca4cebf71ba98eeadabe20bace025461181a9190612c9a565b85919085611daf565b6118308383836001611dfc565b505050565b5f61079d61184482600a612f04565b7f52c63247e1f47db19d5ce0460030c497f067ca4cebf71ba98eeadabe20bace02546118709190612c9a565b611878610668565b61181a906001612c9a565b5f61188e84846116cb565b90505f1981146118cd57818110156118bf57828183604051637dc7a0d960e11b815260040161085b93929190612f12565b6118cd84848484035f611dfc565b50505050565b6001600160a01b0383166118fc57604051634b637e8f60e11b81525f600482015260240161085b565b6001600160a01b0382166119255760405163ec442f0560e01b81525f600482015260240161085b565b611830838383611edf565b33611939611511565b6001600160a01b0316146108045760405163118cdaa760e01b815233600482015260240161085b565b61196a612005565b5f805160206130cc833981519152805460ff191681557f5db9ee0a495bf2e6ff9c91a7834c1ba4fdd244a5e8aa4e537bd38aeae4b073aa335b6040516001600160a01b039091168152602001610945565b5f805160206130ec8339815191528054600119016119ec57604051633ee5aeb560e01b815260040160405180910390fd5b60029055565b6040516001600160a01b0383811660248301526044820183905261183091859182169063a9059cbb906064015b604051602081830303815290604052915060e01b6020820180516001600160e01b038381831617835250505050612034565b60015f805160206130ec83398151915255565b5f805160206130cc8339815191525460ff16156108045760405163d93c066560e01b815260040160405180910390fd5b604051636eb1769f60e11b81523060048201526001600160a01b0383811660248301525f919085169063dd62ed3e90604401602060405180830381865afa158015611ae1573d5f803e3d5ffd5b505050506040513d601f19601f82011682018060405250810190611b059190612d44565b90506118cd8484611b168585612c9a565b612095565b604051636eb1769f60e11b81523060048201526001600160a01b0383811660248301525f919085169063dd62ed3e90604401602060405180830381865afa158015611b68573d5f803e3d5ffd5b505050506040513d601f19601f82011682018060405250810190611b8c9190612d44565b905081811015611bb55782818360405163e570110f60e01b815260040161085b93929190612f12565b6118cd8484848403612095565b5f5f195f611bcf856115f3565b9050611bdd33858784612124565b949350505050565b7f9016d09d72d40fdae2fd8ceac6b6234c7706214fd39c1cd1e609a0528c19930080546001600160a01b031981166001600160a01b03848116918217845560405192169182907f8be0079c531659141344cd1fd0a4f28419497f9722a3daafe3b4186f6b6457e0905f90a3505050565b611c5d6121b0565b6117c9816121f9565b611c6e6121b0565b610cdb8282612269565b611c806121b0565b6117c9816122b9565b611c916121b0565b6108046122c1565b611ca16121b0565b6108046122e1565b611cb1611a64565b5f805160206130cc833981519152805460ff191660011781557f62e78cea01bee320cd4e420270b5ea74000d11b0c9f74754ebdbfc544b05a258336119a3565b5f5f195f611cfe85611597565b9050611bdd33858388612124565b5f80611d17836115fe565b905080851115611d4057828582604051633fa733bb60e21b815260040161085b93929190612f12565b5f611d4a86610773565b9050611d5933868689856122e9565b95945050505050565b5f80611d6d83611611565b905080851115611d9657828582604051632e52afbb60e21b815260040161085b93929190612f12565b5f611da08661074b565b9050611d59338686848a6122e9565b5f80611dbc868686612375565b9050611dc783612434565b8015611de257505f8480611ddd57611ddd612d85565b868809115b15611d5957611df2600182612c9a565b9695505050505050565b5f8051602061308c8339815191526001600160a01b038516611e335760405163e602df0560e01b81525f600482015260240161085b565b6001600160a01b038416611e5c57604051634a1406b160e11b81525f600482015260240161085b565b6001600160a01b038086165f908152600183016020908152604080832093881683529290522083905581156110ca57836001600160a01b0316856001600160a01b03167f8c5be1e5ebec7d5bd14f71427d1e84f3dd0314c0f7b2291e5b200ac8c7c3b92585604051611ed091815260200190565b60405180910390a35050505050565b5f8051602061308c8339815191526001600160a01b038416611f195781816002015f828254611f0e9190612c9a565b90915550611f769050565b6001600160a01b0384165f9081526020829052604090205482811015611f585784818460405163391434e360e21b815260040161085b93929190612f12565b6001600160a01b0385165f9081526020839052604090209083900390555b6001600160a01b038316611f94576002810180548390039055611fb2565b6001600160a01b0383165f9081526020829052604090208054830190555b826001600160a01b0316846001600160a01b03167fddf252ad1be2c89b69c2b068fc378daa952ba7f163c4a11628f55a4df523b3ef84604051611ff791815260200190565b60405180910390a350505050565b5f805160206130cc8339815191525460ff1661080457604051638dfc202b60e01b815260040160405180910390fd5b5f6120486001600160a01b03841683612460565b905080515f1415801561206c57508080602001905181019061206a9190612f33565b155b1561183057604051635274afe760e01b81526001600160a01b038416600482015260240161085b565b604080516001600160a01b038416602482015260448082018490528251808303909101815260649091019091526020810180516001600160e01b031663095ea7b360e01b1790526120e6848261246d565b6118cd576040516001600160a01b0384811660248301525f604483015261211a91869182169063095ea7b390606401611a1f565b6118cd8482612034565b60035482612130610668565b61213a9190612c9a565b11156121885760405162461bcd60e51b815260206004820181905260248201527f42726965725661756c743a206d61782063617061636974792072656163686564604482015260640161085b565b6121948484848461250a565b8160015f8282546121a59190612c9a565b909155505050505050565b7ff0c57e16840df040f15088dc2f81fe391c3923bec73e23a9662efc9c229c6a0054600160401b900460ff1661080457604051631afcd79f60e31b815260040160405180910390fd5b6122016121b0565b5f805160206130ac8339815191525f8061221a84612587565b915091508161222a57601261222c565b805b83546001600160a81b031916600160a01b60ff92909216919091026001600160a01b031916176001600160a01b0394909416939093179091555050565b6122716121b0565b5f8051602061308c8339815191527f52c63247e1f47db19d5ce0460030c497f067ca4cebf71ba98eeadabe20bace036122aa8482612f96565b50600481016118cd8382612f96565b6117976121b0565b6122c96121b0565b5f805160206130cc833981519152805460ff19169055565b611a516121b0565b6001548211156123515760405162461bcd60e51b815260206004820152602d60248201527f42726965725661756c743a206f6e6c792069646c65206361706974616c20697360448201526c20776974686472617761626c6560981b606482015260840161085b565b8160015f8282546123629190612d5b565b909155506110ca9050858585858561265d565b5f838302815f1985870982811083820303915050805f036123a95783828161239f5761239f612d85565b049250505061079d565b8084116123c95760405163227bc15360e01b815260040160405180910390fd5b5f848688095f868103871696879004966002600389028118808a02820302808a02820302808a02820302808a02820302808a02820302808a02909103029181900381900460010186841190950394909402919094039290920491909117919091029150509392505050565b5f600282600381111561244957612449613056565b612453919061306a565b60ff166001149050919050565b606061079d83835f612711565b5f805f846001600160a01b0316846040516124889190612e09565b5f604051808303815f865af19150503d805f81146124c1576040519150601f19603f3d011682016040523d82523d5f602084013e6124c6565b606091505b50915091508180156124f05750805115806124f05750808060200190518101906124f09190612f33565b8015611d595750505050506001600160a01b03163b151590565b5f805160206130ac833981519152805461252f906001600160a01b03168630866127a0565b61253984836127d9565b836001600160a01b0316856001600160a01b03167fdcbc1c05240f31ff3ad067ef1ee35ce4997762752e3a095284754544f4c709d78585604051611ed0929190918252602082015260400190565b60408051600481526024810182526020810180516001600160e01b031663313ce56760e01b17905290515f918291829182916001600160a01b038716916125cd91612e09565b5f60405180830381855afa9150503d805f8114612605576040519150601f19603f3d011682016040523d82523d5f602084013e61260a565b606091505b509150915081801561261e57506020815110155b15612651575f818060200190518101906126389190612d44565b905060ff811161264f576001969095509350505050565b505b505f9485945092505050565b5f805160206130ac8339815191526001600160a01b038681169085161461268957612689848784611883565b612693848361280d565b80546126a9906001600160a01b031686856119f2565b836001600160a01b0316856001600160a01b0316876001600160a01b03167ffbde797d201c681b91056529119e0b02407c7bb96a4a2c75c01fc9667232c8db8686604051612701929190918252602082015260400190565b60405180910390a4505050505050565b6060814710156127365760405163cd78605960e01b815230600482015260240161085b565b5f80856001600160a01b031684866040516127519190612e09565b5f6040518083038185875af1925050503d805f811461278b576040519150601f19603f3d011682016040523d82523d5f602084013e612790565b606091505b5091509150611df2868383612841565b6040516001600160a01b0384811660248301528381166044830152606482018390526118cd9186918216906323b872dd90608401611a1f565b6001600160a01b0382166128025760405163ec442f0560e01b81525f600482015260240161085b565b610cdb5f8383611edf565b6001600160a01b03821661283657604051634b637e8f60e11b81525f600482015260240161085b565b610cdb825f83611edf565b606082612856576128518261289d565b61079d565b815115801561286d57506001600160a01b0384163b155b1561289657604051639996b31560e01b81526001600160a01b038516600482015260240161085b565b508061079d565b8051156128ad5780518082602001fd5b604051630a12f52160e11b815260040160405180910390fd5b5f5b838110156128e05781810151838201526020016128c8565b50505f910152565b602081525f82518060208401526129068160408501602087016128c6565b601f01601f19169190910160400192915050565b5f6020828403121561292a575f80fd5b5035919050565b6001600160a01b03811681146117c9575f80fd5b803561295081612931565b919050565b5f8060408385031215612966575f80fd5b823561297181612931565b946020939093013593505050565b5f805f60608486031215612991575f80fd5b833561299c81612931565b925060208401356129ac81612931565b929592945050506040919091013590565b5f602082840312156129cd575f80fd5b813561079d81612931565b5f80604083850312156129e9575f80fd5b50508035926020909101359150565b5f805f805f60808688031215612a0c575f80fd5b8535945060208601359350604086013567ffffffffffffffff80821115612a31575f80fd5b818801915088601f830112612a44575f80fd5b813581811115612a52575f80fd5b8960208260051b8501011115612a66575f80fd5b96999598505060200195606001359392505050565b5f8060408385031215612a8c575f80fd5b823591506020830135612a9e81612931565b809150509250929050565b634e487b7160e01b5f52604160045260245ffd5b5f82601f830112612acc575f80fd5b813567ffffffffffffffff80821115612ae757612ae7612aa9565b604051601f8301601f19908116603f01168101908282118183101715612b0f57612b0f612aa9565b81604052838152866020858801011115612b27575f80fd5b836020870160208301375f602085830101528094505050505092915050565b5f805f805f805f805f806101408b8d031215612b60575f80fd5b612b698b612945565b995060208b013567ffffffffffffffff80821115612b85575f80fd5b612b918e838f01612abd565b9a5060408d0135915080821115612ba6575f80fd5b50612bb38d828e01612abd565b985050612bc260608c01612945565b9650612bd060808c01612945565b9550612bde60a08c01612945565b9450612bec60c08c01612945565b9350612bfa60e08c01612945565b92506101008b013591506101208b013590509295989b9194979a5092959850565b5f805f60608486031215612c2d575f80fd5b833592506020840135612c3f81612931565b91506040840135612c4f81612931565b809150509250925092565b5f8060408385031215612c6b575f80fd5b8235612c7681612931565b91506020830135612a9e81612931565b634e487b7160e01b5f52601160045260245ffd5b8082018082111561075657610756612c86565b600181811c90821680612cc157607f821691505b602082108103612cdf57634e487b7160e01b5f52602260045260245ffd5b50919050565b60ff818116838216019081111561075657610756612c86565b60208082526026908201527f42726965725661756c743a2063616c6c6572206973206e6f742074686520657860408201526532b1baba37b960d11b606082015260800190565b5f60208284031215612d54575f80fd5b5051919050565b8181038181111561075657610756612c86565b808202811582820484141761075657610756612c86565b634e487b7160e01b5f52601260045260245ffd5b5f82612da757612da7612d85565b500490565b6001600160a01b0387168152602081018690526040810185905260a06060820181905281018390525f6001600160fb1b03841115612de8575f80fd5b8360051b808660c08501376080830193909352500160c00195945050505050565b5f8251612e1a8184602087016128c6565b9190910192915050565b600181815b80851115612e5e57815f1904821115612e4457612e44612c86565b80851615612e5157918102915b93841c9390800290612e29565b509250929050565b5f82612e7457506001610756565b81612e8057505f610756565b8160018114612e965760028114612ea057612ebc565b6001915050610756565b60ff841115612eb157612eb1612c86565b50506001821b610756565b5060208310610133831016604e8410600b8410161715612edf575081810a610756565b612ee98383612e24565b805f1904821115612efc57612efc612c86565b029392505050565b5f61079d60ff841683612e66565b6001600160a01b039390931683526020830191909152604082015260600190565b5f60208284031215612f43575f80fd5b8151801515811461079d575f80fd5b601f82111561183057805f5260205f20601f840160051c81016020851015612f775750805b601f840160051c820191505b818110156110ca575f8155600101612f83565b815167ffffffffffffffff811115612fb057612fb0612aa9565b612fc481612fbe8454612cad565b84612f52565b602080601f831160018114612ff7575f8415612fe05750858301515b5f19600386901b1c1916600185901b17855561304e565b5f85815260208120601f198616915b8281101561302557888601518255948401946001909101908401613006565b508582101561304257878501515f19600388901b60f8161c191681555b505060018460011b0185555b505050505050565b634e487b7160e01b5f52602160045260245ffd5b5f60ff83168061307c5761307c612d85565b8060ff8416069150509291505056fe52c63247e1f47db19d5ce0460030c497f067ca4cebf71ba98eeadabe20bace000773e532dfede91f04b12a73d3d2acd361424f41f76b4fb79f090161e36b4e00cd5ed15c6e187e77e9aee88184c21f4f2182ab5827cb3b7e07fbedcd63f033009b779b17422d0df92223018b32b4d1fa46e071723d6817e2486d003becc55f00a26469706673582212208b227669aaec5f5a845f36aaa10dc135c2bd62eef8eda74dd003398211fdd79b64736f6c63430008180033",
  "linkReferences": {},
  "deployedLinkReferences": {}
}