{
  "_format": "hh-sol-artifact-1",
  "contractName": "BrierCommitmentAnchor",
  "sourceName": "contracts/BrierCommitmentAnchor.sol",
  "abi": [
    {
      "inputs": [
        {
          "internalType": "address",
          "name": "_admin",
          "type": "address"
        }
      ],
      "stateMutability": "nonpayable",
      "type": "constructor"
    },
    {
      "inputs": [
        {
          "internalType": "address",
          "name": "owner",
          "type": "address"
        }
      ],
      "name": "OwnableInvalidOwner",
      "type": "error"
    },
    {
      "inputs": [
        {
          "internalType": "address",
          "name": "account",
          "type": "address"
        }
      ],
      "name": "OwnableUnauthorizedAccount",
      "type": "error"
    },
    {
      "anonymous": false,
      "inputs": [
        {
          "indexed": true,
          "internalType": "bytes32",
          "name": "merkleRoot",
          "type": "bytes32"
        },
        {
          "indexed": false,
          "internalType": "uint256",
          "name": "leafCount",
          "type": "uint256"
        },
        {
          "indexed": false,
          "internalType": "uint256",
          "name": "timestamp",
          "type": "uint256"
        }
      ],
      "name": "Anchored",
      "type": "event"
    },
    {
      "anonymous": false,
      "inputs": [
        {
          "indexed": true,
          "internalType": "address",
          "name": "previousOwner",
          "type": "address"
        },
        {
          "indexed": true,
          "internalType": "address",
          "name": "newOwner",
          "type": "address"
        }
      ],
      "name": "OwnershipTransferred",
      "type": "event"
    },
    {
      "inputs": [
        {
          "internalType": "bytes32",
          "name": "merkleRoot",
          "type": "bytes32"
        },
        {
          "internalType": "uint256",
          "name": "leafCount",
          "type": "uint256"
        }
      ],
      "name": "anchor",
      "outputs": [],
      "stateMutability": "nonpayable",
      "type": "function"
    },
    {
      "inputs": [
        {
          "internalType": "uint256",
          "name": "",
          "type": "uint256"
        }
      ],
      "name": "anchors",
      "outputs": [
        {
          "internalType": "bytes32",
          "name": "merkleRoot",
          "type": "bytes32"
        },
        {
          "internalType": "uint256",
          "name": "leafCount",
          "type": "uint256"
        },
        {
          "internalType": "uint256",
          "name": "timestamp",
          "type": "uint256"
        }
      ],
      "stateMutability": "view",
      "type": "function"
    },
    {
      "inputs": [
        {
          "internalType": "uint256",
          "name": "index",
          "type": "uint256"
        }
      ],
      "name": "getAnchor",
      "outputs": [
        {
          "internalType": "bytes32",
          "name": "",
          "type": "bytes32"
        },
        {
          "internalType": "uint256",
          "name": "",
          "type": "uint256"
        },
        {
          "internalType": "uint256",
          "name": "",
          "type": "uint256"
        }
      ],
      "stateMutability": "view",
      "type": "function"
    },
    {
      "inputs": [],
      "name": "owner",
      "outputs": [
        {
          "internalType": "address",
          "name": "",
          "type": "address"
        }
      ],
      "stateMutability": "view",
      "type": "function"
    },
    {
      "inputs": [],
      "name": "renounceOwnership",
      "outputs": [],
      "stateMutability": "nonpayable",
      "type": "function"
    },
    {
      "inputs": [
        {
          "internalType": "bytes32",
          "name": "",
          "type": "bytes32"
        }
      ],
      "name": "rootExists",
      "outputs": [
        {
          "internalType": "bool",
          "name": "",
          "type": "bool"
        }
      ],
      "stateMutability": "view",
      "type": "function"
    },
    {
      "inputs": [
        {
          "internalType": "bytes32",
          "name": "",
          "type": "bytes32"
        }
      ],
      "name": "rootIndex",
      "outputs": [
        {
          "internalType": "uint256",
          "name": "",
          "type": "uint256"
        }
      ],
      "stateMutability": "view",
      "type": "function"
    },
    {
      "inputs": [],
      "name": "totalAnchors",
      "outputs": [
        {
          "internalType": "uint256",
          "name": "",
          "type": "uint256"
        }
      ],
      "stateMutability": "view",
      "type": "function"
    },
    {
      "inputs": [
        {
          "internalType": "address",
          "name": "newOwner",
          "type": "address"
        }
      ],
      "name": "transferOwnership",
      "outputs": [],
      "stateMutability": "nonpayable",
      "type": "function"
    },
    {
      "inputs": [
        {
          "internalType": "bytes32",
          "name": "merkleRoot",
          "type": "bytes32"
        },
        {
          "internalType": "uint256",
          "name": "deadline",
          "type": "uint256"
        }
      ],
      "name": "wasAnchoredBefore",
      "outputs": [
        {
          "internalType": "bool",
          "name": "",
          "type": "bool"
        }
      ],
      "stateMutability": "view",
      "type": "function"
    }
  ],
  "bytecode": "0x608060405234801561000f575f80fd5b5060405161076238038061076283398101604081905261002e916100bb565b806001600160a01b03811661005c57604051631e4fbdf760e01b81525f600482015260240160405180910390fd5b6100658161006c565b50506100e8565b5f80546001600160a01b038381166001600160a01b0319831681178455604051919092169283917f8be0079c531659141344cd1fd0a4f28419497f9722a3daafe3b4186f6b6457e09190a35050565b5f602082840312156100cb575f80fd5b81516001600160a01b03811681146100e1575f80fd5b9392505050565b61066d806100f55f395ff3fe608060405234801561000f575f80fd5b506004361061009b575f3560e01c80638da5cb5b116100635780638da5cb5b146101345780638f5bae2e1461014e5780639ffb463514610161578063d470115314610173578063f2fde38b14610192575f80fd5b80630524b18f1461009f578063092c9776146100d6578063368b733e146100e95780634c7df18f14610117578063715018a61461012a575b5f80fd5b6100c16100ad3660046105bf565b60036020525f908152604090205460ff1681565b60405190151581526020015b60405180910390f35b6100c16100e43660046105d6565b6101a5565b6100fc6100f73660046105bf565b6101ff565b604080519384526020840192909252908201526060016100cd565b6100fc6101253660046105bf565b610230565b6101326102e6565b005b5f546040516001600160a01b0390911681526020016100cd565b61013261015c3660046105d6565b6102f9565b6001545b6040519081526020016100cd565b6101656101813660046105bf565b60026020525f908152604090205481565b6101326101a03660046105f6565b610507565b5f8281526003602052604081205460ff166101c157505f6101f9565b5f838152600260205260409020546001805484929081106101e4576101e4610623565b905f5260205f20906003020160020154111590505b92915050565b6001818154811061020e575f80fd5b5f91825260209091206003909102018054600182015460029092015490925083565b5f805f600180549050841061028c5760405162461bcd60e51b815260206004820152601960248201527f4272696572416e63686f723a206f7574206f662072616e67650000000000000060448201526064015b60405180910390fd5b5f600185815481106102a0576102a0610623565b5f91825260209182902060408051606081018252600393909302909101805480845260018201549484018590526002909101549290910182905297919650945092505050565b6102ee610544565b6102f75f610570565b565b610301610544565b8161034e5760405162461bcd60e51b815260206004820152601760248201527f4272696572416e63686f723a20656d70747920726f6f740000000000000000006044820152606401610283565b5f8281526003602052604090205460ff16156103ac5760405162461bcd60e51b815260206004820152601d60248201527f4272696572416e63686f723a20616c726561647920616e63686f7265640000006044820152606401610283565b5f81116103fb5760405162461bcd60e51b815260206004820152601860248201527f4272696572416e63686f723a207a65726f206c656176657300000000000000006044820152606401610283565b600180545f848152600260209081526040808320939093556003808252838320805460ff19168617905583516060810185528781529182018681524283860181815287548089018955979095529251959091027fb10e2d527612073b26eecdfd717e6a320cf44b4afac2b0732d9fcbe2b7fa0cf6810195909555517fb10e2d527612073b26eecdfd717e6a320cf44b4afac2b0732d9fcbe2b7fa0cf785015590517fb10e2d527612073b26eecdfd717e6a320cf44b4afac2b0732d9fcbe2b7fa0cf8909301929092555183917ffae1ebf57baec5ccdbe7e05f562a97eb84281ca2ab6dcd76cdd4770f11c882db916104fb91858252602082015260400190565b60405180910390a25050565b61050f610544565b6001600160a01b03811661053857604051631e4fbdf760e01b81525f6004820152602401610283565b61054181610570565b50565b5f546001600160a01b031633146102f75760405163118cdaa760e01b8152336004820152602401610283565b5f80546001600160a01b038381166001600160a01b0319831681178455604051919092169283917f8be0079c531659141344cd1fd0a4f28419497f9722a3daafe3b4186f6b6457e09190a35050565b5f602082840312156105cf575f80fd5b5035919050565b5f80604083850312156105e7575f80fd5b50508035926020909101359150565b5f60208284031215610606575f80fd5b81356001600160a01b038116811461061c575f80fd5b9392505050565b634e487b7160e01b5f52603260045260245ffdfea2646970667358221220123fecee6d0601d7e9215f630a427bb81696d956277592b756dc2b560f0ca65b64736f6c63430008180033",
  "linkReferences": {},
  "deployedLinkReferences": {}
}